:020000040800F2
:1000000028600020A1010008730200086B020008AC
:100010006F020008E90100087704000800000000F2
:10002000000000000000000000000000770200084F
:100030006902000800000000750200088D03000836
:10004000BB010008BB010008BB010008BB010008A0
:10005000BB010008BB010008BB010008BB01000890
:10006000BB010008BB010008BB010008BB01000880
:10007000BB010008BB010008BB010008BB01000870
:10008000BB010008BB010008BB010008BB01000860
:10009000BB010008BB010008BB010008BB01000850
:1000A000BB010008BB010008BB010008BB01000840
:1000B000BB010008BB010008BB010008BB01000830
:1000C000BB010008BB010008BB010008BB01000820
:1000D000BB010008BB010008F9030008BB010008D0
:1000E000BB010008BB010008BB010008BB01000800
:1000F000BB010008BB010008BB010008BB010008F0
:10010000BB010008BB010008BB010008BB010008DF
:10011000BB010008BB010008BB010008BB010008CF
:10012000ED010008BB01000811020008BB01000836
:10013000BB010008BB010008BB010008BB010008AF
:10014000BB010008BB010008BB010008BB0100089F
:10015000BB010008BB010008BB010008BB0100088F
:10016000BB010008BB010008BB010008BB0100087F
:10017000BB010008BB010008BB010008BB0100086F
:10018000BB010008BB010008DFF810D000F01AF82E
:100190000048004799040008AFF300802860002061
:1001A0000648804706480047FEE7FEE7FEE7FEE711
:1001B000FEE7FEE7FEE7FEE7FEE7FEE79103000845
:1001C00089010008064C074D06E0E06840F0010395
:1001D00094E8070098471034AC42F6D3FFF7D8FFF5
:1001E0009C040008BC04000800BFFEE710B50649E7
:1001F000064800F01FF84FF6FF700449091F086019
:10020000091F086010BD00003CF00010106402409F
:1002100010B50649064800F00DF84FF6FF70044986
:1002200034390860091F086010BD000000F03C1060
:10023000406402400246094B9A4201D2084801E05C
:100240000648103801F000531BB1064B0B40C36049
:1002500002E0044B0B4083607047000010640240D2
:10026000006002407D0F7D0F704700BFFEE700BFBA
:10027000FEE770477047704710B5044621460648B0
:1002800000F0F5F800BF8021034800F0DEF80349D4
:1002900009688842F7D010BD00440040B88241424E
:1002A0000CB50020019000903448006840F4803084
:1002B0003249086000BF3148006800F40030009007
:1002C0000198401C0190009818B90198B0F5A04F12
:1002D000F1D12A48006800F4003010B101200090EC
:1002E00001E0002000900098012846D123484030CA
:1002F000006840F080502149403108602048006883
:1003000040F440401E4908601C48083000681B4902
:10031000083108600846006840F40040086008465C
:10032000006840F4A05008601648091F0860081FC4
:10033000006840F08070091F086000BF0F48006827
:1003400000F000700028F9D040F205700E490860F6
:100350000A480830006820F00300084908310860A6
:100360000846006840F00200086000BF03480830FB
:10037000006800F00C000828F8D10CBD00380240DD
:100380000070004019544007003C024070470000D4
:1003900010B51548006840F4700013490860134810
:1003A000006840F001001149086000200F49083141
:1003B00008600E4800680E4908400C4908600D4866
:1003C000091D0860081F006820F48020091F0860CC
:1003D000002006490C310860FFF762FF4FF0006013
:1003E00001498039086010BD88ED00E00038024006
:1003F000FFFFF6FE1030002410B52021094800F060
:1004000024F801280DD1074800F02CF800B2064965
:1004100008800878FFF730FF40F22551014800F0CE
:1004200005F810BD004400402400002010B5002253
:10043000002340F66A14A14200D100BF0A12012431
:100440009440A3B2DC43048010BD02460020B1F505
:10045000007F00D100BF13880B400BB1012000E0EA
:100460000020704701468888C0F308007047C1F338
:1004700008028280704700BFFEE702E008C8121F32
:1004800008C1002AFAD170477047002001E001C17D
:10049000121F002AFBD1704700207047BC040008DF
:1004A00000000020280000007A040008E40400088E
:1004B00028000020006000008A04000801000000FD
:1004C0000A00000064000000E8030000102700009C
:1004D000A086010040420F008096980000E1F505DB
:0404E0000000000018
:04000005080001A14D
:00000001FF
