:020000040800F2
:10000000B0CC0020A1010008611E0008591E0008A4
:100010005D1E0008C91A00089B26000800000000A9
:10002000000000000000000000000000092000089F
:10003000E51B000800000000DD1E00082123000869
:10004000BB010008BB010008BB010008BB010008A0
:10005000BB010008BB010008E91B0008BB01000848
:10006000BB010008BB010008BB010008BB01000880
:10007000BB010008BB010008BB010008BB01000870
:10008000BB010008BB010008BB010008BB01000860
:10009000BB010008BB010008BB010008BB01000850
:1000A000BB010008BB010008BB010008BB01000840
:1000B0008D230008BB010008BB010008BB0100083C
:1000C000BB010008BB010008BB010008BB01000820
:1000D000BB010008BB01000891240008BB01000817
:1000E000BB010008BB010008BB010008BB01000800
:1000F000BB010008BB010008BB010008BB010008F0
:10010000BB010008BB010008BB010008BB010008DF
:10011000BB010008BB010008BB010008BB010008CF
:100120008D1B0008BB010008BB010008BB010008D3
:10013000BB010008BB010008BB010008BB010008AF
:10014000BB010008BB010008BB010008BB0100089F
:10015000BB010008BB010008BB010008BB0100088F
:10016000BB010008BB010008BB010008BB0100087F
:10017000BB010008BB010008BB010008BB0100086F
:10018000BB010008BB010008DFF810D001F02EFC15
:10019000004800472D300008AFF30080B0CC0020AD
:1001A0000648804706480047FEE7FEE7FEE7FEE711
:1001B000FEE7FEE7FEE7FEE7FEE7FEE72523000891
:1001C000890100082DE9F04F4FF0000C4FF00003BB
:1001D00001EB9C5EBEF90250BEF900400EF5806E48
:1001E000BEF90290BEF900800EF5806EBEF9027075
:1001F000BEF900600EF5806EBEF902B0BEF900A037
:100200000EF5806ED044D944A8EB4A0AA9EB4B0BFB
:100210004FEAA4044FEAA50504EBA60405EBA705E5
:10022000A4EB6606A5EB670704EBA80405EBA9059C
:10023000A4EB6808A5EB690906EBAB06A7EBAA07D8
:10024000A6EB6B0B07EB6A0A458020F8044B47804E
:1002500020F8046BA0F8029020F8048BA0F802A00C
:1002600020F804BB03F1010393FAA3FCB3F5807FEC
:10027000AED1A0EB82014FF0100312090FF234103F
:1002800000F1000006B403EB430C6144A2F5803298
:1002900002EB8332B1F90250B1F90040A1EB030146
:1002A000B0F902B0B0F900A000F10400A5EB040E13
:1002B0000EFB0BFC0AEB4B0E05FB0ACB04FB0ECA34
:1002C000B1F90250B1F90040A1EB0301B0F902907D
:1002D000B0F9008000F10400A5EB040E0EFB09FC50
:1002E00008EB490E05FB08C904FB0EC8B1F9025022
:1002F000B1F90040A1EB0301B0F90270B0F9006060
:1003000000F10400A5EB040E0EFB07FC06EB470E04
:1003100005FB06C704FB0EC6B1F90250B1F9004057
:1003200001F10001D044D944A8EB4A0AA9EB4B0BD8
:100330004FEAA4044FEAA50504EB264405EB274544
:10034000A4EBE636A5EBE73704EB284405EB29459B
:10035000A4EBE838A5EBE93906EB2B46A7EB2A47D7
:10036000A6EBEB3B07EBEA3A4D800C8019444F803B
:100370000E801944A1F80290A1F800801944A1F858
:1003800002A021F804BBB2F5803283DA03EB430C00
:100390006144A2F101025FEA024E18BFA0EB0C001B
:1003A0007FF476AF06BC4FEA830392087FF46AAF0E
:1003B000BDE8F08F00400000004000000040000059
:1003C0005DDD213BA3227E180000412D7EA5412D3D
:1003D0000000412D00C000405DDD82E75DDD213B76
:1003E0007EA5412D004000000040000000400000BC
:1003F000AA2A94126B39460649327C0CA8118E2326
:1004000049327C0CA3227E1821F77931AA2A941252
:10041000A8118E235DDD213BA3227E180000412D13
:1004200095C6B13F461A2B1E58EE3735BEB4C53EB1
:10043000A8118E235DDD213B63A97138DF089A285E
:10044000B7CDC53E7EA5412D0000412D00C0004026
:1004500063A92B1E21F77931BEB4C53EBEB47C0C16
:1004600058EE373561AC213B95C6BAF9BAE571381B
:100470003BA737355DDD82E75DDD213B7EA5412D64
:1004800021F766D756D53F3D3BA78E23A811C9CA91
:10049000B7CDC53E61AC7E18AA2AC1C295C6B13F90
:1004A000BEB47C0C00400000004000000040000092
:1004B0001E3BB504693E9201C83C2403EB35640938
:1004C000C83C24036B3946066C30060E1E3BB5044F
:1004D000EB356409AA2A94126B39460649327C0C22
:1004E000AE240917AF37D607882E8D0F7E1E5D1BF1
:1004F000EB356409AA2A941224188C1F1E34F10AC1
:10050000B3269015A8118E2349327C0CA3227E18A5
:10051000140B60276C30060E7E1E5D1B7104FB2AD7
:10052000882E8D0F461A2B1EC7FD5A2E9D2C121198
:10053000FE15E72021F77931AA2A9412A8118E23FB
:1005400087F05334B2281314480D202602EAE5360A
:10055000B3269015DF089A289CE32B39AE2409179F
:100560007104FB2A5DDD213BA3227E180000412D92
:100570004ED7C53C9320EF198FFB6C2F78D1153ED9
:100580007E1E5D1B21F77931E2CB0F3F641CC61C38
:10059000B8F2683395C6B13F461A2B1E58EE373570
:1005A00097C1FB3F24188C1F02EAE536F0BCEC3FF4
:1005B000FE15E720BAE57138A6B8853FD5133D2270
:1005C00082E1DB39BEB4C53EA8118E235DDD213B3F
:1005D00040B1AF3D790FDA244DD9423C2EAE423CBA
:1005E000480D202656D53F3D8EAB823A140B60272E
:1005F00078D1153E63A97138DF089A28B7CDC53E7A
:10060000B1A71236A906CE2915CA4F3F78A668337E
:100610007104FB2A95C6B13FBCA576303902212C66
:1006200038C3EC3F7EA5412D0000412D00C00040A5
:10063000BCA5CE29C7FD5A2EF0BCEC3F78A62026DB
:100640008FFB6C2F09BAB13FB1A73D2257F9763025
:100650004DB74F3F63A92B1E21F77931BEB4C53E7C
:100660008EABEF19ECF474325EB2153E2EAE9015DF
:10067000B8F268332DB03F3D40B1121187F05334CA
:100680002EAE423CBEB47C0C58EE373561AC213BFB
:10069000A6B8D6072BEC1236C8AADB39F0BC240367
:1006A00002EAE53663A9713897C16EFEDCE7B03720
:1006B00034A8E53695C6BAF9BAE571383BA737359F
:1006C000E2CB0FF59CE32B3978A6683378D173F031
:1006D00082E1DB39EDA579314ED7EDEB6DDF823A62
:1006E00099A56C2F5DDD82E75DDD213B7EA5412D67
:1006F0009CE33AE352DBB63B99A5FB2A02EA19DFF9
:100700004DD9423CEDA59A2887F026DB4ED7C53C53
:1007100078A6202621F766D756D53F3D3BA78E23E6
:10072000C7FDDFD363D3AF3D34A8E720710494D075
:1007300078D1153E63A92B1E140B8CCD94CF723E3D
:10074000C8AA5D1BA811C9CAB7CDC53E61AC7E1849
:10075000241850C8E2CB0F3F2EAE90157E1E25C642
:1007600015CA4F3F2DB09412AE244AC451C8853FDC
:100770005EB28D0FAA2AC1C295C6B13FBEB47C0C31
:100780006C308EC1E2C4D43F4DB76409EB35B1C0C3
:1007900038C3EC3F09BA46061E3B2CC097C1FB3F4D
:1007A000F0BC2403004000000040000000400000B6
:1007B000D03E2E019B3F6500363FC9009A3D5B024B
:1007C000363FC900693E92015F3C8803D03E2E014E
:1007D0009A3D5B021E3BB504693E9201C83C24036E
:1007E000D939E205023EF701F43BED038E380E07DE
:1007F0009A3D5B021E3BB5043F373908313DC002CC
:10080000463A7E05EB356409C83C24036B3946063D
:1008100092348E0A5F3C88038E380E073433B70B50
:10082000F43BED03AF37D607D231DF0C8A3B5104DE
:10083000CE369D086C30060E1E3BB504EB356409C0
:10084000022F2B0FB23A1A0505352B0A932D5010A3
:10085000463A7E051E34F10A212C7311D939E2057E
:100860003433B70BAA2A94126B39460649327C0CF2
:100870003129B413FD38AA065B31410DB327D214D8
:100880008E380E076C30060E3226EE151F387207B2
:100890007B2FCA0EAE240917AF37D607882E8D0FCF
:1008A000262321183F373908932D50109C213719E2
:1008B000CE369D089D2C12110E204B1A5D36010973
:1008C000A42BD3117E1E5D1BEB356409AA2A94125A
:1008D000EB1C6C1C7835C709AF295413561B791DC6
:1008E00005352B0AB2281314BE19841E92348E0AC1
:1008F000B327D21424188C1F1E34F10AB326901586
:1009000088169120A933540BB1254C16EA14932173
:100910003433B70BAE2409174A139222BF321A0C94
:10092000A923C417A8118E2349327C0CA3227E1858
:1009300005108824D231DF0C9C213719610E7E25E9
:100940005B31410D9320EF19BB0C7126E430A40DEF
:10095000891FA71A140B60276C30060E7E1E5D1BC4
:100960006D094C28F42F680E721D121CC40735291E
:100970007B2FCA0E641CC61C1B061A2A022F2B0FC3
:10098000561B791D7104FB2A882E8D0F461A2B1ECB
:10099000C702D82B0E2EEE0F3519DC1E1C01B22C0F
:1009A000932D501024188C1F72FF882D182DB11014
:1009B00011173A20C7FD5A2E9D2C1211FE15E72063
:1009C0001DFC282F212C7311EA14932173FAF22FA6
:1009D000A42BD311D5133D22CAF8B830282B3412DA
:1009E000BF12E72221F77931AA2A9412A8118E2387
:1009F00079F536322D2AF41291103524D2F3EF32E4
:100A0000AF295413790FDA242CF2A3333129B4130C
:100A1000610E7E2587F05334B2281314480D20262A
:100A2000E3EEFF34332873142E0CC12641EDA535B7
:100A3000B327D214140B6027A1EB483633273115A6
:100A4000FA09FE2702EAE536B3269015DF089A2850
:100A500065E87E373226EE15C4073529CBE6123815
:100A6000B1254C16A906CE2932E5A1382F25AB16A3
:100A70008D05652A9CE32B39AE2409177104FB2AE6
:100A800008E2B0392B24661755038F2B77E0303AF4
:100A9000A923C4173902212CE9DEAB3A26232118F9
:100AA0001C01B22C5DDD213BA3227E180000412DEC
:100AB000D5DB923B1F22DB18E4FECF2D4FDAFD3B46
:100AC0009C213719C7FD5A2ECDD8643C17219319A4
:100AD000ABFCE42E4ED7C53C9320EF198FFB6C2F57
:100AE000D3D5213D0E204B1A73FAF22F5CD4783DFA
:100AF000891FA71A57F97630E8D2C93D041F021B97
:100B00003CF8F93078D1153E7E1E5D1B21F7793116
:100B10000CD05C3EF81DB81B06F6F831A5CE9D3E04
:100B2000721D121CECF4743241CDD83EEB1C6C1CCF
:100B3000D2F3EF32E2CB0F3F641CC61CB8F268332D
:100B400088CA403FDD1B201D9FF1DF3332C96B3F58
:100B5000561B791D87F05334E1C7913FCE1AD31D40
:100B60006FEFC63495C6B13F461A2B1E58EE373587
:100B70004EC5CC3FBE19841E41EDA5350CC4E13FE6
:100B80003519DC1E2BEC1236CFC2F13FAD18341FE5
:100B900016EB7D3697C1FB3F24188C1F02EAE53621
:100BA00065C000409B17E31FEFE84B3738BFFF3F9E
:100BB00011173A20DCE7B03711BEF83F88169120B4
:100BC000CBE61238F0BCEC3FFE15E720BAE57138F1
:100BD000D4BBDB3F74153D21AAE4CF38BFBAC43F74
:100BE000EA1493219CE32B39AFB9A73F5F14E821A6
:100BF0008EE28439A6B8853FD5133D2282E1DB39E8
:100C0000A2B75D3F4A13922277E0303AA5B6303F53
:100C1000BF12E7226DDF823AAFB5FD3E34123B23AF
:100C200064DED33ABEB4C53EA8118E235DDD213B00
:100C3000D5B3883E1D11E22357DC6D3BF2B2453E31
:100C40009110352452DBB63B15B2FC3D05108824CB
:100C50004FDAFD3B40B1AF3D790FDA244DD9423C2C
:100C600071B05B3DED0E2C254DD8853CA9AF033D01
:100C7000610E7E254ED7C53CE8AEA53CD40DCF25F0
:100C800051D6033D2EAE423C480D202656D53F3D61
:100C90007BADDA3BBB0C71265CD4783DD0AC6D3BB0
:100CA0002E0CC12663D3AF3D2BACFA3AA10B112712
:100CB0006DD2E33D8EAB823A140B602778D1153E9E
:100CC000F8AA063A870AAF2785D0453E6AAA843932
:100CD000FA09FE2794CF723EE3A9FD386D094C282E
:100CE000A5CE9D3E63A97138DF089A28B7CDC53ED1
:100CF000EBA8E1375208E728CCCCEB3E7BA84B377A
:100D0000C4073529E2CB0F3F12A8B1363607812937
:100D1000FBCA303FB1A71236A906CE2915CA4F3FEC
:100D200057A76E351B061A2A32C96B3F05A7C63472
:100D30008D05652A51C8853FBBA61934FF04B02A2A
:100D400072C79C3F78A668337104FB2A95C6B13FF1
:100D50003EA6B232E303452BBAC5C43F0BA6F83119
:100D600055038F2BE2C4D43FE0A53931C702D82BFD
:100D70000CC4E13FBCA576303902212C38C3EC3FCE
:100D8000A1A5AF2FAA016A2C66C2F53F8DA5E42E5E
:100D90001C01B22C97C1FB3F81A5152E8E00FA2CA9
:100DA000CAC0FF3F7EA5412D0000412D00C000407C
:100DB00081A56A2C72FF882D38BFFF3F8DA58F2B30
:100DC000E4FECF2D73BEFB3FA1A5B02A56FE152E23
:100DD000B0BDF53FBCA5CE29C7FD5A2EF0BCEC3FF7
:100DE000E0A5E72839FD9F2E32BCE13F0BA6FE2788
:100DF000ABFCE42E77BBD43F3EA611271DFC282F69
:100E0000BFBAC43F78A620268FFB6C2F09BAB13F2A
:100E1000BBA62C2501FBAF2F56B99C3F05A7352457
:100E200073FAF22FA6B8853F57A73B23E5F9343074
:100E3000F8B76B3FB1A73D2257F976304DB74F3F1A
:100E400012A83D21CAF8B830A5B6303F7BA83A2099
:100E50003CF8F93000B60F3FEBA8341FAEF739313C
:100E60005EB5EB3E63A92B1E21F77931BEB4C53EBA
:100E7000E3A9201D93F6B93122B49D3E6AAA121C43
:100E800006F6F83188B3723EF8AA021B79F53632BD
:100E9000F2B2453E8EABEF19ECF474325EB2153E01
:100EA0002BACDB185FF4B232CDB1E33DD0ACC4174C
:100EB000D2F3EF3240B1AF3D7BADAB1645F32C33EF
:100EC000B5B0783D2EAE9015B8F268332DB03F3DE9
:100ED000E8AE73142CF2A333A9AF033DA9AF5413AA
:100EE0009FF1DF3328AFC53C71B0341213F11934D0
:100EF000A9AE853C40B1121187F053342EAE423C6E
:100F000015B2EE0FFBEF8D34B6ADFD3BF2B2CA0E5B
:100F10006FEFC63441ADB63BD5B3A40DE3EEFF345D
:100F2000D0AC6D3BBEB47C0C58EE373561AC213B88
:100F3000AFB5540BCCED6E35F6ABD33AA5B62B0A54
:100F400041EDA5358EAB823AA2B70109B6ECDC358E
:100F500029AB303AA6B8D6072BEC1236C8AADB3933
:100F6000AFB9AA06A1EB48366AAA8439BFBA7E0592
:100F700016EB7D360FAA2B39D4BB51048CEAB1365F
:100F8000B7A9CF38F0BC240302EAE53663A971386B
:100F900011BEF70178E9183712A9123838BFC90015
:100FA000EFE84B37C5A8B03765C09BFF65E87E37D3
:100FB0007BA84B3797C16EFEDCE7B03734A8E53627
:100FC000CFC240FD53E7E137F1A77D360CC413FCD7
:100FD000CBE61238B1A712364EC5E6FA42E64238E1
:100FE00074A7A53595C6BAF9BAE571383BA7373568
:100FF000E1C78EF832E5A13805A7C63432C963F7D8
:10100000AAE4CF38D3A6533488CA39F623E4FD388E
:10101000A4A6DF33E2CB0FF59CE32B3978A6683327
:1010200041CDE6F315E3583950A6EF32A5CEBFF215
:101030008EE284392CA674320CD098F108E2B039D3
:101040000BA6F83178D173F082E1DB39EDA5793167
:10105000E8D24FEFFCE0063AD3A5F9305CD42DEE90
:1010600077E0303ABCA57630D3D50CEDF2DF593AB3
:10107000A9A5F22F4ED7EDEB6DDF823A99A56C2F23
:10108000CDD8CFEAE9DEAB3A8DA5E42E4FDAB4E94C
:1010900064DED33A85A55A2ED5DB9AE8E1DDFA3A2B
:1010A0007FA5CF2D5DDD82E75DDD213B7EA5412D56
:1010B000E9DE6DE6DADC473B7FA5B22C77E059E547
:1010C00057DC6D3B85A5212C08E248E4D5DB923B3B
:1010D0008DA58F2B9CE33AE352DBB63B99A5FB2A07
:1010E00032E52DE2D1DADA3BA9A5652ACBE624E187
:1010F0004FDAFD3BBCA5CE2965E81DE0CED9203CEA
:10110000D3A5352902EA19DF4DD9423CEDA59A282D
:10111000A1EB18DECDD8643C0BA6FE2741ED19DD0E
:101120004DD8853C2CA66027E3EE1EDCCDD7A53C30
:1011300050A6C12687F026DB4ED7C53C78A62026D0
:101140002CF231DACFD6E43CA4A67E25D2F33FD9E7
:1011500051D6033DD3A6DA2479F551D8D3D5213D14
:1011600005A7352421F766D756D53F3D3BA78E23EB
:10117000CAF87FD6D8D45B3D74A7E72273FA9BD513
:101180005CD4783DB1A73D221DFCBBD4DFD3933D99
:10119000F1A79321C7FDDFD363D3AF3D34A8E72088
:1011A00072FF06D3E8D2C93D7BA83A201C0131D298
:1011B0006DD2E33DC5A88C1FC70261D1F2D1FC3DC1
:1011C00012A9DC1E710494D078D1153E63A92B1EA0
:1011D0001B06CCCFFED02D3EB7A9791DC40707CF83
:1011E00085D0453E0FAAC61C6D0947CE0CD05C3E8B
:1011F0006AAA121C140B8CCD94CF723EC8AA5D1B38
:10120000BB0CD4CC1CCF883E29ABA71A610E21CCD5
:10121000A5CE9D3E8EABEF19051073CB2ECEB13E01
:10122000F6AB3719A811C9CAB7CDC53E61AC7E1857
:101230004A1324CA41CDD83ED0ACC417EA1483C99E
:10124000CCCCEB3E41AD09178816E8C857CCFD3E23
:10125000B6AD4C16241850C8E2CB0F3F2EAE9015F9
:10126000BE19BEC76ECB203FA9AED214561B31C7E4
:10127000FBCA303F28AF1314EB1CA8C688CA403FF6
:10128000A9AF54137E1E25C615CA4F3F2DB0941228
:101290000E20A7C5A3C95D3FB5B0D3119C212DC5B4
:1012A00032C96B3F40B112112623B9C4C1C8783F7F
:1012B000CDB15010AE244AC451C8853F5EB28D0FE7
:1012C0003226E0C3E1C7913FF2B2CA0EB3277BC317
:1012D00072C79C3F88B3060E31291CC303C7A73FC2
:1012E00022B4410DAA2AC1C295C6B13FBEB47C0C3E
:1012F000212C6DC227C6BB3F5EB5B70B932D1DC217
:10130000BAC5C43F00B6F10A022FD3C14EC5CC3FC7
:10131000A5B62B0A6C308EC1E2C4D43F4DB7640928
:10132000D2314FC176C4DB3FF8B79D08343315C1C5
:101330000CC4E13FA6B8D6079234E0C0A1C3E73F92
:1013400056B90E07EB35B1C038C3EC3F09BA4606B3
:101350003F3788C0CFC2F13FBFBA7E058E3864C028
:1013600066C2F53F77BBB504D93945C0FEC1F83F29
:1013700032BCED031E3B2CC097C1FB3FF0BC2403E5
:101380005F3C19C030C1FD3FB0BD5B029A3D0BC050
:10139000CAC0FF3F73BE9201D03E03C065C000408B
:1013A00038BFC9002DE9FE4F81EA030404F0004470
:1013B00021F0004100944FF0000B23F0004350EA6D
:1013C00001045ED052EA03045BD0C3F30A54C1F3B4
:1013D0000A552C44A4F2F3340194A0FB0254C1F347
:1013E000130141F48011C3F3130343F4801301FB91
:1013F000024400FB034E840A970A44EA815447EAF8
:101400008357A4FB076802958D0A05FB07854FEA01
:10141000932C04FB0C542705029D4FEA065847EA1B
:101420001637B5EB08056EEB070C870E920E47EAF0
:10143000811742EA8312A7FB0201B6EB0B0164EBB2
:1014400000042B0D43EA0C335E1844EB1C50DA46C3
:101450005146E7FB0201C5F313044FEA0B3343EA9D
:1014600014534FEA0432019C43EA0603A4F10C042E
:101470000294009CCDE900B400F042F903B0BDE84D
:10148000F08F00200146F9E72DE9F04D81EA0304D1
:1014900004F0004B21F0004514464FF0000A23F001
:1014A000004150EA050220D054EA01021DD0C5F3E4
:1014B0000A570246C5F31303C1F31300C1F30A56DA
:1014C00040F4801543F48013A7EB0608101BD646A2
:1014D00008F2FD3873EB050002D308F1010801E0C2
:1014E00092185B41B8F1000F03DA00200146BDE815
:1014F000F08D00204FF48011064684460EE0171B45
:1015000073EB050705D3121B63EB050306434CEA97
:10151000010C49084FEA300092185B4150EA01077C
:10152000EDD152EA030012D082EA040083EA0501F9
:10153000084305D0101BAB4106D20122002306E070
:1015400000224FF0004302E06FF0010253101AEB4B
:1015500006004CEB085110EB0A0041EB0B01BDE813
:10156000F04D00F0BEB80EB5C10F80EAE07008443F
:10157000CA07002140F233438DE80E000A460B46AD
:1015800000F0BEF803B000BD00F0004230F00040B3
:101590000AD0C10D01F56071C0F3160042EA015195
:1015A000C20840071143704700200146704701F010
:1015B000004330B421F0004150EA010206D00A0D88
:1015C000A2F56072C1F31301002A02DC30BC0020D6
:1015D0007047440F44EAC104C100E01830BC00EB7E
:1015E000C25000F047B830B50B460146002020221B
:1015F000012409E021FA02F59D4205D303FA02F520
:10160000491B04FA02F52844151EA2F10102F1DC7F
:1016100030BD2DE9F05F0546002092469B46884686
:101620000646814640241BE028464146474622465E
:1016300000F0FDF953465A46C01A914110D31146A5
:101640001846224600F0E4F92D1A67EB01084F46D0
:1016500022460120002100F0DBF917EB00094E4182
:10166000201EA4F10104DFDC484631462A464346E9
:10167000BDE8F09F0029A8BF7047401C490008BF83
:1016800020F00100704710B4B0FA80FC00FA0CF0B2
:1016900050EA010404BF10BC704749B1CCF12004EA
:1016A00021FA04F411FA0CF118BF01212143084377
:1016B000A3EB0C01CB1D4FEA00614FEA102042BFA3
:1016C000002010BC704700EBC35010440029A4BF99
:1016D00010BC7047401C490008BF20F0010010BC3E
:1016E000704710B5141E73F1000408DA401C41F174
:1016F000000192185B411A4301D120F0010010BD96
:101700002DE9F04D92469B4611B1B1FA81F202E00B
:10171000B0FA80F22032904600F07AF904460F4683
:1017200040EA0A0041EA0B0153465A46084313D0E7
:10173000114653EA010019D0C8F14002504600F0AA
:1017400076F905460E4650465946424600F060F985
:10175000084305D0012004E020463946BDE8F08D5D
:101760000020054346EAE0762C4337430A98630598
:10177000E40AA0EB08000022FD0A44EA47540A30BC
:1017800002D500200146E9E7010510196941DDE9AC
:10179000084500196941BDE8F04DA2E72DE9FE4F6B
:1017A000804681EA0300C00F0C46009021F0004102
:1017B00023F00045B8EB0200A94105D2404621467E
:1017C00090461C460B46024623F00040104347D08B
:1017D000270DC7F30A00C3F30A510290401A019083
:1017E00040286BDAC3F3130040F4801B0098924644
:1017F00020B10023D2EB030A63EB0B0B019859468F
:10180000C0F14002504600F003F906460D4650462E
:101810005946019A00F01BF910EB080061410024C1
:1018200087EA115284EAE7731A4340D0009A62B300
:10183000019A012A4FEA075215DC001B61EB0201F5
:101840004FF0004202EA0752CDE90042001C41F588
:10185000801132462B46FFF753FF03B0BDE8F08FEF
:1018600040462146F9E7001B61EB0201001C41F5EF
:10187000801300185B412018A2F5001747EB030105
:1018800040EAD570B6196D4111E06D084FEA360691
:1018900045EAC0754FEA0752001B61EB0201001CCC
:1018A00041F5801149084FEA300000195141324694
:1018B0002B4603B0BDE8F04FFFF713BF009801229D
:1018C00040000023D0EB020263EBE0730098214656
:1018D0004FEAE074B8EB000061EB0401E9E783F044
:1018E00000435BE781F0004158E72DE9F04D00230C
:1018F0001A461B1A8A4103DB00200146BDE8F08D21
:10190000C1F30A52C1F3130141F480154FF0000BEB
:10191000D10702D100186D41521E0027044640F243
:10192000FF11384601EB620A3E468046024600201F
:101930004FF4801100F07BF8C2197141BB1846EBDF
:101940000100B4EB030C75EB000C04D3E41A65EB57
:10195000000517460E46241908F101006D41804626
:101960003428E3DDF91946EB0600091BA84103D230
:101970004FF0FF32134601E0002213461BEB070035
:1019800046EB0A51BDE8F04DFFF7ABBEC1F30A527A
:10199000C1F3130140F2FF3341F480119A4202DA9D
:1019A00000200146704740F233439A42A2F233428C
:1019B00002DC524200F03BB800F02AB830B5041EF9
:1019C00071F1000404DB4FF00044404264EB01017C
:1019D000141E73F1000405DB1C464FF00043524215
:1019E00063EB0403994208BF904230BD064C074D9B
:1019F00006E0E06840F0010394E8070098471034DF
:101A0000AC42F6D3FEF7C4FB90300008B0300008BB
:101A1000202A04DB203A00FA02F1002070479140AE
:101A2000C2F1200320FA03F3194390407047202AA3
:101A300004DB203A21FA02F00021704721FA02F378
:101A4000D040C2F120029140084319467047202A35
:101A500006DBCB17203A41FA02F043EAE07306E0D6
:101A600041FA02F3D040C2F12002914008431946E6
:101A7000704770B58C1810F8015B15F0070301D1A1
:101A800010F8013B2A1106D110F8012B03E010F8E1
:101A9000016B01F8016B5B1EF9D12B0705D4002304
:101AA000521E0DD401F8013BFAE710F8013BCB1AA6
:101AB000921C03E013F8015B01F8015B521EF9D59B
:101AC000A142D8D3002070BD00BFFEE710B50020B2
:101AD00009E00A4931F81010A1F500610904084A2B
:101AE00042F82010401CB0F5806FF2DB4FF48062AA
:101AF00003490448FEF766FB10BD000038000020D3
:101B0000480800204818002070B52DED068B0446CB
:101B1000002500F0D3FB012008E0194951F82010FE
:101B2000174A52F8202001FB0255401CA042F4DB6A
:101B300013490868FFF717FD41EC1A0B9FED110BD5
:101B400053EC102BFFF72EFC41EC180B2846FFF747
:101B50000AFD41EC1A0BB0EE4A0AF0EE6A0A00F0F8
:101B6000B1FDB0EE409AF0EE609A53EC182B51ECB8
:101B7000190BFFF789FC41EC100BBDEC068B70BD17
:101B800048200020000000000000F03F10B506498A
:101B9000064800F00DF84FF6FF700449091F086071
:101BA000091F086010BD00003CF0001010640240E6
:101BB0000246094B9A4201D2084801E00648103813
:101BC00001F000531BB1064B0B40C36002E0044B15
:101BD0000B408360704700001064024000600240C8
:101BE0007D0F7D0F7047000010B5012000F014F844
:101BF00040B10548007810B9012003490870012060
:101C000000F004F810BD00003C0800200149086005
:101C100070470000143C014001460020034A12684E
:101C20000A400AB1012000E000207047143C014046
:101C3000F0B50A4600210023002400BF3DE0012545
:101C400005FA01F3156805EA03049C4234D10568DE
:101C50004F000326BE40B543056015794E00B540E0
:101C60000668354305601579012D02D01579022DDE
:101C700016D185684F000326BE40B543856055796F
:101C80004E00B540866835438560456801268E4024
:101C9000B5434560456896798E40B6B23543456098
:101CA000C5684F000326BE40B543C560D5794E00D8
:101CB000B540C6683543C560491C1029BFD3F0BD87
:101CC000F0B5002300244D07ED0E02FA05F3CE1007
:101CD00000F1200555F826504E07F70E0F26BE409E
:101CE000B543CF1000F1200646F82750CE1000F182
:101CF000200555F8265045EA0304CE1000F12005D2
:101D000045F82640F0BD000010B50146012912D16A
:101D10000022002300BF09E0104C54F820409442F8
:101D200003DD0E4C54F8202083B2401CB0F5007F38
:101D3000F2DB184610BD00220023002009E0074C0A
:101D400054F82040944203DD044C54F8202083B220
:101D5000401CB0F5007FF2DB1846EBE7482000207E
:101D600070B52DED0A8B00245FE0334820F8144055
:101D7000324830F8240005B2304850F824000614E8
:101D800000EE105AB8EEC00ADFED2D0A20EE200A50
:101D9000DFED2C0A80EE209A00EE106AB8EEC00A41
:101DA000DFED270A20EE200ADFED260AC0EE208AAA
:101DB00029EE090A08EEA80A10EE101A0846FFF7E5
:101DC000E3FB41EC1C0BB0EE4C0AF0EE6C0A00F0A9
:101DD00079FCB0EE40BAF0EE60BA9FED1B0B53EC0D
:101DE000102B51EC1B0BFFF74FFB41EC1A0BFFF7CD
:101DF000DEFB08EE100A5CB99FED120A28EE000A1D
:101E0000BCEEC00A10EE100A114941F824000AE0A5
:101E10009FED100A28EE000ABCEEC00A10EE100A70
:101E20000B4941F82400601C84B2B4F5007F9CDBB0
:101E3000BDEC0A8B70BD0000482800204818002027
:101E400000008044000000470000000000009040B7
:101E5000482000200000804700BFFEE700BFFEE7EB
:101E60007047000070B5002100230F22C4781CB316
:101E7000174C246804F4E064C4F5E064C4F307215B
:101E8000C1F10404E3B20A4144789C40E1B2847891
:101E9000144021430C07210E0E4C0578615504783F
:101EA00004F01F050124AC4005786D11AD0005F16B
:101EB000E025C5F8004109E0047804F01F0501247D
:101EC000AC40054D0678761145F8264070BD0000FF
:101ED0000CED00E000E400E080E100E0704700006D
:101EE00029B1064A12680243044B1A6004E0034A0F
:101EF00012688243014B1A6070470000303802407C
:101F000029B1064A12680243044B1A6004E0034AEE
:101F100012688243014B1A6070470000403802404B
:101F2000F0B5002100220024022500260223324FB2
:101F30003F6807F00C0121B1042905D0082937D1E9
:101F400005E02E4F076036E02D4F076033E02A4F43
:101F50003F1F3F68C7F38056274F3F1F3F6807F07A
:101F60003F036EB1264FB7FBF3F7DFF88CC0ACF13F
:101F7000040CDCF800C0CCF3881C07FB0CF40CE06C
:101F80001E4FB7FBF3F7DFF870C0ACF1040CDCF8C0
:101F900000C0CCF3881C07FB0CF4174F3F1F3F68B1
:101FA000C7F301477F1C7D00B4FBF5F7076002E033
:101FB000124F076000BF00BF0F4F3F6807F0F001EE
:101FC0000909104F7A5C0768D74047600A4F3F689D
:101FD00007F4E051890A0B4F7A5C4768D740876065
:101FE000054F3F6807F46041490B064F7A5C47682C
:101FF000D740C760F0BD0000083802400024F4005C
:1020000040787D01000000207047000000B58FB0CF
:1020100001210846FFF764FF072202215148FFF71C
:102020004FFE072203214F48FFF74AFE02208DF89A
:10203000380000208DF83A0004200D9001208DF822
:102040003B0002208DF839000DA94648FFF7F0FD4E
:1020500002208DF8380008200D900DA94148FFF7A7
:10206000E7FD01214804FFF74BFF4FF4E1300990F1
:102070000020ADF830000C20ADF82E000020ADF8A7
:102080002C00ADF82A00ADF8280009A9364800F068
:1020900091FA012240F22551334800F065FA2620DA
:1020A0008DF8200001208DF823008DF821008DF897
:1020B000220008A8FFF7D6FE01212B4800F03BFACA
:1020C00001218804FFF71CFF01210220FFF718FF00
:1020D0004FF48060059002208DF819008DF81800EB
:1020E00005A92248FFF7A4FD4FF4006005900220E7
:1020F0008DF8180005A91D48FFF79AFD4FF4E1304F
:1021000001900020ADF80800ADF80A00ADF80C0011
:10211000ADF810000C20ADF80E0001A9144800F035
:1021200049FA012240F22551114800F01DFA01221E
:1021300040F224410E4800F017FA01210C4800F04B
:10214000FAF927208DF81C0006208DF81D000020CC
:102150008DF81E0001208DF81F0007A8FFF782FEF2
:102160000FB000BD000002400044004000040240E7
:10217000004800400FB400B59BB01DA8019002A814
:10218000019A1C9900F08CFA0020019002A800F03E
:1021900013F81BB05DF814FB10B504462146054842
:1021A00000F077FA00BF8021024800F0D0F9002843
:1021B000F9D010BD0044004070B50446002503E08E
:1021C000605DFFF7E9FF6D1C605D0028F8D170BD10
:1021D0000CB50020019000903448006840F4803035
:1021E0003249086000BF3148006800F400300090B8
:1021F0000198401C0190009818B90198B0F5A04FC3
:10220000F1D12A48006800F4003010B1012000909C
:1022100001E0002000900098012846D1234840307A
:10222000006840F080502149403108602048006833
:1022300040F440401E4908601C48083000681B49B3
:10224000083108600846006840F40040086008460D
:10225000006840F4A05008601648091F0860081F75
:10226000006840F08070091F086000BF0F480068D8
:1022700000F000700028F9D040F205700E490860A7
:102280000A480830006820F0030008490831086057
:102290000846006840F00200086000BF03480830AC
:1022A000006800F00C000828F8D10CBD003802408E
:1022B0000070004019544007003C024030B5002433
:1022C00023E0651C1DE0134850F82400114951F823
:1022D0002510884214DA0F4A02EB850102EB8400D4
:1022E00000F011FB0C4A02EBC50102EBC40000F048
:1022F000FDFA0A4A02EB450102EB440000F008FB3C
:102300006D1CB5F5007FDEDB641CB4F5007FD8DB07
:1023100030BD000048200020482C00204828002024
:102320007047000010B51548006840F4700013496C
:1023300008601348006840F001001149086000205F
:102340000F49083108600E4800680E4908400C49E2
:1023500008600D48091D0860081F006820F48020EF
:10236000091F0860002006490C310860FFF730FFA4
:102370004FF0006001498039086010BD88ED00E031
:1023800000380240FFFFF6FE1030002410B5012196
:10239000880700F06CF800284DD00121880700F074
:1023A00057F826480078022808DA24480078401CAC
:1023B000224908700020224908603CE0214800784A
:1023C00064282EDA20481F490978405C50B9012062
:1023D000810748620021800700F03DF8012018497C
:1023E000086010BD184817490978405C17490A78F9
:1023F00001219140084015490978084110490860B9
:1024000012480078401C11490870084600780828D6
:1024100011DB002008700B480078401C0949087047
:1024200009E00120810748620021800700F013F8CD
:1024300001200349086000BFD3E700003A080020EC
:102440009402424238080020483C0020390800200D
:10245000CA430282704721B1028842F00102028021
:1024600004E002884FF6FE731A400280704730B5D0
:102470000246002000230024158A05EA01039589FD
:1024800005EA010413B10CB1012000E0002030BDC9
:1024900010B52021184800F05AF801282AD140F23E
:1024A0002551154800F038F8134800F0EDF800B257
:1024B00012490880084600781149124A1278885457
:1024C00010480078401C0F4908700C48B0F9000013
:1024D000FF280FD100210B480078401E084A1154F4
:1024E000114609A0FFF746FE0020064908700120AA
:1024F0000849087010BD000000440040360000206C
:10250000483C00203400002053656E643A25730D6A
:102510000A0000003B08002010B50022002340F60E
:102520006A14A14200D100BF0A1201249440A3B250
:10253000DC43048010BD21B1828942F400528281C3
:1025400004E082894DF6FF731A408281704702468B
:102550000020B1F5007F00D100BF13880B400BB104
:10256000012000E000207047F0B50346002400265B
:102570000025002040F66A17B94200D100BF184676
:10258000C1F3421401F01F06012707FA06F5012CDA
:1025900001D10C3004E0022C01D1103000E01430E5
:1025A0001AB107682F43076002E00768AF4307606E
:1025B000F0BD00002DE9FF4705460E460024A14668
:1025C00000BFA046B08900B100BF2C8A24F440545B
:1025D000F08804432C82AC8941F20C608443B088BB
:1025E00031890843718908430443AC81AC8A24F4DF
:1025F0004074B0890443AC826846FFF791FC2048E0
:10260000854202D01F48854202D1DDF80C9001E0DE
:10261000DDF80890A88900F4004040B109EBC9003A
:1026200000EB091031684900B0FBF1F707E009EB56
:10263000C90000EB091031688900B0FBF1F7642094
:10264000B7FBF0F004012009642101FB1078A88990
:1026500000F4004040B1322000EBC800B0FBF1F0C4
:1026600000F00700044308E0322000EB081064216A
:10267000B0FBF1F000F00F0004432C81BDE8FF87B0
:10268000001001400014014001468888C0F3080092
:102690007047C1F308028280704700BFFEE7000068
:1026A00037B514460846064B6A46214600F036F90F
:1026B00004466946002000F0B4FC20463EBD000000
:1026C0002330000800B52DED048BB0EE409AF0EEFB
:1026D000609A83B051EC190BFFF707F941EC180B26
:1026E00018EE100A18EE901A8DED008B002818BF16
:1026F0000120084320F00040C0F17F6000F1E0407D
:10270000C00F14D019EE101A19EE900A8DED009B2F
:10271000002918BF0121084320F00040C0F17F606C
:1027200000F1E040C00F04BF012000F017F8B0EE48
:10273000480A03B0F0EE680ABDEC048B00BD02E06D
:1027400008C8121F08C1002AFAD17047704700203C
:1027500001E001C1121F002AFBD170470149086046
:1027600070470000440800202DE9FF5F82B000217F
:10277000DDE90430020DDDF840B0034318D044F623
:102780001050A2F2FF3242431514119801281FD0B5
:10279000A5EB0B00401C5FEA000A4FF000064E4F0D
:1027A000DFF83891B046504615D5CAF1000413E061
:1027B000119801244AA3012801D16FEA0B01029864
:1027C000119AC0E90031C0E9024206B0BDE8F09FAD
:1027D000CBF10000DFE704460021404A491842EBF4
:1027E0000450CDE9001012E0E00707D032463B4626
:1027F00040464946FEF7D6FD8046894632463B466E
:1028000010461946FEF7CEFD06460F466410002C12
:10281000EAD1DDE90401DDE90023BAF1000F06DAAF
:10282000FEF7C0FD42464B46FEF7BCFD05E0FEF755
:102830002BFE42464B46FEF727FE04460E4600227C
:10284000284BFFF7BBF803D84FF0FF30014607E0F5
:102850000022254B20463146FEF7A0FFFFF796F8F1
:10286000102409E0002C0ADB0A220023FEF7D1FE27
:10287000039B30321A55641E50EA0102F2D1641CE7
:10288000039AC4F111031444119A012A03D00122BE
:1028900008430DD10AE0084304D000204FF0110B8B
:1028A000119072E7A3EB0B056D1E0DE05B4504DD97
:1028B0004FF0000205F1010504E003DA4FF00002D9
:1028C000A5F10105002AECD002981199C0E9023166
:1028D000C0E9004579E70000000014400000F03F27
:1028E000300000000000F0430000E03F90ED001BCE
:1028F000B0EE410AF0EE610A91ED001B80ED001B85
:1029000081ED000B704702680B6803600A60704736
:1029100002880B8803800A80704700002DE9FF4F72
:1029200095B09A46884606460025EEE1252877D1DF
:1029300000242746F94A0121039400E0044316F8D5
:10294000013F203B01FA03F01042F7D130782A28EA
:1029500011D06FF02F033078A0F13002092A16D879
:10296000039A44F0020402EB820203EB4202104499
:10297000761C0390EFE758F8042B0392002A03DA41
:10298000504244F40054039044F00204761C307822
:102990002E2816D116F8010F44F004042A280DD071
:1029A0006FF02F023078A0F13003092B09D807EB24
:1029B000870302EB4303C718761CF3E758F8047B40
:1029C000761C30786C280FD006DC4C2817D068288D
:1029D0000DD06A2814D104E0742810D07A280FD1C1
:1029E0000DE044F400140AE044F4801401E044F4DF
:1029F00040147278824202D104F58014761C761C51
:102A0000307866280BD013DC582877D009DC0028F2
:102A100075D04528F6D04628F4D047281AD193E13E
:102A200018E0632835D0642879D0652812D18BE16D
:102A3000702873D008DC6728F1D069286FD06E2821
:102A40000DD06F2806D1ACE073282CD0752874D037
:102A5000782853D05246179990476D1C54E1C4F31F
:102A60000250022809D003280DD0D8F800100428FD
:102A70000DD00D6008F1040846E1D8F80010EA17FF
:102A8000C1E90052F6E7D8F800100D80F2E70D70AA
:102A9000F0E718F8041B8DF8001000208DF80100F5
:102AA000EB46012003E058F804BB4FF0FF3061070C
:102AB0004FF0000102D40DE009F101018946B9424D
:102AC0000FDA8145F8DB1BF809100029F4D108E082
:102AD00009F1010189468142FADB1BF8091000293E
:102AE000F6D103985346A0EB090721463846179ABA
:102AF00000F080FA284400EB090507E044E008E113
:102B00000DE01BF8010B524617999047B9F10109E6
:102B1000F7D2534621463846179AF2E039E00A21A7
:102B2000C4F302524FF0000B0091022A06D058F86D
:102B3000040BC117032A09D00AE023E008F10700BB
:102B400020F00702F2E80201904605E000B2C1174A
:102B5000042A01D140B2C117002906DA0A46002131
:102B6000404261EB02012D2202E0220504D52B2216
:102B70008DF80420012203E0E20701D02022F7E7CC
:102B8000914657E00A2100E010214FF0000B009120
:102B90000BE010214FF0000B44F0040408270091D3
:102BA00003E008204FF0000B0090C4F30252022A09
:102BB00005D058F8040B0021032A08D008E008F1DA
:102BC000070020F00702F2E80201904603E080B21D
:102BD000042A00D1C0B24FF0000922072AD532786A
:102BE000702A07D0DDF800C08CF0100C5CEA0B0CEA
:102BF00005D00EE040228DF80420012208E050EAC2
:102C0000010306D030238DF804308DF80520022210
:102C10009146009B83F0080353EA0B030AD150EA64
:102C2000010201D1620705D530228DF804204FF052
:102C300001097F1E3278582A04D039A20C920CAABE
:102C400002920BE03BA2F9E75B46009AFEF7E1FC3B
:102C50000C9B9B5C029A521E0292137050EA010276
:102C6000F2D1029804A9081A00F1200B600702D5DE
:102C700024F4803400E001275F4502DDA7EB0B0060
:102C800000E0002000EB0B01009003984944401A3B
:102C90000390E00306D453462146179A039800F0A8
:102CA000A9F90544002706E001A85246C05D17991E
:102CB00090476D1C7F1C4F45F6DBE0030CD5534657
:102CC0002146179A039800F095F9054404E0302056
:102CD0005246179990476D1C0099481E0090002994
:102CE000F5DC08E00298029952460078491C0291EE
:102CF000179990476D1CBBF10001ABF1010BF1DCA2
:102D00005BE100F065F90544761C307800287FF41B
:102D10000DAE19B02846BDE8F08F0000092801006B
:102D20003031323334353637383961626364656641
:102D30000000000030313233343536373839414203
:102D40004344454600000000600700D4062708F110
:102D5000070020F00700F0E80223804603F0004C53
:102D60005FEA0C0001D097A009E0200501D596A0EC
:102D700005E0E00701D095A001E0AFF24C00139010
:102D8000307823F0004365280CD006DC452809D0B4
:102D900046281DD047287FD13BE0662818D06728F9
:102DA0007AD136E00021112F01DB112000E0781CE0
:102DB000CDE9000104A90CA8FFF7D6FCDDE90D015F
:102DC0000C9A4FF0000B07F10109109200914EE0B0
:102DD0004FF000400097CDE9011004A90CA8FFF7BF
:102DE000C3FCDDE90D020C9B0F994FF0000B9146DF
:102DF0001093009211B9791C00EB0109B7EB09009F
:102E000003D4C0F1FF3B07F10109A9EB07000190D2
:102E100042E0012F00DA01270021112F01DD1120EE
:102E200000E03846CDE9000104A90CA8FFF79CFC9E
:102E3000DDE90D010C9A00914FF0000BB94610929C
:102E400021070FD4009A4A4503DA914601E0A9F11F
:102E50000109B9F1010F05DD109AA9F10101515CD9
:102E60003029F4D0B84202DA10F1040F03DA01215C
:102E7000CDE9011010E0002803DC8344A9EB000138
:102E800002E0411C494500DD8946A0EB0B00401CD7
:102E900001904FF000400290200705D4019848456A
:102EA00002DB4FF0FF30019000208DF84B000298BC
:102EB0000DF14B07B0F1004F25D002200C902B20D4
:102EC0000D90029800280CDA404202902D200D90BF
:102ED00007E00A210298FEF786FB3031029007F8DE
:102EE000011D0C99481E0C900029F2DC0298002864
:102EF000EFD1791E0D980870307800F0200040F076
:102F0000450007F8020D11A8C01BC01D02901398C0
:102F1000007800B1012000EB0901019801EBE0719C
:102F2000029801440398401A401E0390E00306D41F
:102F300053462146179A039800F05CF8054413980D
:102F4000007818B15246179990476D1CE00323D5BD
:102F500053462146179A039800F04CF805441BE0AD
:102F6000BBF1000F07DB0098584504DD1098179956
:102F700010F80B0001E01799302052469047019855
:102F80000BF1010B401E05F10105019004D12E202B
:102F90005246179990476D1CB9F10001A9F101093A
:102FA000DEDC05E017F8010B5246179990476D1CBF
:102FB0000299481E02900029F4DC53462146179AD4
:102FC00003989EE62D0000002B000000200000006A
:102FD0002DE9F041044600251E461746880404D416
:102FE00005E039462020B0476D1C641EF9D52846FF
:102FF000BDE8F0812DE9F041044600251E469046CB
:10300000C80301D5302700E02027880404D505E057
:1030100041463846B0476D1C641EF9D52846BDE8C8
:10302000F0810A68531C0B60107070472DED028B05
:10303000FEF7ECFF0EA0FFF79DF800BFFEF746FD80
:10304000FEF78EFE0020FEF75FFE044621460AA032
:10305000FFF790F80A20FEF757FDB0EE408AF0EE39
:10306000608A53EC182B07A0FFF784F800BFFEE737
:103070004F4B210D0A0000004D61783A25640D0A7E
:10308000000000005448443A256C660D0A00000018
:10309000B03000080000002048080000721A000844
:1030A000FC3000084808002068C400004E270008D3
:1030B000412D0102030404360607080901320A32D1
:1030C0006423E80323102714A086011440420F2430
:1030D00080969854E1F5051508B40C640DFD9C0F1D
:1030E0004C030A09FD0A09FD0A09FD0A09FD0A093E
:0C30F000FD0A09FD0A09FB0A81720100BB
:04000005080001A14D
:00000001FF
