:020000040800F2
:10000000A0820020A10100089B0F0008930F0008A8
:10001000970F0008270A00087B190008000000005D
:100020000000000000000000000000008111000836
:10003000890C000800000000151000087514000865
:10004000BB010008BB010008BB010008BB010008A0
:10005000BB010008BB010008810D0008BB010008BE
:10006000BB010008BB010008BB010008BB01000880
:10007000BB010008BB010008BB010008BB01000870
:10008000BB010008BB010008BB010008BB01000860
:10009000BB010008BB010008BB010008BB01000850
:1000A000BB010008BB010008BB010008BB01000840
:1000B000E1140008BB010008BB010008BB010008F7
:1000C000BB010008BB010008BB010008BB01000820
:1000D000BB010008BB0100085D170008E517000818
:1000E000BB010008BB010008BB010008BB01000800
:1000F000BB010008BB010008BB010008BB010008F0
:10010000BB010008BB010008BB010008BB010008DF
:10011000BB010008BB010008BB010008BB010008CF
:100120002D0A0008BB010008BB010008BB01000844
:10013000BB010008BB010008BB010008BB010008AF
:10014000BB010008BB010008BB010008BB0100089F
:10015000BB010008BB010008BB010008BB0100088F
:10016000BB010008BB010008BB010008BB0100087F
:10017000BB010008BB010008BB010008BB0100086F
:10018000BB010008BB010008DFF810D000F01AFA2C
:10019000004800472D230008AFF30080A082002014
:1001A0000648804706480047FEE7FEE7FEE7FEE711
:1001B000FEE7FEE7FEE7FEE7FEE7FEE7791400084C
:1001C0008901000830B50B46014600202022012499
:1001D00009E021FA02F59D4205D303FA02F5491B15
:1001E00004FA02F52844151EA2F10102F1DC30BD2B
:1001F0002DE9F05F0546002092469B46884606465C
:10020000814640241BE0284641464746224600F0EE
:10021000FAF953465A46C01A914110D3114618466E
:10022000224600F0E1F92D1A67EB01084F462246FD
:100230000120002100F0D8F917EB00094E41201EE3
:10024000A4F10104DFDC484631462A464346BDE8B6
:10025000F09F2DE9FE4F804681EA0300C00F0C4657
:10026000009021F0004123F00045B8EB0200A941C5
:1002700005D24046214690461C460B46024623F0D6
:100280000040104347D0270DC7F30A00C3F30A51BB
:100290000290401A019040286BDAC3F3130040F437
:1002A000801B0098924620B10023D2EB030A63EB37
:1002B0000B0B01985946C0F14002504600F094F9EA
:1002C00006460D4650465946019A00F0ACF910EB2F
:1002D00008006141002487EA115284EAE7731A4357
:1002E00040D0009A62B3019A012A4FEA075215DC06
:1002F000001B61EB02014FF0004202EA0752CDE918
:100300000042001C41F5801132462B4600F0ACF94A
:1003100003B0BDE8F08F40462146F9E7001B61EBD2
:100320000201001C41F5801300185B412018A2F562
:10033000001747EB030140EAD570B6196D4111E093
:100340006D084FEA360645EAC0754FEA0752001BB2
:1003500061EB0201001C41F5801149084FEA3000B1
:100360000019514132462B4603B0BDE8F04F00F072
:100370006CB90098012240000023D0EB020263EB2D
:10038000E073009821464FEAE074B8EB000061EB9F
:100390000401E9E783F000435BE781F0004158E79F
:1003A0002DE9FE4F81EA030404F0004421F00041EE
:1003B00000944FF0000B23F0004350EA01045ED09C
:1003C00052EA03045BD0C3F30A54C1F30A552C4428
:1003D000A4F2F3340194A0FB0254C1F3130141F4DD
:1003E0008011C3F3130343F4801301FB024400FBA9
:1003F000034E840A970A44EA815447EA8357A4FBD0
:10040000076802958D0A05FB07854FEA932C04FBCC
:100410000C542705029D4FEA065847EA1637B5EBFC
:1004200008056EEB070C870E920E47EA811742EA29
:100430008312A7FB0201B6EB0B0164EB00042B0D4A
:1004400043EA0C335E1844EB1C50DA465146E7FB96
:100450000201C5F313044FEA0B3343EA14534FEA86
:100460000432019C43EA0603A4F10C040294009CAC
:10047000CDE900B400F0F8F803B0BDE8F08F00203B
:100480000146F9E72DE9F04D81EA030404F0004B41
:1004900021F0004514464FF0000A23F0004150EAD5
:1004A000050220D054EA01021DD0C5F30A570246C6
:1004B000C5F31303C1F31300C1F30A5640F48015CA
:1004C00043F48013A7EB0608101BD64608F2FD384C
:1004D00073EB050002D308F1010801E092185B41BB
:1004E000B8F1000F03DA00200146BDE8F08D0020CE
:1004F0004FF48011064684460EE0171B73EB050788
:1005000005D3121B63EB050306434CEA010C4908B3
:100510004FEA300092185B4150EA0107EDD152EAF0
:10052000030012D082EA040083EA0501084305D0E3
:10053000101BAB4106D20122002306E000224FF03F
:10054000004302E06FF0010253101AEB06004CEB7F
:10055000085110EB0A0041EB0B01BDE8F04D00F033
:1005600074B8C1F30A52C1F3130140F2FF3341F4EE
:1005700080119A4202DA00200146704740F233436C
:100580009A42A2F2334202DC524200F03CB800F040
:100590002BB8000030B5041E71F1000404DB4FF0ED
:1005A0000044404264EB0101141E73F1000405DBBA
:1005B0001C464FF00043524263EB0403994208BFCC
:1005C000904230BD064C074D06E0E06840F0010364
:1005D00094E8070098471034AC42F6D3FFF7D8FDF3
:1005E000F423000814240008202A04DB203A00FA2F
:1005F00002F1002070479140C2F1200320FA03F37A
:10060000194390407047202A04DB203A21FA02F077
:100610000021704721FA02F3D040C2F1200291403C
:10062000084319467047202A06DBCB17203A41FAC7
:1006300002F043EAE07306E041FA02F3D040C2F16F
:100640002002914008431946704710B5141E73F1FB
:10065000000408DA401C41F1000192185B411A4382
:1006600001D120F0010010BD2DE9F04D92469B46CE
:1006700011B1B1FA81F202E0B0FA80F22032904674
:10068000FFF7B2FF04460F4640EA0A0041EA0B01B9
:1006900053465A46084313D0114653EA010019D075
:1006A000C8F140025046FFF7AEFF05460E465046E1
:1006B00059464246FFF798FF084305D0012004E061
:1006C00020463946BDE8F08D0020054346EAE07635
:1006D0002C4337430A986305E40AA0EB0800002284
:1006E000FD0A44EA47540A3002D500200146E9E7F2
:1006F000010510196941DDE9084500196941BDE8A6
:10070000F04DA2E721B1826842F00102826003E06D
:10071000826822F001028260704700000021084ACE
:100720001168084A1140D0E900231A4383681A432C
:10073000C3681A431143044AC2F804137047000007
:1007400004230140E030FCFF0020014000B59BB0D5
:1007500000F0BEF8404800F0A1F90121880500F042
:100760005BFC0121080200F077FC38208DF80400C2
:1007700000208DF805008DF8060001208DF8070097
:1007800001A800F00BFC002002903448039034488C
:10079000049000200590C8200690002007904FF498
:1007A000806008904000099080000A9000200B9023
:1007B0004FF400300C9000200D9001200E9000208E
:1007C0000F90109002A9244800F032FA002122482C
:1007D00000F058F92349204800F03AF9012210218D
:1007E0001D4800F007FA0020119012901390149009
:1007F00011A8FFF793FF002015908DF858008DF891
:1008000059004FF080501790401018900020199018
:1008100001208DF8680015A910484C3800F078F8D0
:100820000023012209210D484C3800F09BF80121DA
:100830000A484C3800F023F8012108484C3800F0F1
:1008400013F8012105484C38FFF75CFF03484C388A
:1008500000F0E4F81BB000BD106402404C200140E1
:100860000C0100202080001021B1826842F48072C7
:10087000826003E0826822F480728260704721B156
:10088000826842F40072826003E0826822F400729F
:100890008260704710B504460A48006820F00100E5
:1008A00008490860081D04600749001F00F0D0F8DF
:1008B0000020064908600348006840F00100014933
:1008C000086010BD106402403CF0001000200140A0
:1008D00010B50121080200F0CFFB00214FF4807019
:1008E00000F0CAFB10BD00001CB50121022000F081
:1008F00093FB0220009003208DF8040000208DF867
:1009000007006946014800F0BFFA1CBD0004024020
:1009100030B50246002000235068104C20400D796D
:100920000C6844EA05242043506090680C4C204039
:10093000D1E903542C438D682C434D7944EA450496
:1009400020439060D06A20F470000C7D641EE4B2F5
:10095000234340EA0350D06230BD0000FFFEFFFC9D
:10096000FDF7FFC0F0B504460D4600200021092D1B
:1009700011DDE068A5F10A0606EB4607072606FA30
:1009800007F18843A5F10A0606EB460603FA06F1CD
:100990000843E0600CE0206905EB4507072606FAEE
:1009A00007F1884305EB450603FA06F10843206189
:1009B000072A0FDA606B561E06EB86071F2606FA1B
:1009C00007F18843561E06EB860605FA06F1084332
:1009D000606322E00D2A0FDA206BD61F06EB860734
:1009E0001F2606FA07F18843D61F06EB860605FA8E
:1009F00006F10843206310E0E06AA2F10D0606EB61
:100A000086071F2606FA07F18843A2F10D0606EBBA
:100A1000860605FA06F10843E062F0BD816841F000
:100A200080418160704700BFFEE7000010B50649B5
:100A3000064800F00DF84FF6FF700449091F0860E2
:100A4000091F086010BD00003CF000101064024057
:100A50000246094B9A4201D2084801E00648103884
:100A600001F000531BB1064B0B40C36002E0044B86
:100A70000B40836070470000106402400060024039
:100A80007D0F7D0F21B1026842F00102026003E098
:100A9000026822F00102026070470000016821F044
:100AA000010101600021016041608160C16001615C
:100AB000212141614A49884204D13D21484A103AE6
:100AC00091608CE046491831884205D14FF4746139
:100AD000434A103A916082E041493031884205D161
:100AE0004FF474113E4A103A916078E03C49483125
:100AF000884205D14FF07461394A103A91606EE036
:100B000037496031884204D13649354A103AD160BC
:100B100065E033497831884204D13349304A103A8C
:100B2000D1605CE02E499031884204D12F492C4A93
:100B3000103AD16053E02A49A831884205D14FF0DC
:100B40003D51274A103AD16049E02949884204D1F1
:100B50003D21274A083A116041E025491831884271
:100B600005D14FF47461224A083A116037E02049F8
:100B70003031884205D14FF474111D4A083A116092
:100B80002DE01B494831884205D14FF07461184A65
:100B9000083A116023E016496031884204D11149B6
:100BA000134A121F11601AE011497831884204D1AA
:100BB0000D490F4A121F116011E00D499031884212
:100BC00004D10A490A4A121F116008E00849A831F5
:100BD000884204D14FF03D51054A121F1160704701
:100BE000106002403D000020400F002000003D202A
:100BF0001064024010B501F080034BB122B143698B
:100C000043F08003436103E0436923F080034361C1
:100C100080290BD02AB1036801F01E04234303602E
:100C200004E0036801F01E04A343036010BD00004C
:100C300010B500220268134B1A40CC680B6823439E
:100C40004C6923438C692343CC6923430C6A2343B7
:100C50004C6A23438C6A23434C6B23438C6B2343A2
:100C60001A430260426922F00702D1E90B342343A0
:100C70001A4342610B6943604B6883608B68C360B1
:100C800010BD00003F801CF07047000030B500210F
:100C9000344B1970344B1970344B19700121344B9B
:100CA0001970002000220021324B19703249B1F92D
:100CB0000210B1F5FA6F54DA2F49B1F90610B1F507
:100CC000FA6F4EDA052148E002462B4B33F911301A
:100CD000B3F5FA6F01DD012300E000231846012A75
:100CE00007D1012805D1224B1B785B1C204C2370B7
:100CF00002E001231E4C23701D4B1B780A2B09DBDD
:100D00000024194B1B785B1E1C4DEC540123184C1E
:100D1000237025E0154B1B7800FA03F3154C24785B
:100D20002344144C2370114B1B785B1C0F4C237015
:100D300023461B78082B0FDB002323700D4B1C78F8
:100D40000E4B094D2D785C5500230A4C2370064B41
:100D50001B785B1C044C2370891CB1F5FA6FB3DB64
:100D600000BF30BD3D0000203E0000203F000020BD
:100D700040000020410000200C010020A8000020BD
:100D800010B5012000F014F840B10548007810B902
:100D9000012003490870012000F004F810BD000094
:100DA0003C0000200149086070470000143C0140ED
:100DB00001460020034A12680A400AB1012000E0FF
:100DC00000207047143C0140002123498279002A09
:100DD0003AD00A46126803689A430B461A600A1D05
:100DE000126803689A430B1D1A60027911440A685D
:100DF00003681A430A60184A0832126803689A4363
:100E0000154B08331A601A1D126803689A43124B77
:100E10000C331A604279102A0ED11A1F1268036827
:100E20001A430D4B08331A601A1D126803681A43DF
:100E3000094B0C331A600DE00749427911440A68E6
:100E400003681A430A6005E0027911440A680368DE
:100E50009A430A6070470000003C014010B5012031
:100E6000810748620121800700F0D2FB002003497E
:100E70000870034908700349087010BD380000204D
:100E8000390000203A000020F0B50A460021002376
:100E9000002400BF3DE0012505FA01F3156805EACD
:100EA00003049C4234D105684F000326BE40B5437D
:100EB000056015794E00B540066835430560157923
:100EC000012D02D01579022D16D185684F00032619
:100ED000BE40B543856055794E00B54086683543C0
:100EE0008560456801268E40B54345604568967922
:100EF0008E40B6B235434560C5684F000326BE40FC
:100F0000B543C560D5794E00B540C6683543C56068
:100F1000491C1029BFD3F0BD1CB50121102000F0E1
:100F20007BF82020009001208DF8040000208DF82F
:100F3000060003208DF8050001208DF807006946A2
:100F40000148FFF7A1FF1CBD00100240F0B50023CF
:100F500000244D07ED0E02FA05F3CE1000F1200536
:100F600055F826504E07F70E0F26BE40B543CF105A
:100F700000F1200646F82750CE1000F1200555F864
:100F8000265045EA0304CE1000F1200545F826401E
:100F9000F0BD00BFFEE700BFFEE7704770B500215F
:100FA00000230F22C4781CB3174C246804F4E064B7
:100FB000C4F5E064C4F30721C1F10404E3B20A41BB
:100FC00044789C40E1B28478144021430C07210E00
:100FD0000E4C05786155047804F01F050124AC40DF
:100FE00005786D11AD0005F1E025C5F8004109E077
:100FF000047804F01F050124AC40054D06787611F5
:1010000045F8264070BD00000CED00E000E400E073
:1010100080E100E07047000029B1064A12680243EF
:10102000044B1A6004E0034A12688243014B1A60C1
:10103000704700003038024029B1064A1268024366
:10104000044B1A6004E0034A12688243014B1A60A1
:10105000704700004038024029B1064A1268024336
:10106000044B1A6004E0034A12688243014B1A6081
:10107000704700004438024029B1064A1268024312
:10108000044B1A6004E0034A12688243014B1A6061
:101090007047000024380240F0B5002100220024EF
:1010A000022500260223324F3F6807F00C0121B1D0
:1010B000042905D0082937D105E02E4F076036E016
:1010C0002D4F076033E02A4F3F1F3F68C7F380561C
:1010D000274F3F1F3F6807F03F036EB1264FB7FB16
:1010E000F3F7DFF88CC0ACF1040CDCF800C0CCF3F3
:1010F000881C07FB0CF40CE01E4FB7FBF3F7DFF87E
:1011000070C0ACF1040CDCF800C0CCF3881C07FB09
:101110000CF4174F3F1F3F68C7F301477F1C7D004A
:10112000B4FBF5F7076002E0124F076000BF00BF95
:101130000F4F3F6807F0F0010909104F7A5C07680C
:10114000D74047600A4F3F6807F4E051890A0B4FC8
:101150007A5C4768D7408760054F3F6807F4604175
:10116000490B064F7A5C4768D740C760F0BD000066
:10117000083802400024F40040787D01000000207F
:101180007047000030B500228B071C0F0F2303FAB5
:1011900004F20B4B8C1053F824309343084C8D1001
:1011A00044F8253023468C1053F824308C07240F44
:1011B00000FA04F42343024C8D1044F8253030BD6E
:1011C0000838014000B58FB001210846FFF724FF21
:1011D000072202215148FFF7B9FE072203214F4899
:1011E000FFF7B4FE02208DF8380000208DF83A0099
:1011F00004200D9001208DF83B0002208DF839006D
:101200000DA94648FFF740FE02208DF8380008205F
:101210000D900DA94148FFF737FE01214804FFF763
:101220000BFF4FF4E13009900020ADF830000C20A6
:10123000ADF82E000020ADF82C00ADF82A00ADF876
:10124000280009A9364800F025FB012240F225516B
:10125000334800F0F9FA26208DF8200001208DF89F
:1012600023008DF821008DF8220008A8FFF796FED4
:1012700001212B4800F0CFFA01218804FFF7DCFEA2
:1012800001210220FFF7D8FE4FF480600590022074
:101290008DF819008DF8180005A92248FFF7F4FD14
:1012A0004FF40060059002208DF8180005A91D4834
:1012B000FFF7EAFD4FF4E13001900020ADF808009F
:1012C000ADF80A00ADF80C00ADF810000C20ADF838
:1012D0000E0001A9144800F0DDFA012240F2255168
:1012E000114800F0B1FA012240F224410E4800F00A
:1012F000ABFA01210C4800F08EFA27208DF81C0073
:1013000006208DF81D0000208DF81E0001208DF8AC
:101310001F0007A8FFF742FE0FB000BD000002400B
:101320000044004000040240004800400FB400B5F3
:101330009BB01DA8019002A8019A1C9900F020FB07
:101340000020019002A800F013F81BB05DF814FB18
:1013500010B504462146054800F00BFB00BF802174
:10136000024800F064FA0028F9D010BD00440040A3
:1013700070B50446002503E0605DFFF7E9FF6D1CD2
:10138000605D0028F8D170BD0CB500200190009080
:101390003448006840F480303249086000BF31486A
:1013A000006800F4003000900198401C0190009803
:1013B00018B90198B0F5A04FF1D12A48006800F49F
:1013C000003010B10120009001E000200090009852
:1013D000012846D123484030006840F08050214920
:1013E000403108602048006840F440401E490860D1
:1013F0001C48083000681B4908310860084600682E
:1014000040F4004008600846006840F4A0500860BE
:101410001648091F0860081F006840F08070091F07
:10142000086000BF0F48006800F000700028F9D085
:1014300040F205700E4908600A480830006820F044
:1014400003000849083108600846006840F00200BF
:10145000086000BF03480830006800F00C0008284E
:10146000F8D10CBD0038024000700040195440070C
:10147000003C02407047000010B51548006840F479
:101480007000134908601348006840F001001149DA
:10149000086000200F49083108600E4800680E49B6
:1014A00008400C4908600D48091D0860081F0068C5
:1014B00020F48020091F0860002006490C310860D4
:1014C000FFF762FF4FF0006001498039086010BDEE
:1014D00088ED00E000380240FFFFF6FE10300024E7
:1014E00010B50121880700F09FF800284DD0012198
:1014F000880700F08AF826480078022808DA24488D
:101500000078401C224908700020224908603CE015
:101510002148007864282EDA20481F490978405C69
:1015200050B90120810748620021800700F070F85F
:1015300001201849086010BD184817490978405C17
:1015400017490A7801219140084015490978084156
:101550001049086012480078401C1149087008467C
:101560000078082811DB002008700B480078401C28
:101570000949087009E001208107486200218007BD
:1015800000F046F801200349086000BFD3E70000DF
:101590003A0000209402424238000020440000201B
:1015A000390000200EB501210220FFF745FD41F270
:1015B000DF50019040F2F310ADF800000020ADF8CC
:1015C0000800ADF802006946074800F051F82021F4
:1015D000054800F043F80121034800F007F8012115
:1015E000014800F015F80EBD0004004021B102884A
:1015F00042F08002028004E002884FF67F731A40B6
:1016000002807047CA4302827047CA430282704711
:1016100021B1028842F00102028004E002884FF604
:10162000FE731A400280704730B502460020002346
:101630000024158A05EA0103958905EA010413B11E
:101640000CB1012000E0002030BD1AB183890B43AA
:10165000838102E083898B438381704782884FF6C0
:101660008F731A40828082880A438280704700000C
:1016700000220288184B98420ED0184B98420BD08B
:10168000B0F1804F08D0164B984205D0154B9842C8
:1016900002D0154B984204D14FF68F731A404B88F5
:1016A0001A43124B984207D0114B984204D04FF680
:1016B000FF431A400B891A4302804B68C3620B88B0
:1016C0000385054B984202D0044B984201D18B7A96
:1016D000038601238382704700000140000401401B
:1016E0000004004000080040000C004000100040D2
:1016F000001400401FB501210846FFF79DFC41F290
:10170000DF50019040F2E730ADF800000020ADF866
:101710000800ADF8020069464FF08040FFF7A8FFCF
:1017200001218807FFF76EFF012211469007FFF79E
:101730008CFF1C208DF80C0000208DF80D008DF81A
:101740000E0001208DF80F0003A8FFF727FC0021F1
:101750004FF08040FFF75CFF1FBD000010B5202157
:10176000184800F064F801282AD140F225511548A4
:1017700000F042F8134800F0F7F800B21249088070
:10178000084600781149124A1278885410480078A7
:10179000401C0F4908700C48B0F90000FF280FD119
:1017A00000210B480078401E084A1154114609A038
:1017B000FFF7BCFD002006490870012008490870A9
:1017C00010BD00000044004036000020440000200E
:1017D0003400002053656E643A25730D0A00000042
:1017E0003B00002010B540F22551024800F004F8FB
:1017F00010BD00000048004010B50022002340F654
:101800006A14A14200D100BF0A1201249440A3B27D
:10181000DC43048010BD21B1828942F400528281F0
:1018200004E082894DF6FF731A40828170470246B8
:101830000020B1F5007F00D100BF13880B400BB131
:10184000012000E000207047F0B503460024002688
:101850000025002040F66A17B94200D100BF1846A3
:10186000C1F3421401F01F06012707FA06F5012C07
:1018700001D10C3004E0022C01D1103000E0143012
:101880001AB107682F43076002E00768AF4307609B
:10189000F0BD00002DE9FF4705460E460024A14695
:1018A00000BFA046B08900B100BF2C8A24F4405488
:1018B000F08804432C82AC8941F20C608443B088E8
:1018C00031890843718908430443AC81AC8A24F40C
:1018D0004074B0890443AC826846FFF7DDFB2048C2
:1018E000854202D01F48854202D1DDF80C9001E00C
:1018F000DDF80890A88900F4004040B109EBC90068
:1019000000EB091031684900B0FBF1F707E009EB83
:10191000C90000EB091031688900B0FBF1F76420C1
:10192000B7FBF0F004012009642101FB1078A889BD
:1019300000F4004040B1322000EBC800B0FBF1F0F1
:1019400000F00700044308E0322000EB0810642197
:10195000B0FBF1F000F00F0004432C81BDE8FF87DD
:10196000001001400014014001468888C0F30800BF
:101970007047C1F308028280704700BFFEE7000095
:1019800037B514460846064B6A46214600F0DCF897
:1019900004466946002000F05AFC20463EBD000087
:1019A0004F22000802E008C8121F08C1002AFAD11D
:1019B00070477047002001E001C1121F002AFBD1CF
:1019C000704700002DE9FF5F82B00021DDE904309F
:1019D000020DDDF840B0034318D044F61050A2F2D7
:1019E000FF3242431514119801281FD0A5EB0B00BC
:1019F000401C5FEA000A4FF000064E4FDFF83891B6
:101A0000B046504615D5CAF1000413E011980124E0
:101A10004AA3012801D16FEA0B010298119AC0E98B
:101A20000031C0E9024206B0BDE8F09FCBF10000F2
:101A3000DFE704460021404A491842EB0450CDE953
:101A4000001012E0E00707D032463B4640464946C8
:101A5000FEF7A6FC8046894632463B4610461946AC
:101A6000FEF79EFC06460F466410002CEAD1DDE925
:101A70000401DDE90023BAF1000F06DAFEF790FC5D
:101A800042464B46FEF78CFC05E0FEF7FBFC424667
:101A90004B46FEF7F7FC04460E460022284BFEF7A5
:101AA00079FD03D84FF0FF30014607E00022254BB7
:101AB00020463146FEF7CDFBFEF753FD102409E02A
:101AC000002C0ADB0A220023FEF792FB039B303234
:101AD0001A55641E50EA0102F2D1641C039AC4F143
:101AE00011031444119A012A03D0012208430DD195
:101AF0000AE0084304D000204FF0110B119072E768
:101B0000A3EB0B056D1E0DE05B4504DD4FF00002FD
:101B100005F1010504E003DA4FF00002A5F101052B
:101B2000002AECD002981199C0E90231C0E90045C1
:101B300079E70000000014400000F03F3000000092
:101B40000000F0430000E03F2DE9FF4F95B09A46BA
:101B5000884606460025EEE1252877D10024274651
:101B6000F94A0121039400E0044316F8013F203BA9
:101B700001FA03F01042F7D130782A2811D06FF023
:101B80002F033078A0F13002092A16D8039A44F0C6
:101B9000020402EB820203EB42021044761C039023
:101BA000EFE758F8042B0392002A03DA504244F47A
:101BB0000054039044F00204761C30782E2816D18D
:101BC00016F8010F44F004042A280DD06FF02F02FC
:101BD0003078A0F13003092B09D807EB870302EB1B
:101BE0004303C718761CF3E758F8047B761C30785B
:101BF0006C280FD006DC4C2817D068280DD06A2836
:101C000014D104E0742810D07A280FD10DE044F4E8
:101C100000140AE044F4801401E044F440147278A3
:101C2000824202D104F58014761C761C3078662836
:101C30000BD013DC582877D009DC002875D0452854
:101C4000F6D04628F4D047281AD193E118E063284B
:101C500035D0642879D0652812D18BE1702873D0F3
:101C600008DC6728F1D069286FD06E280DD06F2866
:101C700006D1ACE073282CD0752874D0782853D0C6
:101C80005246179990476D1C54E1C4F30250022844
:101C900009D003280DD0D8F8001004280DD00D600D
:101CA00008F1040846E1D8F80010EA17C1E900522B
:101CB000F6E7D8F800100D80F2E70D70F0E718F89D
:101CC000041B8DF8001000208DF80100EB46012068
:101CD00003E058F804BB4FF0FF3061074FF00001FC
:101CE00002D40DE009F101018946B9420FDA8145BC
:101CF000F8DB1BF809100029F4D108E009F1010113
:101D000089468142FADB1BF809100029F6D10398B5
:101D10005346A0EB090721463846179A00F080FA8F
:101D2000284400EB090507E044E008E10DE01BF85A
:101D3000010B524617999047B9F10109F7D2534662
:101D400021463846179AF2E039E00A21C4F30252DC
:101D50004FF0000B0091022A06D058F8040BC1176F
:101D6000032A09D00AE023E008F1070020F0070267
:101D7000F2E80201904605E000B2C117042A01D141
:101D800040B2C117002906DA0A460021404261EB41
:101D900002012D2202E0220504D52B228DF8042019
:101DA000012203E0E20701D02022F7E7914657E045
:101DB0000A2100E010214FF0000B00910BE01021F0
:101DC0004FF0000B44F004040827009103E00820C2
:101DD0004FF0000B0090C4F30252022A05D058F8CD
:101DE000040B0021032A08D008E008F1070020F0C6
:101DF0000702F2E80201904603E080B2042A00D113
:101E0000C0B24FF0000922072AD53278702A07D0D5
:101E1000DDF800C08CF0100C5CEA0B0C05D00EE075
:101E200040228DF80420012208E050EA010306D088
:101E300030238DF804308DF8052002229146009B56
:101E400083F0080353EA0B030AD150EA010201D1DF
:101E5000620705D530228DF804204FF001097F1E5E
:101E60003278582A04D039A20C920CAA02920BE0C4
:101E70003BA2F9E75B46009AFEF7BAF90C9B9B5C24
:101E8000029A521E0292137050EA0102F2D1029895
:101E900004A9081A00F1200B600702D524F480344D
:101EA00000E001275F4502DDA7EB0B0000E000200A
:101EB00000EB0B01009003984944401A0390E003A3
:101EC00006D453462146179A039800F0A9F9054411
:101ED000002706E001A85246C05D179990476D1C87
:101EE0007F1C4F45F6DBE0030CD553462146179A7D
:101EF000039800F095F9054404E030205246179904
:101F000090476D1C0099481E00900029F5DC08E000
:101F10000298029952460078491C029117999047FD
:101F20006D1CBBF10001ABF1010BF1DC5BE100F0DA
:101F300065F90544761C307800287FF40DAE19B0A1
:101F40002846BDE8F08F0000092801003031323307
:101F500034353637383961626364656600000000E5
:101F600030313233343536373839414243444546CF
:101F700000000000600700D4062708F1070020F0E9
:101F80000700F0E80223804603F0004C5FEA0C00F3
:101F900001D097A009E0200501D596A005E0E00753
:101FA00001D095A001E0AFF24C001390307823F0FF
:101FB000004365280CD006DC452809D046281DD0F2
:101FC00047287FD13BE0662818D067287AD136E0D1
:101FD0000021112F01DB112000E0781CCDE9000168
:101FE00004A90CA8FFF7EEFCDDE90D010C9A4FF0F7
:101FF000000B07F10109109200914EE04FF00040F4
:102000000097CDE9011004A90CA8FFF7DBFCDDE97E
:102010000D020C9B0F994FF0000B9146109300920C
:1020200011B9791C00EB0109B7EB090003D4C0F129
:10203000FF3B07F10109A9EB0700019042E0012FE6
:1020400000DA01270021112F01DD112000E03846C0
:10205000CDE9000104A90CA8FFF7B4FCDDE90D01EE
:102060000C9A00914FF0000BB946109221070FD443
:10207000009A4A4503DA914601E0A9F10109B9F154
:10208000010F05DD109AA9F10101515C3029F4D04E
:10209000B84202DA10F1040F03DA0121CDE9011090
:1020A00010E0002803DC8344A9EB000102E0411C9E
:1020B000494500DD8946A0EB0B00401C01904FF024
:1020C00000400290200705D40198484502DB4FF0FC
:1020D000FF30019000208DF84B0002980DF14B0766
:1020E000B0F1004F25D002200C902B200D900298CB
:1020F00000280CDA404202902D200D9007E00A21C2
:102100000298FEF75FF83031029007F8011D0C9934
:10211000481E0C900029F2DC02980028EFD1791EAD
:102120000D980870307800F0200040F0450007F866
:10213000020D11A8C01BC01D02901398007800B1B9
:10214000012000EB0901019801EBE07102980144C4
:102150000398401A401E0390E00306D453462146DC
:10216000179A039800F05CF805441398007818B1AA
:102170005246179990476D1CE00323D553462146DC
:10218000179A039800F04CF805441BE0BBF1000FD0
:1021900007DB0098584504DD1098179910F80B00DC
:1021A00001E0179930205246904701980BF1010B3E
:1021B000401E05F10105019004D12E2052461799C9
:1021C00090476D1CB9F10001A9F10109DEDC05E0C1
:1021D00017F8010B5246179990476D1C0299481E3B
:1021E00002900029F4DC53462146179A03989EE694
:1021F0002D0000002B000000200000002DE9F04120
:10220000044600251E461746880404D405E03946D6
:102210002020B0476D1C641EF9D52846BDE8F0812A
:102220002DE9F041044600251E469046C80301D51D
:10223000302700E02027880404D505E041463846D1
:10224000B0476D1C641EF9D52846BDE8F0810A68C8
:10225000531C0B60107070470246002002E0002300
:102260001354401C8842FADB704700B5034603E074
:102270004FF47A7000F005F8181EA3F10103F7D1AE
:1022800000BDA82141434FF0E0225161002191613E
:102290000521116100BF4FF0E021096901F480318F
:1022A0000029F8D004214FF0E022116170470000AE
:1022B00000B585B006208DF8100000208DF81100C3
:1022C00001208DF812008DF8130004A8FEF766FEB9
:1022D00001211020FEF7A0FE01218803FEF7BCFEBD
:1022E0000120029000208DF80C0003208DF80D00D5
:1022F00000208DF80F0002A90B48FEF7C5FD002154
:102300000520FEF73FFF0120009000208DF804001B
:102310000C208DF8050001208DF806006846FEF7B8
:1023200053FD05B000BD000000140240FEF74AFF57
:10233000FEF7F2FDFFF7DEF9FFF7BAFFFEF7D4FA7A
:10234000FFF730F9FEF702FA012021490860C820A2
:10235000FEF7A0FA64211F48FFF77EFF64211E48A4
:10236000FFF77AFF01201D49087000201C49087002
:102370004820184908704E2048704F2088704E2021
:10238000C87045200871002048716420FFF76DFF78
:102390001CE01248007801280FD1C820FEF77AFA15
:1023A00041F2D470FFF761FFFEF770FC0A490DA0FF
:1023B000FEF7BCFF00200949087009480078012891
:1023C00004D1FEF74BFD002005490870E1E700004D
:1023D0009402424244000020A80000203C0000205B
:1023E0003B0000204465636F64653A2025730D0A45
:1023F0000000000014240008000000204400000039
:10240000A419000858240008440000205C82000041
:10241000B4190008000000000102030401020304D3
:1024200006070809010000000A000000640000001F
:10243000E803000010270000A086010040420F00C2
:102440008096980000E1F505000000000000000003
:08245000000000000100000083
:04000005080001A14D
:00000001FF
