:020000040800F2
:1000000078A10020A1010008590E0008510E000837
:10001000550E0008F90C0008DF140008000000006D
:1000200000000000000000000000000001100008B7
:10003000790D000800000000D50E0008BD12000870
:10004000BB010008BB010008BB010008BB010008A0
:10005000BB010008BB010008BB010008BB01000890
:10006000BB010008BB010008BB010008BB01000880
:10007000BB010008BB010008BB010008BB01000870
:10008000BB010008BB010008BB010008BB01000860
:10009000BB010008BB010008BB010008BB01000850
:1000A000BB010008BB010008BB010008BB01000840
:1000B000BB010008BB010008BB010008BB01000830
:1000C000BB010008BB010008BB010008BB01000820
:1000D000BB010008BB01000829130008BB01000890
:1000E000BB010008BB010008BB010008BB01000800
:1000F000BB010008BB010008BB010008BB010008F0
:10010000BB010008BB010008BB010008BB010008DF
:10011000BB010008BB010008BB010008BB010008CF
:10012000FD0C0008BB010008210D0008BB01000800
:10013000BB010008BB010008BB010008BB010008AF
:10014000BB010008BB010008BB010008BB0100089F
:10015000BB010008BB010008BB010008BB0100088F
:10016000BB010008BB010008BB010008BB0100087F
:10017000BB010008BB010008BB010008BB0100086F
:10018000BB010008BB010008DFF810D000F052FDF1
:1001900000480047511E0008AFF3008078A10020FE
:1001A0000648804706480047FEE7FEE7FEE7FEE711
:1001B000FEE7FEE7FEE7FEE7FEE7FEE7C112000806
:1001C000890100082DE9F00F6FF003042DED0C8B71
:1001D0005FEAD30AD0E901C7B0F8009004EB8904C4
:1001E0000CEB04089FEDFE9A18BF4FEAD90B00F004
:1001F000C18100BF91ED000AB0EE493A88ED000AD6
:1002000091ED010AF0EE430A88ED010A91ED020A30
:10021000B0EE431A88ED020A91ED030AF0EE431A9C
:1002200088ED030A91ED040AB0EE432A88ED040A32
:1002300091ED050AF0EE432A88ED050A91ED060AD4
:10024000F0EE433A88ED060A91ED070A203188ED79
:10025000070ADCED007A9CED017ADCED026A9CED88
:10026000036ADCED045A9CED055ADCED064AB0EE5B
:10027000434A3D460CF11C0408F120085FEA0B06D6
:1002800000F02681D5ED008A94ED008A26EE280A3A
:1002900065EEA89A25EE28AA27EEA8BA64EEA8AAC9
:1002A00067EE28BA26EEA8CA68EE28CAD5ED018AFC
:1002B00032EE000A32EEA92A73EE0A2A30EE8BBA29
:1002C00033EEAA3AD5ED020A74EE2C3A71EE8C1A8E
:1002D000D4ED017A31EE2B1A27EE28DA26EEA8CAE1
:1002E00066EE28BA25EEA84A65EE289A24EEA8AA5A
:1002F00068EE28AA67EEA8CA94ED027A7BEE0D8A12
:1003000031EE0C1A71EEAB1A30EE040A32EE292AE5
:1003100072EE8A2A33EE2A3A73EEAC3A66EEA0CA3F
:1003200066EE20BA65EEA09A25EE20AA24EEA04A39
:1003300068EE20AA27EEA0BA27EE20CAD5ED030A60
:10034000D4ED036A30EE0A0A32EE042A78EEAC8A63
:1003500031EE2B1A71EEA91A72EEAA2A33EE0B3A7D
:1003600073EE8C3A66EE20CA65EEA0BA65EE209A6E
:1003700024EEA04A28EE20AA67EEA0AA27EE20BA13
:1003800026EEA0CAD5ED040A78EEAC8A31EE2B1A1F
:1003900071EEA91A30EE040A32EE0A2A72EEAA2A87
:1003A00033EE0B3A73EE8C3A65EEA0CA94ED046A14
:1003B00065EE20BA24EEA0BA28EE204A67EEA09A95
:1003C00027EE20AA66EEA0AA26EE20CAD5ED050AE1
:1003D000D4ED055A31EE2B1A71EE8B1A78EEAC8AF9
:1003E00030EE040A32EE292A72EE8A2A33EE2A3AD5
:1003F00073EE8C3A65EE20CA24EEA0BA68EE20BAFD
:1004000027EEA04A67EE209A26EEA0AA66EE20AA62
:1004100025EEA0CAD5ED060A30EE040A32EE292AEE
:1004200027EE204A94ED065A72EE8A2A66EEA09ACA
:1004300078EEAC8A31EE0B1A71EEAB1A33EE2A3A33
:1004400073EE8C3A26EE20AA65EEA0AA64EEA0BA5E
:1004500028EE20CA27EEA0BA65EE20CAD5ED070A1D
:1004600030EE040A32EE294A72EE8A9A33EE2AAA54
:10047000D4ED074A31EE0C1A78EEAB8A28EE20CA8A
:1004800071EE8B1A73EEACAA66EE202A67EEA0BA64
:1004900027EE20BA26EEA02A25EEA03A65EE203AF5
:1004A00024EEA08A74EE222A78EE8C0A31EE2B1A02
:1004B00071EE8B1A30EE022A39EE833A7AEE233A45
:1004C0003AEE884A20342035761E7FF4DBAE00BF3A
:1004D00019F0070636D000BF95ED008A94ED000AAA
:1004E000241D67EE889A67EE088A26EE88AA66EED3
:1004F00008AA25EE88BA65EE08BA24EE88CA20EE6E
:10050000088AF0EE477AB0EE667AF0EE466AB0EE10
:10051000656AF0EE455A70EEA90A31EE281A71EEBE
:100520008A1A32EE2A2A72EE8B2A33EE2B3A73EEB7
:100530008C3A34EE084AB0EE645A2D1DF0EE404A73
:10054000761EC9D1C2ED000A82ED011AC2ED021A6F
:1005500082ED032AC2ED042A82ED053AC2ED063A85
:1005600082ED074A2032BAF1010A0CF1200C7FF427
:1005700041AE00BF13F0070A43D000BFB1EC010A3F
:100580003E1D0CF10404B9F10103A8EC010ADCEDF5
:10059000000A97ED001AB0EE490A00EE810A29D050
:1005A000B3F1004F7DD2002B24DD251F341F13F043
:1005B000010F07D0D5ED010A94ED011A241D2D1D60
:1005C00000EE810A5B1015D0D5ED010A94ED011AF9
:1005D00000EE810AD5ED020A94ED021A02E0000055
:1005E0000000000000EE810A5B1E04F1080405F122
:1005F0000805E9D1A2EC010ABAF1010A0CF1040CD8
:10060000BCD14068A9F10104A3081FD0B3F1004F89
:1006100054D2002B1ADD624601461D4692ED000AB7
:1006200081ED000A92ED010A81ED010A92ED020AC4
:1006300081ED020A92ED030A103281ED030A1031B6
:100640006D1EEBD10CEB031C00EB031014F0030246
:1006500002BFBDEC0C8BBDE8F00F7047B2F1004F4C
:1006600042D2002A1ADD001FACF1040112F0010F82
:1006700005D091ED010A80ED010A001D091D520807
:100680000CD000BF91ED010A80ED010A91ED020A44
:10069000083180ED020A0830521EF3D1BDEC0C8BFC
:1006A00000E002E0BDE8F00F7047F4EC010A5B1EC9
:1006B000B6EC011A00EE810AF7D19BE79CED000A27
:1006C00080ED000A9CED010A80ED010A9CED020A12
:1006D00080ED020A9CED030A0CF1100C80ED030A78
:1006E00010305B1EEAD1B1E7BCEC010A521EA0EC4F
:1006F000010AF9D1D2E770B5044604982180084474
:100700008000011F1D461846A26000F009F86560D0
:1007100070BDD2B201E000F8012B491EFBD2704738
:100720000022F6E710B513460A4604461946FFF7BD
:10073000F0FF204610BD2DE9FE4F81EA030404F0CE
:10074000004421F0004100944FF0000B23F00043DF
:1007500050EA01045ED052EA03045BD0C3F30A54AA
:10076000C1F30A552C44A4F2F3340194A0FB0254C3
:10077000C1F3130141F48011C3F3130343F4801355
:1007800001FB024400FB034E840A970A44EA8154A9
:1007900047EA8357A4FB076802958D0A05FB078586
:1007A0004FEA932C04FB0C542705029D4FEA065890
:1007B00047EA1637B5EB08056EEB070C870E920E6D
:1007C00047EA811742EA8312A7FB0201B6EB0B014D
:1007D00064EB00042B0D43EA0C335E1844EB1C5011
:1007E000DA465146E7FB0201C5F313044FEA0B3327
:1007F00043EA14534FEA0432019C43EA0603A4F18E
:100800000C040294009CCDE900B400F07FF803B022
:10081000BDE8F08F00200146F9E700F0004230F01B
:1008200000400AD0C10D01F56071C0F3160042EA24
:100830000151C2084007114370470020014670472C
:1008400030B50B46014600202022012409E021FAA0
:1008500002F59D4205D303FA02F5491B04FA02F59D
:100860002844151EA2F10102F1DC30BD2DE9F05F34
:100870000546002092469B4688460646814640240F
:100880001BE0284641464746224600F020F85346E2
:100890005A46C01A914110D311461846224600F01C
:1008A000DBF92D1A67EB01084F4622460120002193
:1008B00000F0D2F917EB00094E41201EA4F101040B
:1008C000DFDC484631462A464346BDE8F09F202AF1
:1008D00004DB203A21FA02F00021704721FA02F3EA
:1008E000D040C2F12002914008431946704710B52C
:1008F000141E73F1000408DA401C41F10001921843
:100900005B411A4301D120F0010010BD2DE9F04DEB
:1009100092469B4611B1B1FA81F202E0B0FA80F240
:100920002032904600F098F904460F4640EA0A004B
:1009300041EA0B0153465A46084313D0114653EA85
:10094000010019D0C8F140025046FFF7C0FF05462C
:100950000E4650465946424600F07EF9084305D0FF
:10096000012004E020463946BDE8F08D0020054313
:1009700046EAE0762C4337430A986305E40AA0EB85
:1009800008000022FD0A44EA47540A3002D500203C
:100990000146E9E7010510196941DDE9084500193B
:1009A0006941BDE8F04DA2E72DE9FE4F804681EA9E
:1009B0000300C00F0C46009021F0004123F00045D9
:1009C000B8EB0200A94105D24046214690461C469C
:1009D0000B46024623F00040104347D0270DC7F3D3
:1009E0000A00C3F30A510290401A019040286BDAC2
:1009F000C3F3130040F4801B0098924620B10023FB
:100A0000D2EB030A63EB0B0B01985946C0F140028D
:100A1000504600F021F906460D4650465946019AC7
:100A200000F029F910EB08006141002487EA115217
:100A300084EAE7731A4340D0009A62B3019A012A0C
:100A40004FEA075215DC001B61EB02014FF0004238
:100A500002EA0752CDE90042001C41F580113246FE
:100A60002B46FFF753FF03B0BDE8F08F4046214609
:100A7000F9E7001B61EB0201001C41F5801300182F
:100A80005B412018A2F5001747EB030140EAD5703F
:100A9000B6196D4111E06D084FEA360645EAC0759A
:100AA0004FEA0752001B61EB0201001C41F5801167
:100AB00049084FEA30000019514132462B4603B035
:100AC000BDE8F04FFFF713BF00980122400000235C
:100AD000D0EB020263EBE073009821464FEAE0742A
:100AE000B8EB000061EB0401E9E783F000435BE74A
:100AF00081F0004158E72DE9F04D81EA030404F04C
:100B0000004B21F0004514464FF0000A23F000414D
:100B100050EA050220D054EA01021DD0C5F30A575D
:100B20000246C5F31303C1F31300C1F30A5640F4A0
:100B3000801543F48013A7EB0608101BD64608F275
:100B4000FD3873EB050002D308F1010801E09218AB
:100B50005B41B8F1000F03DA00200146BDE8F08DDB
:100B600000204FF48011064684460EE0171B73EBFD
:100B7000050705D3121B63EB050306434CEA010C82
:100B800049084FEA300092185B4150EA0107EDD165
:100B900052EA030012D082EA040083EA0501084306
:100BA00005D0101BAB4106D20122002306E0002233
:100BB0004FF0004302E06FF0010253101AEB060001
:100BC0004CEB085110EB0A0041EB0B01BDE8F04D76
:100BD000FFF78DBEC1F30A52C1F3130140F2FF3398
:100BE00041F480119A4202DA00200146704740F237
:100BF00033439A42A2F2334202DC5242FFF767BE0D
:100C000000F02AB830B5041E71F1000404DB4FF087
:100C10000044404264EB0101141E73F1000405DB43
:100C20001C464FF00043524263EB0403994208BF55
:100C3000904230BD064C074D06E0E06840F00103ED
:100C400094E8070098471034AC42F6D3FFF7A0FAB7
:100C5000681F0008881F0008202A04DB203A00FAD9
:100C600002F1002070479140C2F1200320FA03F303
:100C7000194390407047202A06DBCB17203A41FAEF
:100C800002F043EAE07306E041FA02F3D040C2F119
:100C90002002914008431946704770B58D1810F82E
:100CA000014B14F0030201D110F8012B231106D1DE
:100CB00010F8013B03E010F8016B01F8016B521EC4
:100CC000F9D1ABB110F8012B04F00C048A1A0C2CEA
:100CD00003D0A2EB84129B1C08E010F8014BA2EB9E
:100CE0000422F8E712F8014B01F8014B5B1EF9D51D
:100CF000A942D4D3002070BD00BFFEE710B506495D
:100D0000064800F01FF84FF6FF700449091F0860FD
:100D1000091F086010BD00003CF000101064024084
:100D200010B50649064800F00DF84FF6FF7004496B
:100D300034390860091F086010BD000000F03C1045
:100D4000406402400246094B9A4201D2084801E041
:100D50000648103801F000531BB1064B0B40C3602E
:100D600002E0044B0B4083607047000010640240B7
:100D7000006002407D0F7D0F7047F0B50A460021EC
:100D80000023002400BF3DE0012505FA01F31568AA
:100D900005EA03049C4234D105684F000326BE4097
:100DA000B543056015794E00B540066835430560CA
:100DB0001579012D02D01579022D16D185684F00C5
:100DC0000326BE40B543856055794E00B540866820
:100DD00035438560456801268E40B54345604568CA
:100DE00096798E40B6B235434560C5684F000326FC
:100DF000BE40B543C560D5794E00B540C6683543A1
:100E0000C560491C1029BFD3F0BDF0B500230024F4
:100E10004D07ED0E02FA05F3CE1000F1200555F84E
:100E200026504E07F70E0F26BE40B543CF1000F1F7
:100E3000200646F82750CE1000F1200555F8265020
:100E400045EA0304CE1000F1200545F82640F0BD28
:100E500000BFFEE700BFFEE77047000070B500214D
:100E600000230F22C4781CB3174C246804F4E064F8
:100E7000C4F5E064C4F30721C1F10404E3B20A41FC
:100E800044789C40E1B28478144021430C07210E41
:100E90000E4C05786155047804F01F050124AC4020
:100EA00005786D11AD0005F1E025C5F8004109E0B8
:100EB000047804F01F050124AC40054D0678761136
:100EC00045F8264070BD00000CED00E000E400E0B5
:100ED00080E100E07047000029B1064A1268024331
:100EE000044B1A6004E0034A12688243014B1A6003
:100EF000704700003038024029B1064A12680243A8
:100F0000044B1A6004E0034A12688243014B1A60E2
:100F10007047000040380240F0B500210022002454
:100F2000022500260223324F3F6807F00C0121B151
:100F3000042905D0082937D105E02E4F076036E097
:100F40002D4F076033E02A4F3F1F3F68C7F380569D
:100F5000274F3F1F3F6807F03F036EB1264FB7FB97
:100F6000F3F7DFF88CC0ACF1040CDCF800C0CCF374
:100F7000881C07FB0CF40CE01E4FB7FBF3F7DFF8FF
:100F800070C0ACF1040CDCF800C0CCF3881C07FB8B
:100F90000CF4174F3F1F3F68C7F301477F1C7D00CC
:100FA000B4FBF5F7076002E0124F076000BF00BF17
:100FB0000F4F3F6807F0F0010909104F7A5C07688E
:100FC000D74047600A4F3F6807F4E051890A0B4F4A
:100FD0007A5C4768D7408760054F3F6807F46041F7
:100FE000490B064F7A5C4768D740C760F0BD0000E8
:100FF000083802400024F40040787D010000002001
:101000007047000000B58FB001210846FFF764FF6C
:10101000072202215148FFF7F8FE072203214F481B
:10102000FFF7F3FE02208DF8380000208DF83A001B
:1010300004200D9001208DF83B0002208DF839002E
:101040000DA94648FFF799FE02208DF838000820C8
:101050000D900DA94148FFF790FE01214804FFF7CC
:101060004BFF4FF4E13009900020ADF830000C2028
:10107000ADF82E000020ADF82C00ADF82A00ADF838
:10108000280009A9364800F0B7F9012240F225519D
:10109000334800F08BF926208DF8200001208DF8D0
:1010A00023008DF821008DF8220008A8FFF7D6FE56
:1010B00001212B4800F061F901218804FFF71CFF92
:1010C00001210220FFF718FF4FF4806005900220F5
:1010D0008DF819008DF8180005A92248FFF74DFE7C
:1010E0004FF40060059002208DF8180005A91D48F6
:1010F000FFF743FE4FF4E13001900020ADF8080007
:10110000ADF80A00ADF80C00ADF810000C20ADF8F9
:101110000E0001A9144800F06FF9012240F2255198
:10112000114800F043F9012240F224410E4800F03A
:101130003DF901210C4800F020F927208DF81C0012
:1011400006208DF81D0000208DF81E0001208DF86E
:101150001F0007A8FFF782FE0FB000BD000002408D
:101160000044004000040240004800400FB400B5B5
:101170009BB01DA8019002A8019A1C9900F0B2F939
:101180000020019002A800F017F81BB05DF814FBD6
:1011900010B504462146064800F09DF900BF8021A5
:1011A000034800F0F6F8034909688842F7D010BDFB
:1011B00000440040B882414270B50446002503E077
:1011C000605DFFF7E5FF6D1C605D0028F8D170BD24
:1011D0000CB50020019000903448006840F4803045
:1011E0003249086000BF3148006800F400300090C8
:1011F0000198401C0190009818B90198B0F5A04FD3
:10120000F1D12A48006800F4003010B101200090AC
:1012100001E0002000900098012846D1234840308A
:10122000006840F080502149403108602048006843
:1012300040F440401E4908601C48083000681B49C3
:10124000083108600846006840F40040086008461D
:10125000006840F4A05008601648091F0860081F85
:10126000006840F08070091F086000BF0F480068E8
:1012700000F000700028F9D040F205700E490860B7
:101280000A480830006820F0030008490831086067
:101290000846006840F00200086000BF03480830BC
:1012A000006800F00C000828F8D10CBD003802409E
:1012B0000070004019544007003C02407047000095
:1012C00010B51548006840F47000134908601348D1
:1012D000006840F001001149086000200F49083102
:1012E00008600E4800680E4908400C4908600D4827
:1012F000091D0860081F006820F48020091F08608D
:10130000002006490C310860FFF762FF4FF00060D3
:1013100001498039086010BD88ED00E000380240C6
:10132000FFFFF6FE1030002410B52021094800F020
:1013300030F801280DD1074800F0C8F800B206497E
:1013400008800878FFF724FF40F22551014800F09B
:1013500005F810BD004400403400002010B5002204
:10136000002340F66A14A14200D100BF0A120124F2
:101370009440A3B2DC43048010BD21B1828942F4C1
:101380000052828104E082894DF6FF731A40828107
:10139000704702460020B1F5007F00D100BF1388DE
:1013A0000B400BB1012000E000207047F0B5034670
:1013B000002400260025002040F66A17B94200D11B
:1013C00000BF1846C1F3421401F01F06012707FAB7
:1013D00006F5012C01D10C3004E0022C01D11030B3
:1013E00000E014301AB107682F43076002E0076875
:1013F000AF430760F0BD00002DE9FF4705460E46EC
:101400000024A14600BFA046B08900B100BF2C8ACD
:1014100024F44054F08804432C82AC8941F20C60DF
:101420008443B08831890843718908430443AC81FF
:10143000AC8A24F44074B0890443AC826846FFF758
:101440006BFD2048854202D01F48854202D1DDF85D
:101450000C9001E0DDF80890A88900F4004040B14C
:1014600009EBC90000EB091031684900B0FBF1F746
:1014700007E009EBC90000EB091031688900B0FBF7
:10148000F1F76420B7FBF0F004012009642101FBAF
:101490001078A88900F4004040B1322000EBC80069
:1014A000B0FBF1F000F00700044308E0322000EB4D
:1014B00008106421B0FBF1F000F00F0004432C8110
:1014C000BDE8FF87001001400014014001468888F4
:1014D000C0F308007047C1F308028280704700BF64
:1014E000FEE7000037B514460846064B6A4621461B
:1014F00000F0DCF804466946002000F05AFC204663
:101500003EBD0000B31D000802E008C8121F08C15C
:10151000002AFAD170477047002001E001C1121F74
:10152000002AFBD1704700002DE9FF5F82B0002147
:10153000DDE90430020DDDF840B0034318D044F675
:101540001050A2F2FF3242431514119801281FD007
:10155000A5EB0B00401C5FEA000A4FF000064E4F5F
:10156000DFF83891B046504615D5CAF1000413E0B3
:10157000119801244AA3012801D16FEA0B010298B6
:10158000119AC0E90031C0E9024206B0BDE8F09FFF
:10159000CBF10000DFE704460021404A491842EB46
:1015A0000450CDE9001012E0E00707D032463B4678
:1015B00040464946FFF7BFF88046894632463B46DB
:1015C00010461946FFF7B7F806460F466410002C80
:1015D000EAD1DDE90401DDE90023BAF1000F06DA02
:1015E000FFF7A9F842464B46FFF7A5F805E0FFF7DD
:1015F00082FA42464B46FFF77EFA04460E46002228
:10160000284BFFF7FFFA03D84FF0FF30014607E001
:101610000022254B20463146FFF7C6F9FFF7DAFADC
:10162000102409E0002C0ADB0A220023FFF71EF930
:10163000039B30321A55641E50EA0102F2D1641C39
:10164000039AC4F111031444119A012A03D0012210
:1016500008430DD10AE0084304D000204FF0110BDD
:10166000119072E7A3EB0B056D1E0DE05B4504DDE9
:101670004FF0000205F1010504E003DA4FF000022B
:10168000A5F10105002AECD002981199C0E90231B8
:10169000C0E9004579E70000000014400000F03F79
:1016A000300000000000F0430000E03F2DE9FF4F54
:1016B00095B09A46884606460025EEE1252877D162
:1016C00000242746F94A0121039400E0044316F858
:1016D000013F203B01FA03F01042F7D130782A286D
:1016E00011D06FF02F033078A0F13002092A16D8FC
:1016F000039A44F0020402EB820203EB420210441C
:10170000761C0390EFE758F8042B0392002A03DAC3
:10171000504244F40054039044F00204761C3078A4
:101720002E2816D116F8010F44F004042A280DD0F3
:101730006FF02F023078A0F13003092B09D807EBA6
:10174000870302EB4303C718761CF3E758F8047BC2
:10175000761C30786C280FD006DC4C2817D068280F
:101760000DD06A2814D104E0742810D07A280FD143
:101770000DE044F400140AE044F4801401E044F461
:1017800040147278824202D104F58014761C761CD3
:10179000307866280BD013DC582877D009DC002875
:1017A00075D04528F6D04628F4D047281AD193E1C1
:1017B00018E0632835D0642879D0652812D18BE1F0
:1017C000702873D008DC6728F1D069286FD06E28A4
:1017D0000DD06F2806D1ACE073282CD0752874D0BA
:1017E000782853D05246179990476D1C54E1C4F3A2
:1017F0000250022809D003280DD0D8F80010042880
:101800000DD00D6008F1040846E1D8F80010EA1781
:10181000C1E90052F6E7D8F800100D80F2E70D702C
:10182000F0E718F8041B8DF8001000208DF8010077
:10183000EB46012003E058F804BB4FF0FF3061078E
:101840004FF0000102D40DE009F101018946B942CF
:101850000FDA8145F8DB1BF809100029F4D108E004
:1018600009F1010189468142FADB1BF809100029C0
:10187000F6D103985346A0EB090721463846179A3C
:1018800000F080FA284400EB090507E044E008E195
:101890000DE01BF8010B524617999047B9F1010969
:1018A000F7D2534621463846179AF2E039E00A212A
:1018B000C4F302524FF0000B0091022A06D058F8F0
:1018C000040BC117032A09D00AE023E008F107003E
:1018D00020F00702F2E80201904605E000B2C117CD
:1018E000042A01D140B2C117002906DA0A460021B4
:1018F000404261EB02012D2202E0220504D52B2299
:101900008DF80420012203E0E20701D02022F7E74E
:10191000914657E00A2100E010214FF0000B0091A2
:101920000BE010214FF0000B44F004040827009155
:1019300003E008204FF0000B0090C4F30252022A8B
:1019400005D058F8040B0021032A08D008E008F15C
:10195000070020F00702F2E80201904603E080B29F
:10196000042A00D1C0B24FF0000922072AD53278EC
:10197000702A07D0DDF800C08CF0100C5CEA0B0C6C
:1019800005D00EE040228DF80420012208E050EA44
:10199000010306D030238DF804308DF80520022293
:1019A0009146009B83F0080353EA0B030AD150EAE7
:1019B000010201D1620705D530228DF804204FF0D5
:1019C00001097F1E3278582A04D039A20C920CAA41
:1019D00002920BE03BA2F9E75B46009AFEF746FF56
:1019E0000C9B9B5C029A521E0292137050EA0102F9
:1019F000F2D1029804A9081A00F1200B600702D561
:101A000024F4803400E001275F4502DDA7EB0B00E2
:101A100000E0002000EB0B01009003984944401ABD
:101A20000390E00306D453462146179A039800F02A
:101A3000A9F90544002706E001A85246C05D1799A0
:101A400090476D1C7F1C4F45F6DBE0030CD55346D9
:101A50002146179A039800F095F9054404E03020D8
:101A60005246179990476D1C0099481E0090002916
:101A7000F5DC08E00298029952460078491C029170
:101A8000179990476D1CBBF10001ABF1010BF1DC24
:101A90005BE100F065F90544761C307800287FF49E
:101AA0000DAE19B02846BDE8F08F000009280100EE
:101AB00030313233343536373839616263646566C4
:101AC0000000000030313233343536373839414286
:101AD0004344454600000000600700D4062708F193
:101AE000070020F00700F0E80223804603F0004CD6
:101AF0005FEA0C0001D097A009E0200501D596A06F
:101B000005E0E00701D095A001E0AFF24C00139092
:101B1000307823F0004365280CD006DC452809D036
:101B200046281DD047287FD13BE0662818D067287B
:101B30007AD136E00021112F01DB112000E0781C62
:101B4000CDE9000104A90CA8FFF7EEFCDDE90D01C9
:101B50000C9A4FF0000B07F10109109200914EE032
:101B60004FF000400097CDE9011004A90CA8FFF741
:101B7000DBFCDDE90D020C9B0F994FF0000B914649
:101B80001093009211B9791C00EB0109B7EB090021
:101B900003D4C0F1FF3B07F10109A9EB0700019055
:101BA00042E0012F00DA01270021112F01DD112071
:101BB00000E03846CDE9000104A90CA8FFF7B4FC09
:101BC000DDE90D010C9A00914FF0000BB94610921F
:101BD00021070FD4009A4A4503DA914601E0A9F1A2
:101BE0000109B9F1010F05DD109AA9F10101515C5C
:101BF0003029F4D0B84202DA10F1040F03DA0121DF
:101C0000CDE9011010E0002803DC8344A9EB0001BA
:101C100002E0411C494500DD8946A0EB0B00401C59
:101C200001904FF000400290200705D401984845EC
:101C300002DB4FF0FF30019000208DF84B0002983E
:101C40000DF14B07B0F1004F25D002200C902B2056
:101C50000D90029800280CDA404202902D200D9041
:101C600007E00A210298FEF7EBFD3031029007F8F9
:101C7000011D0C99481E0C900029F2DC02980028E6
:101C8000EFD1791E0D980870307800F0200040F0F8
:101C9000450007F8020D11A8C01BC01D0290139843
:101CA000007800B1012000EB0901019801EBE0711F
:101CB000029801440398401A401E0390E00306D4A2
:101CC00053462146179A039800F05CF80544139890
:101CD000007818B15246179990476D1CE00323D540
:101CE00053462146179A039800F04CF805441BE030
:101CF000BBF1000F07DB0098584504DD10981799D9
:101D000010F80B0001E017993020524690470198D7
:101D10000BF1010B401E05F10105019004D12E20AD
:101D20005246179990476D1CB9F10001A9F10109BC
:101D3000DEDC05E017F8010B5246179990476D1C41
:101D40000299481E02900029F4DC53462146179A56
:101D500003989EE62D0000002B00000020000000EC
:101D60002DE9F041044600251E461746880404D498
:101D700005E039462020B0476D1C641EF9D5284681
:101D8000BDE8F0812DE9F041044600251E4690464D
:101D9000C80301D5302700E02027880404D505E0DA
:101DA00041463846B0476D1C641EF9D52846BDE84B
:101DB000F0810A68531C0B601070704700B5034631
:101DC00003E04FF47A7000F005F8181EA3F1010348
:101DD000F7D100BDA82141434FF0E022516100211D
:101DE00091610521116100BF4FF0E021096901F403
:101DF00080310029F8D004214FF0E02211617047B2
:101E000010B5002821D0114B0022001F196803E0F3
:101E1000814203D80A4649680029F9D152B11368B2
:101E2000841A9C4204D1006818441060104602E0F5
:101E3000506000E0186039B102680B1A934203D178
:101E40000B681A4402604968416010BDD815002033
:101E500030B52DED028B85B0FFF7D4F80C2000F0E3
:101E60004DF8054625B9002005B0BDEC028B30BD0C
:101E70001B4800681B4B1C4A00901C4801882846E0
:101E8000FEF739FC16481A4A1A4903682846FEF735
:101E900099F900241BE0164800EB840090ED000A3D
:101EA0008DED010A124800EB840090ED000A10EE5F
:101EB000101A0846FEF7B1FC41EC180B53EC182B36
:101EC0000DA0FFF753F90120FFF778FF641CB4F56C
:101ED000A06FE0DD2846FFF793FF00250020C3E751
:101EE000D4150020E4290020401400203C140020D8
:101EF000E01500203800002025660A00F0B50B3000
:101F0000154D20F007010024144A0FE003688B42AE
:101F10000BD38B4205D95E1A43184768C3E90067A3
:101F200000E04368136002C004E0021D106800284E
:101F3000ECD12046002802D1286808B10020F0BD6D
:101F4000064A07481060074A121A22F00702C0E941
:101F5000002401202860D7E7DC150020D8150020D8
:101F60007C3F002078410020881F000800000020EE
:101F7000E01500009A0C000838230008E015002046
:101F8000988B0000181500081200012005010203BB
:101F900004041006060708090110120A041264045A
:101FA000501AE803000010270000A08601004042FC
:101FB0000F008096980000E1F505000130BC8E040A
:101FC0007A3E631EF63EFBC9333F64F6663F928756
:101FD000893FBC699B3F94A9A83FC5FBB03F7F44A4
:101FE000B43F6A98B23FB73BAC3F679FA13FCD5C1F
:101FF000933F922F823FBADC5D3FF304353F89BDAA
:102000000B3FF1D8C73EA2947D3EF1B1FE3D1C1DB1
:10201000D73C6FDC2BBD37479DBD0CE59BBD65BB39
:1020200020BDC46A073D1AE30D3E971F8C3EA401F4
:10203000DE3EE3CC1C3F9FBF4D3F0000803F40D1C0
:10204000983FFC5DB03F43BAC53FD90CD83F959748
:10205000E63FB5BEF03FE30EF63FAF41F63F4B40E3
:10206000F13F7B24E73FA637D83F12F0C43F6EEC28
:10207000AD3FC7ED933F6AA06F801041B2F3F33ECE
:102080001DE0803E615E243D662C1BBEE97DA2BE44
:10209000D3ABE7BE7EA00DBF75081EBF55D624BFCB
:1020A000463322BF3EA716BF831303BF7253D1BE70
:1020B000C8BF91BEF68615BEA48FD3A508123E10E8
:1020C000123E18123E20123F28123F30123F3812A3
:1020D0003F40123F48123F50123E58123E60216866
:1020E00012BD7012BE7812BE8012BF8812BF90124D
:1020F000BF9812BFA012BFA812BFB012BFB812BFC4
:10210000C012BFC812BFD012BFD812BFE012BFE8C2
:1021100012BFF012BFF816BF0016BF0816BF101688
:10212000BF1816BE2016BE2816BE302538163D40F4
:10213000163D48163D50255816BC6016BD6816BEA3
:102140007016BE7822BF80158816BF9016BF9816ED
:10215000BFA016BFA816BFB016BFB816BFC016BF27
:10216000C816BFD016BFD816BFE016BFE816BFF01E
:1021700016BEF80806FABE0ED2AFA6000805FAD6BB
:10218000869EA6000805FA868A30A7000805FA236D
:102190007B7B27000804FBC63984000C05FC8ABC45
:1021A000112800040AFBB0000805FAB9826EA700E6
:1021B0000805FC8FF75028000EFBEE00060805FA14
:1021C000E46704A8000804FB6DD9D3000C04FBC32A
:1021D00031F300040C05FD5E8CB927000C0DFB00EB
:1021E000040804FB12E39E000804FB8C2846000848
:1021F00004FB029684001C0624DED12865241430DA
:10220000CCB7F31ABB7E7F27BB63B231BB58E6382D
:10221000BB62D03BBB1A9838BBDD032DBB8DB61615
:10222000BBDAF3E6BACA1E83BA214EA222B837A29D
:102230003A3464303B98878D3BDD70C63B8E11008D
:102240003C95A01B3C9802343CA63B473C095753A5
:102250003C7F8A563C235A4F3C62BA3C3C982D1E28
:102260003CA5B5E73BD96E7A3B9508DCA2B1748BEF
:10227000BB8DBA0FBC7EAB5ABCE97191BCEC4AB2C3
:10228000BC3D02CEBC21DDE2BC925FEFBCD664F265
:10229000BC3234EBBC5190D9BC43C0BDBC43919817
:1022A000BC00A256BCE401DFBB0C63B6A3762AE6F1
:1022B0003BD1A4643C67C4A73CB469D73C9F08FFEA
:1022C0003C72610E3D9F97173D66B61A083110119A
:1022D0001821202128213021382140214821502156
:1022E0005821602168217021782180218821902146
:1022F0009821A021A821B021B821C021C821D02136
:10230000D821E021E821F021F82500250825102515
:1023100018252025282530253825402548255025F5
:102320005825602568257025782580258825907E8C
:0823300001A2150300000000EA
:04000005080001A14D
:00000001FF
