:020000040800F2
:1000000000090020A10100089D1300083B11000811
:1000100099130008810D00083D160008000000003B
:10002000000000000000000000000000C1130008F4
:10003000950E0008000000009F130008111500082D
:10004000BB010008BB010008BB010008BB010008A0
:10005000BB010008BB010008BB010008BB01000890
:10006000BB010008BB010008BB010008BB01000880
:10007000BB010008BB010008BB010008BB01000870
:10008000BB010008BB010008BB010008BB01000860
:10009000BB010008BB010008BB010008BB01000850
:1000A000BB010008BB010008BB010008BB01000840
:1000B000BB010008BB010008BB010008BB01000830
:1000C000BB010008BB010008BB010008BB01000820
:1000D000BB010008BB010008BB0100087D1500083A
:1000E000BB010008BB010008BB010008BB01000800
:1000F000BB010008BB010008BB010008BB010008F0
:10010000BB010008BB010008BB010008BB010008DF
:10011000BB010008BB010008BB010008BB010008CF
:10012000BB010008BB010008BB010008BB010008BF
:10013000BB010008BB010008BB010008BB010008AF
:10014000BB010008BB010008BB010008BB0100089F
:10015000BB010008BB010008BB010008BB0100088F
:10016000BB010008BB010008BB010008BB0100087F
:10017000BB010008BB010008BB010008BB0100086F
:10018000BB010008BB010008DFF810D000F078FBCD
:1001900000480047F1200008AFF30080000900206C
:1001A0000648804706480047FEE7FEE7FEE7FEE711
:1001B000FEE7FEE7FEE7FEE7FEE7FEE715150008AF
:1001C000890100082DE9FE4F804681EA0300C00F37
:1001D0000C46009021F0004123F00045B8EB0200EE
:1001E000A94105D24046214690461C460B46024690
:1001F00023F00040104347D0270DC7F30A00C3F394
:100200000A510290401A019040286BDAC3F31300A0
:1002100040F4801B0098924620B10023D2EB030AE1
:1002200063EB0B0B01985946C0F14002504600F0B9
:1002300082F906460D4650465946019A00F08AF961
:1002400010EB08006141002487EA115284EAE77349
:100250001A4340D0009A62B3019A012A4FEA07522A
:1002600015DC001B61EB02014FF0004202EA07526D
:10027000CDE90042001C41F5801132462B4600F0CA
:10028000C1F903B0BDE8F08F40462146F9E7001BF5
:1002900061EB0201001C41F5801300185B4120183E
:1002A000A2F5001747EB030140EAD570B6196D417E
:1002B00011E06D084FEA360645EAC0754FEA07526D
:1002C000001B61EB0201001C41F5801149084FEA57
:1002D00030000019514132462B4603B0BDE8F04FC3
:1002E00000F081B90098012240000023D0EB020207
:1002F00063EBE073009821464FEAE074B8EB00002E
:1003000061EB0401E9E783F000435BE781F0004122
:1003100058E72DE9FE4F81EA030404F0004421F080
:10032000004100944FF0000B23F0004350EA010419
:100330005ED052EA03045BD0C3F30A54C1F30A55FA
:100340002C44A4F2F3340194A0FB0254C1F3130132
:1003500041F48011C3F3130343F4801301FB0244FF
:1003600000FB034E840A970A44EA815447EA835704
:10037000A4FB076802958D0A05FB07854FEA932CBD
:1003800004FB0C542705029D4FEA065847EA16372E
:10039000B5EB08056EEB070C870E920E47EA811746
:1003A00042EA8312A7FB0201B6EB0B0164EB0004E7
:1003B0002B0D43EA0C335E1844EB1C50DA465146D1
:1003C000E7FB0201C5F313044FEA0B3343EA14536E
:1003D0004FEA0432019C43EA0603A4F10C040294A0
:1003E000009CCDE900B400F00DF903B0BDE8F08F3A
:1003F00000200146F9E70EB5C10F80EAE07008441D
:10040000CA07002140F233438DE80E000A460B462E
:1004100000F0F8F803B000BD00F0004230F00040FA
:100420000AD0C10D01F56071C0F3160042EA015116
:10043000C208400711437047002001467047000082
:1004400030B5041E71F1000404DB4FF0004440425B
:1004500064EB0101141E73F1000405DB1C464FF030
:100460000043524263EB04038B4208BF824230BD1B
:1004700001F0004330B421F0004150EA010206D0FF
:100480000A0DA2F56072C1F31301002A02DC30BC30
:1004900000207047440F44EAC104C100E01830BC9A
:1004A00000EBC25000F068B830B50B4601460020A2
:1004B0002022012409E021FA02F59D4205D303FA26
:1004C00002F5491B04FA02F52844151EA2F10102A7
:1004D000F1DC30BD2DE9F05F0546002092469B46D9
:1004E00088460646814640241BE02846414647464A
:1004F000224600F0D7F953465A46C01A914110D30C
:1005000011461846224600F016F82D1A67EB01082E
:100510004F4622460120002100F00DF817EB00099C
:100520004E41201EA4F10104DFDC484631462A4634
:100530004346BDE8F09F202A04DB203A00FA02F18E
:10054000002070479140C2F1200320FA03F31943C1
:1005500090407047202A06DBCB17203A41FA02F080
:1005600043EAE07306E041FA02F3D040C2F1200210
:1005700091400843194670470029A8BF7047401CA6
:10058000490008BF20F00100704710B4B0FA80FCA9
:1005900000FA0CF050EA010404BF10BC704749B1E6
:1005A000CCF1200421FA04F411FA0CF118BF012156
:1005B00021430843A3EB0C01CB1D4FEA00614FEA36
:1005C000102042BF002010BC704700EBC350104405
:1005D0000029A4BF10BC7047401C490008BF20F090
:1005E000010010BC704710B5141E73F1000408DA46
:1005F000401C41F1000192185B411A4301D120F0E7
:10060000010010BD2DE9F04D92469B4611B1B1FAA3
:1006100081F202E0B0FA80F220329046FFF78BFFC1
:1006200004460F4640EA0A0041EA0B0153465A4687
:10063000084313D0114653EA010019D0C8F1400213
:10064000504600F02FF905460E46504659464246A0
:10065000FFF771FF084305D0012004E0204639462A
:10066000BDE8F08D0020054346EAE0762C43374391
:100670000A986305E40AA0EB08000022FD0A44EA98
:1006800047540A3002D500200146E9E70105101958
:100690006941DDE9084500196941BDE8F04DA2E76F
:1006A0002DE9F04D81EA030404F0004B21F00045F0
:1006B00014464FF0000A23F0004150EA050220D012
:1006C00054EA01021DD0C5F30A570246C5F31303CD
:1006D000C1F31300C1F30A5640F4801543F48013AC
:1006E000A7EB0608101BD64608F2FD3873EB050091
:1006F00002D308F1010801E092185B41B8F1000F44
:1007000003DA00200146BDE8F08D00204FF480118F
:10071000064684460EE0171B73EB050705D3121B34
:1007200063EB050306434CEA010C49084FEA30002D
:1007300092185B4150EA0107EDD152EA030012D052
:1007400082EA040083EA0501084305D0101BAB418F
:1007500006D20122002306E000224FF0004302E00F
:100760006FF0010253101AEB06004CEB085110EB2E
:100770000A0041EB0B01BDE8F04DFFF734BF2DE956
:10078000F04D00231A461B1A8A4103DB0020014664
:10079000BDE8F08DC1F30A52C1F3130141F4801595
:1007A0004FF0000BD10702D100186D41521E0027F7
:1007B000044640F2FF11384601EB620A3E4680468D
:1007C000024600204FF4801100F06CF8C21971410C
:1007D000BB1846EB0100B4EB030C75EB000C04D323
:1007E000E41A65EB000517460E46241908F10100CE
:1007F0006D4180463428E3DDF91946EB0600091BFC
:10080000A84103D24FF0FF32134601E00022134605
:100810001BEB070046EB0A51BDE8F04DFFF7E3BEC6
:10082000C1F30A52C1F3130140F2FF3341F48011C6
:100830009A4202DA00200146704740F233439A425E
:10084000A2F2334202DC524200F02CB8FFF773BE32
:1008500030B5041E71F1000404DB4FF00044404247
:1008600064EB0101141E73F1000405DB1C464FF01C
:100870000043524263EB0403994208BF904230BDEB
:10088000064C074D06E0E06840F0010394E80700DD
:1008900098471034AC42F6D3FFF77AFC24220008C4
:1008A00044220008202A04DB203A21FA02F0002129
:1008B000704721FA02F3D040C2F120029140084370
:1008C0001946704721B1826842F00102826003E05C
:1008D000826822F001028260704700000021084A0D
:1008E0001168084A1140D0E900231A4383681A436B
:1008F000C3681A431143044AC2F804137047000046
:1009000004230140E030FCFF002001400146C86C98
:1009100080B2704730B50246002000235068104C6A
:1009200020400D790C6844EA05242043506090680B
:100930000C4C2040D1E903542C438D682C434D7955
:1009400044EA450420439060D06A20F470000C7D96
:10095000641EE4B2234340EA0350D06230BD00007D
:10096000FFFEFFFCFDF7FFC0F0B504460D4600207A
:100970000021092D11DDE068A5F10A0606EB460706
:10098000072606FA07F18843A5F10A0606EB460694
:1009900003FA06F10843E0600CE0206905EB450727
:1009A000072606FA07F1884305EB450603FA06F128
:1009B00008432061072A0FDA606B561E06EB860794
:1009C0001F2606FA07F18843561E06EB860605FA2F
:1009D00006F10843606322E00D2A0FDA206BD61F70
:1009E00006EB86071F2606FA07F18843D61F06EB9B
:1009F000860605FA06F10843206310E0E06AA2F1DA
:100A00000D0606EB86071F2606FA07F18843A2F1BA
:100A10000D0606EB860605FA06F10843E062F0BD16
:100A2000816841F080418160704708B500200090E6
:100A300000F04CF900208DF8030058208DF80200DA
:100A400000208DF8010005208DF800006946042083
:100A500000F00CFE00208DF80300EC208DF8020061
:100A600080208DF801003C208DF8000069460420AC
:100A700000F0FCFD00208DF803008DF8020004203A
:100A80008DF80100B3208DF800006946042000F0C5
:100A9000EDFD00208DF8030001208DF802000E20EE
:100AA0008DF8010042208DF800006946042000F016
:100AB000DDFD00208DF803008DF8020080208DF808
:100AC000010029208DF800006946042000F0CEFDC9
:100AD00000208DF803002C208DF8020080208DF876
:100AE000010018208DF800006946042000F0BEFDCA
:100AF00008BD00002DE9F04F2DED048B83B0B0EE62
:100B0000408A01264FF000084FF0000B00200290B1
:100B100001909FED660AB4EEC08AF1EE10FA03D29E
:100B20009FED620AB0EE408A9FED610AB4EEC08A82
:100B3000F1EE10FA03DD9FED5E0AB0EE408A4FF44D
:100B40007A75B2EE040A28EE000ABCEEC00AB8EECE
:100B5000400AF2EE040A80EE201AB0EE418ABCEEA2
:100B6000C80A10EE100A87B24FF0000926E007FB12
:100B700006F000EE100AB8EEC00ADFED4E0AB4EE41
:100B8000E00AF1EE10FA0DDB07FB06F0FFF733FC8D
:100B900041EC190B9FED480B53EC102BFFF750FC69
:100BA00000D80EE008F101001FFA80F84FF6FF7040
:100BB00000EA460609F101001FFA80F9B9F10A0FAF
:100BC000D5DB00BF00EE106AB8EE400A28EE000A3E
:100BD000F3EE090AC0EE208ABCEEE80A10EE100A15
:100BE0001FFA80FA9FED360A28EE800ABCEEC00A92
:100BF00010EE100A4FF47A71B0FBF1F201FB12040F
:100C000007E0052094FBF0F084B2052095FBF0F09E
:100C100085B2052094FBF0F100FB114030B90520AE
:100C200095FBF0F100FB11500028EAD009E02046C6
:100C300004EBD071C1F34F04284605EBD071C1F32A
:100C40004F05214604EBD1725210A4EB42023AB98F
:100C5000284605EBD0725210A5EB4202002AE6D0DE
:100C6000072098FBF0F100FB11801FFA80F84FEA93
:100C7000CA3000EBC40B48F2010000EBC500029043
:100C8000104800EB085001900F4800F0D9FC029882
:100C900000F0D6FC584600F0D3FC019800F0D0FCE0
:100CA00003B0BDEC048BBDE8F08F000000000C42E7
:100CB00000808945667E09459A9999991930B14015
:100CC00000007A443C808C001C80EC001CB50121A3
:100CD000042000F065FB4FF4F050009002208DF8E6
:100CE000050001208DF8040000208DF806006946FB
:100CF000014800F0D0F81CBD0008024000B58DB0DE
:100D0000012140F2011000F04BFB00200590039000
:100D10004FF4403004904FF47060069003A8FFF742
:100D2000DDFD0A20019003208DF8080001A912487A
:100D300000F0B1F801208DF8210000200B900A90FE
:100D400001208DF830000020079001208DF8200050
:100D500007A90A48FFF7DEFD01210848FFF7B2FDA9
:100D60000623012211460548FFF7FEFD0348FFF761
:100D700057FE0DB000BD0000000002400020014001
:100D800000BFFEE710B52DED088B00F02FF92748C6
:100D900080ED000A00F0C8F8254880ED000A2548DB
:100DA000D0ED000A9FED240A9FED241A01EE200ADF
:100DB000234880ED000A0068FFF72EFB41EC190B79
:100DC0001B4890ED000ADFED1F0A80EE801A61EEED
:100DD000010AB0EE001A80EE810ADFED1B0A20EE58
:100DE000200A1A48D0ED000A20EE200A10EE104A20
:100DF0002046FFF711FB41EC1B0BB0EE4B0AF0EE67
:100E00006B0A00F0A1FCB0EE40AAF0EE60AA53EC31
:100E1000192B51EC1A0BFFF776FA41EC180BFFF780
:100E200027FB0B490860BDEC088B10BD3400002087
:100E30002C00002024000020EC51B83F3D8ABE4227
:100E4000200000203333D340DA0F4940380000201F
:100E50003C00002010B52DED048BB0EE408A00F070
:100E6000C5F80A48D0ED000A30EE200AF0EE408ABC
:100E700028EE880ADFED060A80EE201AB0EE419ACD
:100E8000B0EE490ABDEC048B10BD00002800002024
:100E9000000034447047F0B50A46002100230024C6
:100EA00000BF3DE0012505FA01F3156805EA0304DA
:100EB0009C4234D105684F000326BE40B54305600F
:100EC00015794E00B5400668354305601579012D4A
:100ED00002D01579022D16D185684F000326BE4039
:100EE000B543856055794E00B540866835438560C9
:100EF000456801268E40B5434560456896798E4029
:100F0000B6B235434560C5684F000326BE40B543C1
:100F1000C560D5794E00B540C6683543C560491CEB
:100F20001029BFD3F0BD000010B52DED088B642152
:100F3000012000F0EBF800EE100AB8EE400AB0EE27
:100F4000408A18EE100AFFF767FA41EC1B0B9FED81
:100F5000220B53EC102BFFF7DCF941EC1A0BFFF7D7
:100F600087FA08EE100AF0EE488ABDEEE80A10EEA5
:100F7000101A1BA000F025FABDEEE80AB8EEC00A70
:100F800038EEC00AB0EE409A9FED160A29EE000A2C
:100F9000B0EE409ABDEEC90A10EE101A10A000F093
:100FA00010FADFED110AB3EE0E0A10EE880AB0EE69
:100FB000408AB3EE040AC8EE000AF0EE601AB0EE02
:100FC000610A0A2001F01EF9B0EE408AB0EE480A2C
:100FD000BDEC088B10BD00006666666666664A3F1B
:100FE0002564000000401C465555054210B52DED06
:100FF000028B6421032000F089F800EE100AB8EE9D
:10100000400AB0EE408A9FED180A28EE000AB0EEC2
:10101000408AF0EE488ABDEEE80A10EE101A13A0DE
:1010200000F0CFF9BDEEE80AB8EEC00A38EEC00A0B
:10103000F0EE408A9FED0E0A28EE800AF0EE408A1C
:10104000BDEEE80A10EE101A08A000F0BAF99FED04
:10105000090ADFED090A00EE880AB0EE408AB0EE18
:10106000480ABDEC028B10BD3333533A25640000AF
:1010700000401C4660FA35435DCDC5C210B504463C
:101080001C48FFF743FC1C4908600846006840F60E
:10109000E441484340F6FF7190FBF1F017490860C6
:1010A0000020174908601BE01648006813490968CA
:1010B0000844144908601248006842F20F718842DF
:1010C00009D110480068491C90FBF1F00E490860F6
:1010D00000200C4908600A480068401C0849086064
:1010E0000748006842F210718842DDDB0148FFF7D3
:1010F0000DFC10BD00200140000000200C0000206D
:101100001000002014000020180000202DE9F041FC
:1011100007460C460025002608E03846FFF7AEFFDC
:101120000544052000F0C1FF701CC6B2A642F4DBE6
:10113000B5FBF4F080B2BDE8F08100BFFEE700002F
:1011400070B52DED048B9FED3A0A3A4880ED000A08
:1011500090ED000AFFF7CEFCFFF714FE364890ED45
:10116000000AB0EE408A9FED320A324880ED000A54
:1011700090ED000AFFF7BEFCFFF704FE2E4890ED4D
:10118000000AF0EE408A9FED2A0A2A4880ED000A04
:1011900090ED000AFFF7AEFCFFF7F4FD264890ED56
:1011A000000AB0EE409AB0EE491AF0EE680AB0EECE
:1011B000480A00F079FF0546C5B101201F490870B3
:1011C00000240AE0FFF7DEFD1B4890ED000A1C48F2
:1011D00000EB840080ED000A641C642CF2DB1848EC
:1011E00000F04EFF144880ED000A1EE00220134973
:1011F0000870002011E0134991ED000ADFED120A9A
:1012000080EE801A114981ED001A91ED000A104913
:1012100001EB800181ED000A401C6428EBDB0C48E7
:1012200000F02EFF094880ED000ABDEC048B70BD74
:1012300000007042380000203C00002044000020E4
:10124000DC0100202C0000203333D340400000207C
:101250006C03002010B5B0EE040A4A4880ED000A85
:1012600090ED000AFFF746FC9FED470AFFF7F2FDFD
:10127000464880ED000A90ED000AF2EE040AB4EE52
:10128000E00AF1EE10FA0EDB002409E09FED3E0AC1
:10129000FFF7E0FD3E4800EB840080ED000A641C8F
:1012A000642CF3DB66E0B1EE040A364880ED000AF8
:1012B00090ED000AFFF71EFC9FED360AFFF7CAFD0E
:1012C000324880ED000A90ED000AF1EE040AB4EE17
:1012D000E00AF1EE10FA0EDB002409E09FED2D0A82
:1012E000FFF7B8FD2A4800EB840080ED000A641C7B
:1012F000642CF3DB3EE0B2EE040A224880ED000AE3
:1013000090ED000AFFF7F6FBB3EE050AFFF7A2FD2A
:101310001E4880ED000A90ED000AF0EE000AB4EEDF
:10132000E00AF1EE10FA0EDB002409E0B3EE050A44
:10133000FFF790FD164800EB840080ED000A641C66
:10134000642CF3DB16E0B3EE040A0E4880ED000ACD
:1013500090ED000AFFF7CEFB002409E0B2EE050A8B
:10136000FFF778FD0A4800EB840080ED000A641C5A
:10137000642CF3DB064800F083FE044880ED000A8D
:1013800010BD0000380000200000A842240000200A
:101390004C0000200000284200BFFEE77047704765
:1013A00029B1064A12680243044B1A6004E0034A5A
:1013B00012688243014B1A607047000044380240B3
:1013C00070470FB400B59BB01DA8019002A8019A08
:1013D0001C9900F0A7F90020019002A800F016F86F
:1013E0001BB05DF814FB000010B50446214605480B
:1013F00000F020F900BF8021034800F0DFF800284A
:10140000F9D010BD004800400044004070B50446CB
:10141000002503E0605DFFF7E7FF6D1C605D0028BD
:10142000F8D170BD0CB500200190009034480068E0
:1014300040F480303249086000BF3148006800F451
:10144000003000900198401C0190009818B9019854
:10145000B0F5A04FF1D12A48006800F4003010B177
:101460000120009001E0002000900098012846D162
:1014700023484030006840F08050214940310860E6
:101480002048006840F440401E4908601C4808306D
:1014900000681B49083108600846006840F40040B5
:1014A00008600846006840F4A05008601648091F0C
:1014B0000860081F006840F08070091F086000BFC6
:1014C0000F48006800F000700028F9D040F2057065
:1014D0000E4908600A480830006820F003000849F7
:1014E000083108600846006840F00200086000BF4C
:1014F00003480830006800F00C000828F8D10CBD43
:10150000003802400070004019544007003C02407F
:101510007047000010B51548006840F4700013498A
:1015200008601348006840F001001149086000207D
:101530000F49083108600E4800680E4908400C4900
:1015400008600D48091D0860081F006820F480200D
:10155000091F0860002006490C310860FFF762FF90
:101560004FF0006001498039086010BD88ED00E04F
:1015700000380240FFFFF6FE1030002410B540F2A4
:1015800025510C4800F027F890B10A4800F04DF8BA
:10159000C4B2232C03D101200749087008E0452C70
:1015A00003D102200449087002E0002002490870BB
:1015B00010BD0000004800401C0000200246002032
:1015C000B1F5007F00D100BF13880B400BB10120A3
:1015D00000E00020704770B502460024002300257B
:1015E000002040F66A16B14200D100BFC1F3421597
:1015F00001F01F03012606FA03F3012D02D196899B
:10160000334006E0022D02D1168A334001E0968A6B
:1016100033400C12012606FA04F41688344013B144
:101620000CB1012000E0002070BD01468888C0F3A5
:1016300008007047C1F308028280704700BFFEE7D0
:1016400038B5044600200090200E8DF80300200CD1
:101650008DF80200200A8DF80100E0B28DF800003C
:101660006946042000F002F838BD00002DE9F04181
:1016700005460E4600270024A046012027490860A1
:1016800000F01FFD00202649C1F8AC0123490C39A8
:101690000860012000F015FD2C462AE0301910F8F2
:1016A000017C4FF000081FE007F08000802804D183
:1016B00001201A490839086003E000201749083959
:1016C0000860012000F0FDFC01201449091F08609A
:1016D00000F0F7FC7806070E00201149C1F8AC01B4
:1016E00008F1010000F0FF08B8F1080FDCDB601E14
:1016F000C4B2002CD2DC002008490839086001205F
:1017000000F0DFFC01200649C1F8A40100F0D9FC7B
:10171000002002490C390860BDE8F081B001414267
:101720000000414237B514460846064B6A4621463A
:1017300000F01EF904466946002000F09CFC20469B
:101740003EBD00007720000800B52DED048BB0EE03
:10175000409AF0EE609A83B051EC190BFFF70FF846
:1017600041EC180B18EE100A18EE901A8DED008B54
:10177000002818BF0120084320F00040C0F17F601E
:1017800000F1E040C00F14D019EE101A19EE900AC3
:101790008DED009B002918BF0121084320F0004077
:1017A000C0F17F6000F1E040C00F04BF012000F0F5
:1017B00017F8B0EE480A03B0F0EE680ABDEC048BEF
:1017C00000BD02E008C8121F08C1002AFAD1704704
:1017D0007047002001E001C1121F002AFBD17047B1
:1017E0000149086070470000480000202DE9FF5FB4
:1017F00082B00021DDE90430020DDDF840B0034382
:1018000018D044F61050A2F2FF324243151411983A
:1018100001281FD0A5EB0B00401C5FEA000A4FF027
:1018200000064E4FDFF83891B046504615D5CAF144
:10183000000413E0119801244AA3012801D16FEAA2
:101840000B010298119AC0E90031C0E9024206B0CA
:10185000BDE8F09FCBF10000DFE704460021404ADD
:10186000491842EB0450CDE9001012E0E00707D020
:1018700032463B4640464946FEF74BFD8046894688
:1018800032463B4610461946FEF743FD06460F46D4
:101890006410002CEAD1DDE90401DDE90023BAF18E
:1018A000000F06DAFEF735FD42464B46FEF731FDE6
:1018B00005E0FEF7F5FE42464B46FEF7F1FE044614
:1018C0000E460022284BFEF7C3FF03D84FF0FF302F
:1018D000014607E00022254B20463146FEF772FC08
:1018E000FEF79EFF102409E0002C0ADB0A220023E9
:1018F000FEF7F0FD039B30321A55641E50EA0102D8
:10190000F2D1641C039AC4F111031444119A012A00
:1019100003D0012208430DD10AE0084304D000207F
:101920004FF0110B119072E7A3EB0B056D1E0DE04C
:101930005B4504DD4FF0000205F1010504E003DA28
:101940004FF00002A5F10105002AECD00298119990
:10195000C0E90231C0E9004579E700000000144009
:101960000000F03F300000000000F0430000E03FC6
:101970002DE9FF4F95B09A46884606460025EEE1D0
:10198000252877D100242746F94A0121039400E055
:10199000044316F8013F203B01FA03F01042F7D14F
:1019A00030782A2811D06FF02F033078A0F1300260
:1019B000092A16D8039A44F0020402EB820203EBD0
:1019C00042021044761C0390EFE758F8042B039270
:1019D000002A03DA504244F40054039044F0020415
:1019E000761C30782E2816D116F8010F44F0040426
:1019F0002A280DD06FF02F023078A0F13003092B88
:101A000009D807EB870302EB4303C718761CF3E7FB
:101A100058F8047B761C30786C280FD006DC4C28F4
:101A200017D068280DD06A2814D104E0742810D08B
:101A30007A280FD10DE044F400140AE044F4801435
:101A400001E044F440147278824202D104F580141B
:101A5000761C761C307866280BD013DC582877D09B
:101A600009DC002875D04528F6D04628F4D0472850
:101A70001AD193E118E0632835D0642879D065281D
:101A800012D18BE1702873D008DC6728F1D0692867
:101A90006FD06E280DD06F2806D1ACE073282CD003
:101AA000752874D0782853D05246179990476D1CEA
:101AB00054E1C4F30250022809D003280DD0D8F80D
:101AC000001004280DD00D6008F1040846E1D8F894
:101AD0000010EA17C1E90052F6E7D8F800100D80AF
:101AE000F2E70D70F0E718F8041B8DF800100020E5
:101AF0008DF80100EB46012003E058F804BB4FF0DD
:101B0000FF3061074FF0000102D40DE009F101013F
:101B10008946B9420FDA8145F8DB1BF80910002924
:101B2000F4D108E009F1010189468142FADB1BF892
:101B300009100029F6D103985346A0EB0907214666
:101B40003846179A00F080FA284400EB090507E0B0
:101B500044E008E10DE01BF8010B5246179990474D
:101B6000B9F10109F7D2534621463846179AF2E0F7
:101B700039E00A21C4F302524FF0000B0091022A0F
:101B800006D058F8040BC117032A09D00AE023E055
:101B900008F1070020F00702F2E80201904605E094
:101BA00000B2C117042A01D140B2C117002906DAD8
:101BB0000A460021404261EB02012D2202E022058B
:101BC00004D52B228DF80420012203E0E20701D086
:101BD0002022F7E7914657E00A2100E010214FF05C
:101BE000000B00910BE010214FF0000B44F00404B7
:101BF0000827009103E008204FF0000B0090C4F389
:101C00000252022A05D058F8040B0021032A08D0FA
:101C100008E008F1070020F00702F2E80201904610
:101C200003E080B2042A00D1C0B24FF000092207BD
:101C30002AD53278702A07D0DDF800C08CF0100C5D
:101C40005CEA0B0C05D00EE040228DF80420012246
:101C500008E050EA010306D030238DF804308DF8F7
:101C6000052002229146009B83F0080353EA0B03F0
:101C70000AD150EA010201D1620705D530228DF860
:101C800004204FF001097F1E3278582A04D039A26F
:101C90000C920CAA02920BE03BA2F9E75B46009A79
:101CA000FEF718FC0C9B9B5C029A521E029213706A
:101CB00050EA0102F2D1029804A9081A00F1200B9F
:101CC000600702D524F4803400E001275F4502DD7F
:101CD000A7EB0B0000E0002000EB0B010090039845
:101CE0004944401A0390E00306D453462146179A0C
:101CF000039800F0A9F90544002706E001A8524620
:101D0000C05D179990476D1C7F1C4F45F6DBE003C3
:101D10000CD553462146179A039800F095F90544CF
:101D200004E030205246179990476D1C0099481ED8
:101D300000900029F5DC08E00298029952460078EC
:101D4000491C0291179990476D1CBBF10001ABF142
:101D5000010BF1DC5BE100F065F90544761C30789D
:101D600000287FF40DAE19B02846BDE8F08F0000C2
:101D70000928010030313233343536373839616261
:101D80006364656600000000303132333435363725
:101D9000383941424344454600000000600700D402
:101DA000062708F1070020F00700F0E8022380462C
:101DB00003F0004C5FEA0C0001D097A009E0200579
:101DC00001D596A005E0E00701D095A001E0AFF2B3
:101DD0004C001390307823F0004365280CD006DCCB
:101DE000452809D046281DD047287FD13BE06628EA
:101DF00018D067287AD136E00021112F01DB11209D
:101E000000E0781CCDE9000104A90CA8FFF7EEFC66
:101E1000DDE90D010C9A4FF0000B07F1010910925A
:101E200000914EE04FF000400097CDE9011004A969
:101E30000CA8FFF7DBFCDDE90D020C9B0F994FF0BE
:101E4000000B91461093009211B9791C00EB010927
:101E5000B7EB090003D4C0F1FF3B07F10109A9EB7F
:101E60000700019042E0012F00DA01270021112F25
:101E700001DD112000E03846CDE9000104A90CA8DD
:101E8000FFF7B4FCDDE90D010C9A00914FF0000B57
:101E9000B946109221070FD4009A4A4503DA9146B9
:101EA00001E0A9F10109B9F1010F05DD109AA9F1CD
:101EB0000101515C3029F4D0B84202DA10F1040F6C
:101EC00003DA0121CDE9011010E0002803DC83448E
:101ED000A9EB000102E0411C494500DD8946A0EB69
:101EE0000B00401C01904FF000400290200705D4E9
:101EF0000198484502DB4FF0FF30019000208DF83B
:101F00004B0002980DF14B07B0F1004F25D0022095
:101F10000C902B200D90029800280CDA4042029081
:101F20002D200D9007E00A210298FEF7BDFA30310E
:101F3000029007F8011D0C99481E0C900029F2DC54
:101F400002980028EFD1791E0D980870307800F0C3
:101F5000200040F0450007F8020D11A8C01BC01D6D
:101F600002901398007800B1012000EB090101985C
:101F700001EBE071029801440398401A401E03905F
:101F8000E00306D453462146179A039800F05CF804
:101F900005441398007818B15246179990476D1C64
:101FA000E00323D553462146179A039800F04CF8D6
:101FB00005441BE0BBF1000F07DB0098584504DD2A
:101FC0001098179910F80B0001E01799302052462D
:101FD000904701980BF1010B401E05F1010501909E
:101FE00004D12E205246179990476D1CB9F100017B
:101FF000A9F10109DEDC05E017F8010B524617993B
:1020000090476D1C0299481E02900029F4DC53464B
:102010002146179A03989EE62D0000002B00000031
:10202000200000002DE9F041044600251E46174619
:10203000880404D405E039462020B0476D1C641E96
:10204000F9D52846BDE8F0812DE9F0410446002588
:102050001E469046C80301D5302700E0202788049B
:1020600004D505E041463846B0476D1C641EF9D5DD
:102070002846BDE8F0810A68531C0B601070704759
:1020800001460CE001EB800292ED001ADFED051A2B
:10209000F0EE400A41EE210AB0EE600A401C6428CE
:1020A000F0DB70470AD7233C704700B5034603E0D6
:1020B0004FF47A7000F005F8181EA3F10103F7D170
:1020C00000BD00EBC001C9004FF0E02251610021CA
:1020D00091610521116100BF4FF0E021096901F410
:1020E00080310029F8D004214FF0E02211617047BF
:1020F0002DED028BFEF702FEFEF797FC9FED300AF6
:10210000304880ED000A90ED000AFEF7F3FCFEF780
:102110006DFFF2EE080A30EEC00A2B4880ED000A8F
:102120004CE02A480078012815D11120FFF75CF90E
:10213000FFF790F826480068FEF76EF941EC180B9F
:1021400053EC182B23A0FFF73CF92220FFF74CF9A2
:1021500000201E4908701D48007802282ED1112049
:10216000FFF742F9FEF7ECFF1D4801781DA0FFF7CD
:1021700028F91B48007801280BD11D480068FEF79C
:102180004BF941EC180B53EC182B1AA0FFF719F977
:102190000EE01348007802280AD119480068FEF7BB
:1021A0003BF941EC180B53EC182B12A0FFF709F97F
:1021B0003320FFF719F9002004490870B1E7000047
:1021C0000000B44238000020280000201C0000203D
:1021D000240000206E322E76616C3D2564000000E4
:1021E000440000206E302E76616C3D2564000000B6
:1021F0003C0000206E312E76616C3D2566000000AB
:1022000040000020F0EE400AB7EE001AB0EE410A9E
:10221000002104E020EE201AB0EE410A491C814260
:10222000F8DB704744220008000000204C0000004A
:10223000C2170008902200084C000020B4080000DB
:10224000D21700080000000000000000000000009D
:10225000000000000000000000000000000000007E
:10226000000000000000000000000000000000006E
:10227000000000000000000000000000000000005E
:10228000000000000000000000000000000000004E
:04000005080001A14D
:00000001FF
