:020000040800F2
:1000000058040020A10100089D0F0008670E000899
:10001000990F0008B10C0008FF160008000000004E
:10002000000000000000000000000000991100081E
:10003000B50C0008000000002D1000085514000841
:10004000BB010008BB010008BB010008BB010008A0
:10005000BB010008BB010008BB010008BB01000890
:10006000BB010008BB010008BB010008BB01000880
:10007000BB010008BB010008BB010008BB01000870
:10008000BB010008BB010008BB010008BB01000860
:10009000BB010008BB010008BB010008BB01000850
:1000A000BB010008BB010008BB010008BB01000840
:1000B000BB010008BB010008BB010008BB01000830
:1000C000BB010008BB010008BB010008BB01000820
:1000D000BB010008BB010008C1140008E1140008BE
:1000E000BB010008BB010008BB010008BB01000800
:1000F000BB010008BB010008BB010008BB010008F0
:10010000BB010008BB010008BB010008BB010008DF
:10011000BB010008BB010008BB010008BB010008CF
:10012000BB010008BB010008BB010008BB010008BF
:10013000BB010008BB010008BB010008BB010008AF
:10014000BB010008BB010008BB010008BB0100089F
:10015000BB010008BB010008BB010008BB0100088F
:10016000BB010008BB010008BB010008BB0100087F
:10017000BB010008BB010008BB010008BB0100086F
:10018000BB010008BB010008DFF810D000F0ACFB99
:1001900000480047212F0008AFF3008058040020DA
:1001A0000648804706480047FEE7FEE7FEE7FEE711
:1001B000FEE7FEE7FEE7FEE7FEE7FEE7591400086C
:1001C000890100082DE9FE4F804681EA0300C00F37
:1001D0000C46009021F0004123F00045B8EB0200EE
:1001E000A94105D24046214690461C460B46024690
:1001F00023F00040104347D0270DC7F30A00C3F394
:100200000A510290401A019040286BDAC3F31300A0
:1002100040F4801B0098924620B10023D2EB030AE1
:1002200063EB0B0B01985946C0F14002504600F0B9
:100230008FF906460D4650465946019A00F0A7F937
:1002400010EB08006141002487EA115284EAE77349
:100250001A4340D0009A62B3019A012A4FEA07522A
:1002600015DC001B61EB02014FF0004202EA07526D
:10027000CDE90042001C41F5801132462B4600F0CA
:10028000DEF903B0BDE8F08F40462146F9E7001BD8
:1002900061EB0201001C41F5801300185B4120183E
:1002A000A2F5001747EB030140EAD570B6196D417E
:1002B00011E06D084FEA360645EAC0754FEA07526D
:1002C000001B61EB0201001C41F5801149084FEA57
:1002D00030000019514132462B4603B0BDE8F04FC3
:1002E00000F09EB90098012240000023D0EB0202EA
:1002F00063EBE073009821464FEAE074B8EB00002E
:1003000061EB0401E9E783F000435BE781F0004122
:1003100058E72DE9FE4F81EA030404F0004421F080
:10032000004100944FF0000B23F0004350EA010419
:100330005ED052EA03045BD0C3F30A54C1F30A55FA
:100340002C44A4F2F3340194A0FB0254C1F3130132
:1003500041F48011C3F3130343F4801301FB0244FF
:1003600000FB034E840A970A44EA815447EA835704
:10037000A4FB076802958D0A05FB07854FEA932CBD
:1003800004FB0C542705029D4FEA065847EA16372E
:10039000B5EB08056EEB070C870E920E47EA811746
:1003A00042EA8312A7FB0201B6EB0B0164EB0004E7
:1003B0002B0D43EA0C335E1844EB1C50DA465146D1
:1003C000E7FB0201C5F313044FEA0B3343EA14536E
:1003D0004FEA0432019C43EA0603A4F10C040294A0
:1003E000009CCDE900B400F02AF903B0BDE8F08F1D
:1003F00000200146F9E70EB5C10F80EAE07008441D
:10040000CA07002140F233438DE80E000A460B462E
:1004100000F015F903B000BD0EB540F23341029172
:100420000021CDE900110A460B4600F008F903B09F
:1004300000BDC1F30A5210B5C1F3130140F2FF33FE
:1004400041F480119A4201DA002010BD40F233439A
:100450009A42A2F2334203DC524200F088F810BD07
:10046000904010BD00F0004230F000400AD0C10DB5
:1004700001F56071C0F3160042EA0151C20840075D
:100480001143704700200146704701F0004330B42B
:1004900021F0004150EA010206D00A0DA2F5607277
:1004A000C1F31301002A02DC30BC00207047440F66
:1004B00044EAC104C100E01830BC00EBC25000F0B7
:1004C00078B830B50B46014600202022012409E00F
:1004D00021FA02F59D4205D303FA02F5491B04FAFD
:1004E00002F52844151EA2F10102F1DC30BD2DE910
:1004F000F05F0546002092469B46884606468146A8
:1005000040241BE0284641464746224600F02FF88B
:1005100053465A46C01A914110D3114618462246F6
:1005200000F016F82D1A67EB01084F46224601200D
:10053000002100F00DF817EB00094E41201EA4F138
:100540000104DFDC484631462A464346BDE8F09FB9
:10055000202A04DB203A00FA02F100207047914083
:10056000C2F1200320FA03F3194390407047202A78
:1005700004DB203A21FA02F00021704721FA02F34D
:10058000D040C2F120029140084319467047202A0A
:1005900006DBCB17203A41FA02F043EAE07306E0AB
:1005A00041FA02F3D040C2F12002914008431946BB
:1005B00070470029A8BF7047401C490008BF20F0C1
:1005C0000100704710B4B0FA80FC00FA0CF050EA59
:1005D000010404BF10BC704749B1CCF1200421FADA
:1005E00004F411FA0CF118BF012121430843A3EBD5
:1005F0000C01CB1D4FEA00614FEA102042BF0020E2
:1006000010BC704700EBC35010440029A4BF10BCBD
:100610007047401C490008BF20F0010010BC704723
:1006200010B5141E73F1000408DA401C41F10001FA
:1006300092185B411A4301D120F0010010BD2DE951
:10064000F04D92469B4611B1B1FA81F202E0B0FA48
:1006500080F220329046FFF77BFF04460F4640EAC7
:100660000A0041EA0B0153465A46084313D011468B
:1006700053EA010019D0C8F140025046FFF777FF56
:1006800005460E46504659464246FFF761FF08436D
:1006900005D0012004E020463946BDE8F08D002059
:1006A000054346EAE0762C4337430A986305E40A9B
:1006B000A0EB08000022FD0A44EA47540A3002D5A4
:1006C00000200146E9E7010510196941DDE9084507
:1006D00000196941BDE8F04DA2E72DE9F04D81EA2E
:1006E000030404F0004B21F0004514464FF0000ACB
:1006F00023F0004150EA050220D054EA01021DD047
:10070000C5F30A570246C5F31303C1F31300C1F33F
:100710000A5640F4801543F48013A7EB0608101B1B
:10072000D64608F2FD3873EB050002D308F1010844
:1007300001E092185B41B8F1000F03DA0020014696
:10074000BDE8F08D00204FF48011064684460EE08F
:10075000171B73EB050705D3121B63EB0503064359
:100760004CEA010C49084FEA300092185B4150EA0C
:100770000107EDD152EA030012D082EA040083EAB5
:100780000501084305D0101BAB4106D2012200230E
:1007900006E000224FF0004302E06FF00102531028
:1007A0001AEB06004CEB085110EB0A0041EB0B0171
:1007B000BDE8F04DFFF734BF70B521F000430343AF
:1007C0000CD0C1F30A550024D5EB040564EB0403F7
:1007D000D617AD1AB34102DB0020014670BD2018C8
:1007E00041EB025170BD2DE9F04D00231A461B1A52
:1007F0008A4103DB00200146BDE8F08DC1F30A52B7
:10080000C1F3130141F480154FF0000BD10702D161
:1008100000186D41521E0027044640F2FF11384671
:1008200001EB620A3E468046024600204FF48011EA
:10083000FFF79DFEC2197141BB1846EB0100B4EBF6
:10084000030C75EB000C04D3E41A65EB00051746A6
:100850000E46241908F101006D4180463428E3DD7D
:10086000F91946EB0600091BA84103D24FF0FF32ED
:10087000134601E0002213461BEB070046EB0A512A
:10088000BDE8F04DFFF7CCBEC1F30A52C1F313012E
:1008900040F2FF3341F480119A4202DA002001460F
:1008A000704740F233439A42A2F2334202DC524292
:1008B000FFF75DBEFFF74CBE30B5041E71F10004BA
:1008C00004DB4FF00044404264EB0101141E73F15D
:1008D000000405DB1C464FF00043524263EB040367
:1008E000994208BF904230BD064C074D06E0E068D3
:1008F00040F0010394E8070098471034AC42F6D367
:10090000FFF746FCF8300008183100081CB501213B
:10091000082000F08DFB4CF29F70009001208DF8B4
:10092000040000208DF8060003208DF8050001204A
:100930008DF807006946094800F0BDF900F0C2FAD9
:1009400000F0AAFA064A0321012000F037F8054A10
:100950000221084600F032F81CBD0000000C0240E5
:10096000100000201300002038B505460C4600207A
:10097000009000956A46012100F020F8204600F022
:10098000C0FE38BD38B505460C46002000900095E5
:100990006A46012100F012F8204600F0C5FE38BD7D
:1009A00038B505460C460020009000956A460121A6
:1009B00000F004F8204600F0E9FE38BDF0B503462B
:1009C0000C4600250026002100201D460027DFF8E8
:1009D000B4C0CCF88072CCF8847200BF1AE0002753
:1009E000DFF8A0C0CCF8807205F08007802F03D11B
:1009F0000127CCF88C7204E00027DFF888C0CCF81F
:100A00008C720127DFF87CC0CCF880726F063D0E37
:100A1000471CF8B20828E2DB0027DFF868C0CCF8F2
:100A20008072002126E0565C00201AE00027DFF8E3
:100A300054C0CCF8807206F08007802F03D10127C4
:100A4000CCF88C7204E00027DFF838C0CCF88C7248
:100A50000127DFF830C0CCF8807277063E0E471CC5
:100A6000F8B20828E2DB0027DFF818C0CCF8807263
:100A70004F1CF9B2A142D6DB0127DFF808C0CCF841
:100A80008472F0BD0080414221B1826842F00102CF
:100A9000826003E0826822F00102826070470000F9
:100AA0000021084A1168084A1140D0E900231A437E
:100AB00083681A43C3681A431143044AC2F80413F3
:100AC0007047000004230140E030FCFF002001409B
:100AD0000146C86C80B270470246002013680B4084
:100AE0000BB1012000E000207047000030B5024645
:100AF000002000235068104C20400D790C6844EA17
:100B000005242043506090680C4C2040D1E90354E8
:100B10002C438D682C434D7944EA45042043906072
:100B2000D06A20F470000C7D641EE4B2234340EAD6
:100B30000350D06230BD0000FFFEFFFCFDF7FFC098
:100B4000F0B504460D4600200021092D11DDE068B6
:100B5000A5F10A0606EB4607072606FA07F18843C1
:100B6000A5F10A0606EB460603FA06F10843E06023
:100B70000CE0206905EB4507072606FA07F18843D4
:100B800005EB450603FA06F108432061072A0FDA50
:100B9000606B561E06EB86071F2606FA07F1884390
:100BA000561E06EB860605FA06F10843606322E04E
:100BB0000D2A0FDA206BD61F06EB86071F2606FAD2
:100BC00007F18843D61F06EB860605FA06F10843AF
:100BD000206310E0E06AA2F10D0606EB86071F26EF
:100BE00006FA07F18843A2F10D0606EB860605FA20
:100BF00006F10843E062F0BD816841F08041816008
:100C00007047000000B58DB001214FF4407000F036
:100C10002FFA0121052000F00BFA02200B9003208F
:100C20008DF8300000208DF833000BA91C4800F02F
:100C300042F80BA91B4800F03EF801214FF4407028
:100C400000F026FA00214FF4407000F021FA002055
:100C5000039001904FF4803002900020049001A88E
:100C6000FFF71EFF00208DF8190009900790012062
:100C70008DF82800002005908DF8180005A90A4875
:100C8000FFF734FF05A90948FFF730FF01210648A7
:100C9000FFF7FAFE01210548FFF7F6FE0DB000BD93
:100CA00000080240000002400021014000200140F5
:100CB00000BFFEE77047F0B50A460021002300247C
:100CC00000BF3DE0012505FA01F3156805EA0304BC
:100CD0009C4234D105684F000326BE40B5430560F1
:100CE00015794E00B5400668354305601579012D2C
:100CF00002D01579022D16D185684F000326BE401B
:100D0000B543856055794E00B540866835438560AA
:100D1000456801268E40B5434560456896798E400A
:100D2000B6B235434560C5684F000326BE40B543A3
:100D3000C560D5794E00B540C6683543C560491CCD
:100D40001029BFD3F0BDF0B5002300244D07ED0EF0
:100D500002FA05F3CE1000F1200555F826504E0793
:100D6000F70E0F26BE40B543CF1000F1200646F81F
:100D70002750CE1000F1200555F8265045EA03040F
:100D8000CE1000F1200545F82640F0BD10B52DED40
:100D9000088B64220B21144800F04CF800EE100A76
:100DA000B8EE400AB0EE408A18EE100AFFF75AFB80
:100DB00041EC1B0B9FED0D0B53EC102BFFF7A9FA29
:100DC00041EC1A0B9FED0B0B53EC102BFFF7FAF9CC
:100DD00041EC190BFFF759FB08EE100AB0EE480A78
:100DE000BDEC088B10BD0000002101408B6CE7FBBF
:100DF000A9F1B23FFA7E6ABC7433334070B5044641
:100E00000D460623012229462046FFF799FE20467B
:100E1000FFF7F2FE00BF02212046FFF75DFE044906
:100E200009688842F7D02046FFF752FE70BD0000E7
:100E3000B88241422DE9F041074688461446002514
:100E4000002609E041463846FFF7D8FF0544052053
:100E500002F037F8701CC6B2A642F3DBB5FBF4F023
:100E600080B2BDE8F08100BFFEE7000000B50020C1
:100E700007490860022002F01BF801200549C1F86B
:100E80008802042002F014F800200149086000BD27
:100E9000888241420080414200B500200749086035
:100EA000012002F005F801200549C1F8B8021E2012
:100EB00001F0FEFF00200149086000BDB8824142F8
:100EC0000080414200201149086001201049C1F80A
:100ED000840200200D493C3908600C49343908600F
:100EE0000A492C3908600B490860091D0860074948
:100EF0002039086005493039086004491C39086008
:100F0000091D08600249C1F8A8027047BC8241422D
:100F1000008041429402424210B52DED088BFFF74C
:100F200035FF10EE104A2046FFF79CFA41EC1B0BF0
:100F30009FED120B53EC102BFFF7EBF941EC1A0B62
:100F4000B0EE4A1AF0EE6A1A9FED0E0B00F058FC54
:100F5000B0EE409AF0EE609A9FED0C0B53EC102B24
:100F600051EC190BFFF7D5F941EC180BFFF78DFA8F
:100F700008490860BDEC088B10BD0000D7A3703D88
:100F80000AD7B33F9B91048B0ABF05400000008045
:100F900006F0563F4400002000BFFEE77047000007
:100FA00070B5002100230F22C4781CB3174C2468AD
:100FB00004F4E064C4F5E064C4F30721C1F104045F
:100FC000E3B20A4144789C40E1B284781440214362
:100FD0000C07210E0E4C05786155047804F01F05AE
:100FE0000124AC4005786D11AD0005F1E025C5F890
:100FF000004109E0047804F01F050124AC40054DD0
:101000000678761145F8264070BD00000CED00E032
:1010100000E400E080E100E002490143024A11607F
:10102000704700000000FA050CED00E0704700007A
:1010300029B1064A12680243044B1A6004E0034ACD
:1010400012688243014B1A6070470000303802403A
:1010500029B1064A12680243044B1A6004E0034AAD
:1010600012688243014B1A6070470000403802400A
:1010700029B1064A12680243044B1A6004E0034A8D
:1010800012688243014B1A607047000044380240E6
:1010900029B1064A12680243044B1A6004E0034A6D
:1010A00012688243014B1A607047000024380240E6
:1010B000F0B5002100220024022500260223324F31
:1010C0003F6807F00C0121B1042905D0082937D168
:1010D00005E02E4F076036E02D4F076033E02A4FC2
:1010E0003F1F3F68C7F38056274F3F1F3F6807F0F9
:1010F0003F036EB1264FB7FBF3F7DFF88CC0ACF1BE
:10110000040CDCF800C0CCF3881C07FB0CF40CE0EA
:101110001E4FB7FBF3F7DFF870C0ACF1040CDCF83E
:1011200000C0CCF3881C07FB0CF4174F3F1F3F682F
:10113000C7F301477F1C7D00B4FBF5F7076002E0B1
:10114000124F076000BF00BF0F4F3F6807F0F0016C
:101150000909104F7A5C0768D74047600A4F3F681B
:1011600007F4E051890A0B4F7A5C4768D7408760E3
:10117000054F3F6807F46041490B064F7A5C4768AA
:10118000D740C760F0BD0000083802400024F400DA
:1011900040787D01000000207047000000B58FB04E
:1011A00001210820FFF744FF072205215148FFF7DE
:1011B000CAFD072206214F48FFF7C5FD02208DF822
:1011C000380000208DF83A0020200D9001208DF885
:1011D0003B0002208DF839000DA94648FFF76BFD52
:1011E00002208DF8380040200D900DA94148FFF7EE
:1011F00062FD01214804FFF72BFF4FF4E130099015
:101200000020ADF830000C20ADF82E000020ADF825
:101210002C00ADF82A00ADF8280009A9364800F0E6
:10122000FBF9012240F22551334800F0CFF9262086
:101230008DF8200001208DF823008DF821008DF815
:10124000220008A8FFF7ACFE01212B4800F07BF933
:1012500001218804FFF7FCFE01210220FFF7F8FEC0
:101260004FF48060059002208DF819008DF8180069
:1012700005A92248FFF71FFD4FF4006005900220EA
:101280008DF8180005A91D48FFF715FD4FF4E13052
:1012900001900020ADF80800ADF80A00ADF80C0090
:1012A000ADF810000C20ADF80E0001A9144800F0B4
:1012B000B3F9012240F22551114800F087F90122CB
:1012C00040F224410E4800F081F901210C4800F061
:1012D0003AF927208DF81C0006208DF81D0000200B
:1012E0008DF81E0001208DF81F0007A8FFF758FE9B
:1012F0000FB000BD000C024000440040000402405A
:10130000004800400FB400B59BB01DA8019002A892
:10131000019A1C9900F04AFA0020019002A800F0FE
:1013200017F81BB05DF814FB10B5044621460648BB
:1013300000F0E1F900BF8021034800F010F90349F3
:1013400009688842F7D010BD00440040B88241428D
:1013500070B50446002503E0605DFFF7E5FF6D1CF6
:10136000605D0028F8D170BD0CB5002001900090A0
:101370003448006840F480303249086000BF31488A
:10138000006800F4003000900198401C0190009823
:1013900018B90198B0F5A04FF1D12A48006800F4BF
:1013A000003010B10120009001E000200090009872
:1013B000012846D123484030006840F08050214940
:1013C000403108602048006840F440401E490860F1
:1013D0001C48083000681B4908310860084600684E
:1013E00040F4004008600846006840F4A0500860DF
:1013F0001648091F0860081F006840F08070091F28
:10140000086000BF0F48006800F000700028F9D0A5
:1014100040F205700E4908600A480830006820F064
:1014200003000849083108600846006840F00200DF
:10143000086000BF03480830006800F00C0008286E
:10144000F8D10CBD0038024000700040195440072C
:10145000003C02407047000010B51548006840F499
:101460007000134908601348006840F001001149FA
:10147000086000200F49083108600E4800680E49D6
:1014800008400C4908600D48091D0860081F0068E5
:1014900020F48020091F0860002006490C310860F4
:1014A000FFF762FF4FF0006001498039086010BD0E
:1014B00088ED00E000380240FFFFF6FE1030002407
:1014C00010B52021054800F04AF8012804D140F267
:1014D0002551024800F028F810BD000000440040EB
:1014E00010B540F225510D4800F046F80C49096846
:1014F000884212D0094800F0F9F8C4B2232C03D175
:1015000001200849087008E0452C03D10220054954
:10151000087002E000200349087010BD0048004038
:10152000B88241422400002010B50022002340F67A
:101530006A14A14200D100BF0A1201249440A3B250
:10154000DC43048010BD21B1828942F400528281C3
:1015500004E082894DF6FF731A408281704702468B
:101560000020B1F5007F00D100BF13880B400BB104
:10157000012000E00020704770B5024600240023DF
:101580000025002040F66A16B14200D100BFC1F329
:10159000421501F01F03012606FA03F3012D02D1C3
:1015A0009689334006E0022D02D1168A334001E0CD
:1015B000968A33400C12012606FA04F41688344049
:1015C00013B10CB1012000E0002070BDF0B503465E
:1015D000002400260025002040F66A17B94200D1F9
:1015E00000BF1846C1F3421401F01F06012707FA95
:1015F00006F5012C01D10C3004E0022C01D1103091
:1016000000E014301AB107682F43076002E0076852
:10161000AF430760F0BD00002DE9FF4705460E46C9
:101620000024A14600BFA046B08900B100BF2C8AAB
:1016300024F44054F08804432C82AC8941F20C60BD
:101640008443B08831890843718908430443AC81DD
:10165000AC8A24F44074B0890443AC826846FFF736
:1016600027FD2048854202D01F48854202D1DDF87F
:101670000C9001E0DDF80890A88900F4004040B12A
:1016800009EBC90000EB091031684900B0FBF1F724
:1016900007E009EBC90000EB091031688900B0FBD5
:1016A000F1F76420B7FBF0F004012009642101FB8D
:1016B0001078A88900F4004040B1322000EBC80047
:1016C000B0FBF1F000F00700044308E0322000EB2B
:1016D00008106421B0FBF1F000F00F0004432C81EE
:1016E000BDE8FF87001001400014014001468888D2
:1016F000C0F308007047C1F308028280704700BF42
:10170000FEE738B5054600240020009045F48054DB
:10171000200A8DF80100E0B28DF802006A4603212C
:101720000620FFF74BF938BD30B52DED048B81B0A5
:101730000546002000902846FEF76EFE41EC190B8E
:10174000114890ED000B53EC102B51EC190BFEF7E8
:10175000E0FD41EC180BFEF76CFE0446E0B28DF89C
:101760000300200A8DF80200200C8DF80100200EE5
:101770008DF800006A4604210846FFF71FF901B002
:10178000BDEC048B30BD00001800002018B50446E5
:1017900000200090E0B28DF8010020128DF80000CA
:1017A0006A4602210520FFF709F918BD37B514462E
:1017B0000846064B6A46214600F0F2FF0446694699
:1017C000002001F070FB20463EBD0000A72E00085F
:1017D00003B401984100009850EAC12018BF0420CA
:1017E0004A0D18BF40F0010040F2FF72B2EB515FAA
:1017F00008BF40F00200012808BF052002B0704772
:101800002DE9F04D2DED040B2DED0E8B96B0DDE99D
:101810002550279CDDF890A025F0004624F00048D4
:10182000BAF1000F14BF0121002101EB4502FC4970
:1018300053184A1093422AD3002814BF01230023CF
:1018400003EB44030B44F7498B4220D358EA0001D1
:101850009FEDF59B76D0DFF8D8B35D4503D1BAF1A3
:10186000000F05D188E0BAF1000F08BF002100D0B9
:10187000012101EB450111F5001F08D8002814BF14
:101880000121002101EB440111F5001F0BD99DED51
:10189000261B9DED240B16B0BDEC0E8B04B0BDE8ED
:1018A000F04D00F069BE0027002DBCBFE14988451E
:1018B00021DAE1498845A8BF02271CDAC3451ADCB2
:1018C000DE4901EB2851142908DDC1F1340220FA68
:1018D00002F101FA02F282420DD108E058B9C1F1D9
:1018E000140228FA02F101FA02F2424503D101F092
:1018F0000101C1F1020756EA0A0124D1002C22DAC3
:10190000002D18BF022F01D0012F0AD0022000F0B5
:101910007FFE16B0BDEC0E8B04B0BDE8F04D00F0BC
:1019200013BE022000F074FE00F00EFE51EC100B0E
:1019300081F0004141EC100B16B0BDEC0E8B04B0F1
:10194000BDE8F08D18E09FEDBEAB9FEDBF8B00288A
:1019500071D1B848804522D105F1804010F5801042
:1019600008BFBAF1000F07D0B3450ADC002CA8BFAE
:101970009DED260BE0DA0DE0B0EE490AF0EE690AC3
:10198000DAE7002C06DA9DED260B51EC100B81F006
:1019900000416FE0AE48784490ED000BCCE7D845AD
:1019A0004DD1002C48DA2EB186423AD1BAF1000F5F
:1019B00042D126E0BAF1000F13D0022000F028FE39
:1019C00000F0F6FD8DED020B9DED240B8DED000B6F
:1019D00010EE900A039961F31E0003909DED020B37
:1019E000AAE78DED02AB9DED240B1AEE901A10EED6
:1019F000900A8DED000B61F31E0003909DED020B2C
:101A00009AE78DED028B9DED240B18EE901A10EEE7
:101A1000900A8DED000B61F31E0003909DED020B0B
:101A20008AE709DA9DED240B51EC190B53EC102BCE
:101A3000FEF753FE1EE020E09DED240B7CE786427E
:101A40001BDAB4F1804F0DD0A4F10050B0F1FF507B
:101A500013D1002D11DB9DED240B51EC100B01F087
:101A6000CBFA07E09DED240B53EC102B51EC100B3F
:101A700000F0C2BC41EC100B5EE79DED240B51EC75
:101A8000100B01F041FABAF1000FCDE90E0142D17D
:101A90009FED710B46B3A6F1E040B0F17F600CD032
:101AA0005E4538D1002D00DAA7B3022F0CBF01200C
:101AB0004FF0FF30FEF79FFCDCE7002D01DD002C2E
:101AC0000DDA002D01DD002C1FDB002D16DA002CB5
:101AD00014DB012F08BF9FED620B3FF42DAFB0EE7A
:101AE0004A0AF0EE6A0A27E7022F18BF002D0CD031
:101AF000012F0AD1002DFFF61FAF06E0002DB8BF61
:101B0000002C08DA012F3FF417AFB0EE480AF0EED0
:101B1000680A11E71BE0012000EBE57050EA0701BD
:101B200015D0791EB0EE498AF0EE698A084308BFE5
:101B30009FED4D8B4E480025804570DD4D494E4848
:101B4000884514DDB0420DDB002C19DB2FE00120AD
:101B500000F05EFD16B0BDEC0E8B04B0BDE8F04D9C
:101B600000F016BDB34502DC002C09DC1FE0864204
:101B700002DA002C1BDA03E05E452BDD002C16DDBB
:101B8000022000F045FD00F013FD8DED020B53EC3B
:101B90001A2B51EC180BFEF7BCFBCDE900010399A1
:101BA000019861F31E0003909DED020BC4E6022034
:101BB00000F02EFD00F00CFD10EE901A18EE900AC9
:101BC0008DED020B8DED008B61F31E0003909DEDFA
:101BD000020BB1E69DED0E0B53EC192B51EC100BE3
:101BE000FEF791FB9FED260BCDE9080153EC102B7E
:101BF0009DED080B51EC100BFEF78BFB9FED221BAC
:101C000053EC112BFEF782FB9DED081B53EC112BBF
:101C1000FEF77FFB9FED1E1B53EC112B3CE08CE08D
:101C2000FFFF1F00FFFF0F00000000000000F03F5B
:101C30000000F03F0000F07F0000404301FCFFFF88
:101C4000000000000000F07F000000000000000025
:101C50005617000000000000000000000000008097
:101C6000000000000000F0FF000000000000F0BFD6
:101C70000000E0410000F043FFFFEF3F00000000E4
:101C8000000000000000D03F555555555555D53F33
:101C9000000000000000E03FFEF738FB9DED080B60
:101CA00041EC1A0B53EC102B51EC100BFEF731FBEF
:101CB00053EC1A2BFEF72DFB41EC1A0B9FEDFE0B9C
:101CC00053EC102B9DED080B51EC100BFEF721FB94
:101CD00041EC1B0B9FEDFA0B51EC1A0B53EC102B44
:101CE000FEF717FB41EC1A0B9FEDF70B53EC102B93
:101CF0009DED080B51EC100BFEF70BFB53EC1A2B70
:101D0000FEF701FB41EC1A0B51EC1B0B53EC1A2BA9
:101D1000FEF758FA0690CDE906519DED060B53ECFF
:101D20001B2B51EC100BFEF7EEFA53EC1A2BFEF7BF
:101D3000EDFA41EC100B00F0A1B90020B6F5801FC0
:101D40000EDA9FEDE30B53EC102B9DED0E0B51ECD7
:101D5000100BFEF7DEFACDE90E016FF034000E46EF
:101D600000EB2650A0F2FF37C6F31300DA4940F02B
:101D70007F6646F040568842D8BF002408DDD74928
:101D80008142C8BF012403DC0024A6F580167F1C15
:101D9000D348784400EBC4000F9690ED00CB9DED46
:101DA0000E0B53EC1C2B51EC100BFEF7ACFA9DED17
:101DB0000E0B41EC1B0B53EC1C2B51EC100BFEF7E4
:101DC00001FA41EC100B51EC190B53EC102BFEF700
:101DD00084FC41EC1D0B51EC1B0B53EC1D2BFEF74F
:101DE00098FA41EC1A0BBF488DED10AB7844109572
:101DF00090ED000B4FF0005040EA660000EB84408D
:101E00008DED080B00F5002009909DED080B53ECBB
:101E10001C2B51EC100BFEF776FA9DED0E1B53ECCC
:101E2000112BFEF773FA41EC100B53EC102B9DEDC8
:101E3000100B51EC100BFEF76CFA9DED080B41EC0A
:101E40001C0B53EC102B9DED100B51EC100BFEF7FF
:101E500060FA53EC1B2BFEF759FA53EC1C2BFEF7E0
:101E600052FA53EC1D2BFEF754FA41EC1C0B53ECC9
:101E70001A2B51EC1A0BFEF74CFA41EC1B0B9A484B
:101E80000621B0EE4B0AF0EE6B0A784400F0E0FA5F
:101E9000B0EE401AF0EE601AB0EE41DAF0EE61DA20
:101EA00053EC1B2B51EC1B0BFEF733FA53EC1D2BA1
:101EB000FEF72FFA9DED100B41EC1B0B53EC1A2B88
:101EC00051EC100BFEF77EF953EC1C2BFEF721FAB8
:101ED00053EC1B2BFEF776F99DED100B41EC1B0B21
:101EE00053EC102B51EC100BFEF713FA41EC1D0BC9
:101EF0009FED7FEB53EC1E2BFEF764F953EC1B2B8D
:101F0000FEF760F90890CDE908519DED080B53EC00
:101F10001E2B51EC100BFEF7F6F953EC1D2BFEF7C0
:101F2000F2F953EC1B2BFEF7F1F99DED080B41EC98
:101F30001D0B53EC102B9DED100B51EC100BFEF70D
:101F4000E8F941EC1B0B53EC1A2B51EC1D0BFEF77F
:101F5000E0F99DED080B41EC1A0B53EC102B51EC02
:101F60001C0BFEF7D6F953EC1A2BFEF72BF941ECBC
:101F70001A0B51EC1B0B53EC1A2BFEF723F90C90A8
:101F8000CDE90C519DED0C0B53EC1B2B51EC100BC0
:101F9000FEF7B9F953EC1A2BFEF7B8F941EC1B0B1D
:101FA0009FED550B53EC102B9DED0C0B51EC100BD2
:101FB000FEF7AFF941EC1A0B9FED510B51EC1B0BE7
:101FC00053EC102BFEF7A5F941EC1B0B9FED4E0BCC
:101FD00053EC102B9DED0C0B51EC100BFEF799F907
:101FE00053EC1B2BFEF7EEF841EC100B48487844FD
:101FF00000EBC40090ED001B51EC100B53EC112BC7
:10200000FEF7E0F841EC1B0B3846FEF7F4F9CDE99A
:10201000080153EC1B2B51EC1A0BFEF7D3F841ECE3
:10202000100B3C48784400EBC40090ED00CB51EC21
:10203000100B53EC1C2BFEF7C5F89DED081B53EC61
:10204000112BFEF7BFF80690CDE906519DED080B68
:1020500053EC102B9DED060B51EC100BFEF753F9D2
:1020600053EC1C2BFEF74FF953EC1A2BFEF74BF9F0
:1020700053EC1B2BFEF74AF941EC100B9DED261B90
:1020800053EC102B8DED001B00959DED260B51ECB4
:10209000100BFEF73EF99DED000B41EC1A0B53ECD3
:1020A000102B9DED260B51EC100BFEF72CF99DED3E
:1020B000061B53EC112B2FE0000000604715F73F83
:1020C000FE822B654715F73F44DF5DF80BAE543EAB
:1020D00000000000000040438E9803007AB60B0019
:1020E000D2120000001300000A12000000000000DD
:1020F0000000000000000840000000E009C7EE3FBB
:10210000FD033ADC09C7EE3FF5015B14E02F3EBE4C
:102110009610000050100000FEF7FBF853EC1A2B4D
:10212000FEF750F89DED060B41EC1A0B53EC102B0B
:102130009DED000B51EC100BFEF7EBF8CDE90C0117
:102140009DED0C0B51EC1A0B53EC102BFEF73AF8EB
:10215000CDE902010C46AA498C422FDB611A0843E3
:1021600018D19DED0C0B53EC102B9DED020B51EC97
:10217000100BFEF7C8F841EC1B0B9FEDA30B51ECC5
:102180001A0B53EC102BFEF71DF853EC1B2BFEF72C
:1021900093FB2DD2022000F03BFA00F009FA10EE7A
:1021A000901A18EE900A8DED020B8DED008B61F305
:1021B0001E0003909DED020BFFF7BEBB944A24F076
:1021C0000041914214D39349214408437FF4EFAC7A
:1021D0009DED0C0B53EC102B9DED020B51EC100BF5
:1021E000FEF791F853EC1A2BFEF766FB7FF6DFAC97
:1021F00024F000408849894A002601EB20518242A0
:102200002BDA481C4FF4801121FA00F02044844A54
:10221000C0F30A517A44A1F2FF3192ED000B814ADA
:102220008DED080BCA4020EA0202C0F3130040F40F
:102230008010C1F1140120FA01F60992002CB8BFF8
:1022400076429DED080B53EC102B9DED0C0B51ECE1
:10225000100BFEF758F8CDE90C019DED0C0B51EC7D
:102260001A0B53EC102BFDF7ADFF9FED6F0B089091
:10227000CDE9085153EC102B9DED080B51EC100BE0
:10228000FEF747F841EC1B0B9FED690B53EC102B4D
:102290009DED080B51EC100BFEF73BF89DED0C0B80
:1022A00041EC1C0B53EC102B9DED080B51EC100B6B
:1022B000FEF729F853EC1A2BFEF728F89FED5E1B6A
:1022C00053EC112BFEF725F853EC1C2BFDF77AFF8E
:1022D00041EC1A0B51EC1B0B53EC1A2BFDF772FF60
:1022E000CDE902019DED020B53EC1B2B51EC100BC1
:1022F000FEF709F853EC1A2BFEF708F89DED020BD8
:1023000041EC1A0B53EC102B51EC100BFEF701F8BB
:10231000CDE908014A489DED080B0521784400F0FD
:1023200097F89DED081B51EC100B53EC112BFDF7AA
:10233000F0FF9DED021B53EC112BFDF7E7FFCDE9FC
:1023400006019DED020B53EC1A2B51EC100BFDF71F
:10235000E0FF53EC1A2BFDF735FF9FED3B0B41ECF3
:102360001A0B53EC102B9DED060B51EC100BFDF7E7
:10237000CAFF9DED060B41EC1B0B53EC102B9DEDA2
:10238000020B51EC100BFDF7C4FF53EC1B2BFEF7B7
:10239000A4F953EC1A2BFDF7B6FF9DED021B53EC8D
:1023A000112BFDF7B0FF53EC192BFDF7AFFFCDE973
:1023B000020101EB065001150029C8BF039015DC8E
:1023C0009DED020B324651EC100BFEF7F5F9FFF7CD
:1023D000FFF9042808BF00F0FBF832469DED020B20
:1023E00051EC100BFEF7E8F9CDE902019DED020B6F
:1023F00051EC180B53EC102BFDF78BFFFFF73ABB9A
:102400000000904000000000FE822B654715973CBD
:1024100000CC904000346F3F01FCFFFF0000E03F24
:10242000D80E0000FFFF0F0000000000432EE63F23
:10243000396CA80C615C20BEEF39FAFE422EE63FF3
:10244000A80D000000000000000000000000004097
:1024500070B504462DED028B4D1E00EBC500B0EEAD
:10246000408AF0EE608A90ED000B35F0060017D040
:1024700053EC182B51EC100BFDF74BFF41EC100BFC
:102480006D1E04EBC50090ED001B51EC100B53ECDE
:10249000112BFDF797FE41EC100B35F00600E7D14C
:1024A000022D36D0042D1CD0062D1CBFBDEC028B96
:1024B00070BD53EC182B51EC100BFDF72AFF94ED77
:1024C0000A1B53EC112BFDF77DFE53EC182BFDF787
:1024D00020FF94ED081B53EC112BFDF773FE41EC2C
:1024E000100B53EC182B51EC100BFDF712FF94ED71
:1024F000061B53EC112BFDF765FE53EC182BFDF773
:1025000008FF94ED040B53EC102BFDF75BFE41EC40
:10251000100B53EC182B51EC100BFDF7FAFE94ED59
:10252000021B53EC112BFDF74DFE53EC182BFDF75E
:10253000F0FE94ED001B53EC112BFDF743FEBDECB8
:10254000028B41EC100B70BD9FED070B10B553ECE7
:10255000102B9FED070B51EC100BFEF7BEF841EC72
:10256000100B10BD00000000000000000000000083
:10257000000000000000F03F10B553EC112B51ECAF
:10258000100BFDF71FFE41EC100B10BD000000000A
:102590009FED050B10B553EC102B51EC100BFEF713
:1025A0009CF841EC100B10BD000000000000000082
:1025B0009FED050B10B553EC102B51EC100BFDF7F4
:1025C000A8FE41EC100B10BD0000000000000070E0
:1025D0009FED050B10B553EC102B51EC100BFDF7D4
:1025E00098FE41EC100B10BD000000000000001030
:1025F00002E008C8121F08C1002AFAD170477047CC
:10260000002001E001C1121F002AFBD17047000029
:102610000149086070470000500000202DE9FF5F6D
:1026200082B00021DDE90430020DDDF840B0034343
:1026300018D044F61050A2F2FF32424315141198FC
:1026400001281FD0A5EB0B00401C5FEA000A4FF0E9
:1026500000064E4FDFF83891B046504615D5CAF106
:10266000000413E0119801244AA3012801D16FEA64
:102670000B010298119AC0E90031C0E9024206B08C
:10268000BDE8F09FCBF10000DFE704460021404A9F
:10269000491842EB0450CDE9001012E0E00707D0E2
:1026A00032463B4640464946FDF733FE8046894662
:1026B00032463B4610461946FDF72BFE06460F46AE
:1026C0006410002CEAD1DDE90401DDE90023BAF150
:1026D000000F06DAFDF71DFE42464B46FDF719FED8
:1026E00005E0FDF7FAFF42464B46FDF7F6FF0446CC
:1026F0000E460022284BFEF7DFF803D84FF0FF30DC
:10270000014607E00022254B20463146FDF75AFDE1
:10271000FEF7BAF8102409E0002C0ADB0A22002395
:10272000FDF7E5FE039B30321A55641E50EA0102A4
:10273000F2D1641C039AC4F111031444119A012AC2
:1027400003D0012208430DD10AE0084304D0002041
:102750004FF0110B119072E7A3EB0B056D1E0DE00E
:102760005B4504DD4FF0000205F1010504E003DAEA
:102770004FF00002A5F10105002AECD00298119952
:10278000C0E90231C0E9004579E7000000001440CB
:102790000000F03F300000000000F0430000E03F88
:1027A0002DE9FF4F95B09A46884606460025EEE192
:1027B000252877D100242746F94A0121039400E017
:1027C000044316F8013F203B01FA03F01042F7D111
:1027D00030782A2811D06FF02F033078A0F1300222
:1027E000092A16D8039A44F0020402EB820203EB92
:1027F00042021044761C0390EFE758F8042B039232
:10280000002A03DA504244F40054039044F00204D6
:10281000761C30782E2816D116F8010F44F00404E7
:102820002A280DD06FF02F023078A0F13003092B49
:1028300009D807EB870302EB4303C718761CF3E7BD
:1028400058F8047B761C30786C280FD006DC4C28B6
:1028500017D068280DD06A2814D104E0742810D04D
:102860007A280FD10DE044F400140AE044F48014F7
:1028700001E044F440147278824202D104F58014DD
:10288000761C761C307866280BD013DC582877D05D
:1028900009DC002875D04528F6D04628F4D0472812
:1028A0001AD193E118E0632835D0642879D06528DF
:1028B00012D18BE1702873D008DC6728F1D0692829
:1028C0006FD06E280DD06F2806D1ACE073282CD0C5
:1028D000752874D0782853D05246179990476D1CAC
:1028E00054E1C4F30250022809D003280DD0D8F8CF
:1028F000001004280DD00D6008F1040846E1D8F856
:102900000010EA17C1E90052F6E7D8F800100D8070
:10291000F2E70D70F0E718F8041B8DF800100020A6
:102920008DF80100EB46012003E058F804BB4FF09E
:10293000FF3061074FF0000102D40DE009F1010101
:102940008946B9420FDA8145F8DB1BF809100029E6
:10295000F4D108E009F1010189468142FADB1BF854
:1029600009100029F6D103985346A0EB0907214628
:102970003846179A00F080FA284400EB090507E072
:1029800044E008E10DE01BF8010B5246179990470F
:10299000B9F10109F7D2534621463846179AF2E0B9
:1029A00039E00A21C4F302524FF0000B0091022AD1
:1029B00006D058F8040BC117032A09D00AE023E017
:1029C00008F1070020F00702F2E80201904605E056
:1029D00000B2C117042A01D140B2C117002906DA9A
:1029E0000A460021404261EB02012D2202E022054D
:1029F00004D52B228DF80420012203E0E20701D048
:102A00002022F7E7914657E00A2100E010214FF01D
:102A1000000B00910BE010214FF0000B44F0040478
:102A20000827009103E008204FF0000B0090C4F34A
:102A30000252022A05D058F8040B0021032A08D0BC
:102A400008E008F1070020F00702F2E802019046D2
:102A500003E080B2042A00D1C0B24FF0000922077F
:102A60002AD53278702A07D0DDF800C08CF0100C1F
:102A70005CEA0B0C05D00EE040228DF80420012208
:102A800008E050EA010306D030238DF804308DF8B9
:102A9000052002229146009B83F0080353EA0B03B2
:102AA0000AD150EA010201D1620705D530228DF822
:102AB00004204FF001097F1E3278582A04D039A231
:102AC0000C920CAA02920BE03BA2F9E75B46009A3B
:102AD000FDF70DFD0C9B9B5C029A521E0292137037
:102AE00050EA0102F2D1029804A9081A00F1200B61
:102AF000600702D524F4803400E001275F4502DD41
:102B0000A7EB0B0000E0002000EB0B010090039806
:102B10004944401A0390E00306D453462146179ACD
:102B2000039800F0A9F90544002706E001A85246E1
:102B3000C05D179990476D1C7F1C4F45F6DBE00385
:102B40000CD553462146179A039800F095F9054491
:102B500004E030205246179990476D1C0099481E9A
:102B600000900029F5DC08E00298029952460078AE
:102B7000491C0291179990476D1CBBF10001ABF104
:102B8000010BF1DC5BE100F065F90544761C30785F
:102B900000287FF40DAE19B02846BDE8F08F000084
:102BA0000928010030313233343536373839616223
:102BB00063646566000000003031323334353637E7
:102BC000383941424344454600000000600700D4C4
:102BD000062708F1070020F00700F0E802238046EE
:102BE00003F0004C5FEA0C0001D097A009E020053B
:102BF00001D596A005E0E00701D095A001E0AFF275
:102C00004C001390307823F0004365280CD006DC8C
:102C1000452809D046281DD047287FD13BE06628AB
:102C200018D067287AD136E00021112F01DB11205E
:102C300000E0781CCDE9000104A90CA8FFF7EEFC28
:102C4000DDE90D010C9A4FF0000B07F1010910921C
:102C500000914EE04FF000400097CDE9011004A92B
:102C60000CA8FFF7DBFCDDE90D020C9B0F994FF080
:102C7000000B91461093009211B9791C00EB0109E9
:102C8000B7EB090003D4C0F1FF3B07F10109A9EB41
:102C90000700019042E0012F00DA01270021112FE7
:102CA00001DD112000E03846CDE9000104A90CA89F
:102CB000FFF7B4FCDDE90D010C9A00914FF0000B19
:102CC000B946109221070FD4009A4A4503DA91467B
:102CD00001E0A9F10109B9F1010F05DD109AA9F18F
:102CE0000101515C3029F4D0B84202DA10F1040F2E
:102CF00003DA0121CDE9011010E0002803DC834450
:102D0000A9EB000102E0411C494500DD8946A0EB2A
:102D10000B00401C01904FF000400290200705D4AA
:102D20000198484502DB4FF0FF30019000208DF8FC
:102D30004B0002980DF14B07B0F1004F25D0022057
:102D40000C902B200D90029800280CDA4042029043
:102D50002D200D9007E00A210298FDF7B2FB3031DB
:102D6000029007F8011D0C99481E0C900029F2DC16
:102D700002980028EFD1791E0D980870307800F085
:102D8000200040F0450007F8020D11A8C01BC01D2F
:102D900002901398007800B1012000EB090101981E
:102DA00001EBE071029801440398401A401E039021
:102DB000E00306D453462146179A039800F05CF8C6
:102DC00005441398007818B15246179990476D1C26
:102DD000E00323D553462146179A039800F04CF898
:102DE00005441BE0BBF1000F07DB0098584504DDEC
:102DF0001098179910F80B0001E0179930205246EF
:102E0000904701980BF1010B401E05F1010501905F
:102E100004D12E205246179990476D1CB9F100013C
:102E2000A9F10109DEDC05E017F8010B52461799FC
:102E300090476D1C0299481E02900029F4DC53460D
:102E40002146179A03989EE62D0000002B000000F3
:102E5000200000002DE9F041044600251E461746DB
:102E6000880404D405E039462020B0476D1C641E58
:102E7000F9D52846BDE8F0812DE9F041044600254A
:102E80001E469046C80301D5302700E0202788045D
:102E900004D505E041463846B0476D1C641EF9D59F
:102EA0002846BDE8F0810A68531C0B60107070471B
:102EB00000EB4001880000BF011EA0F10100FBD122
:102EC000704700B5034603E04FF47A7000F005F850
:102ED000181EA3F10103F7D100BD00EBC001C9002A
:102EE0004FF0E0225161002191610521116100BF85
:102EF0004FF0E021096901F480310029F8D0042164
:102F00004FF0E0221161704782B0CDE9000121F05D
:102F1000004001909DED000B02B051EC100B70478A
:102F20002DED028B4FF4A060FEF776F8FEF736F930
:102F300026A0FEF7E7F9FDF765FE25A0FEF7E2F90A
:102F40009FED240A244880ED000AFDF7DFFC2349A9
:102F50008020FDF717FD21491020FDF713FD40F2F9
:102F6000FF311020FDF700FD40F2FF318020FDF71A
:102F7000FBFC00211020FDF713FD41F2C71180205A
:102F8000FDF70EFDFDF772FF1EE0FDF7C5FF1448CB
:102F90000068FDF767FA41EC180B53EC182B11A0F1
:102FA000FEF7B0F9FDF7F2FE10EE104A2046FDF7ED
:102FB00059FA41EC180B53EC182B0CA0FEF7A2F9B0
:102FC0004FF4FA70FFF77DFFDFE70000486921004A
:102FD000313131000000B4424000002080841E00E6
:102FE00044000020633A25660D0A00007068733AB9
:102FF00025660D0A0000000000B52DED048B83B09E
:1030000041EC190BFDF7EFFB41EC180B18EE100A21
:1030100018EE901A8DED008B002818BF0120084390
:1030200020F00040C0F17F6000F1E040C00F14D0FC
:1030300019EE101A19EE900A8DED009B002918BFA9
:103040000121084320F00040C0F17F6000F1E04022
:10305000C00F04BF0120FFF7DBFA51EC180B03B0DF
:10306000BDEC048B00BD0000000000000000F03F3C
:10307000000000000000F83F000000000000000019
:103080000000004003B8E23F000000000000000024
:1030900006D0CF43EBFD4C3E033333333333E33FB2
:1030A000FFAB6FDBB66DDB3F4D268F515555D53FDE
:1030B00001411DA96074D13F65DBC9934A86CD3FAC
:1030C000EF4E454A287ECA3F3E5555555555C53F9A
:1030D00093BDBE166CC166BF2CDE25AF6A56113F8C
:1030E000F16BD2C541BDBBBED0A4BE726937663E8E
:1030F000000000000000000018310008000000205F
:1031000054000000F02500086C3100085400002035
:10311000040400000026000800000000010203046F
:103120000102030406070809D000000000000000A7
:1031300095D626E80B2E2140000302000000000077
:10314000000000000000000000000000000000007F
:10315000000000000000000000000000000000006F
:0C31600000000000000000000000000063
:04000005080001A14D
:00000001FF
