:020000040800F2
:100000006022002061020008292D00089F240008BA
:100010004D2C0008C1160008734E000800000000B7
:100020000000000000000000000000007531000822
:10003000E11C000800000000B92D0008753300081D
:100040007B0200087B0200087B0200087B0200089C
:100050007B0200087B020008E91E00087B02000802
:10006000D11F000811200008F12000087B020008C1
:100070007B0200087B0200087B0200087B0200086C
:100080007B0200087B0200087B0200087B0200085C
:100090007B0200087B0200087B0200087B0200084C
:1000A0007B0200087B0200087B0200087B0200083C
:1000B0007B0200087B0200087B0200087B0200082C
:1000C0007B0200087B0200087B0200087B0200081C
:1000D0007B020008A94B00087B0200087B02000895
:1000E0007B0200087B0200087B0200087B020008FC
:1000F0007B0200087B0200087B0200087B020008EC
:100100007B0200087B0200087B0200087B020008DB
:100110007B0200087B0200087B0200087B020008CB
:100120007B0200087B0200087B0200087B020008BB
:100130007B0200087B0200087B0200087B020008AB
:100140007B0200087B0200087B0200087B0200089B
:100150007B0200087B0200087B0200087B0200088B
:100160007B0200087B0200087B0200087B0200087B
:100170007B0200087B0200087B0200087B0200086B
:100180007B0200087B0200084B1C012B98BF7047C4
:100190002DE9F003911C9B08B1F80480B1F802909E
:1001A0000A8831F802CC8044814402448444D9F85E
:1001B0000070D8F800601568DCF80040C9F80060ED
:1001C000C8F80070CCF800501460D9F80470D8F862
:1001D00004605568DCF80440C9F80460C8F804708D
:1001E000CCF80450546008315B1ED5D1BDE8F00353
:1001F00070474B1C012B98BF70472DE9F003911CF1
:100200009B08B1F80480B1F802900A8831F802CC5A
:1002100000EB580800EB590900EB520200EB5C0CB4
:10022000D9F80070D8F800601568DCF80040C9F80B
:100230000060C8F80070CCF80050146008315B1EF4
:10024000DFD1BDE8F0037047DFF810D001F0C0F94E
:1002500000480047E1560008AFF30080602200200C
:100260000648804706480047FEE7FEE7FEE7FEE750
:10027000FEE7FEE7FEE7FEE7FEE7FEE7B533000830
:10028000490200089FED3D0A5FEA920C57D000BF7B
:10029000D0ED000A90ED011A0B1D60EEA00A0830A7
:1002A00041EE010AF5EEC00AF1EE10FAC6BFB1EE5A
:1002B000E01A81ED001A81ED000AD0ED000A90ED00
:1002C000011A191D60EEA00A083041EE010AF5EE90
:1002D000C00AF1EE10FAC6BFB1EEE01A83ED001AC3
:1002E00083ED000AD0ED000A90ED011A0B1D60EEBF
:1002F000A00A083041EE010AF5EEC00AF1EE10FA4C
:10030000C6BFB1EEE01A81ED001A81ED000A90ED52
:10031000001AD0ED010A191D21EE011A083000EE75
:10032000A01AB5EEC01AF1EE10FAC6BFF1EEC10A7E
:10033000C3ED000A83ED000ABCF1010CA8D112F054
:10034000030208BF704700BFD0ED000A90ED011A0C
:100350000B4660EEA00A091D083041EE010AF5EED9
:10036000C00AF1EE10FAC6BFB1EEE01A83ED001A32
:1003700083ED000A521EE7D1704700000000000024
:100380002DE9F04106462DED028B8C4600887368FE
:1003900001EB80044508274601EB850004EB85024C
:1003A0005FEA95087DD000BFD1ED003AD4ED001A88
:1003B00091ED012A94ED013A73EEA16A91ED024AA2
:1003C00091ED031AD4ED022AD4ED035A90ED008A80
:1003D00090ED017A90ED020A90ED036A92ED005AD9
:1003E000D2ED014AD2ED027AD2ED030AC1ED006AE4
:1003F00072EE036A73EEE13A74EEC71AC1ED016A58
:1004000074EE226A74EE622A37EEC04AC1ED026AC7
:1004100071EE256AC1ED036A72EE436A31EE652A18
:1004200038EE051A35EE483A80ED001A37EE241AF8
:1004300080ED011A30EE271A80ED021A36EE201AEE
:1004400080ED031A30EEC61A93ED000AD3ED010ACF
:1004500063EE804A26EEA05A66EE805A63EEA03A1A
:1004600074EE854A75EEE33AC4ED004A63EE204A25
:10047000C4ED013A61EE803A61EEA00A23EE000A73
:1004800074EEE31A30EE800AC2ED001A82ED010A22
:1004900093ED020AD3ED030A62EE803A22EE203A8F
:1004A00000E024E062EEA01A22EE002A73EE832A16
:1004B0001030103172EE611AC4ED022A24EE202AA7
:1004C000C4ED031A61EE001A61EE200A24EE000A60
:1004D000103332EE611A103430EE800A82ED021AC7
:1004E00082ED030A1032B8F101087FF45DAF2946AE
:1004F00002236046726800F041FB72682946BDEC39
:10050000028B3846BDE8F041022300F037BB2DE9ED
:10051000F34F2DED048B87B00B980088470801EB53
:10052000870000EB870606EB8705CDE90056DDF86E
:100530002C80A5F1040C0CEB8703CDE902014FEAF6
:100540005709D8F804800427CDE90497D1ED000AB3
:1005500096ED000A90ED011A95ED013A70EE802AB1
:1005600070EEC03AD1ED010A96ED010A041F321F68
:1005700030EE802A70EEC01A31EE230AD0ED000A68
:1005800032EE415A33EEC11A30EE434A71EEE04A80
:1005900095ED000A70EEA11A35EE435A74EE805ABA
:1005A00072EEE04A70EEA20A71EEC01A31EE031A42
:1005B00074EEC04A30EE800A062708F1080A81ED81
:1005C000000A90ED010AD5ED010A08F1100B30EE9A
:1005D000020A08F1180830EE200A81ED010A80EDC8
:1005E000004AC0ED015AC6ED004A86ED015A85ED7C
:1005F000001AC5ED011ADDF81090083008310835F1
:100600000836A9F102095FEA590900F0078100BF25
:10061000D1ED000A96ED000AD0ED011AD5ED014AA0
:1006200030EE802A30EEC05AD1ED010A96ED010A73
:1006300070EE802A30EEC01A31EE850AD5ED000A40
:1006400030EE644A90ED000A31EE403A30EE011A85
:1006500073EE205A32EE403A30EE020A31EE601A62
:1006600073EE603A30EE200A32EEE13A75EE611A2E
:1006700081ED000A90ED010AD5ED010A33EE643AEE
:1006800030EE220A71EEA41A30EE200A81ED010A42
:10069000D4ED002ADCED004A54ED010A1CED010AFC
:1006A00032EEA47A32EEE49A72EEE42A52ED018A36
:1006B00070EE807A30EEC02A72EEE82AD2ED000A9F
:1006C00093ED000A13ED018A30EEC05A72EE886A8B
:1006D00077EEE82A35EE026A32EEC85A77EE602AE3
:1006E00072EEC04A70EEC02A70EE870A72EEC22A1D
:1006F00030EE800A38EE682A84ED000A12ED010A15
:1007000053ED010A32EE492A30EE270A30EE200A74
:1007100004ED010A9AED000ADAED010A64EE007AAE
:1007200025EEA07A65EE805A24EE204A37EE877ACD
:1007300035EEC44A80ED007A80ED014A26EEA04AEB
:1007400066EE005A66EE200A26EE800A083034EE85
:10075000654A083130EE800A82ED004A083C02ED1D
:10076000010A9BED000ADBED010ADDF814E023EE3F
:10077000804A63EE205A23EE003A63EEA03A083A2C
:1007800034EE254A0BEB8E0B33EE633A86ED004ACE
:100790000AF1080A86ED013AB1EE643A083663EED2
:1007A000003A25EE203A25EE000A64EEA00A33EE68
:1007B000C33A30EEC00A8CED003A0CED010A98ED18
:1007C000000AD8ED010A08EB870861EE803A21EEB5
:1007D000203A21EE001A61EEA01AACF1080C33EEBB
:1007E000833A31EE611A85ED003A62EE801A85EDAA
:1007F000011A22EE201A62EEA00A22EE000A083543
:1008000031EE611A30EE800A83ED001A03ED010A21
:10081000083BB9F101097FF4FBAE00BFD1ED000A3E
:1008200096ED000A91ED011AD0ED015A30EE802AC2
:1008300070EEC00A96ED010A95ED015A042371EE9F
:10084000001A71EE404A35EEA00A90ED001A31EE22
:10085000E54A70EEE50A30EE453A95ED000A34EED1
:10086000454A30EE855A74EEC12A72EE413A71EE75
:10087000240A31EE021A72EE802A73EEC03A70EE4C
:10088000C00A31EE000A81ED000A90ED010A95EDF3
:10089000011A30EE210A30EE010A81ED010A9AEDCB
:1008A000000A9AED011A63EE001A22EE812A22EE66
:1008B000800A23EE011A71EE821A30EE410AC0ED71
:1008C000001A80ED010A9BED000A9BED011A63EE10
:1008D000801A24EE012A24EE000A23EE811A71EE1A
:1008E000821A30EE410AC6ED001A86ED010A98ED33
:1008F000010A98ED001A60EE801A25EE012A60EEDA
:10090000810A25EE000A32EE211A30EEC00A85ED8A
:10091000001A85ED010A0B984268DDE9030100F039
:100920002DF90B98042304994268029800F026F9E7
:100930000B98042304994268019800F01FF90B9862
:10094000049904234268009807B0BDEC048B02B000
:10095000BDE8F04F00F012B92DE9F0410488984647
:1009600017460D460646012A20D1281DF4B1A0F1F4
:10097000080114F0010F06D091ED020AB1EE400A11
:1009800081ED020A08315FEA540C0FD091ED020AA2
:10099000B1EE400A81ED020A91ED040AB1EE400A7F
:1009A00081ED040A1031BCF1010CEFD1B4F5807F68
:1009B0001BD008DC102C13D0202C16D0402C19D0C2
:1009C000802C0DD01CE0B4F5007F13D0B4F5806FFF
:1009D00006D0B4F5006F08D0B4F5805F0AD00FE000
:1009E00029463046FFF7CCFC0AE029463046FFF79F
:1009F0008EFD05E0214601232846726800F0BEF80E
:100A0000B8F1000F04D0B1892846B268FFF7BCFBEB
:100A1000012F18BFBDE8F08100EE104AB7EE001AB2
:100A2000002CF8EE400A81EE200A08BFBDE8F081F4
:100A3000A5F1080014F0010F0ED0D0ED020A60EE0F
:100A4000800AC0ED020AD0ED030AF1EE600A60EE02
:100A5000800AC0ED030A0830610808BFBDE8F081D4
:100A6000D0ED020A60EE800AC0ED020AD0ED030A62
:100A7000F1EE600A60EE800AC0ED030AD0ED040AD0
:100A800060EE800AC0ED040AD0ED050AF1EE600ABE
:100A900060EE800AC0ED050A1030491EE0D1BDE8C5
:100AA000F081000070B44FF0000CB0EC010A4E1E53
:100AB0006446B50831D000BFD0ED000A90ED011AB0
:100AC0000830B4EEE00AF1EE10FA3CBFB0EE600A76
:100AD0000CF10104F0EC010AB4EEC10AF1EE10FAD7
:100AE0003CBFB0EE410A0CF10204B0EC011AB4EEC6
:100AF000E00AF1EE10FA3CBFB0EE600A0CF103041C
:100B0000B4EEC10AF1EE10FA3CBFB0EE410A0CF1AE
:100B100004046D1E0CF1040CCED106F0030C5FEA48
:100B20000C0617D0B6F1004F19D2002EC8BF002511
:100B300010DD00BFD0ED000AF4EEC00AF1EE10FAAD
:100B400004DD4C19B0EE600AA4EB0C04001D6D1C12
:100B5000761EEFD182ED000A1C6070BC7047F0EC8D
:100B6000010AB4EEE00AF1EE10FA3CBFB0EE600A02
:100B7000A1EB0C04BCF1010CF1D1EBE72DE9FF4F27
:100B80002DED108B82B09FEDFEFA0B461C46DB0864
:100B90004FF0000C0CEB030505EB030808EB030911
:100BA00009EB030606EB030A00EBCC0700EBC606D5
:100BB00097ED001AD6ED000A0AEB030B00EBC50512
:100BC00000EBCA0A31EE200A71EE601A95ED002A98
:100BD000DAED000A0BEB030E00EBC80832EE201A28
:100BE00000EBCB0B32EE602AD8ED002ADBED000AD9
:100BF00000EBC90900EBCE0E99ED003A9EED004ADC
:100C000072EEA03A72EEE02A73EE040A33EE443A32
:100C100070EE636A70EE233A31EE600A71EE200ADC
:100C200033EEA01A73EEE00A87ED001AC6ED000A53
:100C300097ED011AD6ED010AD5ED013A98ED014A7A
:100C400031EE206A71EE600A9AED011A99ED015AAF
:100C500073EE814A73EEC13A9BED011A34EE017ACC
:100C600034EE411A9EED014A75EE045A35EE444ABF
:100C700036EE475A36EE076A34EEE57A74EEA54A48
:100C800076EE245A76EE644AC7ED015AC6ED014A63
:100C900076EE874AC8ED004A76EEC74ACBED004AA9
:100CA00075EE404A35EE000AC8ED014A8BED010AA7
:100CB00032EE430A32EE032A20EE0F0A62EE0F4AAA
:100CC00033EEC42AA4448C4522EE0F3A33EE842A34
:100CD00030EEC34A62EE0F3A30EE833A31EEC02A6C
:100CE00031EE800A71EE630A31EE231A72EEE41AD5
:100CF00072EEA42A70EE013A30EE410AC5ED003AD8
:100D00008EED000A32EE200A8AED000A32EE600A09
:100D100089ED000A33EE620A85ED010A33EE220AFC
:100D20008EED010A34EE610A8AED010A34EE210AE1
:100D300089ED010AFFF42EAF082B3FBF02B0BDECD6
:100D4000108B04B0BDE8F08F4FF0000CCDF804C05C
:100D50004FF0010CCDF800C0DDF804C0159DAC4487
:100D60004FEA8C0505EB0C07CDF804C007EB0C0926
:100D70004FEA4C0808EB0C0609EB0C0A02EBCC0C12
:100D800002EBC80802EBC60602EBC50502EBC7077B
:100D900002EBC90902EBCA0A9CED00DA9CED018A5C
:100DA000D8ED00CA96ED00CAD5ED00BA97ED00BAAD
:100DB000D9ED00AADAED008AD8ED017A96ED01AA04
:100DC00095ED017AD7ED016A99ED016ADAED019AA4
:100DD000DDF800C00CEB0307FD1805EB030A0AEB76
:100DE000030808EB030606EB030B00EBCC0900EB52
:100DF000C808D9ED000A98ED000A00EBC70700EB20
:100E0000C606D7ED001A96ED001A70EE803A0BEB8D
:100E1000030E70EEC00A31EE810A00EBC50500EB4F
:100E2000CB0B31EEC11AD5ED001A9BED002A00EB79
:100E3000CA0A00EBCE0E31EE824A71EEC21A9AED6A
:100E4000002ADEED002A32EE223A32EE622A73EEFA
:100E5000C42A73EE843A30EE435A30EE030A33EE7E
:100E6000803A73EEC0DA89ED003A99ED010A98ED07
:100E7000013AD7ED013A95ED014A70EE03EA30EE02
:100E8000433A96ED010A9AED01EADEED014A33EEAE
:100E9000809A73EEC03A9BED010A74EE005A34EE6C
:100EA000404A3EEE240A7EEE644A3EEEE5EA7EEEDD
:100EB000A55A79EE40EA39EE009A32EEAE0A72EEA9
:100EC000EE2A75EE89EA35EEC99A7EEE455AC9EDED
:100ED00001EA3EEE055A2BEEADEA67EE09EA2BEE8B
:100EE000899A67EE2DDA3EEE2EEA39EE6D9A88ED9C
:100EF00000EA67EEA5DA88ED019A2CEE809A6CEE96
:100F0000A55A27EE800A39EE2D9A35EEC00A85EDF6
:100F1000009A66EE055A85ED010A2AEEA20A2AEE2B
:100F2000855A66EE222A30EE250A8BED000A35EE50
:100F3000620A73EEA42A8BED010A31EE420A31EE09
:100F4000021A33EEE42A62EE8F3A20EE0F0A21EE07
:100F50000F1A22EE0F2A70EEC02A30EE800A71EED0
:100F6000C10A71EE811A33EE421A33EE022A34EED0
:100F7000633A34EE234A70EE043A30EE444A01E01C
:100F8000F304353F72EE834A72EEC32A32EE613AC1
:100F900032EE210A71EE601A71EE200A2DEE232A3C
:100FA00028EE031A2DEE033A68EE233AA44432EEFB
:100FB000011A28EE842A8C4587ED001A33EE631A55
:100FC00029EE843A87ED011A29EE801A28EE800A6C
:100FD00032EE011A30EE430A26EEA42A8EED001AF4
:100FE0008EED010A2BEE240A26EEA11A6BEE211AD1
:100FF00030EE010A2CEE221A86ED000A31EEC20A0A
:101000006AEE221A86ED010A2AEE200A6CEE200A08
:1010100031EE000A8AED000A30EEE10A8AED010A9B
:10102000FFF4D8AEDDF800C00CF1010CCDF800C023
:1010300063453FF691AEDDF854C04FF6FF7404EA05
:10104000CC0CCDF854C0072B3FF6A0AD02B0BDECE0
:10105000108B04B0BDE8F08F2DE9FE4F804681EA89
:101060000300C00F0C46009021F0004123F0004522
:10107000B8EB0200A94105D24046214690461C46E5
:101080000B46024623F00040104347D0270DC7F31C
:101090000A00C3F30A510290401A019040286BDA0B
:1010A000C3F3130040F4801B0098924620B1002344
:1010B000D2EB030A63EB0B0B01985946C0F14002D7
:1010C000504600F0CFF906460D4650465946019A63
:1010D00000F0D7F910EB08006141002487EA1152B3
:1010E00084EAE7731A4340D0009A62B3019A012A56
:1010F0004FEA075215DC001B61EB02014FF0004282
:1011000002EA0752CDE90042001C41F58011324647
:101110002B4600F00EFA03B0BDE8F08F40462146A2
:10112000F9E7001B61EB0201001C41F58013001878
:101130005B412018A2F5001747EB030140EAD57088
:10114000B6196D4111E06D084FEA360645EAC075E3
:101150004FEA0752001B61EB0201001C41F58011B0
:1011600049084FEA30000019514132462B4603B07E
:10117000BDE8F04F00F0CEB90098012240000023F6
:10118000D0EB020263EBE073009821464FEAE07473
:10119000B8EB000061EB0401E9E783F000435BE793
:1011A00081F0004158E72DE9FE4F81EA030404F085
:1011B000004421F0004100944FF0000B23F0004365
:1011C00050EA01045ED052EA03045BD0C3F30A5430
:1011D000C1F30A552C44A4F2F3340194A0FB025449
:1011E000C1F3130141F48011C3F3130343F48013DB
:1011F00001FB024400FB034E840A970A44EA81542F
:1012000047EA8357A4FB076802958D0A05FB07850B
:101210004FEA932C04FB0C542705029D4FEA065815
:1012200047EA1637B5EB08056EEB070C870E920EF2
:1012300047EA811742EA8312A7FB0201B6EB0B01D2
:1012400064EB00042B0D43EA0C335E1844EB1C5096
:10125000DA465146E7FB0201C5F313044FEA0B33AC
:1012600043EA14534FEA0432019C43EA0603A4F113
:101270000C040294009CCDE900B400F05AF903B0CC
:10128000BDE8F08F00200146F9E72DE9F04D81EA35
:10129000030404F0004B21F0004514464FF0000A0F
:1012A00023F0004150EA050220D054EA01021DD08B
:1012B000C5F30A570246C5F31303C1F31300C1F384
:1012C0000A5640F4801543F48013A7EB0608101B60
:1012D000D64608F2FD3873EB050002D308F1010889
:1012E00001E092185B41B8F1000F03DA00200146DB
:1012F000BDE8F08D00204FF48011064684460EE0D4
:10130000171B73EB050705D3121B63EB050306439D
:101310004CEA010C49084FEA300092185B4150EA50
:101320000107EDD152EA030012D082EA040083EAF9
:101330000501084305D0101BAB4106D20122002352
:1013400006E000224FF0004302E06FF0010253106C
:101350001AEB06004CEB085110EB0A0041EB0B01B5
:10136000BDE8F04D00F0D6B80EB5C10F80EAE070D0
:101370000844CA07002140F233438DE80E000A46B4
:101380000B4600F0D6F803B000BD0EB540F2334175
:1013900002910021CDE900110A460B4600F0C9F880
:1013A00003B000BD00F0004230F000400AD0C10D93
:1013B00001F56071C0F3160042EA0151C20840070E
:1013C00011437047002001467047000030B5041EED
:1013D00071F1000404DB4FF00044404264EB010172
:1013E000141E73F1000405DB1C464FF0004352420B
:1013F00063EB04038B4208BF824230BD30B5041E4C
:1014000071F1000404DB4FF00044404264EB010141
:10141000141E73F1000405DB1C464FF000435242DA
:1014200063EB0403994208BF904230BD01F00043D2
:1014300030B421F0004150EA010206D00A0DA2F5B5
:101440006072C1F31301002A02DC30BC0020704737
:10145000440F44EAC104C100E01830BC00EBC250A4
:1014600000F021B8202A04DB203A00FA02F1002023
:1014700070479140C2F1200320FA03F319439040D2
:101480007047202A06DBCB17203A41FA02F043EAE4
:10149000E07306E041FA02F3D040C2F1200291402D
:1014A0000843194670470029A8BF7047401C4900EF
:1014B00008BF20F00100704710B4B0FA80FC00FAB9
:1014C0000CF050EA010404BF10BC704749B1CCF1E4
:1014D000200421FA04F411FA0CF118BF0121214370
:1014E0000843A3EB0C01CB1D4FEA00614FEA10202B
:1014F00042BF002010BC704700EBC35010440029CD
:10150000A4BF10BC7047401C490008BF20F0010078
:1015100010BC704710B5141E73F1000408DA401CAB
:1015200041F1000192185B411A4301D120F0010002
:1015300010BD2DE9F04D92469B4611B1B1FA81F2F2
:1015400002E0B0FA80F220329046FFF78BFF0446AB
:101550000F4640EA0A0041EA0B0153465A46084347
:1015600013D0114653EA010019D0C8F14002504689
:1015700000F040F805460E46504659464246FFF7F1
:1015800071FF084305D0012004E020463946BDE83C
:10159000F08D0020054346EAE0762C4337430A9855
:1015A0006305E40AA0EB08000022FD0A44EA475460
:1015B0000A3002D500200146E9E70105101969410A
:1015C000DDE9084500196941BDE8F04DA2E70000DA
:1015D000064C074D06E0E06840F0010394E8070080
:1015E00098471034AC42F6D3FEF732FEA0800008D4
:1015F000C0800008202A04DB203A21FA02F00021F2
:10160000704721FA02F3D040C2F120029140084312
:10161000194670472DE9F04105460E461746264803
:10162000007838B900BF03F0A9FC0028FBD00120E6
:101630002149087003E09921882001F023FD8021D1
:101640001E4800F01CFF0028F5D1012003F0FAFF2E
:101650009921882001F016FD9921882001F012FDC2
:101660009921882001F00EFD9921882001F00AFDC2
:101670009921882001F006FD9921882001F002FDC2
:10168000002415E0204604EBD0714910A4EB410181
:1016900031B99921882001F0F5FC2880AD1C05E0C6
:1016A0009921882001F0EEFC3080B61C601C84B2C9
:1016B000BC42E7DBBDE8F0814C00002000040240A2
:1016C00000BFFEE7F0B52DED088B83B00746384626
:1016D00000F076FA0123002230493148FFF73CF947
:1016E000802230492D48FEF7CDFD01AB02AA8021B2
:1016F0002C48FFF7D7F901983F2803D90198C0F18A
:10170000800001902549019851F83040012101984D
:1017100001EB4000214951F820502046FFF742FEDE
:1017200041EC1A0B2846FFF73DFE41EC1B0BB0EED7
:101730004A1AF0EE6A1AB0EE4B0AF0EE6B0A03F0AA
:10174000C3FDB0EE409AF0EE609A51EC190BFFF732
:101750006DFE06463046FFF725FE41EC1B0B9FED64
:10176000120B53EC102BFFF71EFD41EC1A0B9FEDF3
:10177000100B53EC102BFFF788FD41EC190BFFF712
:1017800055FE08EE100A9FED0C0A78EE008AB0EEC6
:10179000680A03B0BDEC088BF0BD000060000020BB
:1017A0004C7A0008600A00200000000000806640BB
:1017B0004AD8124DFB210940DB0F494010B52DEDF1
:1017C000048B82B004469FEDAE0AB0EE408A9FEDD6
:1017D000AD0AF0EE409A204600F0D2F90123002233
:1017E000A949AA48FFF7B8F88022A949A648FEF7F8
:1017F00049FDA84B01AA8021A548FFF753F9A54848
:1018000000683F2805D9A3480068C0F18000A149BD
:1018100008609FEDA10A9E489E49096800EB81007F
:1018200080ED000A9FED9C0A9A480068C0F1800094
:10183000974901EB800080ED000A984B6A468021B1
:101840009348FFF72FF9954800683F2805D993483A
:101850000068C0F18000914908608E4800688F4997
:10186000096888420CD98D4800788D4908708948EC
:1018700000788C490870DDED008A9DED019A0BE03F
:101880008448007886490870844800788549087043
:10189000DDED018A9DED009A814801787A4800F0DB
:1018A0000BF9814880ED000A7D480078012813D0AB
:1018B0007B48007802280FD07948007803280BD0A5
:1018C00077480078042807D075480078052803D0A9
:1018D0007348007806287CD19FED740AF4EEC08A24
:1018E000F1EE10FA75D26E480078012814D16D48D7
:1018F0000078032810D1664890ED090AB4EEC80AB2
:10190000F1EE10FA01DD172000E01320684908709D
:101910001720684908709FE061480078022814D1B8
:1019200060480078062810D1594890ED120AB4EEAC
:10193000C80AF1EE10FA01DD172000E013205C491F
:10194000087017205B49087086E055480078032826
:1019500014D154480078092810D14D4890ED1B0A45
:10196000B4EEC80AF1EE10FA01DD172000E01320F2
:101970004F49087017204F4908706DE048480078BB
:10198000042814D1474800780C2810D1404890ED25
:10199000240AB4EEC80AF1EE10FA01DD172000E0C7
:1019A00013204349087017204249087054E03C480E
:1019B0000078052815D13B4800780F2811D134480C
:1019C00090ED2D0AB4EEC80AF1EE10FA02DD1720F0
:1019D00001E02DE0132036490870172035490870C2
:1019E0003AE02F480078062814D12E4800781228B3
:1019F00010D1274890ED360AB4EEC80AF1EE10FA7D
:101A000001DD172000E0132029490870172029491B
:101A1000087021E0B4EEE99AF1EE10FA01D2172035
:101A200000E013202249087017202249087013E0B3
:101A3000F4EEE98AF1EE10FA01D2172000E013204B
:101A40001C490870B4EEE99AF1EE10FA01D21720A1
:101A500000E01320164908701148007800EB800060
:101A60000F4908700F48007800EB80000D4908709E
:101A70000D4890ED000A02B0BDEC048B10BD0000D3
:101A800085EB9F4133738943600400204C7A000842
:101A9000600800202C000020000000003000002022
:101AA00028000020290000203C00002000808943FD
:101AB0002B0000202A0000202DE9F0412DED0A8B9B
:101AC00005460C4605EBC40090ED000A10EE106AC6
:101AD000012000EB440005EB800090ED000A10EEC1
:101AE000107A3046FFF75EFC41EC1B0B3846FFF7DF
:101AF00059FC41EC1C0BB0EE4B1AF0EE6B1AB0EE39
:101B00004C0AF0EE6C0A03F0DFFBB0EE40AAF0EEF8
:101B100060AA51EC1A0BFFF789FC80464046FFF79C
:101B200041FC41EC1C0B9FED110B53EC102BFFF70C
:101B30003AFB41EC1B0B9FED0F0B53EC102BFFF707
:101B4000A4FB41EC1A0BFFF771FC08EE100AF0EE53
:101B5000488A9FED0A0A38EE800AB0EE409AB0EE4D
:101B6000490ABDEC0A8BBDE8F081000000000000CE
:101B7000008066404AD8124DFB210940DB0F4940E6
:101B80000146002015E001EB800292ED000AF3EE21
:101B9000040A20EE200A084B03EBC00282ED000A83
:101BA0009FED060A4200521C03EB820282ED000AFE
:101BB000401C8028E7DB7047600400200000000024
:101BC0000146002015E001EB800292ED000AF3EEE1
:101BD000040A20EE200A084B03EBC00282ED000A43
:101BE0009FED060A4200521C03EB820282ED000ABE
:101BF000401C8028E7DB70476000002000000000E8
:101C00002DE9F0412DED068B04460D4616460027C2
:101C10001DE02188A1F2FF70FFF7A6FB41EC1A0B33
:101C20009FED0E0B53EC102BFFF7BDFA41EC190B97
:101C30009FED0C0B53EC102BFFF727FB41EC180B1F
:101C4000FFF7F4FB28602D1DA41C781C87B2B74257
:101C5000DFDBBDEC068BBDE8F0810000000000007A
:101C600000001440000000000000B04070B52DEDF1
:101C7000088B05462846FFF788FB41EC1B0B9FEDC0
:101C8000140B53EC102BFFF78EFA41EC1A0B9FED5F
:101C9000120B53EC102BFFF7F8FA41EC190BFFF77E
:101CA000C5FB08EE100ABCEEC80A10EE100AC4B25A
:101CB0003CB1132C05D0172C03D0882C01D0992CC3
:101CC00001D1601CC4B22046BDEC088B70BD000081
:101CD000000000000000704000000000008066402E
:101CE00070472DE9F84F05460C4691469846DDF8B9
:101CF00028A0002023464A4621460090284600F0AE
:101D0000A9FC002043462A4621460090284600F0C0
:101D1000A1FCBAF1010F09D100200090C8EB4400EA
:101D200083B22A462146284600F094FC0020009009
:101D3000601F83B2A9F1050082B22146484600F037
:101D400089FC00200090601D83B2A9F1050082B2D9
:101D50002146484600F07EFC0020009008F1050076
:101D600083B2681F82B24146284600F073FC00200F
:101D7000009008F1050083B2681D82B241462846F2
:101D800000F068FC102004F10A0291B2A5F10A02E9
:101D9000009090B20123002200F0A8FE002737E057
:101DA000052097FBF0F100FB117000BB0020611FC4
:101DB0008BB207EB870129448AB207EB87012944DC
:101DC000009088B2214600F045FCBAF1010F1DD009
:101DD0000C2004F10A0291B207EB87022A440A3A66
:101DE000009090B202233A4600F080FE0EE0002000
:101DF000A11E8BB207EB870129448AB207EB87014A
:101E00002944009088B2214600F024FC781CC7B217
:101E1000A9EB0500052190FBF1F0B842C0DC0026DB
:101E200026E0052096FBF0F100FB116078B9002058
:101E3000009006EB8600201A83B2681D82B206EB82
:101E40008600201A81B2284600F004FC0EE0002033
:101E5000009006EB8600201A83B2A81C82B206EB23
:101E60008600201A81B2284600F0F4FB701CC6B22E
:101E7000A4EB0800052190FBF1F0B042D1DCBAF1EF
:101E8000010F2FD1002626E0052096FBF0F100FB84
:101E9000116078B90020009006EB8600204483B2E0
:101EA000681D82B206EB8600204481B2284600F00D
:101EB000D1FB0EE00020009006EB8600204483B2A8
:101EC000A81C82B206EB8600204481B2284600F0AE
:101ED000C1FB701CC6B2A4EB0800052190FBF1F019
:101EE000B042D1DCBDE8F88F08B5012000F058F908
:101EF000012861D10A2003F0A5FB314800680128C0
:101F00005AD13048007830B1012813D0022820D0AF
:101F100003283CD12CE02C480078401DB42803DD78
:101F200029480078AF3802E027480078401D26494C
:101F3000087031E0244800780A30B42803DD2248D4
:101F40000078AA3802E0204800780A301E4908705C
:101F500022E01D4800781430B42803DD1A480078C8
:101F6000A03802E01848007814301749087013E0D0
:101F700015480078401CB42803DD13480078B338B6
:101F800002E011480078401C0F49087004E00E4838
:101F900000780D49087000BF00BF1820032300908F
:101FA000094802783B21962000F0A0FD0648007801
:101FB000FFF75CFE05490870012000F0EBF808BD52
:101FC000000240424D0000204E0000204F00002043
:101FD00010B5042000F0E4F801280ED10A2003F027
:101FE00031FB0848006840B90748007810B9012063
:101FF00005490870012005490870042000F0CAF85E
:1020000010BD00000802424214000020150000200C
:1020100008B5082000F0C4F801285DD10A2003F0BB
:1020200011FB2F480068002856D12E48007830B1A7
:10203000012812D002281ED0032838D129E02A48CE
:102040000078052803DA28480078AF3002E02648F7
:102050000078401F244908702EE0234800780A28A1
:1020600003DA21480078AA3002E01F4800780A38D5
:102070001D49087020E01C480078142803DA1A482B
:102080000078A03002E0184800781438164908702B
:1020900012E015480078012803DA13480078B330BD
:1020A00002E011480078401E0F49087004E00E4815
:1020B00000780D49087000BF00BF1820032300906E
:1020C000094802783B21962000F010FD0648007870
:1020D000FFF7CCFD05490870082000F05BF808BD4B
:1020E0000C0242424D0000204E0000204F00002014
:1020F00008B5102000F054F8012843D10A2003F05D
:10210000A1FA2248006800283CD121480078032821
:1021100001D1002002E01E480078401C1C490870D4
:102120000846007840B910200223052214210090AF
:10213000322000F0DBFC25E015480078012808D1AA
:10214000102002230A2214210090322000F0CEFC3D
:1021500018E00F480078022808D11020022314222A
:1021600011460090322000F0C1FC0BE008480078D6
:10217000032807D1102002230122142100903220CD
:1021800000F0B4FC102000F005F808BD1002424237
:102190004D0000200149086070470000143C0140D8
:1021A00001460020034A12680A400AB1012000E0FB
:1021B00000207047143C0140002123498279002A05
:1021C0003AD00A46126803689A430B461A600A1D01
:1021D000126803689A430B1D1A60027911440A6859
:1021E00003681A430A60184A0832126803689A435F
:1021F000154B08331A601A1D126803689A43124B74
:102200000C331A604279102A0ED11A1F1268036823
:102210001A430D4B08331A601A1D126803681A43DB
:10222000094B0C331A600DE00749427911440A68E2
:1022300003681A430A6005E0027911440A680368DA
:102240009A430A6070470000003C014051B182008F
:10225000A2F1C042126842F001038200A2F1C04222
:10226000136009E08200A2F1C0421268034B1A40D9
:102270008300A3F1C0431A6070470000FEFF0F0007
:1022800030B50021002200230468A400A4F1C0445A
:102290002168444C2140D0E901452C43C5682C43BA
:1022A00005692C4345692C4385692C43C5692C433A
:1022B000056A2C43456A2C43856A2C43C56A2C4326
:1022C000056B2C4321430468A400A4F1C0442160A1
:1022D0008468082C0BD10468A400A4F1C0442468CD
:1022E00044F040050468A400A4F1C04425600468DB
:1022F000641CA400A4F1C044226802F04042446B74
:102300002468456B6D6844EA0514456BAD6844EA82
:102310000524456BAD8944EA0544456B2D8A44EAA2
:102320000554456B2D7D44EA0564456BAD692C432E
:1023300022430468641CA400A4F1C0442260C46A5F
:10234000B4F5804F24D10468A400A4F1C044D4F8AB
:10235000043103F04043846B2468856B6D6844EA64
:102360000514856BAD6844EA0524856B2D8A44EA23
:102370000554856B2D7D44EA0564856BAD692C435E
:1023800023430468A400A4F1C044C4F8043107E066
:102390006FF070450468A400A4F1C044C4F804516F
:1023A00030BD00008000F7FFF0B50A460021002391
:1023B000002400BF3DE0012505FA01F3156805EA98
:1023C00003049C4234D105684F000326BE40B54348
:1023D000056015794E00B5400668354305601579EE
:1023E000012D02D01579022D16D185684F000326E4
:1023F000BE40B543856055794E00B540866835438B
:102400008560456801268E40B543456045689679EC
:102410008E40B6B235434560C5684F000326BE40C6
:10242000B543C560D5794E00B540C6683543C56033
:10243000491C1029BFD3F0BDF0B5002300244D077F
:10244000ED0E02FA05F3CE1000F1200555F82650E6
:102450004E07F70E0F26BE40B543CF1000F1200601
:1024600046F82750CE1000F1200555F8265045EAD1
:102470000304CE1000F1200545F82640F0BD0246C9
:10248000002013690B400BB1012000E000207047D1
:10249000018370470AB1018300E04183704700BFA8
:1024A000FEE700001CB50121112000F087FC002090
:1024B0008DF804001C20009001208DF8070069466B
:1024C0000748FFF771FF00208DF8040001200090FD
:1024D00002208DF8070069460248FFF765FF1CBD22
:1024E000001002400000024070B506460F484088C8
:1024F000401E83B20D480088401E82B2002108466B
:1025000000F03EF900240CE0002504E0304600F025
:1025100077FB681C85B205484088A842F6DC601C41
:1025200084B202480088A042EEDC70BD4400002066
:102530002DE9FE4F0746884615461E46DDF830B0A9
:10254000002449E095ED000ADFED260A20EE200A7E
:10255000BDEEC00A10EE100A00B2029096ED000A1D
:10256000DFED200A20EE200ABDEEC00A10EE100AB0
:102570000FFA80F92D1D361D95ED000ADFED190AC1
:1025800020EE200ABDEEC00A10EE100A00B2019043
:1025900096ED000ADFED130A20EE200ABDEEC00A18
:1025A00010EE100A0FFA80FA0D98A8EB0A0C1FFA29
:1025B0008CF307EB440C0CF1020C1FFA8CF2A8EB25
:1025C000090C1FFA8CF107EB440C00901FFA8CF0F9
:1025D00000F040F8601CC4B2ABF10100A042B1DCD5
:1025E000BDE8FE8F0000C84200B5024682B94FF434
:1025F000585000F0F9FA002000F0FCFA4FF448704F
:102600000C4948804FF4F0700880002088710FE07A
:102610004FF4585000F0E8FA602000F0EBFA4FF465
:10262000F070044948804FF4487008800120887198
:1026300000BD00004400002070B504460D4616465B
:102640002B4622462946204600F09AF8304600F0F4
:10265000D7FA70BD2DE9FF4F84B081468A4600202D
:10266000029083460698A0EB09050798A0EB0A069E
:10267000CDF80490CDF800A0002D01DD012705E084
:102680000DB9002702E04FF0FF376D42002E02DD4A
:102690004FF0010806E016B94FF0000802E04FF0D5
:1026A000FF387642B54201DD2C4600E0344600207A
:1026B00003901EE0009A91B2019A90B2119AFFF72E
:1026C000BBFF029828440290B3440298A04205DD63
:1026D0000298001B0290019838440190A34504DD44
:1026E000ABEB040B0098404400900398401C80B270
:1026F0000390611C03988842DCDD08B0BDE8F08FD0
:102700002DE9F04304460D4616461F46DDF81C80B1
:10271000B44201DCBD4201DDBDE8F0833B463246F8
:102720002946204600F02CF8301B401C84B2781B50
:10273000401C85B20BE0A94602E0404600F060FA7A
:10274000B9F10000A9F101011FFA81F9F5D1201EAC
:10275000A4F101018CB2EED100BFDDE710B5024655
:10276000012000E050430B1EA1F10104E1B2F9D1B8
:1027700010BD000001480088704700008000006C18
:1027800030B504460D464FF4285000F02DFA2012C3
:1027900000F030FA42F6012000F026FAE0B200F034
:1027A00029FA42F6022000F01FFA101200F022FA75
:1027B00042F6032000F018FAD0B200F01BFA4FF4F2
:1027C0002C5000F011FA281200F014FA42F60130F1
:1027D00000F00AFAE8B200F00DFA42F6023000F01A
:1027E00003FA181200F006FA42F6033000F0FCF982
:1027F000D8B200F0FFF94FF4305000F0F5F930BDD9
:102800002DE9F84F80460E4617461C46B346204633
:10281000E31704EB5373DB1021464FEAE47C04EB2F
:102820005C7C4FEAEC0CA4EBCC0CBCF1000F02D0AA
:102830004FF0010C01E04FF0000C6344224604EB22
:10284000D27C4FEA6C0C03FB0CF3DBB20093A7F1D4
:102850002000C7B2002556E00C2C07D107EB47003B
:102860002B4901EB800010F8059013E0102C05D1E6
:10287000284800EB071010F805900BE0182C07D142
:1028800007EBC700244901EB800010F8059001E038
:10289000BDE8F88F4FF0000A2FE009F0800030B15A
:1028A0001E48028831464046FFF7C6FE07E00A98F8
:1028B00028B91B48028831464046FFF7BDFE4FEA63
:1028C00049604FEA1069701C86B216484088B042D1
:1028D00000DCDDE7A6EB0B00A0420AD15E4608F162
:1028E00001001FFA80F80F480088404500DCCFE760
:1028F00006E00AF1010000F0FF0ABAF1080FCCDB94
:1029000000BF681CC5B200988542A5DB00BFBFE7C9
:10291000405A0008B45E0008A4640008400000208B
:1029200042000020440000202DE9F84F04460F46E5
:102930001546A346009760E0002657E006EB8600A8
:10294000C0EB86102F4911F81000297888424BD12E
:1029500006EB8600C0EB86102A4901EB4000407868
:102960006978884240D14FF000083AE006EB8600D3
:10297000C0EB8610234901EB4000801C10F808A032
:102980004FF0000926E00AF08000802806D11E489A
:10299000028839462046FFF74FFE05E01B480288B3
:1029A00039462046FFF748FE4FF6FF7000EA4A0A14
:1029B000601C84B2A4EB0B00202807D15C46781C75
:1029C00087B20098381A1D2800D1009F09F1010034
:1029D00000F0FF09B9F1080FD5DB08F1010000F0A4
:1029E000FF08B8F1740FC1DB701CC6B2142EA5DB52
:1029F000AD1C04F1200084B2A346287800289BD1A6
:102A0000BDE8F88F0072000840000020420000205E
:102A10002DE9F84F04460F461546A34600975AE0A5
:102A2000002651E006EB06102D4911F81000297818
:102A3000884247D106EB0610294901EB4000407857
:102A4000697888423ED14FF0000838E006EB061066
:102A5000234901EB4000801C10F808A04FF000094A
:102A600026E00AF08000802806D11E4802883946F8
:102A70002046FFF7E1FD05E01B4802883946204665
:102A8000FFF7DAFD4FF6FF7000EA4A0A601C84B2D5
:102A9000A4EB0B00102807D15C46781C87B2009885
:102AA000381A102800D1009F09F1010000F0FF0939
:102AB000B9F1080FD5DB08F1010000F0FF08B8F10B
:102AC000200FC3DB701CC6B2142EABDBAD1C04F1AF
:102AD000100084B2A34628780028A1D1BDE8F88F61
:102AE000FC59000840000020420000202DE9FF4F63
:102AF00081B0074691461E460E9D4FF0000A002405
:102B000039E0301B401EC1B20A20FFF727FEB9FB97
:102B1000F0F00A21B0FBF1F201FB1208BAF1000F4C
:102B200016D1701EA04213DDB8F1000F0ED10020A7
:102B3000AB4605EBDB71491001FB0471009088B2D4
:102B40002B4620220299FFF75BFE12E04FF0010AAC
:102B50000020AB4605EBDB71491001FB04710090CE
:102B600088B208F13001CAB22B460299FFF748FE3D
:102B700000BF601CC4B2B442C3DB05B0BDE8F08F37
:102B80002DE9F84704460D4690469946DDE9096768
:102B900004F0FF0A08EB04001FFA80F809EB0500B7
:102BA0001FFA80F916E0444502DB5446A81985B2A5
:102BB0004D4500DB14E0002000903A78334629466A
:102BC0002046FFF71DFE304606EBD07104EB610195
:102BD0008CB27F1C38787E2802DC38782028E2DA34
:102BE00000BFBDE8F8870000014908807047000079
:102BF0007E00006C01490880704700008000006C76
:102C000001490880704700008000006C1CB501215C
:102C1000202000F0D3F801208DF804004FF4C060AC
:102C2000009003208DF8050000208DF8060001209B
:102C30008DF8070069460448FFF7B6FB4FF4C06102
:102C40000148FFF725FC1CBD0014024000BFFEE751
:102C50000EB50121880300F0D1F80021084600F0EC
:102C60008BFA0221042000F087FA0321042000F0EF
:102C700083FA0421084600F07FFA06208DF8080048
:102C800002208DF8090003208DF80A0001208DF83C
:102C90000B0002A800F04AF808208DF80800022076
:102CA0008DF809008DF80A0001208DF80B0002A8AC
:102CB00000F03CF809208DF8080002208DF809008A
:102CC00001208DF80A008DF80B0002A800F02EF804
:102CD0000A208DF8080002208DF8090000208DF8E8
:102CE0000A0001208DF80B0002A800F01FF8012057
:102CF000009000208DF8040008208DF805000120C8
:102D00008DF806006846FFF757FA1C200090002057
:102D10008DF804000C208DF8050001208DF80600C8
:102D20006846FFF749FA0EBD7047000070B50021F4
:102D300000230F22C4781CB3174C246804F4E06409
:102D4000C4F5E064C4F30721C1F10404E3B20A410D
:102D500044789C40E1B28478144021430C07210E52
:102D60000E4C05786155047804F01F050124AC4031
:102D700005786D11AD0005F1E025C5F8004109E0C9
:102D8000047804F01F050124AC40054D0678761147
:102D900045F8264070BD00000CED00E000E400E0C6
:102DA00080E100E002490143024A116070470000DF
:102DB0000000FA050CED00E07047000029B1064A5A
:102DC00012680243044B1A6004E0034A126882430B
:102DD000014B1A60704700003038024029B1064AA2
:102DE00012680243044B1A6004E0034A12688243EB
:102DF000014B1A60704700003838024029B1064A7A
:102E000012680243044B1A6004E0034A12688243CA
:102E1000014B1A60704700004438024029B1064A4D
:102E200012680243044B1A6004E0034A12688243AA
:102E3000014B1A607047000024380240F0B50021B1
:102E400000220024022500260223324F3F6807F0AB
:102E50000C0121B1042905D0082937D105E02E4FF6
:102E6000076036E02D4F076033E02A4F3F1F3F6871
:102E7000C7F38056274F3F1F3F6807F03F036EB1EF
:102E8000264FB7FBF3F7DFF88CC0ACF1040CDCF88D
:102E900000C0CCF3881C07FB0CF40CE01E4FB7FB02
:102EA000F3F7DFF870C0ACF1040CDCF800C0CCF331
:102EB000881C07FB0CF4174F3F1F3F68C7F30147FF
:102EC0007F1C7D00B4FBF5F7076002E0124F07603E
:102ED00000BF00BF0F4F3F6807F0F0010909104F16
:102EE0007A5C0768D74047600A4F3F6807F4E051B3
:102EF000890A0B4F7A5C4768D7408760054F3F6867
:102F000007F46041490B064F7A5C4768D740C760B9
:102F1000F0BD0000083802400024F40000127A00DE
:102F2000160000201CB5012000908DF80400002040
:102F30008DF8060003208DF8050001208DF80700AC
:102F400069460F48FFF730FA4020009000208DF8C6
:102F5000040003208DF8050001208DF80700694664
:102F60000748FFF721FA8020009000208DF8040028
:102F700001208DF8070069460148FFF715FA1CBDCE
:102F80000004024000B587B001210220FFF716FFC0
:102F900001210803FFF732FF052203212D48FFF727
:102FA0004BFA052204212B48FFF746FA0522114669
:102FB0002848FFF741FA3820059002208DF81800C4
:102FC00000208DF81A0003208DF8190001208DF8DB
:102FD0001B0005A91F48FFF7E7F902200590012013
:102FE0008DF8180005A91B48FFF7DEF9FFF79AFFD7
:102FF00001210803FFF712FF00214FF48050FFF773
:103000000DFF0020ADF800004FF48270ADF8020013
:103010000020ADF804000220ADF806000120ADF854
:1030200008004002ADF80A003820ADF80C0000207E
:10303000ADF80E000720ADF810006946064800F014
:103040007BF80121044800F05DF8FF2000F03EF815
:1030500007B000BD000402400030014070B50446D6
:10306000002202210648FFF715FA204600F02EF84C
:103070000546012202210248FFF70CFA284670BDDE
:103080000004024070B506460C46002202210E489C
:10309000FFF700FA304600F019F805460122022138
:1030A0000948FFF7F7F9002202210748FFF7F2F974
:1030B000204600F00BF840EA0525012202210248D3
:1030C000FFF7E8F9284670BD0004024010B5044639
:1030D00000BF02210A4800F021F80028F9D021465B
:1030E000074800F027F800BF0121054800F016F856
:1030F0000028F9D0024800F01AF8C0B210BD000054
:103100000030014021B1028842F04002028004E018
:1031100002884FF6BF731A400280704702460020B3
:1031200013890B400BB1012000E0002070470146DD
:10313000888970478181704710B50022028802F4A7
:1031400041520B884C8823438C882343CC882343EB
:103150000C8923434C8923438C892343CC89234303
:103160001A430280838B4FF2FF74234083830B8AC0
:10317000038210BD7047000030B500228B071C0F82
:103180000F2303FA04F20B4B8C1053F824309343B3
:10319000084C8D1044F8253023468C1053F8243009
:1031A0008C07240F00FA04F42343024C8D1044F8DA
:1031B000253030BD083801400CB50020019000904A
:1031C0003448006840F480303249086000BF31481C
:1031D000006800F4003000900198401C01900098B5
:1031E00018B90198B0F5A04FF1D12A48006800F451
:1031F000003010B10120009001E000200090009804
:10320000012846D123484030006840F080502149D1
:10321000403108602048006840F440401E49086082
:103220001C48083000681B490831086008460068DF
:1032300040F4004008600846006840F4A050086070
:103240001648091F0860081F006840F08070091FB9
:10325000086000BF0F48006800F000700028F9D037
:1032600040F205700E4908600A480830006820F0F6
:1032700003000849083108600846006840F0020071
:10328000086000BF03480830006800F00C00082800
:10329000F8D10CBD003802400070004008544007CF
:1032A000003C02402DE9FC4104460D4617461E46EF
:1032B000172C05D120A21921FE20FFF735FB04E0D1
:1032C0001FA21921FE20FFF72FFB182003233A46E7
:1032D0001D2100904FF4AF70FFF708FC1AA01821D1
:1032E0000B462422CDE900101D214FF4C170FFF7D9
:1032F00047FC172D05D110A23721FE20FFF714FB44
:1033000004E00FA23721FE20FFF70EFB1820032355
:1033100032463B2100904FF4AF70FFF7E7FB0AA065
:1033200018210B462422CDE900103B214FF4C17037
:10333000FFF726FCBDE8FC81C8FDBDC7B2A80000B0
:10334000D5FDCFD2B2A800006B487A00042808D17E
:103350004FF0E021096941F004014FF0E0221161D2
:1033600007E04FF0E021096921F004014FF0E0226D
:10337000116170477047000010B504466FF00400FB
:10338000FFF7E4FFE11704EB5171C1F3C701074AEE
:1033900011701046007800EB4001C1EBC0104FF6F1
:1033A000FF7101EAC0000249088010BD50000020F2
:1033B0005200002010B51548006840F47000134911
:1033C00008601348006840F00100114908600020BF
:1033D0000F49083108600E4800680E4908400C4942
:1033E00008600D48091D0860081F006820F480204F
:1033F000091F0860002006490C310860FFF7DCFE59
:103400004FF0006001498039086010BD88ED00E090
:1034100000380240FFFFF6FE1030002400B59DB0DA
:1034200001210846FFF7DAFC0120079000200890F0
:103430000F20099000200A900B900C900D90062010
:103440000E9000200F9010901020119000201290EC
:1034500014901390159016904FF480501790002000
:1034600018904FF48040199000201A9007A81B90E4
:10347000CDF870D00EA8FEF703FF01210620FEF75D
:10348000E5FE1DB000BD00001CB501217820FFF74E
:1034900095FC0C220E215748FEF7CEFF0C220F217F
:1034A0005448FEF7C9FF0C2200215248FEF7C4FF22
:1034B0000C2201214F48FEF7BFFF0C2207214E4886
:1034C000FEF7BAFF0C2208214B48FEF7B5FF0C228D
:1034D00009214948FEF7B0FF0C220A214648FEF7B1
:1034E000ABFF0C220B214448FEF7A6FF0C2211462D
:1034F0004148FEF7A1FF0C220D213F48FEF79CFF3B
:103500000C220E213C48FEF797FF0C220F213A486F
:10351000FEF792FF0C2208213648FEF78DFF0C22A1
:1035200009213448FEF788FF0C220A213148FEF7B2
:1035300083FF0C2204212F48FEF77EFF0C22052179
:103540002C48FEF779FF0C2211462C48FEF774FF39
:103550000C2211462A48FEF76FFF4CF233700090A0
:1035600002208DF8040000208DF8060003208DF85D
:10357000050001208DF8070069461E48FEF714FF7C
:103580004FF68070009002208DF8040000208DF826
:10359000060003208DF8050001208DF8070069461C
:1035A0001548FEF701FF4FF48050009002208DF87F
:1035B000040000208DF8060003208DF8050001208E
:1035C0008DF8070069460D48FEF7EEFE4FF4805077
:1035D000009002208DF8040000208DF806000320E2
:1035E0008DF8050001208DF8070069460448FEF7B4
:1035F000DBFE1CBD000C0240001002400014024023
:103600000018024010B5FFF73FFFFFF707FF322019
:1036100002F018F84FF45A40FFF7E6FAFFF7AAF85D
:10362000FE4988804FF45B40FFF7DEFAFFF7A2F80F
:10363000FA498880084680884FF6FF7101EA002029
:10364000F64988804FF45C40FFF7CEFAFFF792F816
:10365000F24989880843F14988804FF47040FFF7A8
:10366000C3FA5520FFF7C6FA4FF20100FFF7BCFA84
:10367000AA20FFF7BFFA4FF20200FFF7B5FA522077
:10368000FFF7B8FA4FF20300FFF7AEFA0820FFF792
:10369000B1FA4FF20400FFF7A7FA0120FFF7AAFAE8
:1036A0004FF43040FFF7A0FA0020FFF7A3FA4BF2E7
:1036B0000100FFF799FA0020FFF79CFA4BF2020095
:1036C000FFF792FA0020FFF795FA4FF43640FFF724
:1036D0008BFA3420FFF78EFA4BF20160FFF784FA81
:1036E0003420FFF787FA4BF20260FFF77DFA3420AF
:1036F000FFF780FA4FF43140FFF776FA0020FFF72A
:1037000079FA4BF20110FFF76FFA0020FFF772FA17
:103710004BF20210FFF768FA0020FFF76BFA4FF444
:103720003740FFF761FA3420FFF764FA4BF201707B
:10373000FFF75AFA3420FFF75DFA4BF20270FFF7F9
:1037400053FA3420FFF756FA4FF43240FFF74CFAA1
:103750000020FFF74FFA4BF20120FFF745FA002057
:10376000FFF748FA4BF20220FFF73EFA0020FFF77E
:1037700041FA4FF43840FFF737FA0520FFF73AFADD
:103780004BF60100FFF730FA0520FFF733FA4BF64E
:103790000200FFF729FA0520FFF72CFA4FF43F400B
:1037A000FFF722FA0120FFF725FA4FF43340FFF725
:1037B0001BFA0F20FFF71EFA4BF20130FFF714FA45
:1037C0000F20FFF717FA4BF20230FFF70DFA0F2028
:1037D000FFF710FA4FF43940FFF706FA2420FFF7FD
:1037E00009FA4BF60110FFF7FFF92420FFF702FA60
:1037F0004BF60210FFF7F8F92420FFF7FBF94FF41E
:103800003540FFF7F1F90820FFF7F4F94BF20150CA
:10381000FFF7EAF90820FFF7EDF94BF20250FFF746
:10382000E3F90820FFF7E6F94FF43A40FFF7DCF937
:103830001420FFF7DFF94BF60120FFF7D5F914202C
:10384000FFF7D8F94BF60220FFF7CEF91420FFF767
:10385000D1F94FF43C40FFF7C7F90020FFF7CAF950
:103860004BF60140FFF7C0F9BC20FFF7C3F94BF658
:103870000240FFF7B9F90020FFF7BCF94FF43D40D3
:10388000FFF7B2F90020FFF7B5F94BF60150FFF74B
:10389000ABF9BC20FFF7AEF94BF60250FFF7A4F9E5
:1038A0000020FFF7A7F94FF43E40FFF79DF90020F5
:1038B000FFF7A0F94BF60160FFF796F92D20FFF70F
:1038C00099F94FF45140FFF78FF90020FFF792F973
:1038D0004DF20110FFF788F93720FFF78BF94DF211
:1038E0000210FFF781F90020FFF784F94DF2031071
:1038F000FFF77AF94920FFF77DF94DF20410FFF741
:1039000073F90020FFF776F94DF20510FFF76CF917
:103910006B20FFF76FF94DF20610FFF765F90020F5
:10392000FFF768F94DF20710FFF75EF98620FFF701
:1039300061F94DF20810FFF757F90020FFF75AF927
:103940004DF20910FFF750F99D20FFF753F94DF2A2
:103950000A10FFF749F90020FFF74CF94DF20B1060
:10396000FFF742F9C320FFF745F94DF20C10FFF7BE
:103970003BF90020FFF73EF94DF20D10FFF734F947
:10398000E020FFF737F94DF20E10FFF72DF9012077
:10399000FFF730F94DF20F10FFF726F90D20FFF772
:1039A00029F94DF21010FFF71FF90120FFF722F956
:1039B0004DF21110FFF718F92F20FFF71BF94DF208
:1039C0001210FFF711F90120FFF714F94DF213104F
:1039D000FFF70AF96120FFF70DF94DF21410FFF718
:1039E00003F90120FFF706F94DF21510FFF7FCF877
:1039F0008620FFF7FFF84DF21610FFF7F5F80120CB
:103A0000FFF7F8F84DF21710FFF7EEF8BD20FFF7BB
:103A1000F1F84DF21810FFF7E7F801E0440000203C
:103A20000120FFF7E7F84DF21910FFF7DDF8E72066
:103A3000FFF7E0F84DF21A10FFF7D6F80120FFF774
:103A4000D9F84DF21B10FFF7CFF8E820FFF7D2F8B6
:103A50004DF21C10FFF7C8F80220FFF7CBF84DF22B
:103A60001D10FFF7C1F80C20FFF7C4F84DF21E102F
:103A7000FFF7BAF80220FFF7BDF84DF21F10FFF76D
:103A8000B3F83020FFF7B6F84DF22010FFF7ACF88E
:103A90000220FFF7AFF84DF22110FFF7A5F84520FF
:103AA000FFF7A8F84DF22210FFF79EF80220FFF76B
:103AB000A1F84DF22310FFF797F86320FFF79AF86B
:103AC0004DF22410FFF790F80220FFF793F84DF223
:103AD0002510FFF789F87E20FFF78CF84DF22610AD
:103AE000FFF782F80220FFF785F84DF22710FFF765
:103AF0007BF8B120FFF77EF84DF22810FFF774F83D
:103B00000220FFF777F84DF22910FFF76DF8E0205B
:103B1000FFF770F84DF22A10FFF766F80320FFF761
:103B200069F84DF22B10FFF75FF82620FFF762F8D7
:103B30004DF22C10FFF758F80320FFF75BF84DF219
:103B40002D10FFF751F86020FFF754F84DF22E10BA
:103B5000FFF74AF80320FFF74DF84DF22F10FFF75B
:103B600043F8B420FFF746F84DF23010FFF73CF869
:103B70000320FFF73FF84DF23110FFF735F8B92079
:103B8000FFF738F84DF23210FFF72EF80320FFF759
:103B900031F84DF23310FFF727F8C120FFF72AF86C
:103BA0004FF45240FFF720F80020FFF723F84DF2C2
:103BB0000120FFF719F83720FFF71CF84DF202201B
:103BC000FFF712F80020FFF715F84DF20320FFF77A
:103BD0000BF84920FFF70EF84DF20420FFF704F828
:103BE0000020FFF707F84DF20520FEF7FDFF6B20E0
:103BF000FFF700F84DF20620FEF7F6FF0020FEF773
:103C0000F9FF4DF20720FEF7EFFF8620FEF7F2FFE7
:103C10004DF20820FEF7E8FF0020FEF7EBFF4DF223
:103C20000920FEF7E1FF9D20FEF7E4FF4DF20A2098
:103C3000FEF7DAFF0020FEF7DDFF4DF20B20FEF766
:103C4000D3FFC320FEF7D6FF4DF20C20FEF7CCFFCA
:103C50000020FEF7CFFF4DF20D20FEF7C5FFE0205C
:103C6000FEF7C8FF4DF20E20FEF7BEFF0120FEF763
:103C7000C1FF4DF20F20FEF7B7FF0D20FEF7BAFF90
:103C80004DF21020FEF7B0FF0120FEF7B3FF4DF21A
:103C90001120FEF7A9FF2F20FEF7ACFF4DF21220F6
:103CA000FEF7A2FF0120FEF7A5FF4DF21320FEF75D
:103CB0009BFF6120FEF79EFF4DF21420FEF794FF5C
:103CC0000120FEF797FF4DF21520FEF78DFF8620AD
:103CD000FEF790FF4DF21620FEF786FF0120FEF75B
:103CE00089FF4DF21720FEF77FFFBD20FEF782FF10
:103CF0004DF21820FEF778FF0120FEF77BFF4DF212
:103D00001920FEF771FFE720FEF774FF4DF21A202D
:103D1000FEF76AFF0120FEF76DFF4DF21B20FEF754
:103D200063FFE820FEF766FF4DF21C20FEF75CFF04
:103D30000220FEF75FFF4DF21D20FEF755FF0C201D
:103D4000FEF758FF4DF21E20FEF74EFF0220FEF751
:103D500051FF4DF21F20FEF747FF3020FEF74AFFCC
:103D60004DF22020FEF740FF0220FEF743FF4DF208
:103D70002120FEF739FF4520FEF73CFF4DF22220BF
:103D8000FEF732FF0220FEF735FF4DF22320FEF74B
:103D90002BFF6320FEF72EFF4DF22420FEF724FFB9
:103DA0000220FEF727FF4DF22520FEF71DFF7E20A3
:103DB000FEF720FF4DF22620FEF716FF0220FEF749
:103DC00019FF4DF22720FEF70FFFB120FEF712FF7B
:103DD0004DF22820FEF708FF0220FEF70BFF4DF200
:103DE0002920FEF701FFE020FEF704FF4DF22A2014
:103DF000FEF7FAFE0320FEF7FDFE4DF22B20FEF744
:103E0000F3FE2620FEF7F6FE4DF22C20FEF7ECFE28
:103E10000320FEF7EFFE4DF22D20FEF7E5FE6020B9
:103E2000FEF7E8FE4DF22E20FEF7DEFE0320FEF741
:103E3000E1FE4DF22F20FEF7D7FEB420FEF7DAFEAA
:103E40004DF23020FEF7D0FE0320FEF7D3FE4DF2F8
:103E50003120FEF7C9FEB920FEF7CCFE4DF232202C
:103E6000FEF7C2FE0320FEF7C5FE4DF23320FEF73B
:103E7000BBFEC120FEF7BEFE4FF45340FEF7B4FE7A
:103E80000020FEF7B7FE4DF20130FEF7ADFE372001
:103E9000FEF7B0FE4DF20230FEF7A6FE0020FEF760
:103EA000A9FE4DF20330FEF79FFE4920FEF7A2FE69
:103EB0004DF20430FEF798FE0020FEF79BFE4DF217
:103EC0000530FEF791FE6B20FEF794FE4DF20630B2
:103ED000FEF78AFE0020FEF78DFE4DF20730FEF75A
:103EE00083FE8620FEF786FE4DF20830FEF77CFE4C
:103EF0000020FEF77FFE4DF20930FEF775FE9D2093
:103F0000FEF778FE4DF20A30FEF76EFE0020FEF757
:103F100071FE4DF20B30FEF767FEC320FEF76AFE1E
:103F20004DF20C30FEF760FE0020FEF763FE4DF20E
:103F30000D30FEF759FEE020FEF75CFE4DF20E302C
:103F4000FEF752FE0120FEF755FE4DF20F30FEF750
:103F50004BFE0D20FEF74EFE4DF21030FEF744FEF4
:103F60000120FEF747FE4DF21130FEF73DFE2F20F7
:103F7000FEF740FE4DF21230FEF736FE0120FEF74E
:103F800039FE4DF21330FEF72FFE6120FEF732FEB0
:103F90004DF21430FEF728FE0120FEF72BFE4DF205
:103FA0001530FEF721FE8620FEF724FE4DF2163076
:103FB000FEF71AFE0120FEF71DFE4DF21730FEF748
:103FC00013FEBD20FEF716FE4DF21830FEF70CFE74
:103FD0000120FEF70FFE4DF21930FEF705FEE72037
:103FE000FEF708FE4DF21A30FEF7FEFD0120FEF747
:103FF00001FE4DF21B30FEF7F7FDE820FEF7FAFD5B
:104000004DF21C30FEF7F0FD0220FEF7F3FD4DF2FD
:104010001D30FEF7E9FD0C20FEF7ECFD4DF21E30E1
:10402000FEF7E2FD0220FEF7E5FD4DF21F30FEF740
:10403000DBFD3020FEF7DEFD4DF22030FEF7D4FD33
:104040000220FEF7D7FD4DF22130FEF7CDFD4520D1
:10405000FEF7D0FD4DF22230FEF7C6FD0220FEF73E
:10406000C9FD4DF22330FEF7BFFD6320FEF7C2FD10
:104070004DF22430FEF7B8FD0220FEF7BBFD4DF2F5
:104080002530FEF7B1FD7E20FEF7B4FD4DF226305F
:10409000FEF7AAFD0220FEF7ADFD4DF22730FEF738
:1040A000A3FDB120FEF7A6FD4DF22830FEF79CFDE2
:1040B0000220FEF79FFD4DF22930FEF795FDE0202E
:1040C000FEF798FD4DF22A30FEF78EFD0320FEF735
:1040D00091FD4DF22B30FEF787FD2620FEF78AFD7D
:1040E0004DF22C30FEF780FD0320FEF783FD4DF2EC
:1040F0002D30FEF779FD6020FEF77CFD4DF22E306D
:10410000FEF772FD0320FEF775FD4DF22F30FEF72E
:104110006BFDB420FEF76EFD4DF23030FEF764FD0E
:104120000320FEF767FD4DF23130FEF75DFDB9204B
:10413000FEF760FD4DF23230FEF756FD0320FEF72C
:1041400059FD4DF23330FEF74FFDC120FEF752FD11
:104150004FF45440FEF748FD0020FEF74BFD4DF2B2
:104160000140FEF741FD3720FEF744FD4DF20240CD
:10417000FEF73AFD0020FEF73DFD4DF20340FEF74D
:1041800033FD4920FEF736FD4DF20440FEF72CFDCD
:104190000020FEF72FFD4DF20540FEF725FD6B20B8
:1041A000FEF728FD4DF20640FEF71EFD0020FEF74B
:1041B00021FD4DF20740FEF717FD8620FEF71AFDA0
:1041C0004DF20840FEF710FD0020FEF713FD4DF202
:1041D0000940FEF709FD9D20FEF70CFD4DF20A4057
:1041E000FEF702FD0020FEF705FD4DF20B40FEF745
:1041F000FBFCC320FEF7FEFC4DF20C40FEF7F4FC86
:104200000020FEF7F7FC4DF20D40FEF7EDFCE0203C
:10421000FEF7F0FC4DF20E40FEF7E6FC0120FEF743
:10422000E9FC4DF20F40FEF7DFFC0D20FEF7E2FC4B
:104230004DF21040FEF7D8FC0120FEF7DBFC4DF2FA
:104240001140FEF7D1FC2F20FEF7D4FC4DF21240B6
:10425000FEF7CAFC0120FEF7CDFC4DF21340FEF73D
:10426000C3FC6120FEF7C6FC4DF21440FEF7BCFC17
:104270000120FEF7BFFC4DF21540FEF7B5FC86208D
:10428000FEF7B8FC4DF21640FEF7AEFC0120FEF73B
:10429000B1FC4DF21740FEF7A7FCBD20FEF7AAFCCB
:1042A0004DF21840FEF7A0FC0120FEF7A3FC4DF2F2
:1042B0001940FEF799FCE720FEF79CFC4DF21A40EE
:1042C000FEF792FC0120FEF795FC4DF21B40FEF735
:1042D0008BFCE820FEF78EFC4DF21C40FEF784FCC0
:1042E0000220FEF787FC4DF21D40FEF77DFC0C20FE
:1042F000FEF780FC4DF21E40FEF776FC0220FEF732
:1043000079FC4DF21F40FEF76FFC3020FEF772FC87
:104310004DF22040FEF768FC0220FEF76BFC4DF2E8
:104320002140FEF761FC4520FEF764FC4DF222407F
:10433000FEF75AFC0220FEF75DFC4DF22340FEF72B
:1043400053FC6320FEF756FC4DF22440FEF74CFC74
:104350000220FEF74FFC4DF22540FEF745FC7E2083
:10436000FEF748FC4DF22640FEF73EFC0220FEF729
:1043700041FC4DF22740FEF737FCB120FEF73AFC36
:104380004DF22840FEF730FC0220FEF733FC4DF2E0
:104390002940FEF729FCE020FEF72CFC4DF22A40D4
:1043A000FEF722FC0320FEF725FC4DF22B40FEF722
:1043B0001BFC2620FEF71EFC4DF22C40FEF714FCE1
:1043C0000320FEF717FC4DF22D40FEF70DFC602098
:1043D000FEF710FC4DF22E40FEF706FC0320FEF720
:1043E00009FC4DF22F40FEF7FFFBB420FEF702FC64
:1043F0004DF23040FEF7F8FB0320FEF7FBFB4DF2D9
:104400003140FEF7F1FBB920FEF7F4FB4DF23240EC
:10441000FEF7EAFB0320FEF7EDFB4DF23340FEF71B
:10442000E3FBC120FEF7E6FB4FF45540FEF7DCFB53
:104430000020FEF7DFFB4DF20150FEF7D5FB3720E1
:10444000FEF7D8FB4DF20250FEF7CEFB0020FEF740
:10445000D1FB4DF20350FEF7C7FB4920FEF7CAFB24
:104460004DF20450FEF7C0FB0020FEF7C3FB4DF2F7
:104470000550FEF7B9FB6B20FEF7BCFB4DF2065072
:10448000FEF7B2FB0020FEF7B5FB4DF20750FEF73A
:10449000ABFB8620FEF7AEFB4DF20850FEF7A4FB07
:1044A0000020FEF7A7FB4DF20950FEF79DFB9D2073
:1044B000FEF7A0FB4DF20A50FEF796FB0020FEF738
:1044C00099FB4DF20B50FEF78FFBC320FEF792FBDA
:1044D0004DF20C50FEF788FB0020FEF78BFB4DF2EF
:1044E0000D50FEF781FBE020FEF784FB4DF20E50ED
:1044F000FEF77AFB0120FEF77DFB4DF20F50FEF731
:1045000073FB0D20FEF776FB4DF21050FEF76CFBAF
:104510000120FEF76FFB4DF21150FEF765FB2F20D7
:10452000FEF768FB4DF21250FEF75EFB0120FEF72E
:1045300061FB4DF21350FEF757FB6120FEF75AFB6B
:104540004DF21450FEF750FB0120FEF753FB4DF2E5
:104550001550FEF749FB8620FEF74CFB4DF2165036
:10456000FEF742FB0120FEF745FB4DF21750FEF728
:104570003BFBBD20FEF73EFB4DF21850FEF734FB2F
:104580000120FEF737FB4DF21950FEF72DFBE72017
:10459000FEF730FB4DF21A50FEF726FB0120FEF726
:1045A00029FB4DF21B50FEF71FFBE820FEF722FB14
:1045B0004DF21C50FEF718FB0220FEF71BFB4DF2DC
:1045C0001D50FEF711FB0C20FEF714FB4DF21E50A0
:1045D000FEF70AFB0220FEF70DFB4DF21F50FEF71F
:1045E00003FB3020FEF706FB4DF22050FEF7FCFAED
:1045F0000220FEF7FFFA4DF22150FEF7F5FA4520B2
:10460000FEF7F8FA4DF22250FEF7EEFA0220FEF71E
:10461000F1FA4DF22350FEF7E7FA6320FEF7EAFACB
:104620004DF22450FEF7E0FA0220FEF7E3FA4DF2D5
:104630002550FEF7D9FA7E20FEF7DCFA4DF226501F
:10464000FEF7D2FA0220FEF7D5FA4DF22750FEF718
:10465000CBFAB120FEF7CEFA4DF22850FEF7C4FA9D
:104660000220FEF7C7FA4DF22950FEF7BDFAE0200E
:10467000FEF7C0FA4DF22A50FEF7B6FA0320FEF715
:10468000B9FA4DF22B50FEF7AFFA2620FEF7B2FA38
:104690004DF22C50FEF7A8FA0320FEF7ABFA4DF2CC
:1046A0002D50FEF7A1FA6020FEF7A4FA4DF22E502D
:1046B000FEF79AFA0320FEF79DFA4DF22F50FEF70F
:1046C00093FAB420FEF796FA4DF23050FEF78CFACA
:1046D0000320FEF78FFA4DF23150FEF785FAB9202C
:1046E000FEF788FA4DF23250FEF77EFA0320FEF70D
:1046F00081FA4DF23350FEF777FAC120FEF77AFACD
:104700004FF45640FEF770FA0020FEF773FA4DF2B0
:104710000160FEF769FA3720FEF76CFA4DF202608D
:10472000FEF762FA0020FEF765FA4DF20360FEF72D
:104730005BFA4920FEF75EFA4DF20460FEF754FA88
:104740000020FEF757FA4DF20560FEF74DFA6B2098
:10475000FEF750FA4DF20660FEF746FA0020FEF72B
:1047600049FA4DF20760FEF73FFA8620FEF742FA5B
:104770004DF20860FEF738FA0020FEF73BFA4DF2E2
:104780000960FEF731FA9D20FEF734FA4DF20A6017
:10479000FEF72AFA0020FEF72DFA4DF20B60FEF725
:1047A00023FAC320FEF726FA4DF20C60FEF71CFA3E
:1047B0000020FEF71FFA4DF20D60FEF715FAE0201B
:1047C000FEF718FA4DF20E60FEF70EFA0120FEF722
:1047D00011FA4DF20F60FEF707FA0D20FEF70AFA04
:1047E0004DF21060FEF700FA0120FEF703FA4DF2D9
:1047F0001160FEF7F9F92F20FEF7FCF94DF2126077
:10480000FEF7F2F90120FEF7F5F94DF21360FEF71D
:10481000EBF96120FEF7EEF94DF21460FEF7E4F9D2
:104820000120FEF7E7F94DF21560FEF7DDF986206D
:10483000FEF7E0F94DF21660FEF7D6F90120FEF71B
:10484000D9F94DF21760FEF7CFF9BD20FEF7D2F986
:104850004DF21860FEF7C8F90120FEF7CBF94DF2D2
:104860001960FEF7C1F9E720FEF7C4F94DF21A60AE
:10487000FEF7BAF90120FEF7BDF94DF21B60FEF715
:10488000B3F9E820FEF7B6F94DF21C60FEF7ACF97B
:104890000220FEF7AFF94DF21D60FEF7A5F90C20DE
:1048A000FEF7A8F94DF21E60FEF79EF90220FEF712
:1048B000A1F94DF21F60FEF797F93020FEF79AF943
:1048C0004DF22060FEF790F90220FEF793F94DF2C9
:1048D0002160FEF789F94520FEF78CF94DF2226040
:1048E000FEF782F90220FEF785F94DF22360FEF70C
:1048F0007BF96320FEF77EF94DF22460FEF774F930
:104900000220FEF777F94DF22560FEF76DF97E2063
:10491000FEF770F94DF22660FEF766F90220FEF709
:1049200069F94DF22760FEF75FF9B120FEF762F9F1
:104930004DF22860FEF758F90220FEF75BF94DF2C0
:104940002960FEF751F9E020FEF754F94DF22A6094
:10495000FEF74AF90320FEF74DF94DF22B60FEF702
:1049600043F92620FEF746F94DF22C60FEF73CF99C
:104970000320FEF73FF94DF22D60FEF735F9602078
:10498000FEF738F94DF22E60FEF72EF90320FEF700
:1049900031F94DF22F60FEF727F9B420FEF72AF91E
:1049A0004DF23060FEF720F90320FEF723F94DF2B7
:1049B0003160FEF719F9B920FEF71CF94DF23260AB
:1049C000FEF712F90320FEF715F94DF23360FEF7FA
:1049D0000BF9C120FEF70EF94FF47040FEF704F911
:1049E0005520FEF707F94FF20100FEF7FDF8AA2067
:1049F000FEF700F94FF20200FEF7F6F85220FEF73C
:104A0000F9F84FF20300FEF7EFF80820FEF7F2F88E
:104A10004FF20400FEF7E8F80020FEF7EBF84FF441
:104A20003540FEF7E1F85020FEF7E4F84FF431404E
:104A3000FEF7DAF8CC20FEF7DDF84FF43640FEF74B
:104A4000D3F80220FEF7D6F84FF43840FEF7CCF842
:104A50000120FEF7CFF84BF60100FEF7C5F8032062
:104A6000FEF7C8F84BF60200FEF7BEF80320FEF78B
:104A7000C1F84BF60300FEF7B7F80320FEF7BAF8CB
:104A80004FF43C40FEF7B0F80520FEF7B3F84BF6C4
:104A90000140FEF7A9F80520FEF7ACF84BF60240FE
:104AA000FEF7A2F80520FEF7A5F84BF60250FEF738
:104AB0009BF80720FEF79EF84BF60350FEF794F89C
:104AC0003120FEF797F84BF60260FEF78DF80720CD
:104AD000FEF790F84BF60360FEF786F83120FEF7FC
:104AE00089F84BF60270FEF77FF80720FEF782F890
:104AF0004BF60360FEF778F83120FEF77BF84FF4B1
:104B00007F40FEF771F8AA20FEF774F84FF60170A7
:104B1000FEF76AF85520FEF76DF84FF60270FEF7C3
:104B200063F82520FEF766F84FF60370FEF75CF891
:104B30000120FEF75FF84FF20630FEF755F810201F
:104B4000FEF758F84FF20840FEF74EF80020FEF747
:104B500051F84FF45850FEF747F8C020FEF74AF8D6
:104B60004FF45450FEF740F80020FEF743F84FF49E
:104B70006850FEF739F80520FEF73CF84FF48850EE
:104B8000FEF732F8782000F05DFD4FF42450FEF778
:104B90002BF8322000F056FD0020FDF725FD4FF6E2
:104BA000FF70FDF7A1FC10BD10B540F225510F4874
:104BB00000F09CF880B10D4800F052F90C490870E3
:104BC00008460178094800F050F900BF4021074825
:104BD00000F07FF80128F9D106480068401C05491B
:104BE00008604021014800F05FF810BD001001404E
:104BF000580000205400002010B588B00446012160
:104C00000846FEF7DBF801211020FEF7F7F807222F
:104C100009212348FDF710FC07220A212048FDF74F
:104C20000BFC4FF4C060069002208DF81C008DF83C
:104C30001D0000208DF81E0006A91948FDF7B4FBE1
:104C400002940020ADF80C00ADF80E00ADF8100095
:104C5000ADF814000C20ADF8120002A9114800F0C4
:104C600095F801210F4800F028F840210D4800F088
:104C70001BF8012240F225510A4800F061F8252076
:104C80008DF8040003208DF805008DF80600012042
:104C90008DF8070001A8FEF749F808B010BD000024
:104CA000000002400010014001F40072B2F5007FE4
:104CB00000D100BFCA430280704721B1828942F40B
:104CC0000052828104E082894DF6FF731A4082818E
:104CD000704702460020B1F5007F00D100BF138865
:104CE0000B400BB1012000E00020704770B5024678
:104CF000002400230025002040F66A16B14200D1AE
:104D000000BFC1F3421501F01F03012606FA03F3A9
:104D1000012D02D19689334006E0022D02D1168A78
:104D2000334001E0968A33400C12012606FA04F45F
:104D30001688344013B10CB1012000E0002070BD92
:104D4000F0B50346002400260025002040F66A172F
:104D5000B94200D100BF1846C1F3421401F01F064A
:104D6000012707FA06F5012C01D10C3004E0022CD2
:104D700001D1103000E014301AB107682F430760EA
:104D800002E00768AF430760F0BD00002DE9FF4770
:104D900005460E460024A14600BFA046B08900B1DA
:104DA00000BF2C8A24F44054F08804432C82AC8940
:104DB00041F20C608443B08831890843718908430B
:104DC0000443AC81AC8A24F44074B0890443AC82BF
:104DD0006846FEF733F82048854202D01F488542D6
:104DE00002D1DDF80C9001E0DDF80890A88900F40C
:104DF000004040B109EBC90000EB091031684900DF
:104E0000B0FBF1F707E009EBC90000EB09103168CE
:104E10008900B0FBF1F76420B7FBF0F00401200932
:104E2000642101FB1078A88900F4004040B13220D1
:104E300000EBC800B0FBF1F000F00700044308E00D
:104E4000322000EB08106421B0FBF1F000F00F00FD
:104E500004432C81BDE8FF8700100140001401408D
:104E600001468888C0F308007047C1F308028280B9
:104E7000704700BFFEE700002DE9F04105460E46F1
:104E800017461C46DDF8188000BF40213A48FFF75E
:104E900020FF0128F9D188213748FFF7E6FF00BF3E
:104EA00040213548FFF715FF0128F9D1294632483E
:104EB000FFF7DBFF00BF40212F48FFF70AFF012863
:104EC000F9D106B9052631462B48FFF7CEFF00BFC2
:104ED00040212948FFF7FDFE0128F9D1394626482F
:104EE000FFF7C3FF00BF40212348FFF7F2FE012870
:104EF000F9D104B90A2421461F48FFF7B6FF00BFC5
:104F000040211D48FFF7E5FE0128F9D194FBF6F09A
:104F100006FB1040C0B9132D16D1132F14D1B8F1D0
:104F2000010F04D102211448FFF79FFF10E0B8F1F0
:104F3000FF0F04D1FE211048FFF797FF08E041461C
:104F40000D48FFF792FF03E001210B48FFF78DFFAB
:104F500000BF40210848FFF7BCFE0128F9D1992184
:104F60000548FFF782FF00BF40210348FFF7B1FE6D
:104F70000128F9D1BDE8F0810010014010B50820EA
:104F8000FEF76CF840210C48FDF779FA88B1002251
:104F900001210948FDF77EFA052000F053FB0122AC
:104FA00011460548FDF776FA0A2000F04BFB002079
:104FB00010BD0120FCE700000004024003B401988A
:104FC0004100009850EAC12018BF04204A0D18BFC4
:104FD00040F0010040F2FF72B2EB515F08BF40F0B9
:104FE0000200012808BF052002B070470000000041
:104FF00070B59B482DED020B2DED068B079D25F01E
:105000000044A04218DC9748844202DC0AD106988A
:1050100040B19DED060BBDEC068B02B0BDE87040C3
:1050200000F0CEBA002DCCBF9FED8F0B9FED900B03
:10503000BDEC068B02B070BD8F48A04215DD8F48D5
:10504000A042D8BF4FF0FF3458DD9DED060B51EC68
:10505000100BFFF7B3FF042808BF00F0C5FA9DED61
:10506000060BBDEC068B02B070BD9DED060B51EC3E
:10507000100B00F029FBCDE9060181489FED828BE2
:10508000A0423CDD8248A0421FDD00249FED82ABA0
:105090009DED060B53EC1A2B51EC100BFBF7DCFFCC
:1050A0009DED060B41EC190B53EC1A2B51EC100B38
:1050B000FCF779F853EC182BFCF76FF853EC192B2D
:1050C000FCF7E3F8CDE9060149E09DED060B01246C
:1050D00053EC182B51EC100BFBF7BEFF9DED060BAC
:1050E00041EC190B53EC182B51EC100BFCF755F855
:1050F00053EC192BFCF7C9F8CDE906012FE06848FD
:10510000A0421FDD02249FED689B9DED060B53EC32
:10511000192B51EC100BFCF746F853EC182BFBF74E
:105120009BFF9DED060B41EC180B53EC192B51EC3A
:10513000100BFCF732F853EC182BFCF7A6F8CDE96E
:1051400006010CE09DED060B032453EC102B9FEDA4
:10515000580B51EC100BFCF798F8CDE906019DEDCA
:10516000060B53EC102B51EC100BFCF71CF841EC28
:10517000180B53EC182BFCF716F841EC190B4E48A2
:105180000621B0EE490AF0EE690A784400F09CF975
:1051900053EC182B51EC100BFCF705F841EC180BF5
:1051A0004648B0EE490AF0EE690A0521784400F05D
:1051B0008BF953EC192B51EC100BFBF7F4FF41EC7E
:1051C000100B51EC180B53EC102B002C0EDAFBF7E4
:1051D00043FF9DED061B53EC112BFBF7E4FF9DED08
:1051E000061B53EC112BFBF7DBFF35E0FBF734FF1D
:1051F0009DED061B53EC112BFBF7D5FF41EC100B7B
:105200002F48784400EBC40090ED001B51EC100BCC
:1052100053EC112BFBF7C1FF9DED061B53EC112B3B
:10522000FBF7BBFF41EC100B2648784400EBC400B1
:1052300090ED001B51EC100B53EC112BFBF7B0FF62
:1052400041EC100B002DA2BFBDEC068B02B070BD6F
:1052500051EC100B81F0004141EC100B01E7000014
:10526000000010440000F07F182D4454FB21F93F4A
:10527000182D4454FB21F9BF0000DC3F0000203E04
:105280000000F33F00000000000000000000F03FBD
:105290000000E63F000000000000000000000040A9
:1052A0000080034000000000000000000000F83F04
:1052B000000000000000F0BFDA2E0000902E000079
:1052C0001A2E0000D22D000070B56F4E2DED040B8C
:1052D0002DED048B82B0DDF824C0DDE907235C42AC
:1052E0002CF000411C4341EAD474069D22F000409A
:1052F000B44205D86C422C4340EAD474B4420BD972
:105300009DED081B9DED060B02B0BDEC048B04B0B7
:10531000BDE8704000F05EB9ACF14054A4F17F6488
:105320001C430BD0022404EAAC7444EAD274054353
:105330009FED578B9FED582B07D015E09DED060B89
:1053400051EC100B00F076F942E0002C11BF012C5B
:105350009DED060B02B0BDEC048B04BF04B070BD24
:10536000022C38D0032C3BD00B439FED4D1B9FEDFF
:105370004E0B0AD0B14218D1B04209D121F0804180
:1053800020F08040099107900FE0002A15DA10E024
:10539000474B7B44002C08BF93ED000B0DD0012C34
:1053A00010D0022C17D0032C1AD0B0421DD1002AE5
:1053B00003DAB0EE410AF0EE610A02B0BDEC048BF4
:1053C00004B070BD93ED000B51EC100B81F0004167
:1053D00041EC100BF1E7B0EE480AF0EE680AECE79A
:1053E000B0EE420AF0EE620AE7E7401A00159FEDC0
:1053F000329B3C28C8BF8DED000B17DCBCF1000FC1
:10540000BCBF10F13C0F8DED009B0FDB9DED080B39
:1054100053EC102B9DED060B51EC100BFBF735FFF9
:1054200000F052F900F006F9CDE90001B4B1012C09
:1054300010D0022C9FED220B53EC102B9DED000B96
:1054400051EC100B19D0FBF7A8FE53EC182BFBF70F
:10545000A4FEBDE7019880F0004001909DED000B97
:1054600053EC192B51EC100BFBF7B0FF04BF0220DB
:1054700000F0DAF89DED000B9FE7FBF78EFE53EC92
:10548000182BFBF78DFEA3E70000F07F0000000063
:10549000182D4454FB210940182D4454FB2109C008
:1054A000182D4454FB21F9BF182D4454FB21F93F1A
:1054B000022D0000000000000000000000000000BD
:1054C000075C143326A6A13C70B504462DED028B73
:1054D0004D1E00EBC500B0EE408AF0EE608A90ED04
:1054E000000B35F0060017D053EC182B51EC100BC5
:1054F000FBF759FE41EC100B6D1E04EBC50090ED5F
:10550000001B51EC100B53EC112BFBF7A5FD41ECEC
:10551000100B35F00600E7D1022D36D0042D1CD03B
:10552000062D1CBFBDEC028B70BD53EC182B51EC4B
:10553000100BFBF738FE94ED0A1B53EC112BFBF715
:105540008BFD53EC182BFBF72EFE94ED081B53EC50
:10555000112BFBF781FD41EC100B53EC182B51EC98
:10556000100BFBF720FE94ED061B53EC112BFBF701
:1055700073FD53EC182BFBF716FE94ED040B53EC64
:10558000102BFBF769FD41EC100B53EC182B51EC81
:10559000100BFBF708FE94ED021B53EC112BFBF7ED
:1055A0005BFD53EC182BFBF7FEFD94ED001B53EC59
:1055B000112BFBF751FDBDEC028B41EC100B70BDC4
:1055C00010B553EC102B51EC100BFBF745FD41ECE3
:1055D000100B10BD10B553EC112B51EC100BFBF759
:1055E0003BFD41EC100B10BD9FED050B10B553ECCE
:1055F000102B51EC100BFBF7D6FD41EC100B10BD3E
:10560000000000000000001002E008C8121F08C1DE
:10561000002AFAD170477047002001E001C1121F33
:10562000002AFBD170470000014908607047000064
:105630005C00002010B541EC100BFFF7D9FC51ECD9
:10564000100B10BD70B504464FF4077094FBF0F0DA
:10565000C6B24FF4077094FBF0F100FB114085B225
:1056600005E04FF4077000F009F8701EC6B2002E76
:10567000F7D115B1284600F001F870BD0146114A76
:1056800012884A434FF0E0235A6100229A611A4679
:10569000126942F001021A6100BF4FF0E022106966
:1056A00000F001021AB100F48032002AF5D04FF068
:1056B000E022126922F001024FF0E0231A61002279
:1056C0009A6170475200002082B0CDE9000121F0BC
:1056D000004001909DED000B02B051EC100B7047A3
:1056E0002DED048B82B0A820FDF746FE4FF4A0609C
:1056F000FDF758FBFDF78AFAFCF7D4FEFDF7A8FA90
:105700004FF41650FFF778FAFDF77CFFFDF73AFCEF
:10571000102002230522142100903220FDF7E6F923
:105720009CA214210A20FDF773F9002010233A22CD
:10573000142100902A20FDF763F898A237210A204F
:10574000FDF7F2F8002018233A223B2100908A202E
:10575000FDF756F8182003230090934802783B2168
:105760009620FDF7C3F90020182341221D21009047
:10577000E620FDF745F8002018233A221D2100906D
:10578000F220FDF73DF80020182342223B21009033
:10579000E620FDF735F8002018233A223B2100903F
:1057A000F220FDF72DF841F28830FFF74BFF00BFE4
:1057B000EFE04FF480727D497D48FBF72BFF01201D
:1057C000FFF740FF4FF4807278497948FBF722FFDA
:1057D0007848007810B17848007878B90022012123
:1057E0007648FCF757FE0520FFF72CFF01221146F3
:1057F0007248FCF74FFE0520FFF724FF8022704916
:105800006A48FCF7FDF980226E496948FCF7F8F90F
:105810006C48FBF7D3FF6C4880ED000A6848FBF743
:1058200051FF6A4880ED000A694890ED010A694815
:1058300080ED000A644890ED000A6448D0ED000A4B
:10584000B4EEE00AF1EE10FA11D25F480068FBF7FF
:10585000A9FD41EC190B9FED600B53EC102BFBF7EE
:10586000FBFB41EC180BFBF7E1FD5749086056487C
:1058700090ED000A5548D0ED000A30EE600A544819
:1058800080ED010A534890ED000A514880ED000A6E
:1058900090ED010AD0ED000A30EE600A4D4880ED2F
:1058A000000A0068FBF77EFD41EC180B9FED4C0BE6
:1058B00053EC102BFBF7A2FD10D2012251024A48F3
:1058C000FCF7E8FD012291024748FCF7E3FD0022C6
:1058D0004FF480614448FCF7DDFD1DE03D48006861
:1058E000FBF760FD41EC180B9FED3D0B53EC102BCB
:1058F000FBF76CFD10D200224FF400713A48FCF720
:10590000C9FD012291023848FCF7C4FD00224FF482
:1059100080613548FCF7BEFD34480078012838D155
:1059200033480078009024480378324802782148B0
:10593000017831480078FFF79FFA4FF6FF704FF477
:1059400048735A10C82100900A20FCF7D9FE1A4863
:105950000378184802782748017827480078FDF72F
:10596000A1FC01204FF496734FF4C87211460090C9
:105970003220FCF7B6F900208021124B1A46CDE9FF
:1059800000104FF4C8713220FCF7D2FD00201749F7
:1059900008700EE7B2BDBDF800000000C9E8D6C32C
:1059A000CFE0CEBB000000004E00002060140020BD
:1059B000601500202800002029000020000402407B
:1059C0006016002060180020000000200400002065
:1059D0000800002010000020000000000080764039
:1059E000000000000000000000140240150000202C
:1059F0004F0000202B0000202A000020B2BD010033
:105A0000010011F8110011001100FFFE010001005A
:105A100011081110212040C003001C00E000BDF857
:105A200000902090109013FC00900090F09017FED2
:105A300010901090111011101210280047FE000055
:105A40000000000000000000000000000000000056
:105A50003F40000000000000000030004000300027
:105A60004000000009000BC03D000BC03D000900D4
:105A700018C024407FE0224031800000180024C07C
:105A80001B000D803240018003801C4027401C8099
:105A9000074000401000600000000000000000000F
:105AA0000000000000001F80204040200000402037
:105AB00020401F8000000000090006001F80060033
:105AC00009000000040004003F80040004000000FE
:105AD000001000600000000000000000040004004E
