:020000040800F2
:1000000070630020A10100089D0B0008ED0A0008A4
:10001000990B0008290900087B1100080000000066
:10002000000000000000000000000000450D000876
:10003000150A000800000000190C0008590F0008FC
:10004000BB010008BB010008BB010008BB010008A0
:10005000BB010008BB010008BB010008BB01000890
:10006000BB010008BB010008BB010008BB01000880
:10007000BB010008BB010008BB010008BB01000870
:100080002D09000855090008BB010008BB01000844
:10009000BB010008BB010008BB010008BB01000850
:1000A000BB010008BB010008BB010008BB01000840
:1000B000BB010008BB010008BB010008BB01000830
:1000C000BB010008BB010008BB010008BB01000820
:1000D000BB010008BB010008C50F0008BB010008F8
:1000E000BB010008BB010008BB010008BB01000800
:1000F000BB010008BB010008BB010008BB010008F0
:10010000BB010008BB010008BB010008BB010008DF
:10011000BB010008BB010008BB010008BB010008CF
:10012000BB010008BB010008BB010008BB010008BF
:10013000BB010008BB010008BB010008BB010008AF
:10014000BB010008BB010008BB010008BB0100089F
:10015000BB010008BB010008BB010008BB0100088F
:10016000BB010008BB010008BB010008BB0100087F
:10017000BB010008BB010008BB010008BB0100086F
:10018000BB010008BB010008DFF810D000F0ACFA9A
:1001900000480047711B0008AFF300807063002027
:1001A0000648804706480047FEE7FEE7FEE7FEE711
:1001B000FEE7FEE7FEE7FEE7FEE7FEE75D0F00086D
:1001C000890100082DE9FE4F81EA030404F0004490
:1001D00021F0004100944FF0000B23F0004350EA5F
:1001E00001045ED052EA03045BD0C3F30A54C1F3A6
:1001F0000A552C44A4F2F3340194A0FB0254C1F339
:10020000130141F48011C3F3130343F4801301FB82
:10021000024400FB034E840A970A44EA815447EAE9
:100220008357A4FB076802958D0A05FB07854FEAF3
:10023000932C04FB0C542705029D4FEA065847EA0D
:100240001637B5EB08056EEB070C870E920E47EAE2
:10025000811742EA8312A7FB0201B6EB0B0164EBA4
:1002600000042B0D43EA0C335E1844EB1C50DA46B5
:100270005146E7FB0201C5F313044FEA0B3343EA8F
:1002800014534FEA0432019C43EA0603A4F10C0420
:100290000294009CCDE900B400F092F803B0BDE8F0
:1002A000F08F00200146F9E70EB540F2334102918C
:1002B0000021CDE900110A460B4600F081F803B099
:1002C00000BDC1F30A5210B5C1F3130140F2FF3370
:1002D00041F480119A4201DA002010BD40F233430C
:1002E0009A42A2F2334203DC524200F04AF810BDB7
:1002F000904010BD30B50B4601460020202201245D
:1003000009E021FA02F59D4205D303FA02F5491BE3
:1003100004FA02F52844151EA2F10102F1DC30BDF9
:100320002DE9F05F0546002092469B46884606462A
:10033000814640241BE0284641464746224600F0BD
:1003400020F853465A46C01A914110D31146184618
:10035000224600F0DBF92D1A67EB01084F462246D2
:100360000120002100F0D2F917EB00094E41201EB8
:10037000A4F10104DFDC484631462A464346BDE885
:10038000F09F202A04DB203A21FA02F00021704776
:1003900021FA02F3D040C2F12002914008431946ED
:1003A000704710B5141E73F1000408DA401C41F1C7
:1003B000000192185B411A4301D120F0010010BDE9
:1003C0002DE9F04D92469B4611B1B1FA81F202E05F
:1003D000B0FA80F22032904600F098F904460F46B9
:1003E00040EA0A0041EA0B0153465A46084313D03B
:1003F000114653EA010019D0C8F140025046FFF7F8
:10040000C0FF05460E4650465946424600F07EF96A
:10041000084305D0012004E020463946BDE8F08DB0
:100420000020054346EAE0762C4337430A986305EB
:10043000E40AA0EB08000022FD0A44EA47540A300F
:1004400002D500200146E9E7010510196941DDE9FF
:10045000084500196941BDE8F04DA2E72DE9FE4FBE
:10046000804681EA0300C00F0C46009021F0004155
:1004700023F00045B8EB0200A94105D240462146D1
:1004800090461C460B46024623F00040104347D0DE
:10049000270DC7F30A00C3F30A510290401A0190D6
:1004A00040286BDAC3F3130040F4801B0098924697
:1004B00020B10023D2EB030A63EB0B0B01985946E2
:1004C000C0F14002504600F021F906460D46504664
:1004D0005946019A00F029F910EB08006141002407
:1004E00087EA115284EAE7731A4340D0009A62B354
:1004F000019A012A4FEA075215DC001B61EB020149
:100500004FF0004202EA0752CDE90042001C41F5DB
:10051000801132462B46FFF753FF03B0BDE8F08F42
:1005200040462146F9E7001B61EB0201001C41F542
:10053000801300185B412018A2F5001747EB030158
:1005400040EAD570B6196D4111E06D084FEA3606E4
:1005500045EAC0754FEA0752001B61EB0201001C1F
:1005600041F5801149084FEA3000001951413246E7
:100570002B4603B0BDE8F04FFFF713BF00980122F0
:1005800040000023D0EB020263EBE07300982146A9
:100590004FEAE074B8EB000061EB0401E9E783F097
:1005A00000435BE781F0004158E72DE9F04D81EA17
:1005B000030404F0004B21F0004514464FF0000AFC
:1005C00023F0004150EA050220D054EA01021DD078
:1005D000C5F30A570246C5F31303C1F31300C1F371
:1005E0000A5640F4801543F48013A7EB0608101B4D
:1005F000D64608F2FD3873EB050002D308F1010876
:1006000001E092185B41B8F1000F03DA00200146C7
:10061000BDE8F08D00204FF48011064684460EE0C0
:10062000171B73EB050705D3121B63EB050306438A
:100630004CEA010C49084FEA300092185B4150EA3D
:100640000107EDD152EA030012D082EA040083EAE6
:100650000501084305D0101BAB4106D2012200233F
:1006600006E000224FF0004302E06FF00102531059
:100670001AEB06004CEB085110EB0A0041EB0B01A2
:10068000BDE8F04DFFF78DBEC1F30A52C1F313016F
:1006900040F2FF3341F480119A4202DA0020014611
:1006A000704740F233439A42A2F2334202DC524294
:1006B000FFF767BE00F02AB830B5041E71F10004E0
:1006C00004DB4FF00044404264EB0101141E73F15F
:1006D000000405DB1C464FF00043524263EB040369
:1006E000994208BF904230BD064C074D06E0E068D5
:1006F00040F0010394E8070098471034AC42F6D369
:10070000FFF746FDFC1B00081C1C0008202A04DB28
:10071000203A00FA02F1002070479140C2F1200314
:1007200020FA03F3194390407047202A06DBCB17C9
:10073000203A41FA02F043EAE07306E041FA02F39C
:10074000D040C2F12002914008431946704770B56D
:100750008D1810F8014B14F0030201D110F8012B91
:10076000231106D110F8013B03E010F8016B01F8EA
:10077000016B521EF9D1ABB110F8012B04F00C043F
:100780008A1A0C2C03D0A2EB84129B1C08E010F8F0
:10079000014BA2EB0422F8E712F8014B01F8014BE0
:1007A0005B1EF9D5A942D4D3002070BD1CB5012130
:1007B000082000F033FA4CF2FF70009001208DF811
:1007C000040000208DF8060003208DF805000120AC
:1007D0008DF807006946094800F01DF900F0B4F9EA
:1007E00000F09CF9064A0321012000F037F8054A81
:1007F0000221084600F032F81CBD0000000C024047
:10080000580300205B03002038B505460C46002045
:10081000009000956A46012100F020F8204600F083
:10082000AEFC38BD38B505460C460020009000955A
:100830006A46012100F012F8204600F0B3FC38BDF2
:1008400038B505460C460020009000956A46012107
:1008500000F004F8204600F0D7FC38BDF0B50346A0
:100860000C4600250026002100201D460027DFF849
:10087000B4C0CCF88072CCF8847200BF1AE00027B4
:10088000DFF8A0C0CCF8807205F08007802F03D17C
:100890000127CCF88C7204E00027DFF888C0CCF880
:1008A0008C720127DFF87CC0CCF880726F063D0E99
:1008B000471CF8B20828E2DB0027DFF868C0CCF854
:1008C0008072002126E0565C00201AE00027DFF845
:1008D00054C0CCF8807206F08007802F03D1012726
:1008E000CCF88C7204E00027DFF838C0CCF88C72AA
:1008F0000127DFF830C0CCF8807277063E0E471C27
:10090000F8B20828E2DB0027DFF818C0CCF88072C4
:100910004F1CF9B2A142D6DB0127DFF808C0CCF8A2
:100920008472F0BD0080414200BFFEE710B5064969
:10093000064800F03DF830B10349044800F01EF8C5
:1009400001200349087010BD008800208860024023
:100950003600002010B50649064800F029F830B1ED
:100960000349044800F00AF801200349087010BD4B
:1009700000802020A0600240370000200246094B82
:100980009A4201D2084801E00648103801F00053AD
:100990001BB1064B0B40C36002E0044B0B4083606D
:1009A0007047000010640240006002407D0F7D0F20
:1009B00070B50246002000240025124EB24201D23A
:1009C000114B01E00F4B103B104E0E4036B11E266E
:1009D00006EAD124166806EA040502E0566906F024
:1009E000800501F000560EB15C6800E01C68084EFE
:1009F000344004EA010616B10DB1012000E00020E8
:100A000070BD000010640240006002403C0F3C0FCB
:100A10007D0F7D0F7047F0B50A46002100230024AA
:100A200000BF3DE0012505FA01F3156805EA03045E
:100A30009C4234D105684F000326BE40B543056093
:100A400015794E00B5400668354305601579012DCE
:100A500002D01579022D16D185684F000326BE40BD
:100A6000B543856055794E00B5408668354385604D
:100A7000456801268E40B5434560456896798E40AD
:100A8000B6B235434560C5684F000326BE40B54346
:100A9000C560D5794E00B540C6683543C560491C70
:100AA0001029BFD3F0BDF0B5002300244D07ED0E93
:100AB00002FA05F3CE1000F1200555F826504E0736
:100AC000F70E0F26BE40B543CF1000F1200646F8C2
:100AD0002750CE1000F1200555F8265045EA0304B2
:100AE000CE1000F1200545F82640F0BD00BFFEE71E
:100AF00000B5002007490860022001F001F801203C
:100B00000549C1F88802042000F0FAFF00200149DD
:100B1000086000BD888241420080414200B500204B
:100B200007490860012000F0EBFF01200549C1F8EA
:100B3000B8021E2000F0E4FF00200149086000BD5B
:100B4000B8824142008041420020114908600120E2
:100B50001049C1F8840200200D493C3908600C4955
:100B6000343908600A492C390860091D0860091DDC
:100B70000860091D086006493039086004491C39BD
:100B80000860091D08600349C1F8A8027047000009
:100B9000BC8241420080414200BFFEE77047000036
:100BA00070B5002100230F22C4781CB3174C2468B1
:100BB00004F4E064C4F5E064C4F30721C1F1040463
:100BC000E3B20A4144789C40E1B284781440214366
:100BD0000C07210E0E4C05786155047804F01F05B2
:100BE0000124AC4005786D11AD0005F1E025C5F894
:100BF000004109E0047804F01F050124AC40054DD4
:100C00000678761145F8264070BD00000CED00E036
:100C100000E400E080E100E07047000029B1064AEE
:100C200012680243044B1A6004E0034A12688243CC
:100C3000014B1A60704700003038024029B1064A63
:100C400012680243044B1A6004E0034A12688243AC
:100C5000014B1A607047000040380240F0B5002197
:100C600000220024022500260223324F3F6807F0AD
:100C70000C0121B1042905D0082937D105E02E4FF8
:100C8000076036E02D4F076033E02A4F3F1F3F6873
:100C9000C7F38056274F3F1F3F6807F03F036EB1F1
:100CA000264FB7FBF3F7DFF88CC0ACF1040CDCF88F
:100CB00000C0CCF3881C07FB0CF40CE01E4FB7FB04
:100CC000F3F7DFF870C0ACF1040CDCF800C0CCF333
:100CD000881C07FB0CF4174F3F1F3F68C7F3014701
:100CE0007F1C7D00B4FBF5F7076002E0124F076040
:100CF00000BF00BF0F4F3F6807F0F0010909104F18
:100D00007A5C0768D74047600A4F3F6807F4E051B4
:100D1000890A0B4F7A5C4768D7408760054F3F6868
:100D200007F46041490B064F7A5C4768D740C760BB
:100D3000F0BD0000083802400024F40040787D0136
:100D4000000000207047000000B587B00121084670
:100D5000FFF764FF072202212948FFF7A4FE0722BC
:100D600003212748FFF79FFE02208DF8180000207E
:100D70008DF81A000420059001208DF81B00022038
:100D80008DF8190005A91E48FFF745FE02208DF8D1
:100D900018000820059005A91948FFF73CFE01211D
:100DA0004804FFF74BFF4FF4E13001900020ADF80D
:100DB00010000C20ADF80E000020ADF80C00ADF8CE
:100DC0000A00ADF8080001A90E4800F063F90122FD
:100DD00040F225510B4800F037F926208DF800002D
:100DE00001208DF803008DF801008DF8020068469F
:100DF000FFF7D6FE0121034800F00DF907B000BD52
:100E000000000240004400400FB400B59BB01DA894
:100E1000019002A8019A1C9900F006FA00200190A6
:100E200002A800F017F81BB05DF814FB10B50446DB
:100E30002146064800F09DF900BF8021034800F0DC
:100E4000F6F8034909688842F7D010BD0044004015
:100E5000B882414270B50446002503E0605DFFF7AB
:100E6000E5FF6D1C605D0028F8D170BD0CB5002059
:100E7000019000903448006840F4803032490860A6
:100E800000BF3148006800F4003000900198401C19
:100E90000190009818B90198B0F5A04FF1D12A48F7
:100EA000006800F4003010B10120009001E0002043
:100EB00000900098012846D123484030006840F057
:100EC00080502149403108602048006840F440408B
:100ED0001E4908601C48083000681B49083108603A
:100EE0000846006840F4004008600846006840F486
:100EF000A05008601648091F0860081F006840F0ED
:100F00008070091F086000BF0F48006800F0007083
:100F10000028F9D040F205700E4908600A480830F0
:100F2000006820F00300084908310860084600689E
:100F300040F00200086000BF03480830006800F07D
:100F40000C000828F8D10CBD0038024000700040A9
:100F500019544007003C02407047000010B5154886
:100F6000006840F47000134908601348006840F0BE
:100F700001001149086000200F49083108600E483F
:100F800000680E4908400C4908600D48091D0860BA
:100F9000081F006820F48020091F0860002006490F
:100FA0000C310860FFF762FF4FF0006001498039A3
:100FB000086010BD88ED00E000380240FFFFF6FE3B
:100FC0001030002410B52021094800F030F8012825
:100FD0000DD1074800F0C8F800B20649088008782B
:100FE000FFF724FF40F22551014800F005F810BD3D
:100FF000004400403400002010B50022002340F6D9
:101000006A14A14200D100BF0A1201249440A3B285
:10101000DC43048010BD21B1828942F400528281F8
:1010200004E082894DF6FF731A40828170470246C0
:101030000020B1F5007F00D100BF13880B400BB139
:10104000012000E000207047F0B503460024002690
:101050000025002040F66A17B94200D100BF1846AB
:10106000C1F3421401F01F06012707FA06F5012C0F
:1010700001D10C3004E0022C01D1103000E014301A
:101080001AB107682F43076002E00768AF430760A3
:10109000F0BD00002DE9FF4705460E460024A1469D
:1010A00000BFA046B08900B100BF2C8A24F4405490
:1010B000F08804432C82AC8941F20C608443B088F0
:1010C00031890843718908430443AC81AC8A24F414
:1010D0004074B0890443AC826846FFF7BFFD2048E6
:1010E000854202D01F48854202D1DDF80C9001E014
:1010F000DDF80890A88900F4004040B109EBC90070
:1011000000EB091031684900B0FBF1F707E009EB8B
:10111000C90000EB091031688900B0FBF1F76420C9
:10112000B7FBF0F004012009642101FB1078A889C5
:1011300000F4004040B1322000EBC800B0FBF1F0F9
:1011400000F00700044308E0322000EB081064219F
:10115000B0FBF1F000F00F0004432C81BDE8FF87E5
:10116000001001400014014001468888C0F30800C7
:101170007047C1F308028280704700BFFEE738B5B0
:10118000054600240020009045F48054200A8DF884
:101190000100E0B28DF802006A4603210620FFF745
:1011A0005DFB38BD30B52DED048B81B005460020C8
:1011B00000902846FFF778F841EC190B114890EDA4
:1011C000000B53EC102B51EC190BFEF7FBFF41EC1D
:1011D000180BFFF776F80446E0B28DF80300200AFA
:1011E0008DF80200200C8DF80100200E8DF8000013
:1011F0006A4604210846FFF731FB01B0BDEC048BC1
:1012000030BD00006003002018B5044600200090A7
:10121000E0B28DF8010020128DF800006A4602212C
:101220000520FFF71BFB18BD37B514460846064BD3
:101230006A46214600F0DCF804466946002000F0CA
:101240005AFC20463EBD0000F71A000802E008C81C
:10125000121F08C1002AFAD170477047002001E030
:1012600001C1121F002AFBD1704700002DE9FF5F6A
:1012700082B00021DDE90430020DDDF840B0034307
:1012800018D044F61050A2F2FF32424315141198C0
:1012900001281FD0A5EB0B00401C5FEA000A4FF0AD
:1012A00000064E4FDFF83891B046504615D5CAF1CA
:1012B000000413E0119801244AA3012801D16FEA28
:1012C0000B010298119AC0E90031C0E9024206B050
:1012D000BDE8F09FCBF10000DFE704460021404A63
:1012E000491842EB0450CDE9001012E0E00707D0A6
:1012F00032463B4640464946FEF764FF80468946F3
:1013000032463B4610461946FEF75CFF06460F463E
:101310006410002CEAD1DDE90401DDE90023BAF113
:10132000000F06DAFEF74EFF42464B46FEF74AFF35
:1013300005E0FFF73AF942464B46FFF736F9044617
:101340000E460022284BFFF7B7F903D84FF0FF30C5
:10135000014607E00022254B20463146FFF77EF884
:10136000FFF792F9102409E0002C0ADB0A2200237F
:10137000FEF7D6FF039B30321A55641E50EA010275
:10138000F2D1641C039AC4F111031444119A012A86
:1013900003D0012208430DD10AE0084304D0002005
:1013A0004FF0110B119072E7A3EB0B056D1E0DE0D2
:1013B0005B4504DD4FF0000205F1010504E003DAAE
:1013C0004FF00002A5F10105002AECD00298119916
:1013D000C0E90231C0E9004579E70000000014408F
:1013E0000000F03F300000000000F0430000E03F4C
:1013F0002DE9FF4F95B09A46884606460025EEE156
:10140000252877D100242746F94A0121039400E0DA
:10141000044316F8013F203B01FA03F01042F7D1D4
:1014200030782A2811D06FF02F033078A0F13002E5
:10143000092A16D8039A44F0020402EB820203EB55
:1014400042021044761C0390EFE758F8042B0392F5
:10145000002A03DA504244F40054039044F002049A
:10146000761C30782E2816D116F8010F44F00404AB
:101470002A280DD06FF02F023078A0F13003092B0D
:1014800009D807EB870302EB4303C718761CF3E781
:1014900058F8047B761C30786C280FD006DC4C287A
:1014A00017D068280DD06A2814D104E0742810D011
:1014B0007A280FD10DE044F400140AE044F48014BB
:1014C00001E044F440147278824202D104F58014A1
:1014D000761C761C307866280BD013DC582877D021
:1014E00009DC002875D04528F6D04628F4D04728D6
:1014F0001AD193E118E0632835D0642879D06528A3
:1015000012D18BE1702873D008DC6728F1D06928EC
:101510006FD06E280DD06F2806D1ACE073282CD088
:10152000752874D0782853D05246179990476D1C6F
:1015300054E1C4F30250022809D003280DD0D8F892
:10154000001004280DD00D6008F1040846E1D8F819
:101550000010EA17C1E90052F6E7D8F800100D8034
:10156000F2E70D70F0E718F8041B8DF8001000206A
:101570008DF80100EB46012003E058F804BB4FF062
:10158000FF3061074FF0000102D40DE009F10101C5
:101590008946B9420FDA8145F8DB1BF809100029AA
:1015A000F4D108E009F1010189468142FADB1BF818
:1015B00009100029F6D103985346A0EB09072146EC
:1015C0003846179A00F080FA284400EB090507E036
:1015D00044E008E10DE01BF8010B524617999047D3
:1015E000B9F10109F7D2534621463846179AF2E07D
:1015F00039E00A21C4F302524FF0000B0091022A95
:1016000006D058F8040BC117032A09D00AE023E0DA
:1016100008F1070020F00702F2E80201904605E019
:1016200000B2C117042A01D140B2C117002906DA5D
:101630000A460021404261EB02012D2202E0220510
:1016400004D52B228DF80420012203E0E20701D00B
:101650002022F7E7914657E00A2100E010214FF0E1
:10166000000B00910BE010214FF0000B44F004043C
:101670000827009103E008204FF0000B0090C4F30E
:101680000252022A05D058F8040B0021032A08D080
:1016900008E008F1070020F00702F2E80201904696
:1016A00003E080B2042A00D1C0B24FF00009220743
:1016B0002AD53278702A07D0DDF800C08CF0100CE3
:1016C0005CEA0B0C05D00EE040228DF804200122CC
:1016D00008E050EA010306D030238DF804308DF87D
:1016E000052002229146009B83F0080353EA0B0376
:1016F0000AD150EA010201D1620705D530228DF8E6
:1017000004204FF001097F1E3278582A04D039A2F4
:101710000C920CAA02920BE03BA2F9E75B46009AFE
:10172000FEF7FEFD0C9B9B5C029A521E0292137008
:1017300050EA0102F2D1029804A9081A00F1200B24
:10174000600702D524F4803400E001275F4502DD04
:10175000A7EB0B0000E0002000EB0B0100900398CA
:101760004944401A0390E00306D453462146179A91
:10177000039800F0A9F90544002706E001A85246A5
:10178000C05D179990476D1C7F1C4F45F6DBE00349
:101790000CD553462146179A039800F095F9054455
:1017A00004E030205246179990476D1C0099481E5E
:1017B00000900029F5DC08E0029802995246007872
:1017C000491C0291179990476D1CBBF10001ABF1C8
:1017D000010BF1DC5BE100F065F90544761C307823
:1017E00000287FF40DAE19B02846BDE8F08F000048
:1017F00009280100303132333435363738396162E7
:1018000063646566000000003031323334353637AA
:10181000383941424344454600000000600700D487
:10182000062708F1070020F00700F0E802238046B1
:1018300003F0004C5FEA0C0001D097A009E02005FE
:1018400001D596A005E0E00701D095A001E0AFF238
:101850004C001390307823F0004365280CD006DC50
:10186000452809D046281DD047287FD13BE066286F
:1018700018D067287AD136E00021112F01DB112022
:1018800000E0781CCDE9000104A90CA8FFF7EEFCEC
:10189000DDE90D010C9A4FF0000B07F101091092E0
:1018A00000914EE04FF000400097CDE9011004A9EF
:1018B0000CA8FFF7DBFCDDE90D020C9B0F994FF044
:1018C000000B91461093009211B9791C00EB0109AD
:1018D000B7EB090003D4C0F1FF3B07F10109A9EB05
:1018E0000700019042E0012F00DA01270021112FAB
:1018F00001DD112000E03846CDE9000104A90CA863
:10190000FFF7B4FCDDE90D010C9A00914FF0000BDC
:10191000B946109221070FD4009A4A4503DA91463E
:1019200001E0A9F10109B9F1010F05DD109AA9F152
:101930000101515C3029F4D0B84202DA10F1040FF1
:1019400003DA0121CDE9011010E0002803DC834413
:10195000A9EB000102E0411C494500DD8946A0EBEE
:101960000B00401C01904FF000400290200705D46E
:101970000198484502DB4FF0FF30019000208DF8C0
:101980004B0002980DF14B07B0F1004F25D002201B
:101990000C902B200D90029800280CDA4042029007
:1019A0002D200D9007E00A210298FEF7A3FC3031AC
:1019B000029007F8011D0C99481E0C900029F2DCDA
:1019C00002980028EFD1791E0D980870307800F049
:1019D000200040F0450007F8020D11A8C01BC01DF3
:1019E00002901398007800B1012000EB09010198E2
:1019F00001EBE071029801440398401A401E0390E5
:101A0000E00306D453462146179A039800F05CF889
:101A100005441398007818B15246179990476D1CE9
:101A2000E00323D553462146179A039800F04CF85B
:101A300005441BE0BBF1000F07DB0098584504DDAF
:101A40001098179910F80B0001E0179930205246B2
:101A5000904701980BF1010B401E05F10105019023
:101A600004D12E205246179990476D1CB9F1000100
:101A7000A9F10109DEDC05E017F8010B52461799C0
:101A800090476D1C0299481E02900029F4DC5346D1
:101A90002146179A03989EE62D0000002B000000B7
:101AA000200000002DE9F041044600251E4617469F
:101AB000880404D405E039462020B0476D1C641E1C
:101AC000F9D52846BDE8F0812DE9F041044600250E
:101AD0001E469046C80301D5302700E02027880421
:101AE00004D505E041463846B0476D1C641EF9D563
:101AF0002846BDE8F0810A68531C0B6010707047DF
:101B000000EB4001880000BF011EA0F10100FBD1E5
:101B1000704700B5034603E04FF47A7000F011F807
:101B2000181EA3F10103F7D100BD10B5044603E070
:101B30004FF47A70FFF7EDFF201EA4F10104F7D1F6
:101B400010BDA82141434FF0E02251610021916175
:101B50000521116100BF4FF0E021096901F48031D6
:101B60000029F8D004214FF0E022116170470000F5
:101B700010B5FFF7E9F81CA0FFF746F9FEF716FECF
:101B80001D491020FEF74EFE4FF47A711020FEF72B
:101B90003BFE00211020FEF753FE17492020FEF7E0
:101BA00041FE4FF47A712020FEF72EFE0021202006
:101BB000FEF746FEFEF79CFF002410E00120FFF731
:101BC000B4FF04EB4400C0EBC4104FF6FF7202EA0E
:101BD000C0012020FEF734FEFEF78AFF641C0A2CA9
:101BE000ECDB002010BD0000496E69742046696E70
:101BF000697368210D0A0000C00E16021C1C000843
:101C0000000000206C0300004E070008441D00087F
:101C10006C030020046000005C1200081200012028
:101C20000501020304041006060708090110120A40
:101C3000041264042019E803000010270000A086A5
:101C4000010040420F008096980000E1F505341035
:101C5000325E08BC0819097509D009280A7F0AD321
:101C60000A240B720BBC0B030C450C840CBE0CF24B
:101C70000C220D4D0D730D930DAD0DC10DD00DD971
:101C80000DDC0412D00C12AD1412731C1004220DC2
:101C9000F2281284301004030CBC3C1004240BD333
:101CA000481004280AD054103A1909BC085E0800EC
:101CB00008A2074407E7068B063006D80581052DE4
:101CC00005DC048E044404FD03BB037C0342030EC5
:101CD00003DE02B3028D026D0253023F023002277F
:101CE00002240412300C125314128D1C1004DE0254
:101CF0000E28127C301004FD03443C1004DC042D3B
:101D0000481004D80530540009C6E7064407A20766
:101D10000008C80015FFBE0CD0093006420324029B
:101D200042033006D009BE0CDC0D1405790443D003
:101D30000001000D0095D626E80B2E21400003027D
:041D4000000000009F
:04000005080001A14D
:00000001FF
