:020000040800F2
:10000000D8930020A1010008E90F0008310F000873
:10001000E50F00085D0A0008F31800080000000062
:10002000000000000000000000000000791200083D
:10003000550E0008000000004D1100088D14000846
:10004000BB010008BB010008BB010008BB010008A0
:10005000BB010008BB010008BB010008BB01000890
:10006000BB010008BB010008BB010008BB01000880
:10007000BB010008BB010008BB010008BB01000870
:10008000C10C0008E90C0008BB010008BB01000816
:10009000BB010008BB010008BB010008BB01000850
:1000A000BB010008BB010008BB010008BB01000840
:1000B000BB010008BB010008BB010008BB01000830
:1000C000BB010008BB010008BB010008BB01000820
:1000D000BB010008BB010008F1150008BB010008C6
:1000E000BB010008BB010008BB010008BB01000800
:1000F000BB010008BB010008BB010008BB010008F0
:10010000BB010008BB010008BB010008BB010008DF
:10011000BB010008BB010008BB010008BB010008CF
:10012000BB010008BB010008BB010008BB010008BF
:10013000BB010008BB010008BB010008BB010008AF
:10014000BB010008BB010008BB010008BB0100089F
:10015000BB010008BB010008BB010008BB0100088F
:10016000BB010008BB010008BB010008BB0100087F
:10017000BB010008BB010008BB010008BB0100086F
:10018000BB010008BB010008DFF810D000F0FEFA48
:1001900000480047E1250008AFF30080D893002015
:1001A0000648804706480047FEE7FEE7FEE7FEE711
:1001B000FEE7FEE7FEE7FEE7FEE7FEE79114000834
:1001C000890100082DE9FE4F804681EA0300C00F37
:1001D0000C46009021F0004123F00045B8EB0200EE
:1001E000A94105D24046214690461C460B46024690
:1001F00023F00040104347D0270DC7F30A00C3F394
:100200000A510290401A019040286BDAC3F31300A0
:1002100040F4801B0098924620B10023D2EB030AE1
:1002200063EB0B0B01985946C0F14002504600F0B9
:10023000EEF906460D4650465946019A00F006FA78
:1002400010EB08006141002487EA115284EAE77349
:100250001A4340D0009A62B3019A012A4FEA07522A
:1002600015DC001B61EB02014FF0004202EA07526D
:10027000CDE90042001C41F5801132462B4600F0CA
:1002800006FA03B0BDE8F08F40462146F9E7001BAF
:1002900061EB0201001C41F5801300185B4120183E
:1002A000A2F5001747EB030140EAD570B6196D417E
:1002B00011E06D084FEA360645EAC0754FEA07526D
:1002C000001B61EB0201001C41F5801149084FEA57
:1002D00030000019514132462B4603B0BDE8F04FC3
:1002E00000F0C6B90098012240000023D0EB0202C2
:1002F00063EBE073009821464FEAE074B8EB00002E
:1003000061EB0401E9E783F000435BE781F0004122
:1003100058E72DE9FE4F81EA030404F0004421F080
:10032000004100944FF0000B23F0004350EA010419
:100330005ED052EA03045BD0C3F30A54C1F30A55FA
:100340002C44A4F2F3340194A0FB0254C1F3130132
:1003500041F48011C3F3130343F4801301FB0244FF
:1003600000FB034E840A970A44EA815447EA835704
:10037000A4FB076802958D0A05FB07854FEA932CBD
:1003800004FB0C542705029D4FEA065847EA16372E
:10039000B5EB08056EEB070C870E920E47EA811746
:1003A00042EA8312A7FB0201B6EB0B0164EB0004E7
:1003B0002B0D43EA0C335E1844EB1C50DA465146D1
:1003C000E7FB0201C5F313044FEA0B3343EA14536E
:1003D0004FEA0432019C43EA0603A4F10C040294A0
:1003E000009CCDE900B400F052F903B0BDE8F08FF5
:1003F00000200146F9E72DE9F04D81EA030404F0FD
:10040000004B21F0004514464FF0000A23F0004154
:1004100050EA050220D054EA01021DD0C5F30A5764
:100420000246C5F31303C1F31300C1F30A5640F4A7
:10043000801543F48013A7EB0608101BD64608F27C
:10044000FD3873EB050002D308F1010801E09218B2
:100450005B41B8F1000F03DA00200146BDE8F08DE2
:1004600000204FF48011064684460EE0171B73EB04
:10047000050705D3121B63EB050306434CEA010C89
:1004800049084FEA300092185B4150EA0107EDD16C
:1004900052EA030012D082EA040083EA050108430D
:1004A00005D0101BAB4106D20122002306E000223A
:1004B0004FF0004302E06FF0010253101AEB060008
:1004C0004CEB085110EB0A0041EB0B01BDE8F04D7D
:1004D00000F0CEB80EB5C10F80EAE0700844CA073C
:1004E000002140F233438DE80E000A460B4600F02F
:1004F000CEF803B000BD0EB540F2334102910021A9
:10050000CDE900110A460B4600F0C1F803B000BD6A
:1005100070B5C1F30A5201F000450024C1F3130184
:1005200040F2FF3341F480119A4201DA002070BD9D
:1005300040F233439A42A2F2334203DC524200F0CB
:1005400075F800E090402C43F1D0404270BDC1F3FB
:100550000A5210B5C1F3130140F2FF3341F4801188
:100560009A4201DA002010BD40F233439A42A2F2CF
:10057000334203DC524200F059F810BD904010BDE8
:1005800030B50B46014600202022012409E021FA63
:1005900002F59D4205D303FA02F5491B04FA02F560
:1005A0002844151EA2F10102F1DC30BD2DE9F05FF7
:1005B0000546002092469B468846064681464024D2
:1005C0001BE0284641464746224600F02FF8534696
:1005D0005A46C01A914110D311461846224600F0DF
:1005E00016F82D1A67EB01084F462246012000211C
:1005F00000F00DF817EB00094E41201EA4F1010494
:10060000DFDC484631462A464346BDE8F09F202AB3
:1006100004DB203A00FA02F1002070479140C2F159
:10062000200320FA03F3194390407047202A04DB8B
:10063000203A21FA02F00021704721FA02F3D0405B
:10064000C2F120029140084319467047202A06DB78
:10065000CB17203A41FA02F043EAE07306E041FA90
:1006600002F3D040C2F1200291400843194670477E
:1006700010B5141E73F1000408DA401C41F10001AA
:1006800092185B411A4301D120F0010010BD2DE901
:10069000F04D92469B4611B1B1FA81F202E0B0FAF8
:1006A00080F220329046FFF7B2FF04460F4640EA40
:1006B0000A0041EA0B0153465A46084313D011463B
:1006C00053EA010019D0C8F140025046FFF7AEFFCF
:1006D00005460E46504659464246FFF798FF0843E6
:1006E00005D0012004E020463946BDE8F08D002009
:1006F000054346EAE0762C4337430A986305E40A4B
:10070000A0EB08000022FD0A44EA47540A3002D553
:1007100000200146E9E7010510196941DDE90845B6
:1007200000196941BDE8F04DA2E7C1F30A52C1F3D7
:10073000130140F2FF3341F480119A4202DA0020A3
:100740000146704740F233439A42A2F2334202DC40
:100750005242FFF76BBFFFF75ABF000030B5041ECF
:1007600071F1000404DB4FF00044404264EB0101EE
:10077000141E73F1000405DB1C464FF00043524287
:1007800063EB0403994208BF904230BD064C074D0D
:1007900006E0E06840F0010394E807009847103451
:1007A000AC42F6D3FFF7F4FC083A0008283A0008F8
:1007B00070B58C1810F8015B15F0070301D110F823
:1007C000013B2A1106D110F8012B03E010F8016B50
:1007D00001F8016B5B1EF9D12B0705D40023521ED3
:1007E0000DD401F8013BFAE710F8013BCB1A921C3B
:1007F00003E013F8015B01F8015B521EF9D5A14239
:10080000D8D3002070BD00001CB50121082000F0E5
:100810009FFC0121202000F09BFC0121402000F0E2
:1008200097FC4CF2FB00009001208DF804000020A2
:100830008DF8060003208DF8050001208DF80700D3
:100840006946104800F007FB40F20120009069461D
:100850000D4800F000FB4FF4C060009069460B4863
:1008600000F0F9FA00F092FB00F07AFB084A03214D
:10087000012000F03BF8074A0221084600F036F854
:100880001CBD0000000C0240001402400018024091
:10089000580300205B03002038B505460C460020B5
:1008A000009000956A46012100F020F8204601F0F2
:1008B000B5F938BD38B505460C46002000900095C6
:1008C0006A46012100F012F8204601F0BBF938BD5C
:1008D00038B505460C460020009000956A46012177
:1008E00000F004F8204601F0DFF938BDF0B503460A
:1008F0000C4600250026002100201D460027DFF8B9
:10090000B4C0CCF88072CCF8847200BF1AE0002723
:10091000DFF8A0C0CCF8807205F08007802F03D1EB
:100920000127CCF88C7204E00027DFF888C0CCF8EF
:100930008C720127DFF87CC0CCF880726F063D0E08
:10094000471CF8B20828E2DB0027DFF868C0CCF8C3
:100950008072002126E0565C00201AE00027DFF8B4
:1009600054C0CCF8807206F08007802F03D1012795
:10097000CCF88C7204E00027DFF838C0CCF88C7219
:100980000127DFF830C0CCF8807277063E0E471C96
:10099000F8B20828E2DB0027DFF818C0CCF8807234
:1009A0004F1CF9B2A142D6DB0127DFF808C0CCF812
:1009B0008472F0BD0080414210B52DED068B0446D7
:1009C00024B943F6AF70BDEC068B10BD1E2C02D1CE
:1009D00043F6D210F7E73C2C02D143F27C40F2E719
:1009E0005A2C02D142F62770EDE7782C02D142F65C
:1009F000D210E8E7962C02D142F24F40E3E7B42C44
:100A000002D141F6F960DEE7C4F5B471C81EFFF704
:100A100061FD41EC1A0B9FED0D0B53EC102BFFF712
:100A200078FC41EC190B9FED0B0B53EC102BFFF7EF
:100A3000E2FC41EC180BFFF76BFD503843F6FF71F9
:100A400090FBF1F201FB1200BDE700000000000086
:100A50000000D040000000000080764000BFFEE7AC
:100A600000B597B00121084600F072FB012148074C
:100A700000F07EFB0121480500F06AFB1020159074
:100A800003208DF8580000208DF85B0015A92E4832
:100A900000F0E1F900201390022014902C20119016
:100AA0000020129011A900F081F80021084600F002
:100AB00097F84FF0606002904FF480700B904020E8
:100AC0000590C82006904FF480300C9000200D90C7
:100AD00001200E901D48049000200F904FF400500C
:100AE0000A90C01008901A480390002010904FF40C
:100AF000006009900020079002A9164800F07EF9D6
:100B00000121144800F01EF90121002000F038F8FE
:100B10000121002000F020F84FF4C06000F0A2FA9C
:100B200010208DF8040001208DF805008DF80600D6
:100B30008DF8070001A800F059FA0122102105489C
:100B400000F03EF917B000BD000002403800002060
:100B5000087400408860024039B1084A12680123D5
:100B600083401A43054B1A6006E0044A12680123C9
:100B700083409A43014B1A607047000000740040A4
:100B800041B1094A12684FF4805383401A43064B1F
:100B90001A6007E0044A12684FF4805383409A4376
:100BA000014B1A60704700000074004030B500220D
:100BB00000230A4C226840F6FE748440A243D1E927
:100BC00000452C438D682C43CD6844EA050303FAA5
:100BD00000F42243014C226030BD0000007400404C
:100BE00008B500220092054A009200F10802009B1D
:100BF0001A440092009A116008BD00000074004081
:100C000015282DD2DFE800F00B2C0E2C112C142C03
:100C1000172C1A2C1D2C202C232C262C29009FED60
:100C2000120B70479FED120BFBE79FED130BF8E7DC
:100C30009FED130BF5E79FED140BF2E79FED140BFF
:100C4000EFE79FED150BECE79FED150BE9E79FED47
:100C5000160BE6E79FED160BE3E79FED170BE0E7BA
:100C60009FED010BDDE70000000000000000F03FF9
:100C7000BE9F1A2FDD24F43F5C8FC2F5285CF93F3C
:100C8000EC51B81E85EBFF3F7F6ABC74931804409B
:100C9000B29DEFA7C64B09400C022B8716D90F4017
:100CA0003F355EBA490C14403D0AD7A3703D194048
:100CB0001283C0CAA1C51F400000000000002440EC
:100CC00010B50649064800F049F830B10349044818
:100CD00000F01EF801200349087010BD00880020B4
:100CE000886002403600002010B50649064800F032
:100CF00035F830B10349044800F00AF801200349EF
:100D0000087010BD00802020A06002403700002045
:100D10000246094B9A4201D2084801E006481038C1
:100D200001F000531BB1064B0B40C36002E0044BC3
:100D30000B40836070470000106402400060024076
:100D40007D0F7D0F21B1026842F00102026003E0D5
:100D5000026822F0010202607047000070B502468E
:100D6000002000240025124EB24201D2114B01E0B6
:100D70000F4B103B104E0E4036B11E2606EAD12412
:100D8000166806EA040502E0566906F0800501F0DF
:100D900000560EB15C6800E01C68084E344004EA5E
:100DA000010616B10DB1012000E0002070BD000069
:100DB00010640240006002403C0F3C0F7D0F7D0F2D
:100DC00010B501F080034BB122B1436943F08003B9
:100DD000436103E0436923F08003436180290BD022
:100DE0002AB1036801F01E042343036004E0036892
:100DF00001F01E04A343036010BD000010B50022E3
:100E00000268134B1A40CC680B6823434C69234398
:100E10008C692343CC6923430C6A23434C6A2343E4
:100E20008C6A23434C6B23438C6B23431A4302602D
:100E3000426922F00702D1E90B3423431A4342618D
:100E40000B6943604B6883608B68C36010BD000012
:100E50003F801CF07047F0B50A46002100230024B3
:100E600000BF3DE0012505FA01F3156805EA03041A
:100E70009C4234D105684F000326BE40B54305604F
:100E800015794E00B5400668354305601579012D8A
:100E900002D01579022D16D185684F000326BE4079
:100EA000B543856055794E00B54086683543856009
:100EB000456801268E40B5434560456896798E4069
:100EC000B6B235434560C5684F000326BE40B54302
:100ED000C560D5794E00B540C6683543C560491C2C
:100EE0001029BFD3F0BDF0B5002300244D07ED0E4F
:100EF00002FA05F3CE1000F1200555F826504E07F2
:100F0000F70E0F26BE40B543CF1000F1200646F87D
:100F10002750CE1000F1200555F8265045EA03046D
:100F2000CE1000F1200545F82640F0BD81617047E4
:100F300000BFFEE700B5002007490860022001F06D
:100F40002FFB01200549C1F8A802042001F028FB6D
:100F500000200149086000BDA8024342000043424E
:100F600000B5002007490860012001F019FB0120AD
:100F70000549C1F8B8021E2001F012FB002001490A
:100F8000086000BDB8824142008041420020104903
:100F9000086001200F49C1F8840200200C493C3947
:100FA00008600D4908600A492C390860091D08606D
:100FB000091D0860091D08600549303908600749A6
:100FC00008600649243108600549C1F8A402704749
:100FD000BC82414200804142A80243428082424298
:100FE0000000434200BFFEE77047000070B50021DB
:100FF00000230F22C4781CB3174C246804F4E06467
:10100000C4F5E064C4F30721C1F10404E3B20A416A
:1010100044789C40E1B28478144021430C07210EAF
:101020000E4C05786155047804F01F050124AC408E
:1010300005786D11AD0005F1E025C5F8004109E026
:10104000047804F01F050124AC40054D06787611A4
:1010500045F8264070BD00000CED00E000E400E023
:1010600080E100E002490143024A1160704700003C
:101070000000FA050CED00E070B5044604F03F04F2
:101080000020214908604FF4FA7001F092FA012023
:101090001E49C1F8A4024FF4FA7001F08AFA002543
:1010A00023E06611012E04D101201749091D0860B3
:1010B00003E000201449091D08604FF4FA7001F0A4
:1010C00078FA0120104908604FF4FA7001F071FAC3
:1010D0003F2000EA440400200C49C1F8A8024FF464
:1010E000FA7001F066FA681CC5B2062DD9DB002043
:1010F0000549091F08604FF4FA7001F05AFA002000
:101100000249C1F8AC0270BDA80241420000414250
:101110001CB50121042000F01BF84FF46060009022
:1011200001208DF8040000208DF8060002208DF8C3
:10113000050069460448FFF78EFE4FF460610248DF
:10114000FFF7F4FE1CBD00000008024070470000DD
:1011500029B1064A12680243044B1A6004E0034AAC
:1011600012688243014B1A60704700003038024019
:1011700029B1064A12680243044B1A6004E0034A8C
:1011800012688243014B1A607047000040380240E9
:10119000F0B5002100220024022500260223324F50
:1011A0003F6807F00C0121B1042905D0082937D187
:1011B00005E02E4F076036E02D4F076033E02A4FE1
:1011C0003F1F3F68C7F38056274F3F1F3F6807F018
:1011D0003F036EB1264FB7FBF3F7DFF88CC0ACF1DD
:1011E000040CDCF800C0CCF3881C07FB0CF40CE00A
:1011F0001E4FB7FBF3F7DFF870C0ACF1040CDCF85E
:1012000000C0CCF3881C07FB0CF4174F3F1F3F684E
:10121000C7F301477F1C7D00B4FBF5F7076002E0D0
:10122000124F076000BF00BF0F4F3F6807F0F0018B
:101230000909104F7A5C0768D74047600A4F3F683A
:1012400007F4E051890A0B4F7A5C4768D740876002
:10125000054F3F6807F46041490B064F7A5C4768C9
:10126000D740C760F0BD0000083802400024F400F9
:1012700040787D01000000207047000000B587B075
:1012800001210846FFF764FF072202212948FFF7E2
:101290002AFE072203212748FFF725FE02208DF8AA
:1012A000180000208DF81A000420059001208DF808
:1012B0001B0002208DF8190005A91E48FFF7CBFD81
:1012C00002208DF818000820059005A91948FFF79D
:1012D000C2FD01214804FFF74BFF4FF4E1300190BC
:1012E0000020ADF810000C20ADF80E000020ADF885
:1012F0000C00ADF80A00ADF8080001A90E4800F096
:1013000085FA012240F225510B4800F059FA2620B7
:101310008DF8000001208DF803008DF801008DF894
:1013200002006846FFF762FE0121034800F02FFA31
:1013300007B000BD00000240004400400FB400B5FB
:101340009BB01DA8019002A8019A1C9900F0BCFC5A
:101350000020019002A800F017F81BB05DF814FB04
:1013600010B504462146064800F0BFFA00BF8021B0
:10137000034800F018FA034909688842F7D010BD05
:1013800000440040B882414270B50446002503E0A5
:10139000605DFFF7E5FF6D1C605D0028F8D170BD52
:1013A0000CB50020019000903448006840F4803073
:1013B0003249086000BF3148006800F400300090F6
:1013C0000198401C0190009818B90198B0F5A04F01
:1013D000F1D12A48006800F4003010B101200090DB
:1013E00001E0002000900098012846D123484030B9
:1013F000006840F080502149403108602048006872
:1014000040F440401E4908601C48083000681B49F1
:10141000083108600846006840F40040086008464B
:10142000006840F4A05008601648091F0860081FB3
:10143000006840F08070091F086000BF0F48006816
:1014400000F000700028F9D040F205700E490860E5
:101450000A480830006820F0030008490831086095
:101460000846006840F00200086000BF03480830EA
:10147000006800F00C000828F8D10CBD00380240CC
:101480000070004019544007003C024070470000C3
:1014900010B51548006840F47000134908601348FF
:1014A000006840F001001149086000200F49083130
:1014B00008600E4800680E4908400C4908600D4855
:1014C000091D0860081F006820F48020091F0860BB
:1014D000002006490C310860FFF762FF4FF0006002
:1014E00001498039086010BD88ED00E000380240F5
:1014F000FFFFF6FE103000240EB501210420FFF797
:1015000037FE0B4800F022F8532001900920ADF877
:1015100000000020ADF80800ADF8020020210448CA
:1015200000F01AF86946024800F020F80EBD0000ED
:101530000008004021B1028842F00102028004E06C
:1015400002884FF6FE731A400280704701894FF6F9
:10155000F87211400181704782884FF68F731A40EC
:10156000828082880A4382807047000000220288BD
:10157000184B98420ED0184B98420BD0B0F1804FC8
:1015800008D0164B984205D0154B984202D0154B07
:10159000984204D14FF68F731A404B881A43124B6E
:1015A000984207D0114B984204D04FF6FF431A409F
:1015B0000B891A4302804B68C3620B880385054B75
:1015C000984202D0044B984201D18B7A03860123C2
:1015D0008382704700000140000401400004004085
:1015E00000080040000C00400010004000140040C3
:1015F00010B52021554800F0D6F8012877D153487E
:1016000000F06EF900B252490880084600880128AF
:1016100002D1504908608EE04D480088022803D16D
:10162000C01E4C49086086E049480088032803D161
:101630000120494908607EE045480088042803D11C
:10164000401F4549086076E041480088052803D1DD
:101650000120424908606EE03D480088062803D119
:10166000C01F3E49086066E039480088072803D15A
:1016700001203B4908605EE035480088082804D115
:101680004FF0FF303649086055E03148008809289E
:1016900003D10120334908604DE02D4800880A2815
:1016A00004D14FF0FF302F49086044E028480088FB
:1016B0000B2803D100202C4908603CE02448008816
:1016C0000C2803D101202849086034E02048008814
:1016D0000D2803D10120254908602CE01C48008812
:1016E0000E2805D14FF0FF302049086023E02BE0A1
:1016F0001748B0F900000F3811281BD2DFE800F0BE
:10170000090A0B0C0D0E0F101112131415161718D1
:1017100019000FE00EE00DE00CE00BE00AE009E03C
:1017200008E007E006E005E004E003E002E001E095
:1017300000E000BF00BF06490878FFF711FE40F245
:101740002551024800F014F810BD0000004400408C
:101750003400002070030020740300207803002070
:101760007C030020800300208803002084030020E5
:1017700010B50022002340F66A14A14200D100BF38
:101780000A1201249440A3B2DC43048010BD21B1AD
:10179000828942F40052828104E082894DF6FF730F
:1017A0001A408281704702460020B1F5007F00D1C7
:1017B00000BF13880B400BB1012000E000207047F0
:1017C000F0B50346002400260025002040F66A17E5
:1017D000B94200D100BF1846C1F3421401F01F0600
:1017E000012707FA06F5012C01D10C3004E0022C88
:1017F00001D1103000E014301AB107682F430760A0
:1018000002E00768AF430760F0BD00002DE9FF4725
:1018100005460E460024A14600BFA046B08900B18F
:1018200000BF2C8A24F44054F08804432C82AC89F5
:1018300041F20C608443B0883189084371890843C0
:101840000443AC81AC8A24F44074B0890443AC8274
:101850006846FFF79DFC2048854202D01F4885421C
:1018600002D1DDF80C9001E0DDF80890A88900F4C1
:10187000004040B109EBC90000EB09103168490094
:10188000B0FBF1F707E009EBC90000EB0910316884
:101890008900B0FBF1F76420B7FBF0F004012009E8
:1018A000642101FB1078A88900F4004040B1322087
:1018B00000EBC800B0FBF1F000F00700044308E0C3
:1018C000322000EB08106421B0FBF1F000F00F00B3
:1018D00004432C81BDE8FF87001001400014014043
:1018E00001468888C0F308007047C1F3080282806F
:1018F000704700BFFEE7000070B52DED048B044675
:101900000D46102D47D1642C11D12046FEF7E2FD83
:1019100041EC190B9FED5F0B53EC102BFEF7F9FC1C
:1019200041EC180BFEF7F4FDBDEC048B70BD5A2C96
:101930000FD12046FEF7CEFD41EC190B9FED570B62
:1019400053EC102BFEF7E5FC41EC180BFEF7E0FD25
:10195000EAE7502C0FD12046FEF7BCFD41EC190BF5
:101960009FED500B53EC102BFEF7D3FC41EC180B02
:10197000FEF7CEFDD8E72046FEF7ACFD41EC190B93
:101980009FED4A0B53EC102BFEF7C3FC41EC180BF8
:10199000FEF7BEFDC8E7202D22D1B4F5967F0FDA01
:1019A0002046FEF797FD41EC190B9FED420B53ECDF
:1019B000102BFEF7AEFC41EC180BFEF7A9FDB3E7C8
:1019C0002046FEF787FD41EC190B9FED3C0B53ECD5
:1019D000102BFEF79EFC41EC180BFEF799FDA3E7D8
:1019E000802D21D1642C0FDA2046FEF773FD41ECE7
:1019F000190B9FED340B53EC102BFEF78AFC41ECD6
:101A0000180BFEF785FD8FE72046FEF763FD41ECDE
:101A1000190B9FED2E0B53EC102BFEF77AFC41ECCB
:101A2000180BFEF775FD7FE7402D22D1B4F5967FA8
:101A30000FDA2046FEF74EFD41EC190B9FED250B0A
:101A400053EC102BFEF765FC41EC180BFEF760FD24
:101A50006AE72046FEF73EFD41EC190B9FED170BA0
:101A600053EC102BFEF755FC41EC180BFEF750FD24
:101A70005AE72046FEF72EFD41EC190B9FED170BA0
:101A800053EC102BFEF745FC41EC180BFEF740FD24
:101A90004AE70000333333333333FF3FC520B0729E
:101AA0006891FF3FC3F5285C8FC2FF3F713D0AD7A5
:101AB000A370FF3F000000000000FE3F14AE47E1AE
:101AC0007A14FE3F7B14AE47E17A0040448B6CE70A
:101AD000FBA90040D7A3703D0AD7FD3FF4FDD478A1
:101AE000E926014001460A2901D111207047142935
:101AF00001D12120FAE71E2901D13120F6E728295A
:101B000001D14120F2E7322901D15120EEE73C29F1
:101B100001D16120EAE7462901D17020E6E750298A
:101B200001D18020E2E75A2901D19020DEE7642923
:101B300001D1A120DAE74B20D8E701461E2901D1C7
:101B400033207047282901D14B20FAE7322901D1EF
:101B50005720F6E73C2901D16520F2E7462901D15B
:101B60007320EEE7502901D18420EAE75A2901D1F8
:101B7000AA20E6E76420E4E701461E2901D19C2063
:101B80007047282901D1C820FAE7322902D14FF441
:101B90008270F5E73C2902D140F22B10F0E746298C
:101BA00002D140F27B10EBE7502902D14FF4D27002
:101BB000E6E75A2902D140F2D510E1E7AB20DFE792
:101BC00001460A2901D119207047142901D140206A
:101BD000FAE71E2901D16320F6E7282901D18520E3
:101BE000F2E7322901D1A720EEE73C2901D1C82034
:101BF000EAE7462901D1EB20E6E7502902D140F27D
:101C00000B10E1E75A2902D14FF49670DCE7642902
:101C100002D140F25310D7E75F20D5E738B505462B
:101C200000240020009045F48054200A8DF8010023
:101C3000E0B28DF802006A4603210620FEF756FE48
:101C400038BD000030B52DED048B81B00546002075
:101C500000902846FEF74FFC41EC190B114890ED1F
:101C6000000B53EC102B51EC190BFEF752FB41EC1F
:101C7000180BFEF76CFC0446E0B28DF80300200A56
:101C80008DF80200200C8DF80100200E8DF8000068
:101C90006A4604210846FEF729FE01B0BDEC048B1C
:101CA00030BD00006003002018B5044600200090FD
:101CB000E0B28DF8010020128DF800006A46022182
:101CC0000520FEF713FE18BD37B514460846064B2F
:101CD0006A46214600F0DCF804466946002000F020
:101CE0005AFC20463EBD00009725000802E008C8C7
:101CF000121F08C1002AFAD170477047002001E086
:101D000001C1121F002AFBD1704700002DE9FF5FBF
:101D100082B00021DDE90430020DDDF840B003435C
:101D200018D044F61050A2F2FF3242431514119815
:101D300001281FD0A5EB0B00401C5FEA000A4FF002
:101D400000064E4FDFF83891B046504615D5CAF11F
:101D5000000413E0119801244AA3012801D16FEA7D
:101D60000B010298119AC0E90031C0E9024206B0A5
:101D7000BDE8F09FCBF10000DFE704460021404AB8
:101D8000491842EB0450CDE9001012E0E00707D0FB
:101D900032463B4640464946FEF7BBFA80468946F6
:101DA00032463B4610461946FEF7B3FA06460F4642
:101DB0006410002CEAD1DDE90401DDE90023BAF169
:101DC000000F06DAFEF7A5FA42464B46FEF7A1FAE7
:101DD00005E0FEF710FB42464B46FEF70CFB0446BF
:101DE0000E460022284BFEF7B9FC03D84FF0FF3017
:101DF000014607E00022254B20463146FEF7E2F976
:101E0000FEF793FC102409E0002C0ADB0A220023D1
:101E1000FEF7CCFB039B30321A55641E50EA0102D8
:101E2000F2D1641C039AC4F111031444119A012ADB
:101E300003D0012208430DD10AE0084304D000205A
:101E40004FF0110B119072E7A3EB0B056D1E0DE027
:101E50005B4504DD4FF0000205F1010504E003DA03
:101E60004FF00002A5F10105002AECD0029811996B
:101E7000C0E90231C0E9004579E7000000001440E4
:101E80000000F03F300000000000F0430000E03FA1
:101E90002DE9FF4F95B09A46884606460025EEE1AB
:101EA000252877D100242746F94A0121039400E030
:101EB000044316F8013F203B01FA03F01042F7D12A
:101EC00030782A2811D06FF02F033078A0F130023B
:101ED000092A16D8039A44F0020402EB820203EBAB
:101EE00042021044761C0390EFE758F8042B03924B
:101EF000002A03DA504244F40054039044F00204F0
:101F0000761C30782E2816D116F8010F44F0040400
:101F10002A280DD06FF02F023078A0F13003092B62
:101F200009D807EB870302EB4303C718761CF3E7D6
:101F300058F8047B761C30786C280FD006DC4C28CF
:101F400017D068280DD06A2814D104E0742810D066
:101F50007A280FD10DE044F400140AE044F4801410
:101F600001E044F440147278824202D104F58014F6
:101F7000761C761C307866280BD013DC582877D076
:101F800009DC002875D04528F6D04628F4D047282B
:101F90001AD193E118E0632835D0642879D06528F8
:101FA00012D18BE1702873D008DC6728F1D0692842
:101FB0006FD06E280DD06F2806D1ACE073282CD0DE
:101FC000752874D0782853D05246179990476D1CC5
:101FD00054E1C4F30250022809D003280DD0D8F8E8
:101FE000001004280DD00D6008F1040846E1D8F86F
:101FF0000010EA17C1E90052F6E7D8F800100D808A
:10200000F2E70D70F0E718F8041B8DF800100020BF
:102010008DF80100EB46012003E058F804BB4FF0B7
:10202000FF3061074FF0000102D40DE009F101011A
:102030008946B9420FDA8145F8DB1BF809100029FF
:10204000F4D108E009F1010189468142FADB1BF86D
:1020500009100029F6D103985346A0EB0907214641
:102060003846179A00F080FA284400EB090507E08B
:1020700044E008E10DE01BF8010B52461799904728
:10208000B9F10109F7D2534621463846179AF2E0D2
:1020900039E00A21C4F302524FF0000B0091022AEA
:1020A00006D058F8040BC117032A09D00AE023E030
:1020B00008F1070020F00702F2E80201904605E06F
:1020C00000B2C117042A01D140B2C117002906DAB3
:1020D0000A460021404261EB02012D2202E0220566
:1020E00004D52B228DF80420012203E0E20701D061
:1020F0002022F7E7914657E00A2100E010214FF037
:10210000000B00910BE010214FF0000B44F0040491
:102110000827009103E008204FF0000B0090C4F363
:102120000252022A05D058F8040B0021032A08D0D5
:1021300008E008F1070020F00702F2E802019046EB
:1021400003E080B2042A00D1C0B24FF00009220798
:102150002AD53278702A07D0DDF800C08CF0100C38
:102160005CEA0B0C05D00EE040228DF80420012221
:1021700008E050EA010306D030238DF804308DF8D2
:10218000052002229146009B83F0080353EA0B03CB
:102190000AD150EA010201D1620705D530228DF83B
:1021A00004204FF001097F1E3278582A04D039A24A
:1021B0000C920CAA02920BE03BA2F9E75B46009A54
:1021C000FEF7F4F90C9B9B5C029A521E029213706C
:1021D00050EA0102F2D1029804A9081A00F1200B7A
:1021E000600702D524F4803400E001275F4502DD5A
:1021F000A7EB0B0000E0002000EB0B010090039820
:102200004944401A0390E00306D453462146179AE6
:10221000039800F0A9F90544002706E001A85246FA
:10222000C05D179990476D1C7F1C4F45F6DBE0039E
:102230000CD553462146179A039800F095F90544AA
:1022400004E030205246179990476D1C0099481EB3
:1022500000900029F5DC08E00298029952460078C7
:10226000491C0291179990476D1CBBF10001ABF11D
:10227000010BF1DC5BE100F065F90544761C307878
:1022800000287FF40DAE19B02846BDE8F08F00009D
:10229000092801003031323334353637383961623C
:1022A0006364656600000000303132333435363700
:1022B000383941424344454600000000600700D4DD
:1022C000062708F1070020F00700F0E80223804607
:1022D00003F0004C5FEA0C0001D097A009E0200554
:1022E00001D596A005E0E00701D095A001E0AFF28E
:1022F0004C001390307823F0004365280CD006DCA6
:10230000452809D046281DD047287FD13BE06628C4
:1023100018D067287AD136E00021112F01DB112077
:1023200000E0781CCDE9000104A90CA8FFF7EEFC41
:10233000DDE90D010C9A4FF0000B07F10109109235
:1023400000914EE04FF000400097CDE9011004A944
:102350000CA8FFF7DBFCDDE90D020C9B0F994FF099
:10236000000B91461093009211B9791C00EB010902
:10237000B7EB090003D4C0F1FF3B07F10109A9EB5A
:102380000700019042E0012F00DA01270021112F00
:1023900001DD112000E03846CDE9000104A90CA8B8
:1023A000FFF7B4FCDDE90D010C9A00914FF0000B32
:1023B000B946109221070FD4009A4A4503DA914694
:1023C00001E0A9F10109B9F1010F05DD109AA9F1A8
:1023D0000101515C3029F4D0B84202DA10F1040F47
:1023E00003DA0121CDE9011010E0002803DC834469
:1023F000A9EB000102E0411C494500DD8946A0EB44
:102400000B00401C01904FF000400290200705D4C3
:102410000198484502DB4FF0FF30019000208DF815
:102420004B0002980DF14B07B0F1004F25D0022070
:102430000C902B200D90029800280CDA404202905C
:102440002D200D9007E00A210298FEF799F830310F
:10245000029007F8011D0C99481E0C900029F2DC2F
:1024600002980028EFD1791E0D980870307800F09E
:10247000200040F0450007F8020D11A8C01BC01D48
:1024800002901398007800B1012000EB0901019837
:1024900001EBE071029801440398401A401E03903A
:1024A000E00306D453462146179A039800F05CF8DF
:1024B00005441398007818B15246179990476D1C3F
:1024C000E00323D553462146179A039800F04CF8B1
:1024D00005441BE0BBF1000F07DB0098584504DD05
:1024E0001098179910F80B0001E017993020524608
:1024F000904701980BF1010B401E05F10105019079
:1025000004D12E205246179990476D1CB9F1000155
:10251000A9F10109DEDC05E017F8010B5246179915
:1025200090476D1C0299481E02900029F4DC534626
:102530002146179A03989EE62D0000002B0000000C
:10254000200000002DE9F041044600251E461746F4
:10255000880404D405E039462020B0476D1C641E71
:10256000F9D52846BDE8F0812DE9F0410446002563
:102570001E469046C80301D5302700E02027880476
:1025800004D505E041463846B0476D1C641EF9D5B8
:102590002846BDE8F0810A68531C0B601070704734
:1025A00000EB4001880000BF011EA0F10100FBD13B
:1025B0007047A82141434FF0E02251610021916111
:1025C0000521116100BF4FF0E021096901F480315C
:1025D0000029F8D004214FF0E0221161704700007B
:1025E00092B0A020FE49086001210420FEF7B0FD52
:1025F0004FF44050109001208DF8440000208DF8D9
:10260000460003208DF8450001208DF8470010A9F1
:10261000F448FEF720FC00200F9009E0F048008805
:1026200081B2F14A0F9822F810100F98401C0F90B9
:102630000F98C828F2DBFEF713FAFEF75DFF0121C1
:10264000EA48FEF777FFFEF763FDFEF717FEE8A006
:10265000FEF774FE0020FEF70FFDFEF7D5F8E84800
:102660000068E849484301460F901020FEF722F920
:102670001021E5480068FFF73FF980B201460F904E
:102680001020FEF709F900211020FEF721F9DF489C
:102690000068012818D1DE480068DA49484301463D
:1026A0000F902020FEF706F92021DA480068FFF796
:1026B00023F980B201460F902020FEF7EDF80021AB
:1026C0002020FEF705F913E0D048006880B9D04813
:1026D0000068CC49484301460F902020FEF7EAF8F5
:1026E00000212020FEF7D8F800212020FEF7F0F886
:1026F0000020C9490860C9490860C1480068C1494B
:10270000484301460F908020FEF7D4F8BE48006889
:10271000FFF756FA80B201460F908020FEF7BCF812
:10272000BD480068BE49096808440E90FEF744F9A8
:1027300080B201460F908020FEF7CAF8B3480068C7
:10274000012822D1B2480068AE49484301460F90A3
:102750004020FEF7AFF84021AE480068FFF7CCF804
:1027600080B201460F904020FEF796F8AA48006814
:10277000AC49096808440E90FEF71EF980B2014684
:102780000F904020FEF7A4F81DE0A0480068D0B9E3
:102790009F4800689B49484301460F904020FEF740
:1027A00089F800214020FEF777F89B4800689D4992
:1027B000096808440E90FEF7FFF880B201460F90BA
:1027C0004020FEF785F8FEF7B5FB322001F07AF8DD
:1027D000012092490860FAE38C48006800287CD107
:1027E0008E49091D08609049C1F8B0028F48006801
:1027F000002873D0824800688C49096808448049E1
:102800000860084600681E2802DA1E20086006E0FC
:102810007B480068282802DD28207949086078482C
:1028200000687849484301460F901020FEF742F8AF
:1028300075480068FFF756F90790FDF74BFE9FEDCE
:102840007C0B53EC102BCDE908019DED080B51ECEE
:10285000100BFDF75EFDCDE90A01774890ED000B06
:1028600053EC102B9DED0A0B51EC100BFDF751FDB5
:10287000CDE90C019DED0C0B51EC100BFDF748FE62
:1028800080B201460F901020FEF706F800211020BC
:10289000FEF71EF85A4800685A49484301460F900F
:1028A0008020FEF707F865480068FEF7A9F98DED6E
:1028B0000A0B55480068FFF783F90390FDF70AFEFD
:1028C0009FED5B0B53EC102BCDE904019DED040B48
:1028D00051EC100BFDF71DFD01E0FDE339E0CDE902
:1028E0000601574890ED000B53EC102B9DED060BA5
:1028F00051EC100BFDF70DFDCDE908019DED0A0B24
:1029000053EC102B9DED080B51EC100BFDF773FDF4
:10291000CDE90C019DED0C0B51EC100BFDF7F8FD12
:1029200080B201460F908020FDF7B6FF3A4800685C
:102930003B49096808440E90FEF73EF880B2014614
:102940000F908020FDF7C4FFFEF7F4FA002037490E
:1029500008603C480068002876D02B480068394958
:1029600009680A2202FB010027490860084600683E
:102970000A2802DA0A20086006E023480068642872
:1029800002DD6420204908601D4800681D49484355
:1029900001460F901020FDF78DFF1B480068FFF7E0
:1029A000A1F80790FDF796FD9FED210B53EC102B3E
:1029B000CDE908019DED080B51EC100BFDF7A9FCCA
:1029C000CDE90A011C4890ED000B53EC102B9DED56
:1029D0000A0B51EC100BFDF79CFCCDE90C0134E027
:1029E000D00300200008024038000020000800400A
:1029F000496E69742046696E697368210D0A00008A
:102A00008C03002040420F00940300208803002024
:102A10009003002098030020A4030020B00241424C
:102A20009C030020A003002000004142700300200E
:102A3000000000000000F03FB0030020A8030020C9
:102A4000C8030020740300205EE09DED0C0B51ECE8
:102A5000100BFDF77CFD80B201460F901020FDF7B2
:102A60001BFF00211020FDF733FFFC480168FCA08C
:102A7000FEF764FCFD480068FD49484301460F909D
:102A80008020FDF717FFF5480068FFF799F80790D9
:102A9000FDF720FD1FED1A0B53EC102BCDE90801BB
:102AA0009DED080B51EC100BFDF733FCCDE90A014D
:102AB000F04890ED000B53EC102B9DED0A0B51EC00
:102AC000100BFDF726FCCDE90C019DED0C0B51EC34
:102AD000100BFDF73CFD80B201460F908020FDF702
:102AE000DBFEE5480068E549096808440E90FDF7FB
:102AF00063FF80B201460F908020FDF7E9FEFEF7EC
:102B000019FA0020DE490860DE48006858B1DE4846
:102B10000068DC4909680A2202FB0100DA49086002
:102B20000020D8490860D948006800287ED0CF48E6
:102B30000068FDF7CFFC1FED420B53EC102BCDE9E5
:102B400000019DED000B51EC100BFDF7E2FBCDE910
:102B500002019DED020B53EC102B9FEDCD0B51ECC0
:102B6000100BFDF748FCCDE90601C8480068FDF7E9
:102B7000B1FC9FEDC90B53EC102BCDE902019DED8B
:102B8000020B51EC100BFDF7C4FBCDE904019DEDE8
:102B9000060B53EC102B9DED040B51EC100BFDF7C5
:102BA0002AFC9FEDBF0B53EC102BCDE908019DEDE6
:102BB000080B51EC100BFDF7ACFBCDE90C01AF4855
:102BC0000068FDF787FCCDE90A019DED0C0B53EC85
:102BD000102B9DED0A0B51EC100BFDF794FBCDE98A
:102BE0000E019DED0E0B51EC100BFDF791FCA3496E
:102BF000086008460068002805DA0846006800F505
:102C0000B47008600AE09D480068B0F5B47F05DD47
:102C10009A480068A0F5B470984908609348006825
:102C20009349484301460F90802000E0BCE0FDF747
:102C300041FE9D480068FDF7E3FF8DED0A0B8748D4
:102C40000068FEF7BDFF0390FDF744FC1FED880B05
:102C500053EC102BCDE904019DED040B51EC100B4E
:102C6000FDF757FBCDE90601824890ED000B53ECD0
:102C7000102B9DED060B51EC100BFDF74AFBCDE937
:102C800008019DED0A0B53EC102B9DED080B51EC48
:102C9000100BFDF7B0FBCDE90C019DED0C0B51ECD9
:102CA000100BFDF735FC80B201460F908020FDF738
:102CB000F3FD714800687149096808440E90FDF7FA
:102CC0007BFE80B201460F908020FDF701FE774821
:102CD0000068012845D176480068654948430146A7
:102CE0000F904020FDF7E6FD67480068FEF744FFBF
:102CF0000790FDF7EFFB1FEDB20B53EC102BCDE966
:102D000008019DED080B51EC100BFDF702FBCDE91E
:102D10000A01684890ED000B53EC102B9DED0A0B57
:102D200051EC100BFDF7F5FACDE90C019DED0C0B04
:102D300051EC100BFDF70BFC80B201460F904020C8
:102D4000FDF7AAFD4C4800685B49096808440E90ED
:102D5000FDF732FE80B201460F904020FDF7B8FD2E
:102D60001DE052480068D0B95148006840494843C6
:102D700001460F904020FDF79DFD00214020FDF70A
:102D80008BFD3D4800684C49096808440E90FDF7EA
:102D900013FE80B201460F904020FDF799FDFEF72B
:102DA000C9F800203949086044480068002854D018
:102DB0003148006841490968401A2F4908600846AF
:102DC0000068002805DA0846006800F5B47008605D
:102DD0000AE029480068B0F5B47F05DD26480068A0
:102DE000A0F5B470244908602348016834A0FEF7B8
:102DF000A5FA1E4800681E49484301460F908020EE
:102E0000FDF758FD28480068FDF7FAFE8DED0A0B26
:102E100012480068FEF7D4FE0390FDF75BFB1FED40
:102E2000FC0B53EC102BCDE904019DED040B51EC90
:102E3000100BFDF76EFACDE906010E4890ED000B80
:102E400053EC102B9DED060B51EC100BFDF761FAC6
:102E5000CDE908019DED0A0B38E0A5E094030020C0
:102E6000416D703A25640D0A000000008C030020BB
:102E700040420F00C8030020A40300209C03002050
:102E80007403002078030020980300207C030020B6
:102E90000000000000408F400000000000003E40A5
:102EA0000000000000807640A80300208803002076
:102EB00090030020C0030020A00300208003002016
:102EC0005068613A25640D0A0000000053EC102B95
:102ED0009DED080B51EC100BFDF78DFACDE90C01BF
:102EE0009DED0C0B51EC100BFDF712FB80B201466F
:102EF0000F908020FDF7D0FCFE480068FE4909686D
:102F000008440E90FDF758FD80B201460F908020D6
:102F1000FDF7DEFCF9480068F949484301460F9087
:102F20004020FDF7C7FCF7480068FEF725FE079034
:102F3000FDF7D0FA9FEDF40B53EC102BCDE908010F
:102F40009DED080B51EC100BFDF7E3F9CDE90A01FB
:102F5000EF4890ED000B53EC102B9DED0A0B51EC5C
:102F6000100BFDF7D6F9CDE90C019DED0C0B51ECE2
:102F7000100BFDF7CDFA80B201460F904020FDF70F
:102F80008BFCDC480068E349096808440E90FDF7B3
:102F900013FD80B201460F904020FDF799FCFDF72C
:102FA000C9FF0020DC490860DC48006800280ED01A
:102FB000DA480068DA49096801EB4000D84908603E
:102FC00008460068002803DC0020086007E0BAE338
:102FD000D3480068142802DB1420D1490860D04887
:102FE0000168D0A0FEF7AAF9D1480068C449484357
:102FF00001460F908020FDF75DFCC9480068FDF791
:10300000FFFD8DED0A0BCB480068FEF7D9FD03905C
:10301000FDF760FA9FEDBC0B53EC102BCDE90401DA
:103020009DED040B51EC100BFDF773F9CDE9060192
:10303000C14890ED000B53EC102B9DED060B51ECAD
:10304000100BFDF766F9CDE908019DED0A0B53EC75
:10305000102B9DED080B51EC100BFDF7CCF9CDE9D1
:103060000C019DED0C0B51EC100BFDF751FA80B2E9
:1030700001460F908020FDF70FFCA9480068FDF77E
:10308000BFFD8DED0A0BAB480068FEF799FD03907C
:10309000FDF720FA9FED9C0B53EC102BCDE90401BA
:1030A0009DED040B51EC100BFDF733F9CDE9060152
:1030B000A14890ED000B53EC102B9DED060B51EC4D
:1030C000100BFDF726F9CDE908019DED0A0B53EC35
:1030D000102B9DED080B00E023E051EC100BFDF7E9
:1030E0008AF9CDE90C019DED0C0B51EC100BFDF7AD
:1030F0000FFA01460F90AFF29820FEF71FF97D48B6
:1031000000687D49096808440E90FDF755FC80B2BF
:1031100001460F908020FDF7DBFB00207F4908600F
:10312000B3E3864800680128FAD1854908608549DB
:10313000C1F8B0028448006800287DD07C4800684F
:103140008149096808447A490860084600681E28D1
:1031500002DA1E20086006E075480068282802DDB3
:103160002820734908607248006865494843014651
:103170000F901020FDF79EFB6E480068FEF7B2FC32
:103180000790FDF7A7F99FED600B53EC102BCDE9ED
:1031900008019DED080B51EC100BFDF7BAF8CDE9D5
:1031A0000A016A4890ED000B53EC102B9DED0A0BC1
:1031B00051EC100BFDF7ADF8CDE90C019DED0C0BBA
:1031C00051EC100BFDF7A4F980B201460F901020CE
:1031D000FDF762FB00211020FDF77AFB54480068E0
:1031E0004749484301460F908020FDF763FB514853
:1031F0000068FEF7E5FC0790FDF76CF99FED420BC8
:1032000053EC102BCDE908019DED080B51EC100B90
:10321000FDF77FF8CDE90A01474890ED000B53EC2C
:10322000102B9DED0A0B51EC100BFDF772F8CDE958
:103230000C019DED0C0B00E01CE051EC100BFDF7B8
:1032400067F980B201460F908020FDF725FB2948E1
:1032500000682949096808440E90FDF7ADFB80B26B
:1032600001460F908020FDF733FBFDF763FE002041
:10327000354908603648006800286BD0344800683B
:1032800000EB80002B49096801EB400029490860E8
:10329000084600680A2802DA0A20086006E0254885
:1032A0000068642802DD6420224908602048006824
:1032B0001349484301460F901020FDF7FBFA1D48C3
:1032C0000068FEF70FFC80B201460F901020FDF75A
:1032D000E3FA00211020FDF7FBFA16480168AFF26F
:1032E0008040FEF72BF81248006805494843014624
:1032F0000F9030E0A40300209C03002090030020E6
:1033000040420F0098030020000000000000F03F42
:10331000C0030020A00300208003002084030020BD
:10332000A80300206F757444423A25640D0A00001A
:103330008C03002094030020C80300208803002091
:10334000B40241420000414270030020B00300205B
:10335000740300201FE08020FDF7ACFAFA480068F3
:10336000FEF72EFC80B201460F908020FDF794FA04
:10337000F6480068F649096808440E90FDF71CFB02
:1033800080B201460F908020FDF7A2FAFDF7D2FD32
:103390000020F0490860F048006800285CD0EF4841
:1033A0000068ED4909680A2202FB0100EB49086048
:1033B000084600681E2802DA1E20086006E0E7487A
:1033C00000685A2802DD5A20E4490860E348016891
:1033D000E3A0FDF7B3FFE6480068012837D1E548D0
:1033E0000068E549484301460F902020FDF762FA46
:1033F000DA480068FEF7A1FB80B201460F9020205A
:10340000FDF74AFA00212020FDF762FAD94800684A
:10341000D949484301460F904020FDF74BFACF4869
:103420000068FEF7A9FB80B201460F904020FDF72F
:1034300033FAC6480068D149096808440E90FDF780
:10344000BBFA80B201460F904020FDF741FA002000
:10345000C1490860FDF76EFDC948006800287CD0AE
:10346000C4480068FDF736F81FED590B53EC102BDC
:10347000CDE900019DED000B51EC100BFCF749FF6D
:10348000CDE902019DED020B53EC102B9FEDBD0B1E
:1034900051EC100BFCF7AFFFCDE90601B84800680E
:1034A000FDF718F89FEDB90B53EC102BCDE9020195
:1034B0009DED020B51EC100BFCF72BFFCDE9040145
:1034C0009DED060B53EC102B9DED040B51EC100BF6
:1034D000FCF791FF9FEDAF0B53EC102BCDE90801EA
:1034E0009DED080B51EC100BFCF713FFCDE90C011F
:1034F000A2480068FCF7EEFFCDE90A019DED0C0B38
:1035000053EC102B9DED0A0B51EC100BFCF7FBFE5E
:10351000CDE90E019DED0E0B51EC100BFCF7F8FF01
:10352000964908609D480068FCF7D4FF1FED8A0BA0
:1035300053EC102BCDE900019DED000B51EC100B6D
:10354000FCF7E7FECDE902019DED020B53EC102BD9
:103550009FED8C0B51EC100B00E0DDE0FCF74BFF16
:10356000CDE9060186480068FCF7B4FF9FED870BA4
:1035700053EC102BCDE902019DED020B51EC100B29
:10358000FCF7C7FECDE904019DED060B53EC102BB3
:103590009DED040B51EC100BFCF72DFF9FED7D0B07
:1035A00053EC102BCDE908019DED080B51EC100BED
:1035B000FCF7AFFECDE90C0165480068FCF78AFF17
:1035C000CDE90A019DED0C0B53EC102B9DED0A0B80
:1035D00051EC100BFCF797FECDE90E019DED0E0BA3
:1035E00051EC100BFCF794FF5949086063480068E0
:1035F000002806DA6148006800F5B4705F49086089
:103600000AE05E480068B0F5B47F05DD5B480068FD
:10361000A0F5B470594908604D480068002806DAE2
:103620004B48006800F5B470494908600AE0484812
:103630000068B0F5B47F05DD45480068A0F5B470BA
:1036400043490860554800684B49484301460F907C
:103650008020FDF72FF93C480068FEF7B1FA80B2F0
:1036600001460F908020FDF717F938480068384967
:10367000096808440E90FDF79FF980B201460F904B
:103680008020FDF725F93A480068012821D1394802
:1036900000683949484301460F904020FDF70AF978
:1036A0002E480068FEF768FA80B201460F9040206D
:1036B000FDF7F2F8254800683049096808440E9083
:1036C000FDF77AF980B201460F904020FDF700F92E
:1036D0001DE027480068D0B92648006826494843BD
:1036E00001460F904020FDF7E5F800214020FDF74E
:1036F000D3F8164800682149096808440E90FDF780
:103700005BF980B201460F904020FDF7E1F8FDF72C
:1037100011FC00201A4908602148006800287CD06C
:103720000A4800681E490968052202FB0100074992
:10373000086008460068002834DA0846006800F58A
:10374000B470086039E0A0E094030020A4030020D6
:103750009C030020740300207803002098030020BD
:103760006F7574416D416D703A25640D0A0000005B
:10377000880300209003002040420F00A003002097
:103780007C0300200000000000408F40000000008B
:1037900000003E4000000000008076408C030020C6
:1037A000800300203A480068B0F5B47F05DD384852
:1037B0000068A0F5B4703649086035480168AFF676
:1037C0000010FDF7BBFD334800683349484301460C
:1037D0000F908020FDF76EF8802130480068FEF7DA
:1037E0008BF880B201460F908020FDF755F82848ED
:1037F00000682B49096808440E90FDF7DDF880B297
:1038000001460F908020FDF763F8264800682249A2
:10381000484301460F90402000E01FE0FDF74AF8C2
:10382000402121480068FEF767F880B201460F90FA
:103830004020FDF731F8164800681C490968084423
:103840000E90FDF7B9F880B201460F904020FDF7C9
:103850003FF8FDF76FFB0020154908601548006828
:1038600098B115480068134909680844124908606E
:103870000846016811A0FDF761FD0F4800780F9020
:10388000FDF7FAFB00200B490860FEF7A5BF00001A
:10389000A40300208C03002040420F00940300206A
:1038A0009C0300209003002098030020A003002028
:1038B0008003002084030020A803002044423A250E
:1038C0006400000000B5322802DC00F089F815E041
:1038D000502802DC00F08AF810E06E2802DC00F0CC
:1038E0000EF80BE08C2802DC00F01CF806E0AA2899
:1038F00002DC00F030F801E000F04CF800BD00BF41
:1039000000BF00BF00BF00BF00BF00BF00BF00BFBF
:1039100000BF00BF00BF00BF00BF00BF00BF00BFAF
:1039200000BF704700BF00BF00BF00BF00BF00BFA7
:1039300000BF00BF00BF00BF00BF00BF00BF00BF8F
:1039400000BF00BF00BF00BF00BF00BF00BF00BF7F
:1039500000BF00BF704700BF00BF00BF00BF00BF77
:1039600000BF00BF00BF00BF00BF00BF00BF00BF5F
:1039700000BF00BF00BF00BF00BF00BF00BF00BF4F
:1039800000BF00BF00BF00BF00BF00BF00BF00BF3F
:1039900000BF704700BF00BF00BF00BF00BF00BF37
:1039A00000BF00BF00BF00BF00BF00BF00BF00BF1F
:1039B00000BF00BF00BF00BF00BF00BF00BF00BF0F
:1039C00000BF00BF00BF00BF00BF00BF00BF00BFFF
:1039D00000BF00BF00BF00BF00BF00BF00BF7047F7
:1039E00000BF00BF00BF00BF00BF704700BF00BFE7
:1039F00000BF00BF00BF00BF00BF00BF00BF00BFCF
:103A000000BF00BF70470000283A000800000020F7
:103A1000D4030000B0070008483B0008D40300208E
:103A200004900000FC1C0008412D01020304043630
:103A30000607080901320A326423E8032310271419
:103A4000A086011440420F2480969844E1F50518A1
:103A5000325E08BC0819097509D009280A7F0AD303
:103A60000A240B720BBC0B030C450C840CBE0CF22D
:103A70000C220D4D0D730D930DAD0DC10DD00DD953
:103A80000DDC041AD00C1AAD141A731C1C220DF292
:103A9000281A84301C030CBC3C1C240BD3481C2863
:103AA0000AD054171909BC085E08183308A2074445
:103AB00007E7068B063006D80581052D05DC048E48
:103AC000044404FD03BB037C0342030E03DE02B384
:103AD000028D026D0253023F023002270224041AB3
:103AE000300C1A53141A8D1C1CDE020E281A7C305E
:103AF0001CFD03443C1CDC042D481CD80530541725
:103B0000E7064407A207196809C4C80815FDBE0CDA
:103B1000D00930064203240242033006D009BE0C0D
:103B2000DC0D14097B1472D0100995D626E80B2EF3
:103B3000214003210302322329263232021D3C6335
:083B4000F83FFAF0081A6F418A
:04000005080001A14D
:00000001FF
