:020000040800F2
:10000000A8630020A10100088D0F0008D50E00088C
:10001000890F0008650A0008971800080000000012
:100020000000000000000000000000001D12000899
:10003000F90D000800000000F1100008311400085C
:10004000BB010008BB010008BB010008BB010008A0
:10005000BB010008BB010008BB010008BB01000890
:10006000BB010008BB010008BB010008BB01000880
:10007000BB010008BB010008BB010008BB01000870
:10008000090C0008310C0008BB010008BB01000886
:10009000BB010008BB010008BB010008BB01000850
:1000A000BB010008BB010008BB010008BB01000840
:1000B000BB010008BB010008BB010008BB01000830
:1000C000BB010008BB010008BB010008BB01000820
:1000D000BB010008BB01000895150008BB01000822
:1000E000BB010008BB010008BB010008BB01000800
:1000F000BB010008BB010008BB010008BB010008F0
:10010000BB010008BB010008BB010008BB010008DF
:10011000BB010008BB010008BB010008BB010008CF
:10012000BB010008BB010008BB010008BB010008BF
:10013000BB010008BB010008BB010008BB010008AF
:10014000BB010008BB010008BB010008BB0100089F
:10015000BB010008BB010008BB010008BB0100088F
:10016000BB010008BB010008BB010008BB0100087F
:10017000BB010008BB010008BB010008BB0100086F
:10018000BB010008BB010008DFF810D000F0FEFA48
:1001900000480047FD240008AFF30080A86300205A
:1001A0000648804706480047FEE7FEE7FEE7FEE711
:1001B000FEE7FEE7FEE7FEE7FEE7FEE73514000890
:1001C000890100082DE9FE4F804681EA0300C00F37
:1001D0000C46009021F0004123F00045B8EB0200EE
:1001E000A94105D24046214690461C460B46024690
:1001F00023F00040104347D0270DC7F30A00C3F394
:100200000A510290401A019040286BDAC3F31300A0
:1002100040F4801B0098924620B10023D2EB030AE1
:1002200063EB0B0B01985946C0F14002504600F0B9
:10023000EEF906460D4650465946019A00F006FA78
:1002400010EB08006141002487EA115284EAE77349
:100250001A4340D0009A62B3019A012A4FEA07522A
:1002600015DC001B61EB02014FF0004202EA07526D
:10027000CDE90042001C41F5801132462B4600F0CA
:1002800006FA03B0BDE8F08F40462146F9E7001BAF
:1002900061EB0201001C41F5801300185B4120183E
:1002A000A2F5001747EB030140EAD570B6196D417E
:1002B00011E06D084FEA360645EAC0754FEA07526D
:1002C000001B61EB0201001C41F5801149084FEA57
:1002D00030000019514132462B4603B0BDE8F04FC3
:1002E00000F0C6B90098012240000023D0EB0202C2
:1002F00063EBE073009821464FEAE074B8EB00002E
:1003000061EB0401E9E783F000435BE781F0004122
:1003100058E72DE9FE4F81EA030404F0004421F080
:10032000004100944FF0000B23F0004350EA010419
:100330005ED052EA03045BD0C3F30A54C1F30A55FA
:100340002C44A4F2F3340194A0FB0254C1F3130132
:1003500041F48011C3F3130343F4801301FB0244FF
:1003600000FB034E840A970A44EA815447EA835704
:10037000A4FB076802958D0A05FB07854FEA932CBD
:1003800004FB0C542705029D4FEA065847EA16372E
:10039000B5EB08056EEB070C870E920E47EA811746
:1003A00042EA8312A7FB0201B6EB0B0164EB0004E7
:1003B0002B0D43EA0C335E1844EB1C50DA465146D1
:1003C000E7FB0201C5F313044FEA0B3343EA14536E
:1003D0004FEA0432019C43EA0603A4F10C040294A0
:1003E000009CCDE900B400F052F903B0BDE8F08FF5
:1003F00000200146F9E72DE9F04D81EA030404F0FD
:10040000004B21F0004514464FF0000A23F0004154
:1004100050EA050220D054EA01021DD0C5F30A5764
:100420000246C5F31303C1F31300C1F30A5640F4A7
:10043000801543F48013A7EB0608101BD64608F27C
:10044000FD3873EB050002D308F1010801E09218B2
:100450005B41B8F1000F03DA00200146BDE8F08DE2
:1004600000204FF48011064684460EE0171B73EB04
:10047000050705D3121B63EB050306434CEA010C89
:1004800049084FEA300092185B4150EA0107EDD16C
:1004900052EA030012D082EA040083EA050108430D
:1004A00005D0101BAB4106D20122002306E000223A
:1004B0004FF0004302E06FF0010253101AEB060008
:1004C0004CEB085110EB0A0041EB0B01BDE8F04D7D
:1004D00000F0CEB80EB5C10F80EAE0700844CA073C
:1004E000002140F233438DE80E000A460B4600F02F
:1004F000CEF803B000BD0EB540F2334102910021A9
:10050000CDE900110A460B4600F0C1F803B000BD6A
:1005100070B5C1F30A5201F000450024C1F3130184
:1005200040F2FF3341F480119A4201DA002070BD9D
:1005300040F233439A42A2F2334203DC524200F0CB
:1005400075F800E090402C43F1D0404270BDC1F3FB
:100550000A5210B5C1F3130140F2FF3341F4801188
:100560009A4201DA002010BD40F233439A42A2F2CF
:10057000334203DC524200F059F810BD904010BDE8
:1005800030B50B46014600202022012409E021FA63
:1005900002F59D4205D303FA02F5491B04FA02F560
:1005A0002844151EA2F10102F1DC30BD2DE9F05FF7
:1005B0000546002092469B468846064681464024D2
:1005C0001BE0284641464746224600F02FF8534696
:1005D0005A46C01A914110D311461846224600F0DF
:1005E00016F82D1A67EB01084F462246012000211C
:1005F00000F00DF817EB00094E41201EA4F1010494
:10060000DFDC484631462A464346BDE8F09F202AB3
:1006100004DB203A00FA02F1002070479140C2F159
:10062000200320FA03F3194390407047202A04DB8B
:10063000203A21FA02F00021704721FA02F3D0405B
:10064000C2F120029140084319467047202A06DB78
:10065000CB17203A41FA02F043EAE07306E041FA90
:1006600002F3D040C2F1200291400843194670477E
:1006700010B5141E73F1000408DA401C41F10001AA
:1006800092185B411A4301D120F0010010BD2DE901
:10069000F04D92469B4611B1B1FA81F202E0B0FAF8
:1006A00080F220329046FFF7B2FF04460F4640EA40
:1006B0000A0041EA0B0153465A46084313D011463B
:1006C00053EA010019D0C8F140025046FFF7AEFFCF
:1006D00005460E46504659464246FFF798FF0843E6
:1006E00005D0012004E020463946BDE8F08D002009
:1006F000054346EAE0762C4337430A986305E40A4B
:10070000A0EB08000022FD0A44EA47540A3002D553
:1007100000200146E9E7010510196941DDE90845B6
:1007200000196941BDE8F04DA2E7C1F30A52C1F3D7
:10073000130140F2FF3341F480119A4202DA0020A3
:100740000146704740F233439A42A2F2334202DC40
:100750005242FFF76BBFFFF75ABF000030B5041ECF
:1007600071F1000404DB4FF00044404264EB0101EE
:10077000141E73F1000405DB1C464FF00043524287
:1007800063EB0403994208BF904230BD064C074D0D
:1007900006E0E06840F0010394E807009847103451
:1007A000AC42F6D3FFF7F4FC4C3200086C32000880
:1007B00070B58D1810F8014B14F0030201D110F838
:1007C000012B231106D110F8013B03E010F8016B57
:1007D00001F8016B521EF9D1ABB110F8012B04F0F6
:1007E0000C048A1A0C2C03D0A2EB84129B1C08E088
:1007F00010F8014BA2EB0422F8E712F8014B01F8C4
:10080000014B5B1EF9D5A942D4D3002070BD000076
:100810001CB50121082000F06DFC0121202000F012
:1008200069FC0121402000F065FC4CF2FB000090C7
:1008300001208DF8040000208DF8060003208DF8BB
:10084000050001208DF807006946104800F0D5FA30
:1008500040F20120009069460D4800F0CEFA4FF4B6
:10086000C060009069460B4800F0C7FA00F060FBDA
:1008700000F048FB084A0321012000F03BF8074A3A
:100880000221084600F036F81CBD0000000C0240B2
:100890000014024000180240580300205B030020AF
:1008A00038B505460C460020009000956A460121A7
:1008B00000F020F8204601F040F938BD38B5054673
:1008C0000C460020009000956A46012100F012F8C5
:1008D000204601F045F938BD38B505460C460020E4
:1008E000009000956A46012100F004F8204601F0CE
:1008F00069F938BDF0B503460C46002500260021F5
:1009000000201D460027DFF8B4C0CCF88072CCF878
:10091000847200BF1AE00027DFF8A0C0CCF8807214
:1009200005F08007802F03D10127CCF88C7204E0FA
:100930000027DFF888C0CCF88C720127DFF87CC074
:10094000CCF880726F063D0E471CF8B20828E2DB37
:100950000027DFF868C0CCF88072002126E0565CE2
:1009600000201AE00027DFF854C0CCF8807206F0AF
:100970008007802F03D10127CCF88C7204E0002778
:10098000DFF838C0CCF88C720127DFF830C0CCF823
:10099000807277063E0E471CF8B20828E2DB00277B
:1009A000DFF818C0CCF880724F1CF9B2A142D6DB38
:1009B0000127DFF808C0CCF88472F0BD0080414206
:1009C00010B52DED068B044624B943F6AF70BDEC8F
:1009D000068B10BD1E2C02D143F6D210F7E73C2C3B
:1009E00002D143F27C40F2E75A2C02D142F6277042
:1009F000EDE7782C02D142F6D210E8E7962C02D12E
:100A000042F24F40E3E7B42C02D141F6F960DEE751
:100A1000C4F5B471C81EFFF75DFD41EC1A0B9FEDE4
:100A20000D0B53EC102BFFF774FC41EC190B9FEDF1
:100A30000B0B53EC102BFFF7DEFC41EC180BFFF710
:100A400067FD503843F6FF7190FBF1F201FB120095
:100A5000BDE70000000000000000D04000000000E2
:100A60000080764000BFFEE700B597B00121084640
:100A700000F040FB0121480700F04CFB0121480534
:100A800000F038FB1020159003208DF8580000204E
:100A90008DF85B0015A92E4800F0AFF900201390E7
:100AA000022014902C2011900020129011A900F027
:100AB00081F80021084600F097F84FF0606002903E
:100AC0004FF480700B9040200590C82006904FF4A2
:100AD00080300C9000200D9001200E901D48049055
:100AE00000200F904FF400500A90C01008901A4850
:100AF0000390002010904FF40060099000200790B0
:100B000002A9164800F01EF90121144800F0BEF8B1
:100B10000121002000F038F80121002000F020F829
:100B20004FF4C06000F070FA10208DF8040001202E
:100B30008DF805008DF806008DF8070001A800F07B
:100B400027FA01221021054800F0DEF817B000BD99
:100B50000000024038000020087400408860024015
:100B600039B1084A1268012383401A43054B1A60C1
:100B700006E0044A1268012383409A43014B1A603D
:100B8000704700000074004041B1094A12684FF4F8
:100B9000805383401A43064B1A6007E0044A1268E8
:100BA0004FF4805383409A43014B1A607047000012
:100BB0000074004030B5002200230A4C226840F641
:100BC000FE748440A243D1E900452C438D682C4338
:100BD000CD6844EA050303FA00F42243014C226085
:100BE00030BD00000074004008B500220092054AA4
:100BF000009200F10802009B1A440092009A1160D2
:100C000008BD00000074004010B50649064800F019
:100C100049F830B10349044800F01EF801200349A7
:100C2000087010BD00880020886002403600002057
:100C300010B50649064800F035F830B103490448BC
:100C400000F00AF801200349087010BD0080202040
:100C5000A0600240370000200246094B9A4201D2B0
:100C6000084801E00648103801F000531BB1064B5C
:100C70000B40C36002E0044B0B40836070470000F0
:100C800010640240006002407D0F7D0F21B10268B8
:100C900042F00102026003E0026822F001020260F9
:100CA0007047000070B50246002000240025124E57
:100CB000B24201D2114B01E00F4B103B104E0E40DF
:100CC00036B11E2606EAD124166806EA040502E0BB
:100CD000566906F0800501F000560EB15C6800E030
:100CE0001C68084E344004EA010616B10DB101201B
:100CF00000E0002070BD000010640240006002406F
:100D00003C0F3C0F7D0F7D0F10B501F080034BB100
:100D100022B1436943F08003436103E0436923F058
:100D20008003436180290BD02AB1036801F01E04BF
:100D30002343036004E0036801F01E04A34303603F
:100D400010BD000010B500220268134B1A40CC6899
:100D50000B6823434C6923438C692343CC692343A9
:100D60000C6A23434C6A23438C6A23434C6B234312
:100D70008C6B23431A430260426922F00702D1E9D7
:100D80000B3423431A4342610B6943604B68836011
:100D90008B68C36010BD00003F801CF00146022933
:100DA00001D10B207047042901D10F20FAE7062951
:100DB00001D11320F6E7082901D11720F2E70A290B
:100DC00001D11B20EEE70C2901D11F20EAE70E29F3
:100DD00001D12320E6E7102901D12720E2E71229DB
:100DE00001D12B20DEE7142901D12F20DAE709B940
:100DF0000820D7E70020D5E77047F0B50A46002164
:100E00000023002400BF3DE0012505FA01F3156829
:100E100005EA03049C4234D105684F000326BE4016
:100E2000B543056015794E00B54006683543056049
:100E30001579012D02D01579022D16D185684F0044
:100E40000326BE40B543856055794E00B54086689F
:100E500035438560456801268E40B5434560456849
:100E600096798E40B6B235434560C5684F0003267B
:100E7000BE40B543C560D5794E00B540C668354320
:100E8000C560491C1029BFD3F0BDF0B50023002474
:100E90004D07ED0E02FA05F3CE1000F1200555F8CE
:100EA00026504E07F70E0F26BE40B543CF1000F177
:100EB000200646F82750CE1000F1200555F82650A0
:100EC00045EA0304CE1000F1200545F82640F0BDA8
:100ED0008161704700BFFEE700B500200749086048
:100EE000022001F0EBFA01200549C1F8A802042014
:100EF00001F0E4FA00200149086000BDA802434265
:100F00000000434200B5002007490860012001F0BD
:100F1000D5FA01200549C1F8B8021E2001F0CEFA29
:100F200000200149086000BDB88241420080414272
:100F300000201049086001200F49C1F884020020F8
:100F40000C493C3908600D4908600A492C39086091
:100F5000091D0860091D0860091D08600549303930
:100F60000860074908600649243108600549C1F84E
:100F7000A4027047BC82414200804142A802434221
:100F8000808242420000434200BFFEE770470000FB
:100F900070B5002100230F22C4781CB3174C2468BD
:100FA00004F4E064C4F5E064C4F30721C1F104046F
:100FB000E3B20A4144789C40E1B284781440214372
:100FC0000C07210E0E4C05786155047804F01F05BE
:100FD0000124AC4005786D11AD0005F1E025C5F8A0
:100FE000004109E0047804F01F050124AC40054DE0
:100FF0000678761145F8264070BD00000CED00E043
:1010000000E400E080E100E002490143024A11608F
:10101000704700000000FA050CED00E070B50446D2
:1010200004F03F040020214908604FF4FA7001F0F9
:101030004EFA01201E49C1F8A4024FF4FA7001F0E3
:1010400046FA002523E06611012E04D1012017493C
:10105000091D086003E000201449091D08604FF4D1
:10106000FA7001F034FA0120104908604FF4FA7068
:1010700001F02DFA3F2000EA440400200C49C1F899
:10108000A8024FF4FA7001F022FA681CC5B2062DCE
:10109000D9DB00200549091F08604FF4FA7001F000
:1010A00016FA00200249C1F8AC0270BDA802414204
:1010B000000041421CB50121042000F01BF84FF450
:1010C0006060009001208DF8040000208DF806007B
:1010D00002208DF8050069460448FFF78EFE4FF4A4
:1010E00060610248FFF7F4FE1CBD000000080240EA
:1010F0007047000029B1064A12680243044B1A6087
:1011000004E0034A12688243014B1A6070470000F2
:101110003038024029B1064A12680243044B1A6073
:1011200004E0034A12688243014B1A6070470000D2
:1011300040380240F0B5002100220024022500269C
:101140000223324F3F6807F00C0121B1042905D07A
:10115000082937D105E02E4F076036E02D4F076094
:1011600033E02A4F3F1F3F68C7F38056274F3F1F8A
:101170003F6807F03F036EB1264FB7FBF3F7DFF888
:101180008CC0ACF1040CDCF800C0CCF3881C07FB6D
:101190000CF40CE01E4FB7FBF3F7DFF870C0ACF1B6
:1011A000040CDCF800C0CCF3881C07FB0CF4174FD0
:1011B0003F1F3F68C7F301477F1C7D00B4FBF5F775
:1011C000076002E0124F076000BF00BF0F4F3F688B
:1011D00007F0F0010909104F7A5C0768D7404760B3
:1011E0000A4F3F6807F4E051890A0B4F7A5C476861
:1011F000D7408760054F3F6807F46041490B064FB1
:101200007A5C4768D740C760F0BD000008380240EC
:101210000024F40040787D010000002070470000A9
:1012200000B587B001210846FFF764FF07220221BD
:101230002948FFF72AFE072203212748FFF725FE4A
:1012400002208DF8180000208DF81A000420059067
:1012500001208DF81B0002208DF8190005A91E48F9
:10126000FFF7CBFD02208DF818000820059005A996
:101270001948FFF7C2FD01214804FFF74BFF4FF467
:10128000E13001900020ADF810000C20ADF80E0008
:101290000020ADF80C00ADF80A00ADF8080001A977
:1012A0000E4800F085FA012240F225510B4800F06B
:1012B00059FA26208DF8000001208DF803008DF8E2
:1012C00001008DF802006846FFF762FE0121034825
:1012D00000F02FFA07B000BD0000024000440040BB
:1012E0000FB400B59BB01DA8019002A8019A1C99EB
:1012F00000F078FC0020019002A800F017F81BB065
:101300005DF814FB10B504462146064800F0BFFA0C
:1013100000BF8021034800F018FA03490968884299
:10132000F7D010BD00440040B882414270B5044679
:10133000002503E0605DFFF7E5FF6D1C605D0028A0
:10134000F8D170BD0CB500200190009034480068C1
:1013500040F480303249086000BF3148006800F432
:10136000003000900198401C0190009818B9019835
:10137000B0F5A04FF1D12A48006800F4003010B158
:101380000120009001E0002000900098012846D143
:1013900023484030006840F08050214940310860C7
:1013A0002048006840F440401E4908601C4808304E
:1013B00000681B49083108600846006840F4004096
:1013C00008600846006840F4A05008601648091FED
:1013D0000860081F006840F08070091F086000BFA7
:1013E0000F48006800F000700028F9D040F2057046
:1013F0000E4908600A480830006820F003000849D8
:10140000083108600846006840F00200086000BF2C
:1014100003480830006800F00C000828F8D10CBD23
:10142000003802400070004019544007003C024060
:101430007047000010B51548006840F4700013496B
:1014400008601348006840F001001149086000205E
:101450000F49083108600E4800680E4908400C49E1
:1014600008600D48091D0860081F006820F48020EE
:10147000091F0860002006490C310860FFF762FF71
:101480004FF0006001498039086010BD88ED00E030
:1014900000380240FFFFF6FE103000240EB5012197
:1014A0000420FFF737FE0B4800F022F8532001908C
:1014B0000920ADF800000020ADF80800ADF80200EA
:1014C0002021044800F01AF86946024800F020F88C
:1014D0000EBD00000008004021B1028842F0010268
:1014E000028004E002884FF6FE731A4002807047C3
:1014F00001894FF6F87211400181704782884FF6DA
:101500008F731A40828082880A438280704700006D
:1015100000220288184B98420ED0184B98420BD0EC
:10152000B0F1804F08D0164B984205D0154B984229
:1015300002D0154B984204D14FF68F731A404B8856
:101540001A43124B984207D0114B984204D04FF6E1
:10155000FF431A400B891A4302804B68C3620B8811
:101560000385054B984202D0044B984201D18B7AF7
:10157000038601238382704700000140000401407C
:101580000004004000080040000C00400010004033
:101590000014004010B52021554800F0D6F801286D
:1015A00077D1534800F06EF900B2524908800846DE
:1015B0000088012802D1504908608EE04D4800881B
:1015C000022803D1C01E4C49086086E049480088C3
:1015D000032803D10120494908607EE0454800887E
:1015E000042803D1401F4549086076E0414800883F
:1015F000052803D10120424908606EE03D4800887B
:10160000062803D1C01F3E49086066E039480088BB
:10161000072803D101203B4908605EE03548008877
:10162000082804D14FF0FF303649086055E03148B2
:101630000088092803D10120334908604DE02D4876
:1016400000880A2804D14FF0FF302F49086044E099
:10165000284800880B2803D100202C4908603CE072
:10166000244800880C2803D101202849086034E070
:10167000204800880D2803D10120254908602CE06E
:101680001C4800880E2805D14FF0FF302049086023
:1016900023E02BE01748B0F900000F3811281BD2C7
:1016A000DFE800F0090A0B0C0D0E0F1011121314D5
:1016B0001516171819000FE00EE00DE00CE00BE016
:1016C0000AE009E008E007E006E005E004E003E0E6
:1016D00002E001E000E000BF00BF06490878FFF724
:1016E00011FE40F22551024800F014F810BD000030
:1016F00000440040340000206C03002070030020F0
:1017000074030020780300207C0300208403002061
:101710008003002010B50022002340F66A14A14285
:1017200000D100BF0A1201249440A3B2DC4304801C
:1017300010BD21B1828942F40052828104E0828985
:101740004DF6FF731A408281704702460020B1F5C2
:10175000007F00D100BF13880B400BB1012000E0D7
:1017600000207047F0B50346002400260025002025
:1017700040F66A17B94200D100BF1846C1F34214BF
:1017800001F01F06012707FA06F5012C01D10C30E4
:1017900004E0022C01D1103000E014301AB10768C7
:1017A0002F43076002E00768AF430760F0BD000009
:1017B0002DE9FF4705460E460024A14600BFA0467E
:1017C000B08900B100BF2C8A24F44054F08804434F
:1017D0002C82AC8941F20C608443B0883189084383
:1017E000718908430443AC81AC8A24F44074B08905
:1017F0000443AC826846FFF79DFC2048854202D036
:101800001F48854202D1DDF80C9001E0DDF8089018
:10181000A88900F4004040B109EBC90000EB0910B1
:1018200031684900B0FBF1F707E009EBC90000EBB4
:10183000091031688900B0FBF1F76420B7FBF0F0C4
:1018400004012009642101FB1078A88900F40040FC
:1018500040B1322000EBC800B0FBF1F000F007000F
:10186000044308E0322000EB08106421B0FBF1F0E3
:1018700000F00F0004432C81BDE8FF8700100140F9
:101880000014014001468888C0F308007047C1F386
:1018900008028280704700BFFEE7000070B52DEDA2
:1018A000048B04460D46102D47D1642C11D12046DF
:1018B000FEF710FE41EC190B9FED5F0B53EC102B64
:1018C000FEF727FD41EC180BFEF722FEBDEC048B62
:1018D00070BD5A2C0FD12046FEF7FCFD41EC190BD0
:1018E0009FED570B53EC102BFEF713FD41EC180B3B
:1018F000FEF70EFEEAE7502C0FD12046FEF7EAFD78
:1019000041EC190B9FED500B53EC102BFEF701FD32
:1019100041EC180BFEF7FCFDD8E72046FEF7DAFD98
:1019200041EC190B9FED4A0B53EC102BFEF7F1FC29
:1019300041EC180BFEF7ECFDC8E7202D22D1B4F5E1
:10194000967F0FDA2046FEF7C5FD41EC190B9FED9F
:10195000420B53EC102BFEF7DCFC41EC180BFEF7AE
:10196000D7FDB3E72046FEF7B5FD41EC190B9FED1F
:101970003C0B53EC102BFEF7CCFC41EC180BFEF7A4
:10198000C7FDA3E7802D21D1642C0FDA2046FEF796
:10199000A1FD41EC190B9FED340B53EC102BFEF71E
:1019A000B8FC41EC180BFEF7B3FD8FE72046FEF7BD
:1019B00091FD41EC190B9FED2E0B53EC102BFEF714
:1019C000A8FC41EC180BFEF7A3FD7FE7402D22D1C8
:1019D000B4F5967F0FDA2046FEF77CFD41EC190B3B
:1019E0009FED250B53EC102BFEF793FC41EC180BED
:1019F000FEF78EFD6AE72046FEF76CFD41EC190B01
:101A00009FED170B53EC102BFEF783FC41EC180BEA
:101A1000FEF77EFD5AE72046FEF75CFD41EC190B10
:101A20009FED170B53EC102BFEF773FC41EC180BDA
:101A3000FEF76EFD4AE70000333333333333FF3FA5
:101A4000C520B0726891FF3FC3F5285C8FC2FF3F8D
:101A5000713D0AD7A370FF3F000000000000FE3F69
:101A600014AE47E17A14FE3F7B14AE47E17A0040A2
:101A7000448B6CE7FBA90040D7A3703D0AD7FD3F1C
:101A8000F4FDD478E926014001460A2901D1192044
:101A90007047142901D14020FAE71E2901D16320A3
:101AA000F6E7282901D18520F2E7322901D1A720C4
:101AB000EEE73C2901D1C820EAE7462901D1EB2015
:101AC000E6E7502902D140F20B10E1E75A2902D192
:101AD0004FF49670DCE7642902D140F25310D7E747
:101AE0005F20D5E701460A2901D11120704714294A
:101AF00001D12120FAE71E2901D13120F6E728295A
:101B000001D14120F2E7322901D15120EEE73C29F1
:101B100001D16120EAE7462901D17020E6E750298A
:101B200001D18020E2E75A2901D19020DEE7642923
:101B300001D1A120DAE74B20D8E738B505460024CB
:101B40000020009045F48054200A8DF80100E0B296
:101B50008DF802006A4603210620FEF7CBFE38BD51
:101B600030B52DED048B81B005460020009028464D
:101B7000FEF7C1FC41EC190B114890ED000B53EC42
:101B8000102B51EC190BFEF7C4FB41EC180BFEF7C0
:101B9000DEFC0446E0B28DF80300200A8DF8020056
:101BA000200C8DF80100200E8DF800006A460421FB
:101BB0000846FEF79FFE01B0BDEC048B30BD00006F
:101BC0006003002018B5044600200090E0B28DF8B4
:101BD000010020128DF800006A4602210520FEF760
:101BE00089FE18BD37B514460846064B6A4621469D
:101BF00000F0DCF804466946002000F05AFC20465C
:101C00003EBD0000B324000802E008C8121F08C14E
:101C1000002AFAD170477047002001E001C1121F6D
:101C2000002AFBD1704700002DE9FF5F82B0002140
:101C3000DDE90430020DDDF840B0034318D044F66E
:101C40001050A2F2FF3242431514119801281FD000
:101C5000A5EB0B00401C5FEA000A4FF000064E4F58
:101C6000DFF83891B046504615D5CAF1000413E0AC
:101C7000119801244AA3012801D16FEA0B010298AF
:101C8000119AC0E90031C0E9024206B0BDE8F09FF8
:101C9000CBF10000DFE704460021404A491842EB3F
:101CA0000450CDE9001012E0E00707D032463B4671
:101CB00040464946FEF72DFB8046894632463B4664
:101CC00010461946FEF725FB06460F466410002C09
:101CD000EAD1DDE90401DDE90023BAF1000F06DAFB
:101CE000FEF717FB42464B46FEF713FB05E0FEF7F7
:101CF00082FB42464B46FEF77EFB04460E46002220
:101D0000284BFEF72BFD03D84FF0FF30014607E0CC
:101D10000022254B20463146FEF754FAFEF705FD1A
:101D2000102409E0002C0ADB0A220023FEF73EFC07
:101D3000039B30321A55641E50EA0102F2D1641C32
:101D4000039AC4F111031444119A012A03D0012209
:101D500008430DD10AE0084304D000204FF0110BD6
:101D6000119072E7A3EB0B056D1E0DE05B4504DDE2
:101D70004FF0000205F1010504E003DA4FF0000224
:101D8000A5F10105002AECD002981199C0E90231B1
:101D9000C0E9004579E70000000014400000F03F72
:101DA000300000000000F0430000E03F2DE9FF4F4D
:101DB00095B09A46884606460025EEE1252877D15B
:101DC00000242746F94A0121039400E0044316F851
:101DD000013F203B01FA03F01042F7D130782A2866
:101DE00011D06FF02F033078A0F13002092A16D8F5
:101DF000039A44F0020402EB820203EB4202104415
:101E0000761C0390EFE758F8042B0392002A03DABC
:101E1000504244F40054039044F00204761C30789D
:101E20002E2816D116F8010F44F004042A280DD0EC
:101E30006FF02F023078A0F13003092B09D807EB9F
:101E4000870302EB4303C718761CF3E758F8047BBB
:101E5000761C30786C280FD006DC4C2817D0682808
:101E60000DD06A2814D104E0742810D07A280FD13C
:101E70000DE044F400140AE044F4801401E044F45A
:101E800040147278824202D104F58014761C761CCC
:101E9000307866280BD013DC582877D009DC00286E
:101EA00075D04528F6D04628F4D047281AD193E1BA
:101EB00018E0632835D0642879D0652812D18BE1E9
:101EC000702873D008DC6728F1D069286FD06E289D
:101ED0000DD06F2806D1ACE073282CD0752874D0B3
:101EE000782853D05246179990476D1C54E1C4F39B
:101EF0000250022809D003280DD0D8F80010042879
:101F00000DD00D6008F1040846E1D8F80010EA177A
:101F1000C1E90052F6E7D8F800100D80F2E70D7025
:101F2000F0E718F8041B8DF8001000208DF8010070
:101F3000EB46012003E058F804BB4FF0FF30610787
:101F40004FF0000102D40DE009F101018946B942C8
:101F50000FDA8145F8DB1BF809100029F4D108E0FD
:101F600009F1010189468142FADB1BF809100029B9
:101F7000F6D103985346A0EB090721463846179A35
:101F800000F080FA284400EB090507E044E008E18E
:101F90000DE01BF8010B524617999047B9F1010962
:101FA000F7D2534621463846179AF2E039E00A2123
:101FB000C4F302524FF0000B0091022A06D058F8E9
:101FC000040BC117032A09D00AE023E008F1070037
:101FD00020F00702F2E80201904605E000B2C117C6
:101FE000042A01D140B2C117002906DA0A460021AD
:101FF000404261EB02012D2202E0220504D52B2292
:102000008DF80420012203E0E20701D02022F7E747
:10201000914657E00A2100E010214FF0000B00919B
:102020000BE010214FF0000B44F00404082700914E
:1020300003E008204FF0000B0090C4F30252022A84
:1020400005D058F8040B0021032A08D008E008F155
:10205000070020F00702F2E80201904603E080B298
:10206000042A00D1C0B24FF0000922072AD53278E5
:10207000702A07D0DDF800C08CF0100C5CEA0B0C65
:1020800005D00EE040228DF80420012208E050EA3D
:10209000010306D030238DF804308DF8052002228C
:1020A0009146009B83F0080353EA0B030AD150EAE0
:1020B000010201D1620705D530228DF804204FF0CE
:1020C00001097F1E3278582A04D039A20C920CAA3A
:1020D00002920BE03BA2F9E75B46009AFEF766FA34
:1020E0000C9B9B5C029A521E0292137050EA0102F2
:1020F000F2D1029804A9081A00F1200B600702D55A
:1021000024F4803400E001275F4502DDA7EB0B00DB
:1021100000E0002000EB0B01009003984944401AB6
:102120000390E00306D453462146179A039800F023
:10213000A9F90544002706E001A85246C05D179999
:1021400090476D1C7F1C4F45F6DBE0030CD55346D2
:102150002146179A039800F095F9054404E03020D1
:102160005246179990476D1C0099481E009000290F
:10217000F5DC08E00298029952460078491C029169
:10218000179990476D1CBBF10001ABF1010BF1DC1D
:102190005BE100F065F90544761C307800287FF497
:1021A0000DAE19B02846BDE8F08F000009280100E7
:1021B00030313233343536373839616263646566BD
:1021C000000000003031323334353637383941427F
:1021D0004344454600000000600700D4062708F18C
:1021E000070020F00700F0E80223804603F0004CCF
:1021F0005FEA0C0001D097A009E0200501D596A068
:1022000005E0E00701D095A001E0AFF24C0013908B
:10221000307823F0004365280CD006DC452809D02F
:1022200046281DD047287FD13BE0662818D0672874
:102230007AD136E00021112F01DB112000E0781C5B
:10224000CDE9000104A90CA8FFF7EEFCDDE90D01C2
:102250000C9A4FF0000B07F10109109200914EE02B
:102260004FF000400097CDE9011004A90CA8FFF73A
:10227000DBFCDDE90D020C9B0F994FF0000B914642
:102280001093009211B9791C00EB0109B7EB09001A
:1022900003D4C0F1FF3B07F10109A9EB070001904E
:1022A00042E0012F00DA01270021112F01DD11206A
:1022B00000E03846CDE9000104A90CA8FFF7B4FC02
:1022C000DDE90D010C9A00914FF0000BB946109218
:1022D00021070FD4009A4A4503DA914601E0A9F19B
:1022E0000109B9F1010F05DD109AA9F10101515C55
:1022F0003029F4D0B84202DA10F1040F03DA0121D8
:10230000CDE9011010E0002803DC8344A9EB0001B3
:1023100002E0411C494500DD8946A0EB0B00401C52
:1023200001904FF000400290200705D401984845E5
:1023300002DB4FF0FF30019000208DF84B00029837
:102340000DF14B07B0F1004F25D002200C902B204F
:102350000D90029800280CDA404202902D200D903A
:1023600007E00A210298FEF70BF93031029007F8D6
:10237000011D0C99481E0C900029F2DC02980028DF
:10238000EFD1791E0D980870307800F0200040F0F1
:10239000450007F8020D11A8C01BC01D029013983C
:1023A000007800B1012000EB0901019801EBE07118
:1023B000029801440398401A401E0390E00306D49B
:1023C00053462146179A039800F05CF80544139889
:1023D000007818B15246179990476D1CE00323D539
:1023E00053462146179A039800F04CF805441BE029
:1023F000BBF1000F07DB0098584504DD10981799D2
:1024000010F80B0001E017993020524690470198D0
:102410000BF1010B401E05F10105019004D12E20A6
:102420005246179990476D1CB9F10001A9F10109B5
:10243000DEDC05E017F8010B5246179990476D1C3A
:102440000299481E02900029F4DC53462146179A4F
:1024500003989EE62D0000002B00000020000000E5
:102460002DE9F041044600251E461746880404D491
:1024700005E039462020B0476D1C641EF9D528467A
:10248000BDE8F0812DE9F041044600251E46904646
:10249000C80301D5302700E02027880404D505E0D3
:1024A00041463846B0476D1C641EF9D52846BDE844
:1024B000F0810A68531C0B601070704700EB4001FC
:1024C000880000BF011EA0F10100FBD17047A821C8
:1024D00041434FF0E02251610021916105211161DA
:1024E00000BF4FF0E021096901F480310029F8D0E4
:1024F00004214FF0E0221161704700002DED108B98
:1025000082B0A020FE49086001210420FEF7F2FD00
:102510004FF44050009001208DF8040000208DF809
:10252000060003208DF8050001208DF8070069469C
:10253000F448FEF762FC002005E0F1490988F24A00
:1025400022F81010401CC828F7DBFEF78DFAFEF7C2
:10255000A5FF0121ED48FEF7BFFFFEF7ABFDFEF73B
:102560005FFEEBA0FEF7BCFE0020FEF757FDFEF776
:102570004FF9EB480068EB4A00FB02F11020FEF730
:102580009DF91021E8480068FFF788F984B22146D8
:102590001020FEF785F900211020FEF79DF9E34891
:1025A0000068012816D1E2480068DE4A00FB02F10B
:1025B0002020FEF783F92021DE480068FFF76EF93E
:1025C00084B221462020FEF76BF900212020FEF77F
:1025D00083F912E0D548006878B9D5480068D14A37
:1025E00000FB02F12020FEF769F900212020FEF710
:1025F00057F900212020FEF76FF90020CE4908602E
:10260000CE490860C6480068C64A00FB02F1802037
:10261000FEF754F9C4480068FFF736FA84B2214641
:102620008020FEF73DF9C4480068FEF7C9F984B27E
:1026300021468020FEF750F9BC48006801281BD1D4
:10264000BB480068B74A00FB02F14020FEF736F9AC
:102650004021B8480068FFF721F984B221464020A4
:10266000FEF71EF9B4480068FEF7AAF984B22146C5
:102670004020FEF731F917E0AC480068A0B9AC483B
:102680000068A84A00FB02F14020FEF717F900217C
:102690004020FEF705F9A8480068FEF791F984B2DA
:1026A00021464020FEF718F9FEF716FC322000F014
:1026B0002BFD0120A149086080E29C4800680028A9
:1026C0007ED19E49091D08609D49C1F8B0029D4810
:1026D000006800284AD0924800689A49096808446E
:1026E0008F490860084600681E2802DA1E2008602C
:1026F00006E08B480068282802DD28208849086009
:1027000087480068874A00FB02F11020FEF7D6F8E0
:10271000102185480068FFF7C1F884B221461020D7
:10272000FEF7BEF800211020FEF7D6F87C480068BE
:102730007C4A00FB02F18020FEF7C0F880217A4835
:102740000068FFF7ABF884B221468020FEF7A8F8B6
:1027500079480068FEF734F984B221468020FEF7FC
:10276000BBF8FEF7B9FB00207649086076480068A0
:1027700038B36D4800687449096808446A490860BC
:1027800067480068674A00FB02F11020FEF796F8E0
:102790006548008881B21020FEF782F800211020E1
:1027A000FEF79AF86048016868A0FEF799FD5C485A
:1027B00000685C4A00FB02F18020FEF77FF801E030
:1027C000FDE113E05848008881B28020FEF768F8E8
:1027D00059480068FEF7F4F884B221468020FEF7DD
:1027E0007BF8FEF779FB0020574908605A480068DB
:1027F000002866D04F4800685749096808444D4989
:1028000008600846016855A0FEF76AFD4748006861
:10281000012829D146480068424A00FB02F12020E5
:10282000FEF74CF84348008881B22020FEF738F8C4
:1028300000212020FEF750F83D480068394A00FB8F
:1028400002F14020FEF73AF83A48008881B2402071
:10285000FEF726F838480068FEF7B2F884B2214641
:102860004020FEF739F827E03048006820BB3048A8
:1028700000682C4A00FB02F12020FEF71FF800211F
:102880002020FEF70DF800212020FEF725F828482B
:102890000068244A00FB02F14020FEF70FF80021F7
:1028A0004020FDF7FDFF24480068FEF789F884B258
:1028B00021464020FEF710F8002027490860FEF767
:1028C0000BFB2A48006800287DD015480068FDF7FA
:1028D00001FE41EC1F0B9FED260B53EC102BFDF777
:1028E00018FD41EC1E0B53EC1E2B9FED230B51ECFE
:1028F000100BFDF780FD41EC1C0B1C4800683FE00D
:10290000A00300200008024038000020000800401A
:10291000496E69742046696E697368210D0A00006A
:102920008803002040420F00900300208403002011
:102930008C0300209403002098030020B002414241
:10294000000041426C03002070030020416D703A8A
:1029500025640D0A00000000740300206F757441A7
:102960006D416D703A25640D0A0000007803002067
:10297000000000000000F03F0000000000408F4019
:10298000FDF7A8FD41EC1E0B9FEDFE0B53EC102B49
:10299000FDF7BFFC41EC1D0B53EC1C2BFDF72BFD91
:1029A00041EC1B0B9FEDF90B53EC102BFDF7B1FC29
:1029B00041EC190BF7480068FDF78CFD41EC1A0B50
:1029C00053EC192B00E074E0FDF7FCFB41EC180B15
:1029D000FDF79EFDEF49086008460068002805DA0B
:1029E0000846006800F5B47008600AE0E94800682D
:1029F000B0F5B47F05DDE7480068A0F5B470E5499F
:102A00000860E5480068E54A00FB02F18020FDF718
:102A100055FF8021E2480068FEF740FF84B221465E
:102A20008020FDF73DFFDB480068FDF7C9FF84B259
:102A300021468020FDF750FFDA48006801281BD1AD
:102A4000D9480068D54A00FB02F14020FDF736FF67
:102A50004021D6480068FEF721FF84B2214640207D
:102A6000FDF71EFFCB480068FDF7AAFF84B22146A0
:102A70004020FDF731FF17E0CA480068A0B9CA48F6
:102A80000068C64A00FB02F14020FDF717FF002155
:102A90004020FDF705FFBF480068FDF791FF84B2B5
:102AA00021464020FDF718FFFEF716FA0020C04926
:102AB0000860C048006800285BD0B6480068BD497F
:102AC0000968401AB349086008460068002805DA1A
:102AD0000846006800F5B47008600AE0AD48006878
:102AE000B0F5B47F05DDAB480068A0F5B470A94926
:102AF0000860A8480168B0A0FEF7F2FBA64800688D
:102B0000A64A00FB02F18020FDF7D8FE8021A448F0
:102B10000068FEF7C3FE84B221468020FDF7C0FEA8
:102B20009C480068FDF74CFF84B221468020FDF7E9
:102B3000D3FE9D480068994A00FB02F14020FDF752
:102B4000BDFE402199480068FEF7A8FE84B22146E8
:102B50004020FDF7A5FE8F480068FDF731FF84B2E5
:102B600021464020FDF7B8FEFEF7B6F90020914956
:102B7000086094480068002820D092480068924974
:102B8000096801EB40009049086008460068002889
:102B900002DC0020086006E08B480068142802DB95
:102BA00014208949086088480068FEF7F7F8C4B225
:102BB0002046FEF733FA0020824908607DE279481A
:102BC00000680128FAD1814908608149C1F8B00242
:102BD00080480068F0B3704800687E49096808447E
:102BE0006D490860084600681E2802DA1E20086049
:102BF00006E069480068282802DD28206649086048
:102C000065480068654A00FB02F11020FDF756FE9A
:102C1000102163480068FEF741FE84B2214610206F
:102C2000FDF73EFE00211020FDF756FE5A480068D1
:102C30005A4A00FB02F18020FDF740FE80215848EF
:102C40000068FEF72BFE84B221468020FDF728FEA7
:102C5000504800E00CE00068FDF7B2FE84B2214667
:102C60008020FDF739FEFEF737F90020594908604A
:102C700059480068E8B35848006800EB80004849AC
:102C8000096801EB400046490860084600680A28C8
:102C900002DA0A20086006E041480068642802DD84
:102CA00064203F4908603C4800683C4A00FB02F150
:102CB0001020FDF703FE3A480068FEF713FF84B2C8
:102CC00021461020FDF7ECFD00211020FDF704FE49
:102CD00033480168AFF28C30FEF702FB2E480068E3
:102CE0002E4A00FB02F18020FDF7E8FD2C48006829
:102CF00000E014E0FEF7C8FE84B221468020FDF714
:102D0000CFFD24480068FDF75BFE84B22146802099
:102D1000FDF7E2FDFEF7E0F800202F4908602F489C
:102D2000006800287ED0214800682C4909680844C2
:102D30001E49086008460168AFF2E030FEF7D0FA9D
:102D400018480068012858D117480068134A00FB4A
:102D500002F12020FDF7B2FD1448008881B2202046
:102D6000FDF79EFD00212020FDF7B6FD0E4800680E
:102D70000A4A00FB02F14020FDF7A0FD0B48008845
:102D800081B22DE00000000000003E400000000085
:102D900000807640980300208803002040420F0006
:102DA00090030020840300208C0300209403002063
:102DB000780300207C0300205068613A25640D0AE6
:102DC00000000000800300209C030020B402414268
:102DD000000041426C0300207003002074030020B7
:102DE0004020FDF75DFDB6480068FDF7E9FD84B2BF
:102DF00021464020FDF770FD29E0B248006830BB55
:102E0000B1480068B14A00FB02F12020FDF756FDF1
:102E100000212020FDF744FD00212020FDF75CFD6E
:102E2000A94800E018E00068A84A00FB02F1402031
:102E3000FDF744FD00214020FDF732FDA048006869
:102E4000FDF7BEFD84B221464020FDF745FD002080
:102E50009F490860FEF740F89E48006800287DD032
:102E60009D480068FDF736FB41EC1F0B9FED9B0B67
:102E700053EC102BFDF74DFA41EC1E0B53EC1E2BBF
:102E80009FED980B51EC100BFDF7B5FA41EC1C0BC4
:102E900090480068FDF71EFB41EC1E0B1FED470B31
:102EA00053EC102BFDF735FA41EC1D0B53EC1C2BAA
:102EB000FDF7A1FA41EC1B0B1FED4C0B53EC102B53
:102EC000FDF727FA41EC190B7D480068FDF702FB7E
:102ED00041EC1A0B53EC192BFDF774F941EC180B6C
:102EE000FDF716FB7649086008460068002805DAF9
:102EF0000846006800F5B47008600AE07048006891
:102F0000B0F5B47F05DD6E480068A0F5B4706C497B
:102F10000860714800686D4A00FB02F18020FDF7EF
:102F2000CDFC802171480068FEF7B8FC84B22146D0
:102F30008020FDF7B5FC62480068FDF741FD84B2D2
:102F400021468020FDF7C8FC5E48006801281DD19D
:102F50005D4800685D4A00FB02F100E033E040207C
:102F6000FDF7ACFC402162480068FEF797FC84B294
:102F700021464020FDF794FC51480068FDF720FDF4
:102F800084B221464020FDF7A7FC17E04D480068B9
:102F9000A0B94D4800684D4A00FB02F14020FDF702
:102FA0008DFC00214020FDF77BFC45480068FDF7C3
:102FB00007FD84B221464020FDF78EFCFDF78CFF13
:102FC0000020444908604B480068E8B33C4800686A
:102FD00048490968052202FB010039490860084692
:102FE0000068002805DA0846006800F5B47008603B
:102FF0000AE033480068B0F5B47F05DD304800686A
:10300000A0F5B4702E4908602D480168AFF2582031
:10301000FEF766F9304800682C4A00FB02F1802078
:10302000FDF74CFC802131480068FEF737FC84B284
:1030300021468020FDF734FC21480068FDF7C0FCE4
:1030400084B22146802000E021E0FDF745FC1E48C7
:1030500000681E4A00FB02F14020FDF72FFC4021D2
:1030600023480068FEF71AFC84B221464020FDF791
:1030700017FC13480068FDF7A3FC84B221464020EA
:10308000FDF72AFCFDF728FF00201A4908601A48BE
:10309000006890B119480068174909680844174941
:1030A00008600846016816A0FEF71AF91349087867
:1030B000FDF7B4FF002010490860FFF7FEBA0000DA
:1030C00098030020840300208C03002040420F005E
:1030D0007403002078030020880300200000000013
:1030E0000000F03F0000000000408F4090030020EF
:1030F000940300207C030020800300209C03002018
:1031000044423A256400000000B5322802DC00F099
:1031100089F815E0502802DC00F08AF810E06E28EB
:1031200002DC00F00EF80BE08C2802DC00F01CF84A
:1031300006E0AA2802DC00F030F801E000F04CF8CC
:1031400000BD00BF00BF00BF00BF00BF00BF00BF89
:1031500000BF00BF00BF00BF00BF00BF00BF00BF77
:1031600000BF00BF00BF704700BF00BF00BF00BF6F
:1031700000BF00BF00BF00BF00BF00BF00BF00BF57
:1031800000BF00BF00BF00BF00BF00BF00BF00BF47
:1031900000BF00BF00BF00BF704700BF00BF00BF3F
:1031A00000BF00BF00BF00BF00BF00BF00BF00BF27
:1031B00000BF00BF00BF00BF00BF00BF00BF00BF17
:1031C00000BF00BF00BF00BF00BF00BF00BF00BF07
:1031D00000BF00BF00BF704700BF00BF00BF00BFFF
:1031E00000BF00BF00BF00BF00BF00BF00BF00BFE7
:1031F00000BF00BF00BF00BF00BF00BF00BF00BFD7
:1032000000BF00BF00BF00BF00BF00BF00BF00BFC6
:1032100000BF00BF00BF00BF00BF00BF00BF00BFB6
:1032200000BF704700BF00BF00BF00BF00BF7047B6
:1032300000BF00BF00BF00BF00BF00BF00BF00BF96
:1032400000BF00BF00BF00BF704700006C32000825
:1032500000000020A4030000B0070008A833000805
:10326000A403002004600000181C000812000120C4
:103270000501020304041006060708090110120ADA
:10328000041264042019E803000010270000A0863F
:10329000010040420F008096980000E1F5053410CF
:1032A000325E08BC0819097509D009280A7F0AD3BB
:1032B0000A240B720BBC0B030C450C840CBE0CF2E5
:1032C0000C220D4D0D730D930DAD0DC10DD00DD90B
:1032D0000DDC0412D00C12AD1412731C1004220D5C
:1032E000F2281284301004030CBC3C1004240BD3CD
:1032F000481004280AD054103A1909BC085E080086
:1033000008A2074407E7068B063006D80581052D7D
:1033100005DC048E044404FD03BB037C0342030E5E
:1033200003DE02B3028D026D0253023F0230022718
:1033300002240412300C125314128D1C1004DE02ED
:103340000E28127C301004FD03443C1004DC042DD4
:10335000481004D80530540009C6E7064407A20700
:103360000008C80015FFBE0CD00930064203240235
:1033700042033006D009BE0CDC0D1405790443D09D
:103380000001000D1A95D626E80B2E2140000302FD
:1033900000011E23780321221E325C03923C180098
:0833A00005006F0200000000AF
:04000005080001A14D
:00000001FF
