:020000040800F2
:10000000F8930020A1010008451000088D0F00089A
:10001000411000085D0A0008C31A00080000000033
:10002000000000000000000000000000D5120008E1
:10003000B10E000800000000A9110008FD1400081E
:10004000BB010008BB010008BB010008BB010008A0
:10005000BB010008BB010008BB010008BB01000890
:10006000BB010008BB010008BB010008BB01000880
:10007000BB010008BB010008BB010008BB01000870
:10008000C10C0008E90C0008BB010008BB01000816
:10009000BB010008BB010008BB010008BB01000850
:1000A000BB010008BB010008BB010008BB01000840
:1000B000BB010008BB010008BB010008BB01000830
:1000C000BB010008BB010008BB010008BB01000820
:1000D000BB010008BB01000861160008BB01000855
:1000E000BB010008BB010008BB010008BB01000800
:1000F000BB010008BB010008BB010008BB010008F0
:10010000BB010008BB010008BB010008BB010008DF
:10011000BB010008BB010008BB010008BB010008CF
:10012000BB010008BB010008BB010008BB010008BF
:10013000BB010008BB010008BB010008BB010008AF
:10014000BB010008BB010008BB010008BB0100089F
:10015000BB010008BB010008BB010008BB0100088F
:10016000BB010008BB010008BB010008BB0100087F
:10017000BB010008BB010008BB010008BB0100086F
:10018000BB010008BB010008DFF810D000F0FEFA48
:1001900000480047B1270008AFF30080F893002023
:1001A0000648804706480047FEE7FEE7FEE7FEE711
:1001B000FEE7FEE7FEE7FEE7FEE7FEE701150008C3
:1001C000890100082DE9FE4F804681EA0300C00F37
:1001D0000C46009021F0004123F00045B8EB0200EE
:1001E000A94105D24046214690461C460B46024690
:1001F00023F00040104347D0270DC7F30A00C3F394
:100200000A510290401A019040286BDAC3F31300A0
:1002100040F4801B0098924620B10023D2EB030AE1
:1002200063EB0B0B01985946C0F14002504600F0B9
:10023000EEF906460D4650465946019A00F006FA78
:1002400010EB08006141002487EA115284EAE77349
:100250001A4340D0009A62B3019A012A4FEA07522A
:1002600015DC001B61EB02014FF0004202EA07526D
:10027000CDE90042001C41F5801132462B4600F0CA
:1002800006FA03B0BDE8F08F40462146F9E7001BAF
:1002900061EB0201001C41F5801300185B4120183E
:1002A000A2F5001747EB030140EAD570B6196D417E
:1002B00011E06D084FEA360645EAC0754FEA07526D
:1002C000001B61EB0201001C41F5801149084FEA57
:1002D00030000019514132462B4603B0BDE8F04FC3
:1002E00000F0C6B90098012240000023D0EB0202C2
:1002F00063EBE073009821464FEAE074B8EB00002E
:1003000061EB0401E9E783F000435BE781F0004122
:1003100058E72DE9FE4F81EA030404F0004421F080
:10032000004100944FF0000B23F0004350EA010419
:100330005ED052EA03045BD0C3F30A54C1F30A55FA
:100340002C44A4F2F3340194A0FB0254C1F3130132
:1003500041F48011C3F3130343F4801301FB0244FF
:1003600000FB034E840A970A44EA815447EA835704
:10037000A4FB076802958D0A05FB07854FEA932CBD
:1003800004FB0C542705029D4FEA065847EA16372E
:10039000B5EB08056EEB070C870E920E47EA811746
:1003A00042EA8312A7FB0201B6EB0B0164EB0004E7
:1003B0002B0D43EA0C335E1844EB1C50DA465146D1
:1003C000E7FB0201C5F313044FEA0B3343EA14536E
:1003D0004FEA0432019C43EA0603A4F10C040294A0
:1003E000009CCDE900B400F052F903B0BDE8F08FF5
:1003F00000200146F9E72DE9F04D81EA030404F0FD
:10040000004B21F0004514464FF0000A23F0004154
:1004100050EA050220D054EA01021DD0C5F30A5764
:100420000246C5F31303C1F31300C1F30A5640F4A7
:10043000801543F48013A7EB0608101BD64608F27C
:10044000FD3873EB050002D308F1010801E09218B2
:100450005B41B8F1000F03DA00200146BDE8F08DE2
:1004600000204FF48011064684460EE0171B73EB04
:10047000050705D3121B63EB050306434CEA010C89
:1004800049084FEA300092185B4150EA0107EDD16C
:1004900052EA030012D082EA040083EA050108430D
:1004A00005D0101BAB4106D20122002306E000223A
:1004B0004FF0004302E06FF0010253101AEB060008
:1004C0004CEB085110EB0A0041EB0B01BDE8F04D7D
:1004D00000F0CEB80EB5C10F80EAE0700844CA073C
:1004E000002140F233438DE80E000A460B4600F02F
:1004F000CEF803B000BD0EB540F2334102910021A9
:10050000CDE900110A460B4600F0C1F803B000BD6A
:1005100070B5C1F30A5201F000450024C1F3130184
:1005200040F2FF3341F480119A4201DA002070BD9D
:1005300040F233439A42A2F2334203DC524200F0CB
:1005400075F800E090402C43F1D0404270BDC1F3FB
:100550000A5210B5C1F3130140F2FF3341F4801188
:100560009A4201DA002010BD40F233439A42A2F2CF
:10057000334203DC524200F059F810BD904010BDE8
:1005800030B50B46014600202022012409E021FA63
:1005900002F59D4205D303FA02F5491B04FA02F560
:1005A0002844151EA2F10102F1DC30BD2DE9F05FF7
:1005B0000546002092469B468846064681464024D2
:1005C0001BE0284641464746224600F02FF8534696
:1005D0005A46C01A914110D311461846224600F0DF
:1005E00016F82D1A67EB01084F462246012000211C
:1005F00000F00DF817EB00094E41201EA4F1010494
:10060000DFDC484631462A464346BDE8F09F202AB3
:1006100004DB203A00FA02F1002070479140C2F159
:10062000200320FA03F3194390407047202A04DB8B
:10063000203A21FA02F00021704721FA02F3D0405B
:10064000C2F120029140084319467047202A06DB78
:10065000CB17203A41FA02F043EAE07306E041FA90
:1006600002F3D040C2F1200291400843194670477E
:1006700010B5141E73F1000408DA401C41F10001AA
:1006800092185B411A4301D120F0010010BD2DE901
:10069000F04D92469B4611B1B1FA81F202E0B0FAF8
:1006A00080F220329046FFF7B2FF04460F4640EA40
:1006B0000A0041EA0B0153465A46084313D011463B
:1006C00053EA010019D0C8F140025046FFF7AEFFCF
:1006D00005460E46504659464246FFF798FF0843E6
:1006E00005D0012004E020463946BDE8F08D002009
:1006F000054346EAE0762C4337430A986305E40A4B
:10070000A0EB08000022FD0A44EA47540A3002D553
:1007100000200146E9E7010510196941DDE90845B6
:1007200000196941BDE8F04DA2E7C1F30A52C1F3D7
:10073000130140F2FF3341F480119A4202DA0020A3
:100740000146704740F233439A42A2F2334202DC40
:100750005242FFF76BBFFFF75ABF000030B5041ECF
:1007600071F1000404DB4FF00044404264EB0101EE
:10077000141E73F1000405DB1C464FF00043524287
:1007800063EB0403994208BF904230BD064C074D0D
:1007900006E0E06840F0010394E807009847103451
:1007A000AC42F6D3FFF7F4FCA0400008C0400008BC
:1007B00070B58C1810F8015B15F0070301D110F823
:1007C000013B2A1106D110F8012B03E010F8016B50
:1007D00001F8016B5B1EF9D12B0705D40023521ED3
:1007E0000DD401F8013BFAE710F8013BCB1A921C3B
:1007F00003E013F8015B01F8015B521EF9D5A14239
:10080000D8D3002070BD00001CB50121082000F0E5
:10081000CDFC0121202000F0C9FC0121402000F086
:10082000C5FC4CF2FB00009001208DF80400002074
:100830008DF8060003208DF8050001208DF80700D3
:100840006946104800F035FB40F2012000906946EF
:100850000D4800F02EFB4FF4C060009069460B4835
:1008600000F027FB00F0C0FB00F0A8FB084A0321C2
:10087000012000F03BF8074A0221084600F036F854
:100880001CBD0000000C0240001402400018024091
:10089000580300205B03002038B505460C460020B5
:1008A000009000956A46012100F020F8204601F0F2
:1008B0009DFA38BD38B505460C46002000900095DD
:1008C0006A46012100F012F8204601F0A3FA38BD73
:1008D00038B505460C460020009000956A46012177
:1008E00000F004F8204601F0C7FA38BDF0B5034621
:1008F0000C4600250026002100201D460027DFF8B9
:10090000B4C0CCF88072CCF8847200BF1AE0002723
:10091000DFF8A0C0CCF8807205F08007802F03D1EB
:100920000127CCF88C7204E00027DFF888C0CCF8EF
:100930008C720127DFF87CC0CCF880726F063D0E08
:10094000471CF8B20828E2DB0027DFF868C0CCF8C3
:100950008072002126E0565C00201AE00027DFF8B4
:1009600054C0CCF8807206F08007802F03D1012795
:10097000CCF88C7204E00027DFF838C0CCF88C7219
:100980000127DFF830C0CCF8807277063E0E471C96
:10099000F8B20828E2DB0027DFF818C0CCF8807234
:1009A0004F1CF9B2A142D6DB0127DFF808C0CCF812
:1009B0008472F0BD0080414210B52DED068B0446D7
:1009C00024B943F6AF70BDEC068B10BD1E2C02D1CE
:1009D00043F6D210F7E73C2C02D143F27C40F2E719
:1009E0005A2C02D142F62770EDE7782C02D142F65C
:1009F000D210E8E7962C02D142F24F40E3E7B42C44
:100A000002D141F6F960DEE7C4F5B471C81EFFF704
:100A100061FD41EC1A0B9FED0D0B53EC102BFFF712
:100A200078FC41EC190B9FED0B0B53EC102BFFF7EF
:100A3000E2FC41EC180BFFF76BFD503843F6FF71F9
:100A400090FBF1F201FB1200BDE700000000000086
:100A50000000D040000000000080764000BFFEE7AC
:100A600000B597B00121084600F0A0FB012148071E
:100A700000F0ACFB0121480500F098FB1020159018
:100A800003208DF8580000208DF85B0015A92E4832
:100A900000F00FFA00201390022014902C201190E7
:100AA0000020129011A900F081F80021084600F002
:100AB00097F84FF0606002904FF480700B904020E8
:100AC0000590C82006904FF480300C9000200D90C7
:100AD00001200E901D48049000200F904FF400500C
:100AE0000A90C01008901A480390002010904FF40C
:100AF000006009900020079002A9164800F07EF9D6
:100B00000121144800F01EF90121002000F038F8FE
:100B10000121002000F020F84FF4C06000F0D0FA6E
:100B200010208DF8040001208DF805008DF80600D6
:100B30008DF8070001A800F087FA0122102105486E
:100B400000F03EF917B000BD000002403800002060
:100B5000087400408860024039B1084A12680123D5
:100B600083401A43054B1A6006E0044A12680123C9
:100B700083409A43014B1A607047000000740040A4
:100B800041B1094A12684FF4805383401A43064B1F
:100B90001A6007E0044A12684FF4805383409A4376
:100BA000014B1A60704700000074004030B500220D
:100BB00000230A4C226840F6FE748440A243D1E927
:100BC00000452C438D682C43CD6844EA050303FAA5
:100BD00000F42243014C226030BD0000007400404C
:100BE00008B500220092054A009200F10802009B1D
:100BF0001A440092009A116008BD00000074004081
:100C000015282DD2DFE800F00B2C0E2C112C142C03
:100C1000172C1A2C1D2C202C232C262C29009FED60
:100C2000120B70479FED120BFBE79FED130BF8E7DC
:100C30009FED130BF5E79FED140BF2E79FED140BFF
:100C4000EFE79FED150BECE79FED150BE9E79FED47
:100C5000160BE6E79FED160BE3E79FED170BE0E7BA
:100C60009FED010BDDE70000000000000000F03FF9
:100C7000BE9F1A2FDD24F43F5C8FC2F5285CF93F3C
:100C8000EC51B81E85EBFF3F7F6ABC74931804409B
:100C9000B29DEFA7C64B09400C022B8716D90F4017
:100CA0003F355EBA490C14403D0AD7A3703D194048
:100CB0001283C0CAA1C51F400000000000002440EC
:100CC00010B50649064800F049F830B10349044818
:100CD00000F01EF801200349087010BD00880020B4
:100CE000886002403600002010B50649064800F032
:100CF00035F830B10349044800F00AF801200349EF
:100D0000087010BD00802020A06002403700002045
:100D10000246094B9A4201D2084801E006481038C1
:100D200001F000531BB1064B0B40C36002E0044BC3
:100D30000B40836070470000106402400060024076
:100D40007D0F7D0F21B1026842F00102026003E0D5
:100D5000026822F0010202607047000070B502468E
:100D6000002000240025124EB24201D2114B01E0B6
:100D70000F4B103B104E0E4036B11E2606EAD12412
:100D8000166806EA040502E0566906F0800501F0DF
:100D900000560EB15C6800E01C68084E344004EA5E
:100DA000010616B10DB1012000E0002070BD000069
:100DB00010640240006002403C0F3C0F7D0F7D0F2D
:100DC00010B501F080034BB122B1436943F08003B9
:100DD000436103E0436923F08003436180290BD022
:100DE0002AB1036801F01E042343036004E0036892
:100DF00001F01E04A343036010BD000010B50022E3
:100E00000268134B1A40CC680B6823434C69234398
:100E10008C692343CC6923430C6A23434C6A2343E4
:100E20008C6A23434C6B23438C6B23431A4302602D
:100E3000426922F00702D1E90B3423431A4342618D
:100E40000B6943604B6883608B68C36010BD000012
:100E50003F801CF00146022901D10B207047042974
:100E600001D10F20FAE7062901D11320F6E708295E
:100E700001D11720F2E70A2901D11B20EEE70C2946
:100E800001D11F20EAE70E2901D12320E6E710292E
:100E900001D12720E2E7122901D12B20DEE7142916
:100EA00001D12F20DAE709B90820D7E70020D5E7DC
:100EB0007047F0B50A4600210023002400BF3DE042
:100EC000012505FA01F3156805EA03049C4234D1B3
:100ED00005684F000326BE40B543056015794E00F6
:100EE000B5400668354305601579012D02D01579A6
:100EF000022D16D185684F000326BE40B54385609C
:100F000055794E00B54086683543856045680126B1
:100F10008E40B5434560456896798E40B6B23543FC
:100F20004560C5684F000326BE40B543C560D5790E
:100F30004E00B540C6683543C560491C1029BFD373
:100F4000F0BDF0B5002300244D07ED0E02FA05F3C5
:100F5000CE1000F1200555F826504E07F70E0F264B
:100F6000BE40B543CF1000F1200646F82750CE1002
:100F700000F1200555F8265045EA0304CE1000F193
:100F8000200545F82640F0BD8161704700BFFEE7AF
:100F900000B5002007490860022001F0E9FB0120AC
:100FA0000549C1F8A802042001F0E2FB0020014934
:100FB000086000BDA80243420000434200B5002083
:100FC00007490860012001F0D3FB01200549C1F861
:100FD000B8021E2001F0CCFB00200149086000BDD2
:100FE000B88241420080414200201049086001203F
:100FF0000F49C1F8840200200C493C3908600D49B2
:1010000008600A492C390860091D0860091D08603C
:10101000091D08600549303908600749086006491C
:10102000243108600549C1F8A4027047BC824142DE
:1010300000804142A8024342808242420000434273
:1010400000BFFEE77047000070B5002100230F22AB
:10105000C4781CB3174C246804F4E064C4F5E0645D
:10106000C4F30721C1F10404E3B20A4144789C406F
:10107000E1B28478144021430C07210E0E4C057810
:101080006155047804F01F050124AC4005786D110A
:10109000AD0005F1E025C5F8004109E0047804F051
:1010A0001F050124AC40054D0678761145F8264011
:1010B00070BD00000CED00E000E400E080E100E025
:1010C00002490143024A1160704700000000FA051E
:1010D0000CED00E070B5044604F03F040020214907
:1010E00008604FF4FA7001F04CFB01201E49C1F872
:1010F000A4024FF4FA7001F044FB002523E06611CE
:10110000012E04D101201749091D086003E00020C9
:101110001449091D08604FF4FA7001F032FB0120F8
:10112000104908604FF4FA7001F02BFB3F2000EAF1
:10113000440400200C49C1F8A8024FF4FA7001F0F1
:1011400020FB681CC5B2062DD9DB00200549091F0C
:1011500008604FF4FA7001F014FB00200249C1F856
:10116000AC0270BDA8024142000041421CB5012101
:10117000042000F01BF84FF46060009001208DF80F
:10118000040000208DF8060002208DF80500694655
:101190000448FFF78EFE4FF460610248FFF7F4FE4B
:1011A0001CBD0000000802407047000029B1064A3B
:1011B00012680243044B1A6004E0034A1268824337
:1011C000014B1A60704700003038024029B1064ACE
:1011D00012680243044B1A6004E0034A1268824317
:1011E000014B1A607047000040380240F0B5002102
:1011F00000220024022500260223324F3F6807F018
:101200000C0121B1042905D0082937D105E02E4F62
:10121000076036E02D4F076033E02A4F3F1F3F68DD
:10122000C7F38056274F3F1F3F6807F03F036EB15B
:10123000264FB7FBF3F7DFF88CC0ACF1040CDCF8F9
:1012400000C0CCF3881C07FB0CF40CE01E4FB7FB6E
:10125000F3F7DFF870C0ACF1040CDCF800C0CCF39D
:10126000881C07FB0CF4174F3F1F3F68C7F301476B
:101270007F1C7D00B4FBF5F7076002E0124F0760AA
:1012800000BF00BF0F4F3F6807F0F0010909104F82
:101290007A5C0768D74047600A4F3F6807F4E0511F
:1012A000890A0B4F7A5C4768D7408760054F3F68D3
:1012B00007F46041490B064F7A5C4768D740C76026
:1012C000F0BD0000083802400024F40040787D01A1
:1012D00000000020704710B5FF2000F079F8FF20D3
:1012E00000F076F8FF2000F073F810BD00B587B06D
:1012F00001210846FFF75AFF072202212948FFF77C
:1013000020FE072203212748FFF71BFE02208DF84D
:10131000180000208DF81A000420059001208DF897
:101320001B0002208DF8190005A91E48FFF7C1FD1A
:1013300002208DF818000820059005A91948FFF72C
:10134000B8FD01214804FFF741FF4FF4E13001905F
:101350000020ADF810000C20ADF80E000020ADF814
:101360000C00ADF80A00ADF8080001A90E4800F025
:1013700035FB012240F225510B4800F009FB2620E5
:101380008DF8000001208DF803008DF801008DF824
:1013900002006846FFF758FE0121034800F0DFFA1B
:1013A00007B000BD00000240004400400FB400B58B
:1013B0009BB01DA8019002A8019A1C9900F06CFD39
:1013C0000020019002A800F017F81BB05DF814FB94
:1013D00010B504462146064800F06FFB00BF80218F
:1013E000034800F0C8FA034909688842F7D010BDE5
:1013F00000440040B882414270B50446002503E035
:10140000605DFFF7E5FF6D1C605D0028F8D170BDE1
:101410000CB50020019000903448006840F4803002
:101420003249086000BF3148006800F40030009085
:101430000198401C0190009818B90198B0F5A04F90
:10144000F1D12A48006800F4003010B1012000906A
:1014500001E0002000900098012846D12348403048
:10146000006840F080502149403108602048006801
:1014700040F440401E4908601C48083000681B4981
:10148000083108600846006840F4004008600846DB
:10149000006840F4A05008601648091F0860081F43
:1014A000006840F08070091F086000BF0F480068A6
:1014B00000F000700028F9D040F205700E49086075
:1014C0000A480830006820F0030008490831086025
:1014D0000846006840F00200086000BF034808307A
:1014E000006800F00C000828F8D10CBD003802405C
:1014F0000070004019544007003C02407047000053
:1015000010B51548006840F470001349086013488E
:10151000006840F001001149086000200F490831BF
:1015200008600E4800680E4908400C4908600D48E4
:10153000091D0860081F006820F48020091F08604A
:10154000002006490C310860FFF762FF4FF0006091
:1015500001498039086010BD88ED00E00038024084
:10156000FFFFF6FE103000240EB501210420FFF726
:101570002DFE0B4800F022F8532001900920ADF811
:1015800000000020ADF80800ADF80200202104485A
:1015900000F01AF86946024800F020F80EBD00007D
:1015A0000008004021B1028842F00102028004E0FC
:1015B00002884FF6FE731A400280704701894FF689
:1015C000F87211400181704782884FF68F731A407C
:1015D000828082880A43828070470000002202884D
:1015E000184B98420ED0184B98420BD0B0F1804F58
:1015F00008D0164B984205D0154B984202D0154B97
:10160000984204D14FF68F731A404B881A43124BFD
:10161000984207D0114B984204D04FF6FF431A402E
:101620000B891A4302804B68C3620B880385054B04
:10163000984202D0044B984201D18B7A0386012351
:101640008382704700000140000401400004004014
:1016500000080040000C0040001000400014004052
:1016600010B520219F4800F086F9012877D19D48C8
:1016700000F01EFA00B29C49088008460088012844
:1016800002D19A49086027E197480088022803D1CF
:10169000C01E964908601FE193480088032803D1C3
:1016A00001209349086017E18F480088042803D17E
:1016B000401F8F4908600FE18B480088052803D13F
:1016C00001208C49086007E187480088062803D17B
:1016D000C01F88490860FFE083480088072803D1BD
:1016E000012085490860F7E07F480088082804D178
:1016F0004FF0FF3080490860EEE07B480088092801
:1017000003D101207D490860E6E0774800880A2877
:1017100004D14FF0FF3079490860DDE0724800885D
:101720000B2803D1002076490860D5E06E48008878
:101730000C2803D1012072490860CDE06A48008876
:101740000D2803D101206F490860C5E06648008874
:101750000E2805D14FF0FF306A490860BCE0C0E0B8
:101760006148B0F900000F380E2818D2DFE800F009
:101770000718293A4B5C6D7E8F93989CA1AA9FED28
:10178000620B53EC102B624890ED000B51EC100BE8
:10179000FEF718FD5E4A03C201205E4908609AE028
:1017A0009FED590B53EC102B594890ED000B51EC69
:1017B000100BFEF7A8FD564A03C2012055490860E8
:1017C00089E09FED510B53EC102B534890ED000B2B
:1017D00051EC100BFEF7F6FC4F4A03C201204F49B3
:1017E000086078E09FED480B53EC102B4A4890EDD1
:1017F000000B51EC100BFEF786FD474A03C2012097
:101800004649086067E09FED400B53EC102B4448BD
:1018100090ED000B51EC100BFEF7D4FC404A03C2D4
:1018200001204049086056E09FED370B53EC102B28
:101830003B4890ED000B51EC100BFEF764FD384A6D
:1018400003C201203749086045E09FED2F0B53ECA0
:10185000102B354890ED000B51EC100BFEF7B2FC4D
:10186000314A03C201203149086034E09FED260B64
:1018700053EC102B2C4890ED000B51EC100BFEF7A5
:1018800042FD294A03C201202849086023E00120C3
:10189000274908601FE04FF0FF30254908601AE033
:1018A00001202449086016E04FF0FF30214908600C
:1018B00011E001202049086020480068401C1F49B1
:1018C000086000BF01201C4908601C480068401ED9
:1018D0001A49086000BF00BF40F22551014800F0DE
:1018E0002FF810BD00440040340000207003002099
:1018F00074030020780300207C0300208003002074
:1019000088030020840300207B14AE47E17A843FE3
:10191000C0030020AC030020C8030020B003002057
:10192000D0030020B4030020D8030020B803002017
:10193000E0030020E4030020E8030020EC03002083
:1019400010B50022002340F66A14A14200D100BF66
:101950000A1201249440A3B2DC43048010BD21B1DB
:10196000828942F40052828104E082894DF6FF733D
:101970001A408281704702460020B1F5007F00D1F5
:1019800000BF13880B400BB1012000E0002070471E
:10199000F0B50346002400260025002040F66A1713
:1019A000B94200D100BF1846C1F3421401F01F062E
:1019B000012707FA06F5012C01D10C3004E0022CB6
:1019C00001D1103000E014301AB107682F430760CE
:1019D00002E00768AF430760F0BD00002DE9FF4754
:1019E00005460E460024A14600BFA046B08900B1BE
:1019F00000BF2C8A24F44054F08804432C82AC8924
:101A000041F20C608443B0883189084371890843EE
:101A10000443AC81AC8A24F44074B0890443AC82A2
:101A20006846FFF7E3FB2048854202D01F48854205
:101A300002D1DDF80C9001E0DDF80890A88900F4EF
:101A4000004040B109EBC90000EB091031684900C2
:101A5000B0FBF1F707E009EBC90000EB09103168B2
:101A60008900B0FBF1F76420B7FBF0F00401200916
:101A7000642101FB1078A88900F4004040B13220B5
:101A800000EBC800B0FBF1F000F00700044308E0F1
:101A9000322000EB08106421B0FBF1F000F00F00E1
:101AA00004432C81BDE8FF87001001400014014071
:101AB00001468888C0F308007047C1F3080282809D
:101AC000704700BFFEE7000070B52DED048B0446A3
:101AD0000D46102D47D1642C11D12046FEF7FAFC9B
:101AE00041EC190B9FED5F0B53EC102BFEF711FC33
:101AF00041EC180BFEF70CFDBDEC048B70BD5A2CAD
:101B00000FD12046FEF7E6FC41EC190B9FED570B79
:101B100053EC102BFEF7FDFB41EC180BFEF7F8FC25
:101B2000EAE7502C0FD12046FEF7D4FC41EC190B0C
:101B30009FED500B53EC102BFEF7EBFB41EC180B19
:101B4000FEF7E6FCD8E72046FEF7C4FC41EC190B93
:101B50009FED4A0B53EC102BFEF7DBFB41EC180B0F
:101B6000FEF7D6FCC8E7202D22D1B4F5967F0FDA18
:101B70002046FEF7AFFC41EC190B9FED420B53ECF6
:101B8000102BFEF7C6FB41EC180BFEF7C1FCB3E7C8
:101B90002046FEF79FFC41EC190B9FED3C0B53ECEC
:101BA000102BFEF7B6FB41EC180BFEF7B1FCA3E7D8
:101BB000802D21D1642C0FDA2046FEF78BFC41ECFE
:101BC000190B9FED340B53EC102BFEF7A2FB41ECED
:101BD000180BFEF79DFC8FE72046FEF77BFC41ECDF
:101BE000190B9FED2E0B53EC102BFEF792FB41ECE3
:101BF000180BFEF78DFC7FE7402D22D1B4F5967FC0
:101C00000FDA2046FEF766FC41EC190B9FED250B21
:101C100053EC102BFEF77DFB41EC180BFEF778FC24
:101C20006AE72046FEF756FC41EC190B9FED170BB7
:101C300053EC102BFEF76DFB41EC180BFEF768FC24
:101C40005AE72046FEF746FC41EC190B9FED170BB7
:101C500053EC102BFEF75DFB41EC180BFEF758FC24
:101C60004AE70000333333333333FF3FC520B072CC
:101C70006891FF3FC3F5285C8FC2FF3F713D0AD7D3
:101C8000A370FF3F000000000000FE3F14AE47E1DC
:101C90007A14FE3F7B14AE47E17A0040448B6CE738
:101CA000FBA90040D7A3703D0AD7FD3FF4FDD478CF
:101CB000E926014001460A2901D111207047142963
:101CC00001D12120FAE71E2901D13120F6E7282988
:101CD00001D14120F2E7322901D15120EEE73C2920
:101CE00001D16120EAE7462901D17020E6E75029B9
:101CF00001D18020E2E75A2901D19020DEE7642952
:101D000001D1A120DAE74B20D8E701461E2901D1F5
:101D100033207047282901D14B20FAE7322901D11D
:101D20005720F6E73C2901D16520F2E7462901D189
:101D30007320EEE7502901D18420EAE75A2901D126
:101D4000AA20E6E76420E4E701461E2901D19C2091
:101D50007047282901D1C820FAE7322902D14FF46F
:101D60008270F5E73C2902D140F22B10F0E74629BA
:101D700002D140F27B10EBE7502902D14FF4D27030
:101D8000E6E75A2902D140F2D510E1E7AB20DFE7C0
:101D900001460A2901D119207047142901D1402098
:101DA000FAE71E2901D16320F6E7282901D1852011
:101DB000F2E7322901D1A720EEE73C2901D1C82062
:101DC000EAE7462901D1EB20E6E7502902D140F2AB
:101DD0000B10E1E75A2902D14FF49670DCE7642931
:101DE00002D140F25310D7E75F20D5E738B505465A
:101DF00000240020009045F48054200A8DF8010052
:101E0000E0B28DF802006A4603210620FEF76EFD5F
:101E100038BD000030B52DED048B81B005460020A3
:101E200000902846FEF767FB41EC190B114890ED36
:101E3000000B53EC102B51EC190BFEF76AFA41EC36
:101E4000180BFEF784FB0446E0B28DF80300200A6D
:101E50008DF80200200C8DF80100200E8DF8000096
:101E60006A4604210846FEF741FD01B0BDEC048B33
:101E700030BD00006003002018B50446002000902B
:101E8000E0B28DF8010020128DF800006A460221B0
:101E90000520FEF72BFD18BD37B514460846064B46
:101EA0006A46214600F0DCF804466946002000F04E
:101EB0005AFC20463EBD00006727000802E008C823
:101EC000121F08C1002AFAD170477047002001E0B4
:101ED00001C1121F002AFBD1704700002DE9FF5FEE
:101EE00082B00021DDE90430020DDDF840B003438B
:101EF00018D044F61050A2F2FF3242431514119844
:101F000001281FD0A5EB0B00401C5FEA000A4FF030
:101F100000064E4FDFF83891B046504615D5CAF14D
:101F2000000413E0119801244AA3012801D16FEAAB
:101F30000B010298119AC0E90031C0E9024206B0D3
:101F4000BDE8F09FCBF10000DFE704460021404AE6
:101F5000491842EB0450CDE9001012E0E00707D029
:101F600032463B4640464946FEF7D3F9804689460D
:101F700032463B4610461946FEF7CBF906460F4659
:101F80006410002CEAD1DDE90401DDE90023BAF197
:101F9000000F06DAFEF7BDF942464B46FEF7B9F9E7
:101FA00005E0FEF728FA42464B46FEF724FA0446BF
:101FB0000E460022284BFEF7D1FB03D84FF0FF302E
:101FC000014607E00022254B20463146FEF7FAF88D
:101FD000FEF7ABFB102409E0002C0ADB0A220023E9
:101FE000FEF7E4FA039B30321A55641E50EA0102F0
:101FF000F2D1641C039AC4F111031444119A012A0A
:1020000003D0012208430DD10AE0084304D0002088
:102010004FF0110B119072E7A3EB0B056D1E0DE055
:102020005B4504DD4FF0000205F1010504E003DA31
:102030004FF00002A5F10105002AECD00298119999
:10204000C0E90231C0E9004579E700000000144012
:102050000000F03F300000000000F0430000E03FCF
:102060002DE9FF4F95B09A46884606460025EEE1D9
:10207000252877D100242746F94A0121039400E05E
:10208000044316F8013F203B01FA03F01042F7D158
:1020900030782A2811D06FF02F033078A0F1300269
:1020A000092A16D8039A44F0020402EB820203EBD9
:1020B00042021044761C0390EFE758F8042B039279
:1020C000002A03DA504244F40054039044F002041E
:1020D000761C30782E2816D116F8010F44F004042F
:1020E0002A280DD06FF02F023078A0F13003092B91
:1020F00009D807EB870302EB4303C718761CF3E705
:1021000058F8047B761C30786C280FD006DC4C28FD
:1021100017D068280DD06A2814D104E0742810D094
:102120007A280FD10DE044F400140AE044F480143E
:1021300001E044F440147278824202D104F5801424
:10214000761C761C307866280BD013DC582877D0A4
:1021500009DC002875D04528F6D04628F4D0472859
:102160001AD193E118E0632835D0642879D0652826
:1021700012D18BE1702873D008DC6728F1D0692870
:102180006FD06E280DD06F2806D1ACE073282CD00C
:10219000752874D0782853D05246179990476D1CF3
:1021A00054E1C4F30250022809D003280DD0D8F816
:1021B000001004280DD00D6008F1040846E1D8F89D
:1021C0000010EA17C1E90052F6E7D8F800100D80B8
:1021D000F2E70D70F0E718F8041B8DF800100020EE
:1021E0008DF80100EB46012003E058F804BB4FF0E6
:1021F000FF3061074FF0000102D40DE009F1010149
:102200008946B9420FDA8145F8DB1BF8091000292D
:10221000F4D108E009F1010189468142FADB1BF89B
:1022200009100029F6D103985346A0EB090721466F
:102230003846179A00F080FA284400EB090507E0B9
:1022400044E008E10DE01BF8010B52461799904756
:10225000B9F10109F7D2534621463846179AF2E000
:1022600039E00A21C4F302524FF0000B0091022A18
:1022700006D058F8040BC117032A09D00AE023E05E
:1022800008F1070020F00702F2E80201904605E09D
:1022900000B2C117042A01D140B2C117002906DAE1
:1022A0000A460021404261EB02012D2202E0220594
:1022B00004D52B228DF80420012203E0E20701D08F
:1022C0002022F7E7914657E00A2100E010214FF065
:1022D000000B00910BE010214FF0000B44F00404C0
:1022E0000827009103E008204FF0000B0090C4F392
:1022F0000252022A05D058F8040B0021032A08D004
:1023000008E008F1070020F00702F2E80201904619
:1023100003E080B2042A00D1C0B24FF000092207C6
:102320002AD53278702A07D0DDF800C08CF0100C66
:102330005CEA0B0C05D00EE040228DF8042001224F
:1023400008E050EA010306D030238DF804308DF800
:10235000052002229146009B83F0080353EA0B03F9
:102360000AD150EA010201D1620705D530228DF869
:1023700004204FF001097F1E3278582A04D039A278
:102380000C920CAA02920BE03BA2F9E75B46009A82
:10239000FEF70CF90C9B9B5C029A521E0292137082
:1023A00050EA0102F2D1029804A9081A00F1200BA8
:1023B000600702D524F4803400E001275F4502DD88
:1023C000A7EB0B0000E0002000EB0B01009003984E
:1023D0004944401A0390E00306D453462146179A15
:1023E000039800F0A9F90544002706E001A8524629
:1023F000C05D179990476D1C7F1C4F45F6DBE003CD
:102400000CD553462146179A039800F095F90544D8
:1024100004E030205246179990476D1C0099481EE1
:1024200000900029F5DC08E00298029952460078F5
:10243000491C0291179990476D1CBBF10001ABF14B
:10244000010BF1DC5BE100F065F90544761C3078A6
:1024500000287FF40DAE19B02846BDE8F08F0000CB
:10246000092801003031323334353637383961626A
:10247000636465660000000030313233343536372E
:10248000383941424344454600000000600700D40B
:10249000062708F1070020F00700F0E80223804635
:1024A00003F0004C5FEA0C0001D097A009E0200582
:1024B00001D596A005E0E00701D095A001E0AFF2BC
:1024C0004C001390307823F0004365280CD006DCD4
:1024D000452809D046281DD047287FD13BE06628F3
:1024E00018D067287AD136E00021112F01DB1120A6
:1024F00000E0781CCDE9000104A90CA8FFF7EEFC70
:10250000DDE90D010C9A4FF0000B07F10109109263
:1025100000914EE04FF000400097CDE9011004A972
:102520000CA8FFF7DBFCDDE90D020C9B0F994FF0C7
:10253000000B91461093009211B9791C00EB010930
:10254000B7EB090003D4C0F1FF3B07F10109A9EB88
:102550000700019042E0012F00DA01270021112F2E
:1025600001DD112000E03846CDE9000104A90CA8E6
:10257000FFF7B4FCDDE90D010C9A00914FF0000B60
:10258000B946109221070FD4009A4A4503DA9146C2
:1025900001E0A9F10109B9F1010F05DD109AA9F1D6
:1025A0000101515C3029F4D0B84202DA10F1040F75
:1025B00003DA0121CDE9011010E0002803DC834497
:1025C000A9EB000102E0411C494500DD8946A0EB72
:1025D0000B00401C01904FF000400290200705D4F2
:1025E0000198484502DB4FF0FF30019000208DF844
:1025F0004B0002980DF14B07B0F1004F25D002209F
:102600000C902B200D90029800280CDA404202908A
:102610002D200D9007E00A210298FDF7B1FF30311F
:10262000029007F8011D0C99481E0C900029F2DC5D
:1026300002980028EFD1791E0D980870307800F0CC
:10264000200040F0450007F8020D11A8C01BC01D76
:1026500002901398007800B1012000EB0901019865
:1026600001EBE071029801440398401A401E039068
:10267000E00306D453462146179A039800F05CF80D
:1026800005441398007818B15246179990476D1C6D
:10269000E00323D553462146179A039800F04CF8DF
:1026A00005441BE0BBF1000F07DB0098584504DD33
:1026B0001098179910F80B0001E017993020524636
:1026C000904701980BF1010B401E05F101050190A7
:1026D00004D12E205246179990476D1CB9F1000184
:1026E000A9F10109DEDC05E017F8010B5246179944
:1026F00090476D1C0299481E02900029F4DC534655
:102700002146179A03989EE62D0000002B0000003A
:10271000200000002DE9F041044600251E46174622
:10272000880404D405E039462020B0476D1C641E9F
:10273000F9D52846BDE8F0812DE9F0410446002591
:102740001E469046C80301D5302700E020278804A4
:1027500004D505E041463846B0476D1C641EF9D5E6
:102760002846BDE8F0810A68531C0B601070704762
:1027700000EB4001880000BF011EA0F10100FBD169
:102780007047A82141434FF0E0225161002191613F
:102790000521116100BF4FF0E021096901F480318A
:1027A0000029F8D004214FF0E022116170470000A9
:1027B00092B0A020FE49086001210420FEF7F6FC3B
:1027C0004FF44050109001208DF8440000208DF807
:1027D000460003208DF8450001208DF8470010A920
:1027E000F448FEF766FB00200F9009E0F0480088EF
:1027F00081B2F14A0F9822F810100F98401C0F90E8
:102800000F98C828F2DBFEF72BF9FEF7ADFE012189
:10281000EA48FEF7C7FEFEF7A9FCFEF767FD0020B9
:10282000FEF758FCFDF7F0FFE5480068E54948432E
:1028300001460F901020FEF73DF81021E248006895
:10284000FFF742F980B201460F901020FEF724F8FE
:1028500000211020FEF73CF8DC480068012818D160
:10286000DB480068D749484301460F902020FEF717
:1028700021F82021D7480068FFF726F980B20146E9
:102880000F902020FEF708F800212020FEF720F806
:1028900013E0CE48006880B9CD480068C949484374
:1028A00001460F902020FEF705F800212020FDF7BB
:1028B000F3FF00212020FEF70BF80020C649086036
:1028C000C6490860BE480068BE49484301460F90AB
:1028D0008020FDF7EFFFBC480068FFF759FA80B28F
:1028E00001460F908020FDF7D7FFBB480068BC4928
:1028F000096808440E90FEF75FF880B201460F9019
:102900008020FDF7E5FFB1480068012822D1B048DA
:102910000068AC49484301460F904020FDF7CAFFCC
:102920004021AC480068FFF7CFF880B201460F9015
:102930004020FDF7B1FFA8480068AA49096808448B
:102940000E90FEF739F880B201460F904020FDF757
:10295000BFFF1DE09D480068D0B99D4800689949B7
:10296000484301460F904020FDF7A4FF002140207E
:10297000FDF792FF984800689A49096808440E904C
:10298000FEF71AF880B201460F904020FDF7A0FF35
:10299000FEF7FEFA322001F0E1FA01208F490860CB
:1029A00001F0C0BA8948006800287DD18B49091D13
:1029B00008608D49C1F8B0028C480068002874D0C6
:1029C0007F4800688949096808447D4908600846CD
:1029D00000681E2802DA1E20086006E078480068B9
:1029E000282802DD2820764908607548016880A003
:1029F000FEF7DCFCFEF76FFC714800687149484344
:102A000001460F901020FDF755FF6F480068FFF753
:102A100051F90790FDF75EFD9FED780B53EC102BFD
:102A2000CDE908019DED080B51EC100BFDF771FC91
:102A3000CDE90A01734890ED000B53EC102B9DED8E
:102A40000A0B51EC100BFDF764FCCDE90C019DED78
:102A50000C0B51EC100BFDF75BFD80B201460F90A3
:102A60001020FDF719FF00211020FDF731FF544819
:102A700000685449484301460F908020FDF71AFF33
:102A800061480068FEF7BCF88DED0A0B4E480068FF
:102A9000FFF77EF90390FDF71DFD9FED580B53ECFA
:102AA000102BCDE9040101E0F8E33FE09DED040BBC
:102AB00051EC100BFDF72DFCCDE90601534890EDCC
:102AC000000B53EC102B9DED060B51EC100BFDF79A
:102AD00020FCCDE908019DED0A0B53EC102B9DED78
:102AE000080B51EC100BFDF786FCCDE90C019DEDB8
:102AF0000C0B51EC100BFDF70BFD80B201460F9053
:102B00008020FDF7C9FE344800683549096808444B
:102B10000E90FDF751FF80B201460F908020FDF727
:102B2000D7FEFEF735FA00203049086038480068C3
:102B300038B938480068012803D0374800680128B0
:102B400072D121480068324909680A2202FB01005B
:102B50001D4908600846006800EB800040000146FF
:102B60000F902EA0FEF722FCFEF7B5FB164800687A
:102B70000A2803DA0A201449086006E012480068AF
:102B8000642802DD6420104908600D4800680D4982
:102B9000484301460F901020FDF78CFE0A4800685C
:102BA000FFF788F80790FDF795FC9FED140B3CE0CC
:102BB000F003002000080240380000200008004018
:102BC0008C03002040420F00940300208803002063
:102BD0009003002098030020A4030020B00241428B
:102BE0009C030020A003002000004142700300204D
:102BF0006E302E76616C3D25640000000000000000
:102C00000000F03FC0030020A8030020D8030020EC
:102C100074030020AC030020B80300206E312E7630
:102C2000616C3D256400000076E053EC102BCDE98B
:102C300008019DED080B51EC100BFDF76AFBCDE987
:102C40000A01F84890ED000B53EC102B9DED0A0B98
:102C500051EC100BFDF75DFBCDE90C019DED0C0B6C
:102C600051EC100BFDF773FC80B201460F90102061
:102C7000FDF712FE00211020FDF72AFEEA48006849
:102C8000EA49484301460F908020FDF713FEE848CB
:102C90000068FFF77DF80790FDF71CFC1FED290B7E
:102CA00053EC102BCDE908019DED080B51EC100BF6
:102CB000FDF72FFBCDE90A01DE4890ED000B53EC48
:102CC000102B9DED0A0B51EC100BFDF722FBCDE90B
:102CD0000C019DED0C0B51EC100BFDF738FC80B294
:102CE00001460F908020FDF7D7FDD3480068D349F7
:102CF000096808440E90FDF75FFE80B201460F9010
:102D00008020FDF7E5FDFEF743F90020CC4908607F
:102D1000CC490860CC490860CC48006858B1CC4820
:102D20000068CA4909680A2202FB0100C849086014
:102D30000020C6490860C748006818B9C64800683E
:102D400000287CD0B8480068FDF7C4FB1FED550B88
:102D500053EC102BCDE900019DED000B51EC100B55
:102D6000FDF7D7FACDE902019DED020B53EC102BD4
:102D70009FEDBA0B51EC100BFDF73DFBCDE90601C1
:102D8000B4480068FDF7A6FB9FEDB60B53EC102B83
:102D9000CDE902019DED020B51EC100BFDF7B9FAE4
:102DA000CDE904019DED060B53EC102B9DED040BBA
:102DB00051EC100BFDF71FFB9FEDAC0B53EC102BF0
:102DC000CDE908019DED080B51EC100BFDF7A1FAC0
:102DD000CDE90C0199480068FDF77CFBCDE90A01BB
:102DE0009DED0C0B53EC102B9DED0A0B51EC100BD1
:102DF000FDF789FACDE90E019DED0E0B51EC100B9C
:102E0000FDF786FB8D49086087480068FDF762FB87
:102E10001FED860B53EC102BCDE900019DED000B4F
:102E200051EC100BFDF775FACDE902019DED020B97
:102E300053EC102B9FED890B51EC100B00E049E196
:102E4000FDF7D9FACDE9060183480068FDF742FB9A
:102E5000CDE904019DED060B53EC102B9DED040B09
:102E600051EC100BFDF7C7FA9FED800B53EC102BC4
:102E7000CDE908019DED080B51EC100BFDF749FA67
:102E8000CDE90C016D480068FDF724FBCDE90A018E
:102E90009DED0C0B53EC102B9DED0A0B51EC100B20
:102EA000FDF731FACDE90E019DED0E0B51EC100B43
:102EB000FDF72EFB6149086008460068002805DA26
:102EC0000846006800F5B47008600AE05B480068D6
:102ED000B0F5B47F05DD59480068A0F5B4705749D6
:102EE0000860514800685149484301460F908020CE
:102EF000FDF7E0FC5F480068FDF782FE8DED0A0BF0
:102F00004B480068FEF744FF0390FDF7E3FA1FED1E
:102F1000C50B53EC102BCDE904019DED040B51ECD6
:102F2000100BFDF7F6F9CDE90601424890ED000BD4
:102F300053EC102B9DED060B51EC100BFDF7E9F94E
:102F4000CDE908019DED0A0B53EC102B9DED080B0C
:102F500051EC100BFDF74FFACDE90C019DED0C0B78
:102F600051EC100BFDF7D4FA80B201460F9080208F
:102F7000FDF792FC304800683049096808440E901B
:102F8000FDF71AFD80B201460F908020FDF7A0FCEE
:102F900039480068012878D13848006823494843F7
:102FA00001460F904020FDF785FC29480068FEF798
:102FB000CBFE0790FDF78EFA1FEDF00B53EC102BB4
:102FC000CDE908019DED080B51EC100BFDF7A1F9BF
:102FD000CDE90A012A4890ED000B53EC102B9DED32
:102FE0000A0B51EC100BFDF794F9CDE90C019DEDA6
:102FF0000C0B51EC100BFDF7AAFA80B201460F90B2
:103000004020FDF749FC0C4800681E490968084447
:103010000E90FDF7D1FC80B201460F904020FDF7E5
:1030200057FC50E0C00300208C03002040420F00FA
:1030300094030020D8030020A40300209C03002058
:1030400074030020AC030020B803002078030020A4
:10305000980300207C030020E00300200000000013
:1030600000408F400000000000003E4000000000D3
:1030700000807640A80300208803002090030020F1
:10308000D0030020A0030020FFE7FB480068D0B970
:10309000FA480068FA49484301460F904020FDF77E
:1030A00009FC00214020FDF7F7FBF6480068F649CF
:1030B000096808440E90FDF77FFC80B201460F902E
:1030C0004020FDF705FCFDF763FF0020EF49086095
:1030D000EF490860EF48006818B9EF480068002819
:1030E0007ED0E8480068EB4909681E2202FB110007
:1030F000E449086008460068E7490968401AE14960
:10310000086008460068002805DA0846006800F5EF
:10311000B47008600AE0DB480068B0F5B47F05DDF4
:10312000D8480068A0F5B470D6490860DB4800684C
:10313000D349484301460F908020FDF7BBFBD84898
:103140000068FDF75DFD8DED0A0BD6480068FEF7BF
:103150001FFE0390FDF7BEF99FEDD30B53EC102B30
:10316000CDE904019DED040B51EC100BFDF7D1F8F6
:10317000CDE90601CE4890ED000B53EC102B9DEDF0
:10318000060B51EC100BFDF7C4F8CDE908019DEDDD
:103190000A0B53EC102B9DED080B51EC100BFDF7B7
:1031A0002AF9CDE90C019DED0C0B51EC100BFDF74C
:1031B000AFF980B201460F908020FDF76DFBB1485A
:1031C0000068BC49096808440E90FDF7F5FB80B221
:1031D00001460F908020FDF77BFBA848006800E0C7
:1031E00049E0A749484301460F904020FDF762FBA4
:1031F000B1480068FEF7A8FD0790FDF76BF99FED59
:10320000AA0B53EC102BCDE908019DED080B51ECF6
:10321000100BFDF77EF8CDE90A01A84890ED000BF0
:1032200053EC102B9DED0A0B51EC100BFDF771F8D0
:10323000CDE90C019DED0C0B51EC100BFDF768F97D
:1032400080B201460F904020FDF726FB8D480068B4
:103250008D49096808440E90FDF7AEFB80B2014627
:103260000F904020FDF734FBFDF792FE00208949C6
:1032700008608949086092480068002870D090482A
:1032800000688749096801EB4000854908600846E5
:103290000068002803DC0020086007E061E0804847
:1032A0000068142802DB14207D4908607B48006810
:1032B0007349484301460F908020FDF7FBFA784898
:1032C0000068FDF79DFC8DED0A0B76480068FEF75F
:1032D0005FFD0390FDF7FEF89FED730B53EC102B91
:1032E000CDE904019DED040B51EC100BFDF711F835
:1032F000CDE906016E4890ED000B53EC102B9DEDCF
:10330000060B51EC100BFDF704F8CDE908019DED1B
:103310000A0B53EC102B9DED080B51EC100BFDF735
:103320006AF8CDE90C019DED0C0B51EC100BFDF78B
:10333000EFF880B201460F908020FDF7ADFA5148BA
:1033400000685C49096808440E90FDF735FB80B2BF
:1033500001460F908020FDF7BBFA00205849086015
:10336000FDE3454800680128FAD1564908605649EE
:10337000C1F8B0025548006800287CD04748006872
:103380005249096808444549086008460168AFF297
:10339000A070FEF70BF8FDF79EFF404800681E285E
:1033A00003DA1E203D49086006E03C4800682828F2
:1033B00002DD282039490860384800683049484310
:1033C00001460F901020FDF775FA36480068FEF7A9
:1033D00071FC0790FDF77EF89FED330B53EC102B3B
:1033E000CDE908019DED080B51EC100BFCF791FFA6
:1033F000CDE90A01364890ED000B53EC102B9DED02
:103400000A0B51EC100BFCF784FFCDE90C019DED8C
:103410000C0B51EC100BFDF77BF880B201460F90BE
:103420001020FDF739FA00211020FDF751FA1B4852
:1034300000681349484301460F908020FDF73AFA8F
:1034400018480068FEF7A4FC0790FDF743F89FEDCD
:10345000160B53EC102BCDE908019DED080B51EC38
:10346000100BFCF756FFCDE90A01114890ED000B57
:1034700053EC102B2EE054E0880300209003002032
:1034800040420F00A4030020A00300207C03002082
:10349000E003002080030020E40300208C030020D0
:1034A000A803002094030020000000000000F03F6B
:1034B000D80300209C03002098030020D0030020A4
:1034C00084030020B4024142000041427003002006
:1034D000C00300209DED0A0B51EC100BFCF719FF07
:1034E000CDE90C019DED0C0B51EC100BFDF710F824
:1034F00080B201460F908020FDF7CEF9FE480068AB
:10350000FE49096808440E90FDF756FA80B201465C
:103510000F908020FDF7DCF9FDF73AFD0020F84917
:103520000860F848006838B9F7480068012803D0F7
:10353000F648006801287DD1F248006800EB800061
:10354000F349096801EB4000F1490860084600684A
:1035500000EB8000400001460F90AFF64010FDF7F1
:1035600025FFFDF7B8FEEA4800680A2803DA0A20BA
:10357000E749086006E0E6480068642802DD642048
:10358000E3490860E3480068E349484301460F9077
:103590001020FDF78FF9DE480068FEF78BFB0790DF
:1035A000FCF798FF1FED400B53EC102BCDE9080101
:1035B0009DED080B51EC100BFCF7ABFECDE90A01B9
:1035C000D64890ED000B53EC102B9DED0A0B51ECFF
:1035D000100BFCF79EFECDE90C019DED0C0B51ECA0
:1035E000100BFCF795FF80B201460F901020FDF7FD
:1035F00053F900211020FDF76BF9C6480068C64951
:10360000484301460F908020FDF754F9C0480068F8
:10361000FEF7BEFB0790FCF75DFF1FED5D0B53EC63
:10362000102BCDE908019DED080B51EC100BFCF7B8
:1036300070FE00E031E0CDE90A01B94890ED000BE1
:1036400053EC102B9DED0A0B51EC100BFCF761FEB7
:10365000CDE90C019DED0C0B51EC100BFCF758FF64
:1036600080B201460F908020FDF716F9A24800684D
:10367000A249096808440E90FDF79EF980B2014600
:103680000F908020FDF724F9FDF782FC00209D4972
:1036900008609D4908609D490860A248006838B9E3
:1036A000A1480068012803D0A048006801287DD106
:1036B0009F4800689B4909680A2202FB01009C4957
:1036C0000860084600681E2802DA1E20086006E02E
:1036D000974800685A2802DD5A20954908609548A5
:1036E000006801287ED1944800688B494843014610
:1036F0000F902020FDF7DEF88D480068FEF705FBEF
:103700000790FCF7E7FE1FED980B53EC102BCDE96B
:1037100008019DED080B51EC100BFCF7FAFDCDE90B
:103720000A01864890ED000B53EC102B9DED0A0B1F
:1037300051EC100BFCF7EDFDCDE90C019DED0C0BF0
:1037400051EC100BFCF7E4FE80B201460F902020F4
:10375000FDF7A2F800212020FDF7BAF876480068AE
:103760006D49484301460F904020FDF7A3F870488B
:103770000068FEF7E9FA0790FCF7ACFE1FEDB60B08
:1037800053EC102BCDE908019DED080B51EC100B0B
:10379000FCF7BFFDCDE90A01694890ED000B53EC41
:1037A000102B9DED0A0B51EC100B00E028E0FCF70C
:1037B000B0FDCDE90C019DED0C0B51EC100BFCF7AD
:1037C000A7FE80B201460F904020FDF765F84A48F9
:1037D00000685C49096808440E90FDF7EDF880B276
:1037E000014600E003E00F904020FDF771F8002053
:1037F0004C4908604C4908604C490860FDF7C8FB1B
:103800005148006818B951480068002872D04A48E9
:103810000068FCF75FFE1FEDDC0B53EC102BCDE9CD
:1038200000019DED000B51EC100BFCF772FDCDE992
:1038300002019DED020B53EC102B9FED450B51EC5B
:10384000100BFCF7D8FDCDE906013F480068FCF7F6
:1038500041FE9FED410B53EC102BCDE902019DED94
:10386000020B51EC100BFCF754FDCDE904019DED6A
:10387000060B53EC102B9DED040B51EC100BFCF7D9
:10388000BAFD9FED370B53EC102BCDE908019DEDF0
:10389000080B51EC100BFCF73CFDCDE90C0129485D
:1038A0000068FCF717FECDE90A019DED0C0B53EC07
:1038B000102B9DED0A0B51EC100BFCF724FDCDE90C
:1038C0000E019DED0E0B51EC100BFCF721FE1D4976
:1038D000086010480068FCF7FDFD9FED230B53ECDA
:1038E000102BCDE900019DED000B51EC100BFCF706
:1038F00010FD3DE0FBE10000A40300209C0300203C
:103900007003002074030020AC030020B8030020E3
:10391000940300208C03002040420F00C0030020CD
:10392000D803002078030020B0030020B403002057
:10393000980300208803002090030020C803002083
:10394000D0030020A00300207C030020E00300201F
:103950000000000000408F400000000000003E40DA
:103960000000000000807640000000000000F03FF2
:10397000CDE902019DED020B53EC102B1FED0C0B5A
:1039800051EC100BFCF737FDCDE90601FE4800684D
:10399000FCF7A0FD1FED100B53EC102BCDE902013D
:1039A0009DED020B51EC100BFCF7B3FCCDE90401CB
:1039B0009DED060B53EC102B9DED040B51EC100B01
:1039C000FCF719FD1FED1A0B53EC102BCDE9080184
:1039D0009DED080B51EC100BFCF79BFCCDE90C01A5
:1039E000EA480068FCF776FDCDE90A019DED0C0B75
:1039F00053EC102B9DED0A0B51EC100BFCF783FCE4
:103A0000CDE90E019DED0E0B51EC100BFCF780FD86
:103A1000DE490860DE480068FCF75CFD1FED2E0BF8
:103A200053EC102BCDE900019DED000B51EC100B78
:103A3000FCF76FFCCDE902019DED020B53EC102B5E
:103A40001FED3D0B51EC100BFCF7D5FCCDE9060149
:103A5000D0480068FCF73EFDCDE904019DED060B62
:103A600053EC102B9DED040B51EC100BFCF7C3FC39
:103A70001FED450B53EC102BCDE908019DED080B14
:103A800051EC100BFCF745FCCDE90C01C248006875
:103A9000FCF720FDCDE90A019DED0C0B53EC102B3A
:103AA0009DED0A0B51EC100BFCF72DFCCDE90E013E
:103AB0009DED0E0B51EC100BFCF72AFDB64908608A
:103AC000B6480068FCF706FD1FED590B53EC102BB0
:103AD000CDE900019DED000B51EC100BFCF719FC3A
:103AE000CDE902019DED020B53EC102B1FED680B8D
:103AF00051EC100BFCF77FFCCDE90601A5480068EE
:103B0000FCF7E8FCCDE904019DED060B53EC102B0E
:103B10009DED040B51EC100BFCF76DFC1FED700BD1
:103B200053EC102BCDE908019DED080B51EC100B67
:103B3000FCF7EFFBCDE90C0194480068FCF7CAFCE8
:103B4000CDE90A019DED0C0B53EC102B9DED0A0BFA
:103B500051EC100BFCF7D7FBCDE90E0100E0E1E1E1
:103B60009DED0E0B51EC100BFCF7D2FC8749086061
:103B700089480068002806DA8748006800F5B470B4
:103B8000854908600AE084480068B0F5B47F05DD27
:103B900081480068A0F5B4707F4908607B480068E0
:103BA000002806DA7948006800F5B47077490860A3
:103BB0000AE076480068B0F5B47F05DD7348006818
:103BC000A0F5B470714908607448006874494843AE
:103BD00001460F908020FCF76DFE72480068FEF7EA
:103BE000D7F80790FCF776FC1FEDA10B53EC102BD8
:103BF000CDE908019DED080B51EC100BFCF789FB9A
:103C0000CDE90A01684890ED000B53EC102B9DEDB7
:103C10000A0B51EC100BFCF77CFBCDE90C019DED80
:103C20000C0B51EC100BFCF773FC80B201460F90AB
:103C30008020FCF731FE5D4800685449096808445B
:103C40000E90FCF7B9FE80B201460F908020FCF781
:103C50003FFE57480068012844D14D48006850494C
:103C6000484301460F904020FCF724FE514800686D
:103C7000FEF76AF80790FCF72DFC1FEDC50B53EC1F
:103C8000102BCDE908019DED080B51EC100BFCF752
:103C900040FBCDE90A01484890ED000B53EC102B96
:103CA0009DED0A0B51EC100BFCF733FBCDE90C0139
:103CB0009DED0C0B51EC100BFCF72AFC80B2014679
:103CC0000F904020FCF7E8FD384800683249096849
:103CD00008440E90FCF770FE80B201460F90402021
:103CE000FCF7F6FDFDF754F900202749086033483A
:103CF000006818B932480068002844D02B48006892
:103D00002E4909681E2202FB010028490860084666
:103D100000682B490968401A244908600846006871
:103D2000002805DA0846006800F5B47008600AE06B
:103D30001E480068B0F5B47F05DD1C480068A0F59A
:103D4000B4701A490860154800681549484301468F
:103D50000F908020FCF7AEFD12480068FEF718F8BF
:103D60000790FCF7B7FB9FED170B53EC102BCDE939
:103D700008019DED080B51EC100BFCF7CAFACDE9D8
:103D80000A01094822E093E07C0300209C03002004
:103D900090030020E0030020A00300208C030020FB
:103DA00040420F0094030020D8030020A403002009
:103DB0008803002098030020D00300208003002007
:103DC000E4030020000000000000F03F90ED000B35
:103DD00053EC102B9DED0A0B51EC100BFCF799FAEC
:103DE000CDE90C019DED0C0B51EC100BFCF790FB99
:103DF00080B201460F908020FCF74EFD4A480068D3
:103E00004A49096808440E90FCF7D6FD80B2014685
:103E10000F908020FCF75CFD454800684549484309
:103E200001460F904020FCF745FD43480068FDF730
:103E30008BFF0790FCF74EFB1FED1E0B53EC102B76
:103E4000CDE908019DED080B51EC100BFCF761FA70
:103E5000CDE90A01394890ED000B53EC102B9DED94
:103E60000A0B51EC100BFCF754FACDE90C019DED57
:103E70000C0B51EC100BFCF74BFB80B201460F9082
:103E80004020FCF709FD284800682D4909680844CE
:103E90000E90FCF791FD80B201460F904020FCF798
:103EA00017FDFDF775F800202649086026490860CF
:103EB0002648006818B926480068012832D02548ED
:103EC000006822490968022202FB010021490860BA
:103ED00008460068FCF7BEFF1F490968084400282F
:103EE00003DA0020FDF7F6F817E01A480068FCF73F
:103EF000B1FF1949096808443F2803DD3F20FDF759
:103F0000E9F80AE013480068FCF7A4FF12490978B1
:103F10000844C0B20F90FDF7DDF800200B4908609F
:103F20000B490860FEF73EBDA40300209C0300205F
:103F30009003002040420F0098030020D00300208F
:103F4000A003002080030020E4030020840300205D
:103F5000E8030020A8030020EC03002000B532286D
:103F600002DC00F089F815E0502802DC00F08AF845
:103F700010E06E2802DC00F00EF80BE08C2802DC6A
:103F800000F01CF806E0AA2802DC00F030F801E09E
:103F900000F04CF800BD00BF00BF00BF00BF00BF75
:103FA00000BF00BF00BF00BF00BF00BF00BF00BF19
:103FB00000BF00BF00BF00BF00BF704700BF00BF11
:103FC00000BF00BF00BF00BF00BF00BF00BF00BFF9
:103FD00000BF00BF00BF00BF00BF00BF00BF00BFE9
:103FE00000BF00BF00BF00BF00BF00BF704700BFE1
:103FF00000BF00BF00BF00BF00BF00BF00BF00BFC9
:1040000000BF00BF00BF00BF00BF00BF00BF00BFB8
:1040100000BF00BF00BF00BF00BF00BF00BF00BFA8
:1040200000BF00BF00BF00BF00BF704700BF00BFA0
:1040300000BF00BF00BF00BF00BF00BF00BF00BF88
:1040400000BF00BF00BF00BF00BF00BF00BF00BF78
:1040500000BF00BF00BF00BF00BF00BF00BF00BF68
:1040600000BF00BF00BF00BF00BF00BF00BF00BF58
:1040700000BF00BF00BF704700BF00BF00BF00BF50
:1040800000BF704700BF00BF00BF00BF00BF00BF40
:1040900000BF00BF00BF00BF00BF00BF70470000EF
:1040A000C040000800000020F4030000B007000832
:1040B000EC410008F403002004900000CC1E00082E
:1040C000412D0102030404360607080901320A32B1
:1040D0006423E80323102714A086011440420F2410
:1040E00080969844E1F50518325E08BC08190975F8
:1040F00009D009280A7F0AD30A240B720BBC0B03D0
:104100000C450C840CBE0CF20C220D4D0D730D935E
:104110000DAD0DC10DD00DD90DDC041AD00C1AADAA
:10412000141A731C1C220DF2281A84301C030CBCB8
:104130003C1C240BD3481C280AD054171909BC086E
:104140005E08183308A2074407E7068B063006D836
:104150000581052D05DC048E044404FD03BB037CAE
:104160000342030E03DE02B3028D026D0253023FCF
:10417000023002270224041A300C1A53141A8D1C20
:104180001CDE020E281A7C301CFD03443C1CDC049F
:104190002D481CD805305417E7064407A2071968B4
:1041A00009C4C80815FDBE0CD0093006420324021C
:1041B00042033006D009BE0CDC0D14097B1472D00A
:1041C000100995D626E80B2E214003210302322345
:1041D0002926323202133CDA0104A163F83F3CF095
:0C41E0003F66017AE61001101A6F6100C2
:04000005080001A14D
:00000001FF
